{
  "abi": [
    {
      "inputs": [
        {
          "internalType": "address",
          "name": "_oracle",
          "type": "address"
        },
        {
          "internalType": "int256",
          "name": "_priceSimulation",
          "type": "int256"
        }
      ],
      "stateMutability": "nonpayable",
      "type": "constructor"
    },
    {
      "inputs": [],
      "name": "decimals",
      "outputs": [
        {
          "internalType": "uint8",
          "name": "",
          "type": "uint8"
        }
      ],
      "stateMutability": "view",
      "type": "function"
    },
    {
      "inputs": [],
      "name": "latestRoundData",
      "outputs": [
        {
          "internalType": "uint80",
          "name": "roundID1",
          "type": "uint80"
        },
        {
          "internalType": "int256",
          "name": "nowPrice1",
          "type": "int256"
        },
        {
          "internalType": "uint256",
          "name": "startedAt1",
          "type": "uint256"
        },
        {
          "internalType": "uint256",
          "name": "timeStamp1",
          "type": "uint256"
        },
        {
          "internalType": "uint80",
          "name": "answeredInRound1",
          "type": "uint80"
        }
      ],
      "stateMutability": "view",
      "type": "function"
    },
    {
      "inputs": [],
      "name": "oracle",
      "outputs": [
        {
          "internalType": "address",
          "name": "",
          "type": "address"
        }
      ],
      "stateMutability": "view",
      "type": "function"
    },
    {
      "inputs": [],
      "name": "priceFeed",
      "outputs": [
        {
          "internalType": "contract AggregatorV3Interface",
          "name": "",
          "type": "address"
        }
      ],
      "stateMutability": "view",
      "type": "function"
    },
    {
      "inputs": [],
      "name": "priceSimulation",
      "outputs": [
        {
          "internalType": "int256",
          "name": "",
          "type": "int256"
        }
      ],
      "stateMutability": "view",
      "type": "function"
    }
  ],
  "bytecode": {
    "object": "0x608060405234801561001057600080fd5b5060405161041338038061041383398101604081905261002f91610142565b6001600160a01b0382166100935760405162461bcd60e51b815260206004820152602160248201527f6f7261636c652063616e6e6f7420626520746865207a65726f206164647265736044820152607360f81b606482015260840160405180910390fd5b600080546001600160a01b0384166001600160a01b03199182168117909255600180549091168217905560028290556040805163313ce56760e01b8152905163313ce567916004808201926020929091908290030181865afa1580156100fd573d6000803e3d6000fd5b505050506040513d601f19601f82011682018060405250810190610121919061017c565b600160146101000a81548160ff021916908360ff16021790555050506101a6565b6000806040838503121561015557600080fd5b82516001600160a01b038116811461016c57600080fd5b6020939093015192949293505050565b60006020828403121561018e57600080fd5b815160ff8116811461019f57600080fd5b9392505050565b61025e806101b56000396000f3fe608060405234801561001057600080fd5b50600436106100575760003560e01c8063313ce5671461005c5780634d9fd32714610087578063741bef1a1461009e5780637dc0d1d0146100c9578063feaf968c146100dc575b600080fd5b60015461007090600160a01b900460ff1681565b60405160ff90911681526020015b60405180910390f35b61009060025481565b60405190815260200161007e565b6001546100b1906001600160a01b031681565b6040516001600160a01b03909116815260200161007e565b6000546100b1906001600160a01b031681565b6100e461011b565b6040805169ffffffffffffffffffff968716815260208101959095528401929092526060830152909116608082015260a00161007e565b6000806000806000806000806000600160009054906101000a90046001600160a01b03166001600160a01b031663feaf968c6040518163ffffffff1660e01b815260040160a060405180830381865afa15801561017c573d6000803e3d6000fd5b505050506040513d601f19601f820116820180604052508101906101a091906101d8565b600254949e949d50919b50995097509095505050505050565b805169ffffffffffffffffffff811681146101d357600080fd5b919050565b600080600080600060a086880312156101f057600080fd5b6101f9866101b9565b945060208601519350604086015192506060860151915061021c608087016101b9565b9050929550929590935056fea2646970667358221220a401661a0f0b1526751353e5597051e66779dfdc6f1512c9ac1b4b631d7b791c64736f6c634300080f0033",
    "linkReferences": {}
  },
  "methodIdentifiers": {
    "decimals()": "313ce567",
    "latestRoundData()": "feaf968c",
    "oracle()": "7dc0d1d0",
    "priceFeed()": "741bef1a",
    "priceSimulation()": "4d9fd327"
  },
  "id": 28
}