{
  "abi": [
    {
      "inputs": [
        {
          "internalType": "address",
          "name": "_oracle1",
          "type": "address"
        },
        {
          "internalType": "address",
          "name": "_oracle2",
          "type": "address"
        }
      ],
      "stateMutability": "nonpayable",
      "type": "constructor"
    },
    {
      "inputs": [],
      "name": "getOracle1_Price",
      "outputs": [
        {
          "internalType": "int256",
          "name": "price",
          "type": "int256"
        }
      ],
      "stateMutability": "view",
      "type": "function"
    },
    {
      "inputs": [],
      "name": "getOracle2_Price",
      "outputs": [
        {
          "internalType": "int256",
          "name": "price",
          "type": "int256"
        }
      ],
      "stateMutability": "view",
      "type": "function"
    },
    {
      "inputs": [],
      "name": "latestRoundData",
      "outputs": [
        {
          "internalType": "uint80",
          "name": "roundID",
          "type": "uint80"
        },
        {
          "internalType": "int256",
          "name": "nowPrice",
          "type": "int256"
        },
        {
          "internalType": "uint256",
          "name": "startedAt",
          "type": "uint256"
        },
        {
          "internalType": "uint256",
          "name": "timeStamp",
          "type": "uint256"
        },
        {
          "internalType": "uint80",
          "name": "answeredInRound",
          "type": "uint80"
        }
      ],
      "stateMutability": "view",
      "type": "function"
    },
    {
      "inputs": [],
      "name": "oracle1",
      "outputs": [
        {
          "internalType": "address",
          "name": "",
          "type": "address"
        }
      ],
      "stateMutability": "view",
      "type": "function"
    },
    {
      "inputs": [],
      "name": "oracle2",
      "outputs": [
        {
          "internalType": "address",
          "name": "",
          "type": "address"
        }
      ],
      "stateMutability": "view",
      "type": "function"
    }
  ],
  "bytecode": {
    "object": "0x6080346101805761075b90601f38839003908101601f19168201906001600160401b03821183831017610185578083916040958694855283398101031261018057610055602061004e8361019b565b920161019b565b6001600160a01b039182169190821561013157169081156100e25781811461009e5760018060a01b0319908160005416176000556001541617600155516105ab90816101b08239f35b825162461bcd60e51b815260206004820152601560248201527f43616e6e6f742062652073616d65204f7261636c6500000000000000000000006044820152606490fd5b825162461bcd60e51b815260206004820152602260248201527f6f7261636c65322063616e6e6f7420626520746865207a65726f206164647265604482015261737360f01b6064820152608490fd5b835162461bcd60e51b815260206004820152602260248201527f6f7261636c65312063616e6e6f7420626520746865207a65726f206164647265604482015261737360f01b6064820152608490fd5b600080fd5b634e487b7160e01b600052604160045260246000fd5b51906001600160a01b03821682036101805756fe608060409080825260048036101561001657600080fd5b600091823560e01c908163391fb8881461034f57508063747a0c3a14610327578063996f7d3a146102fe578063d6b7ec331461023f5763feaf968c1461005b57600080fd5b3461023b578160031936011261023b5760018060a01b039081835416928451948592633fabe5a360e21b95868552848260a0998a935afa95861561022f57838081958297839a610200575b506100b2838313610436565b8a69ffffffffffffffffffff808093169b16996100d18c8c1015610479565b6100dc8a15156104c4565b60015416948688518097819382525afa9081156101f657908b91848596869487946101a4575b50509261012b61013d95938361013294610137976101218b8d13610436565b1691161015610479565b15156104c4565b610503565b92610503565b92831561019157600160ff1b831460001985141661017e57505090683635c9adc5dea000009183519788520505602086015284015260608301526080820152f35b634e487b7160e01b825260119052602490fd5b634e487b7160e01b825260129052602490fd5b839850610137955061013d96945061013293925061012b91816101db92903d106101ef575b6101d381836103ad565b810190610401565b929b5096985095965094509192508e610102565b503d6101c9565b86513d85823e3d90fd5b9399505050935061021f919450873d89116101ef576101d381836103ad565b98909691959193909290386100a6565b505051903d90823e3d90fd5b5080fd5b50913461023b578160031936011261023b576001548151633fabe5a360e21b81529360a09185919082906001600160a01b03165afa9283156102f3576020938384809381936102bb575b509161012b9161029e6102b595948813610436565b69ffffffffffffffffffff80911691161015610479565b51908152f35b61029e96506102b594506102e391935061012b925060a03d81116101ef576101d381836103ad565b9298509550909391929050610289565b5051903d90823e3d90fd5b82843461023b578160031936011261023b5760015490516001600160a01b039091168152602090f35b82843461023b578160031936011261023b57905490516001600160a01b039091168152602090f35b838584346103a957826003193601126103a9578254633fabe5a360e21b855260a091859182906001600160a01b03165afa9283156102f3576020938384809381936102bb57509161012b9161029e6102b595948813610436565b8280fd5b90601f8019910116810190811067ffffffffffffffff8211176103cf57604052565b634e487b7160e01b600052604160045260246000fd5b519069ffffffffffffffffffff821682036103fc57565b600080fd5b908160a09103126103fc57610415816103e5565b916020820151916040810151916104336080606084015193016103e5565b90565b1561043d57565b60405162461bcd60e51b81526020600482015260146024820152730436861696e6c696e6b207072696365203c3d20360641b6044820152606490fd5b1561048057565b606460405162461bcd60e51b815260206004820152602060248201527f526f756e6449442066726f6d204f7261636c65206973206f75746461746564216044820152fd5b156104cb57565b60405162461bcd60e51b815260206004820152601060248201526f54696d657374616d70203d3d2030202160801b6044820152606490fd5b6000600177025c768141d369efbb4fdbf05baf29780d19fbb345317aa3831182841316166105615780821277025c768141d369efbb4fdbf05baf29780d19fbb345317aa2198312166001166105615750683635c9adc5dea000000290565b634e487b7160e01b81526011600452602490fdfea26469706673582212204371336b8191470fe4a7878df64721085ee80ef09c21b4db063508aec5d5ca2d64736f6c634300080f0033",
    "linkReferences": {}
  },
  "methodIdentifiers": {
    "getOracle1_Price()": "391fb888",
    "getOracle2_Price()": "d6b7ec33",
    "latestRoundData()": "feaf968c",
    "oracle1()": "747a0c3a",
    "oracle2()": "996f7d3a"
  },
  "id": 30
}