{
  "abi": [
    {
      "inputs": [
        {
          "internalType": "address",
          "name": "_oracle1",
          "type": "address"
        },
        {
          "internalType": "address",
          "name": "_oracle2",
          "type": "address"
        }
      ],
      "stateMutability": "nonpayable",
      "type": "constructor"
    },
    {
      "inputs": [],
      "name": "decimals",
      "outputs": [
        {
          "internalType": "uint8",
          "name": "",
          "type": "uint8"
        }
      ],
      "stateMutability": "view",
      "type": "function"
    },
    {
      "inputs": [],
      "name": "getOracle1_Price",
      "outputs": [
        {
          "internalType": "int256",
          "name": "price",
          "type": "int256"
        }
      ],
      "stateMutability": "view",
      "type": "function"
    },
    {
      "inputs": [],
      "name": "getOracle2_Price",
      "outputs": [
        {
          "internalType": "int256",
          "name": "price",
          "type": "int256"
        }
      ],
      "stateMutability": "view",
      "type": "function"
    },
    {
      "inputs": [],
      "name": "latestRoundData",
      "outputs": [
        {
          "internalType": "uint80",
          "name": "roundID",
          "type": "uint80"
        },
        {
          "internalType": "int256",
          "name": "nowPrice",
          "type": "int256"
        },
        {
          "internalType": "uint256",
          "name": "startedAt",
          "type": "uint256"
        },
        {
          "internalType": "uint256",
          "name": "timeStamp",
          "type": "uint256"
        },
        {
          "internalType": "uint80",
          "name": "answeredInRound",
          "type": "uint80"
        }
      ],
      "stateMutability": "view",
      "type": "function"
    },
    {
      "inputs": [],
      "name": "oracle1",
      "outputs": [
        {
          "internalType": "address",
          "name": "",
          "type": "address"
        }
      ],
      "stateMutability": "view",
      "type": "function"
    },
    {
      "inputs": [],
      "name": "oracle2",
      "outputs": [
        {
          "internalType": "address",
          "name": "",
          "type": "address"
        }
      ],
      "stateMutability": "view",
      "type": "function"
    }
  ],
  "bytecode": {
    "object": "0x6080604090808252346200030457818162000a35803803809162000024828562000309565b83398101031262000304576200003a8162000343565b906200004a602080920162000343565b6001600160a01b0392831692908315620002b5571690811562000267578183146200022457600280546001600160a01b0319908116851790915560038054821684179055845163313ce56760e01b808252919491908381600481865afa9081156200021957600091620001f7575b5086518281528481600481895afa908115620001ec5760ff918291600091620001ca575b501691160362000186578290828660005416176000558460015496871617600155600487518094819382525afa9182156200017b5760009262000147575b50506001600160a81b03199092161760a09190911b60ff60a01b1617600155516106c19081620003748239f35b6200016b9250803d1062000173575b62000162818362000309565b81019062000358565b38806200011a565b503d62000156565b85513d6000823e3d90fd5b855162461bcd60e51b815260048101849052601960248201527f446563696d616c73206d757374206265207468652073616d65000000000000006044820152606490fd5b620001e59150873d8911620001735762000162818362000309565b38620000dc565b88513d6000823e3d90fd5b620002129150843d8611620001735762000162818362000309565b38620000b8565b87513d6000823e3d90fd5b60649084519062461bcd60e51b82526004820152601560248201527f43616e6e6f742062652073616d65204f7261636c6500000000000000000000006044820152fd5b60849084519062461bcd60e51b82526004820152602260248201527f6f7261636c65322063616e6e6f7420626520746865207a65726f206164647265604482015261737360f01b6064820152fd5b845162461bcd60e51b815260048101849052602260248201527f6f7261636c65312063616e6e6f7420626520746865207a65726f206164647265604482015261737360f01b6064820152608490fd5b600080fd5b601f909101601f19168101906001600160401b038211908210176200032d57604052565b634e487b7160e01b600052604160045260246000fd5b51906001600160a01b03821682036200030457565b9081602091031262000304575160ff8116810362000304579056fe60806040908082526004918236101561001757600080fd5b600091823560e01c908163313ce567146103c957508063391fb88814610304578063747a0c3a146102dd578063996f7d3a146102b5578063d6b7ec33146102925763feaf968c1461006757600080fd5b3461021a578160031936011261021a576002548151633fabe5a360e21b81526001600160a01b03909116929060a0818681875afa9182156102875780938187819382958397610242575b506020906100bd610601565b8082131561023057906100d26100d792610474565b6104ed565b985b845163313ce56760e01b815292839182905afa80156102265782906101e6575b60ff915016806012106101d35760120360ff16604d81116101d357600a0a908088138183136001600160ff1b038282168582048c11166101ad57600160ff1b92848612929083168c85058712166101c05785858d1294058c12908416166101ad578490058a1291161661019a575060a09750620f42409082519769ffffffffffffffffffff8098168952020560208701528501526060840152166080820152f35b634e487b7160e01b815260118952602490fd5b634e487b7160e01b845260118c52602484fd5b634e487b7160e01b855260118d52602485fd5b634e487b7160e01b825260118952602482fd5b506020813d821161021e575b816101ff602093836103eb565b8101031261021a575160ff8116810361021a5760ff906100f9565b5080fd5b3d91506101f2565b83513d84823e3d90fd5b6100d261023c92610474565b986100d9565b92975050945061026e9193506020925060a03d8111610280575b61026681836103eb565b81019061043f565b939793969095919491939290916100b1565b503d61025c565b8351903d90823e3d90fd5b503461021a578160031936011261021a576020906102ae610601565b9051908152f35b503461021a578160031936011261021a5760015490516001600160a01b039091168152602090f35b503461021a578160031936011261021a57905490516001600160a01b039091168152602090f35b503461021a578160031936011261021a576002548151633fabe5a360e21b81529360a09185919082906001600160a01b03165afa9283156103be57602093838480938193610386575b50916103799161036261038095948813610534565b69ffffffffffffffffffff80911691161015610577565b15156105c2565b51908152f35b610362965061038094506103ae919350610379925060a03d81116102805761026681836103eb565b929850955090939192905061034d565b5051903d90823e3d90fd5b83903461021a578160031936011261021a5760209060ff60015460a01c168152f35b90601f8019910116810190811067ffffffffffffffff82111761040d57604052565b634e487b7160e01b600052604160045260246000fd5b519069ffffffffffffffffffff8216820361043a57565b600080fd5b908160a091031261043a5761045381610423565b91602082015191604081015191610471608060608401519301610423565b90565b600060017e0346dc5d63886594af4f0d844d013a92a305532617c1bda5119ce075f6fd21831182841316166104d95760017ffffcb923a29c779a6b50b0f27bb2fec56d5cfaacd9e83e425aee631f8a0902df831282841216166104d957506127100290565b634e487b7160e01b81526011600452602490fd5b811561051e57600160ff1b8114600019831416610508570590565b634e487b7160e01b600052601160045260246000fd5b634e487b7160e01b600052601260045260246000fd5b1561053b57565b60405162461bcd60e51b81526020600482015260146024820152730436861696e6c696e6b207072696365203c3d20360641b6044820152606490fd5b1561057e57565b606460405162461bcd60e51b815260206004820152602060248201527f526f756e6449442066726f6d204f7261636c65206973206f75746461746564216044820152fd5b156105c957565b60405162461bcd60e51b815260206004820152601060248201526f54696d657374616d70203d3d2030202160801b6044820152606490fd5b600354604051633fabe5a360e21b81529060a090829060049082906001600160a01b03165afa801561067f5760008091818091610650575b839450906103799161036260006104719613610534565b505050506104716106716103799260a03d81116102805761026681836103eb565b929550859450929050610639565b6040513d6000823e3d90fdfea2646970667358221220b6b5162a59214ef887823bc5c798ac40aba53eed3c17d88853dde3acd390727f64736f6c634300080f0033",
    "linkReferences": {}
  },
  "methodIdentifiers": {
    "decimals()": "313ce567",
    "getOracle1_Price()": "391fb888",
    "getOracle2_Price()": "d6b7ec33",
    "latestRoundData()": "feaf968c",
    "oracle1()": "747a0c3a",
    "oracle2()": "996f7d3a"
  },
  "id": 33
}