{
  "abi": [
    {
      "inputs": [
        {
          "internalType": "address",
          "name": "_oracle1",
          "type": "address"
        },
        {
          "internalType": "address",
          "name": "_oracle2",
          "type": "address"
        }
      ],
      "stateMutability": "nonpayable",
      "type": "constructor"
    },
    {
      "inputs": [],
      "name": "decimals",
      "outputs": [
        {
          "internalType": "uint8",
          "name": "",
          "type": "uint8"
        }
      ],
      "stateMutability": "view",
      "type": "function"
    },
    {
      "inputs": [],
      "name": "getOracle1_Price",
      "outputs": [
        {
          "internalType": "int256",
          "name": "price",
          "type": "int256"
        }
      ],
      "stateMutability": "view",
      "type": "function"
    },
    {
      "inputs": [],
      "name": "getOracle2_Price",
      "outputs": [
        {
          "internalType": "int256",
          "name": "price",
          "type": "int256"
        }
      ],
      "stateMutability": "view",
      "type": "function"
    },
    {
      "inputs": [],
      "name": "latestRoundData",
      "outputs": [
        {
          "internalType": "uint80",
          "name": "roundID",
          "type": "uint80"
        },
        {
          "internalType": "int256",
          "name": "nowPrice",
          "type": "int256"
        },
        {
          "internalType": "uint256",
          "name": "startedAt",
          "type": "uint256"
        },
        {
          "internalType": "uint256",
          "name": "timeStamp",
          "type": "uint256"
        },
        {
          "internalType": "uint80",
          "name": "answeredInRound",
          "type": "uint80"
        }
      ],
      "stateMutability": "view",
      "type": "function"
    },
    {
      "inputs": [],
      "name": "oracle1",
      "outputs": [
        {
          "internalType": "address",
          "name": "",
          "type": "address"
        }
      ],
      "stateMutability": "view",
      "type": "function"
    },
    {
      "inputs": [],
      "name": "oracle2",
      "outputs": [
        {
          "internalType": "address",
          "name": "",
          "type": "address"
        }
      ],
      "stateMutability": "view",
      "type": "function"
    }
  ],
  "bytecode": {
    "object": "0x608060405234801561001057600080fd5b50604051610b4c380380610b4c83398101604081905261002f9161037f565b6001600160a01b0382166100955760405162461bcd60e51b815260206004820152602260248201527f6f7261636c65312063616e6e6f7420626520746865207a65726f206164647265604482015261737360f01b60648201526084015b60405180910390fd5b6001600160a01b0381166100f65760405162461bcd60e51b815260206004820152602260248201527f6f7261636c65322063616e6e6f7420626520746865207a65726f206164647265604482015261737360f01b606482015260840161008c565b806001600160a01b0316826001600160a01b0316036101575760405162461bcd60e51b815260206004820152601560248201527f43616e6e6f742062652073616d65204f7261636c650000000000000000000000604482015260640161008c565b600280546001600160a01b038085166001600160a01b0319928316179092556003805492841692909116821790556040805163313ce56760e01b8152905163313ce567916004808201926020929091908290030181865afa1580156101c0573d6000803e3d6000fd5b505050506040513d601f19601f820116820180604052508101906101e491906103b2565b60ff16600260009054906101000a90046001600160a01b03166001600160a01b031663313ce5676040518163ffffffff1660e01b8152600401602060405180830381865afa15801561023a573d6000803e3d6000fd5b505050506040513d601f19601f8201168201806040525081019061025e91906103b2565b60ff16146102ae5760405162461bcd60e51b815260206004820152601960248201527f446563696d616c73206d757374206265207468652073616d6500000000000000604482015260640161008c565b600080546001600160a01b038085166001600160a01b0319928316179092556001805484841692169190911790556002546040805163313ce56760e01b81529051919092169163313ce5679160048083019260209291908290030181865afa15801561031e573d6000803e3d6000fd5b505050506040513d601f19601f8201168201806040525081019061034291906103b2565b600160146101000a81548160ff021916908360ff16021790555050506103dc565b80516001600160a01b038116811461037a57600080fd5b919050565b6000806040838503121561039257600080fd5b61039b83610363565b91506103a960208401610363565b90509250929050565b6000602082840312156103c457600080fd5b815160ff811681146103d557600080fd5b9392505050565b610761806103eb6000396000f3fe608060405234801561001057600080fd5b50600436106100625760003560e01c8063313ce56714610067578063391fb88814610092578063747a0c3a146100a8578063996f7d3a146100d3578063d6b7ec33146100e6578063feaf968c146100ee575b600080fd5b60015461007b90600160a01b900460ff1681565b60405160ff90911681526020015b60405180910390f35b61009a61012d565b604051908152602001610089565b6000546100bb906001600160a01b031681565b6040516001600160a01b039091168152602001610089565b6001546100bb906001600160a01b031681565b61009a6102b5565b6100f6610310565b6040805169ffffffffffffffffffff968716815260208101959095528401929092526060830152909116608082015260a001610089565b6000806000806000600260009054906101000a90046001600160a01b03166001600160a01b031663feaf968c6040518163ffffffff1660e01b815260040160a060405180830381865afa158015610188573d6000803e3d6000fd5b505050506040513d601f19601f820116820180604052508101906101ac91906104c2565b945094505093509350600083136102015760405162461bcd60e51b81526020600482015260146024820152730436861696e6c696e6b207072696365203c3d20360641b60448201526064015b60405180910390fd5b8369ffffffffffffffffffff168169ffffffffffffffffffff1610156102695760405162461bcd60e51b815260206004820181905260248201527f526f756e6449442066726f6d204f7261636c65206973206f757464617465642160448201526064016101f8565b816000036102ac5760405162461bcd60e51b815260206004820152601060248201526f54696d657374616d70203d3d2030202160801b60448201526064016101f8565b50909392505050565b6000806000806000600360009054906101000a90046001600160a01b03166001600160a01b031663feaf968c6040518163ffffffff1660e01b815260040160a060405180830381865afa158015610188573d6000803e3d6000fd5b600080600080600080600080600080600260009054906101000a90046001600160a01b03166001600160a01b031663feaf968c6040518163ffffffff1660e01b815260040160a060405180830381865afa158015610372573d6000803e3d6000fd5b505050506040513d601f19601f8201168201806040525081019061039691906104c2565b9450945094509450945060006103aa6102b5565b9050808513156103d257846103c182612710610528565b6103cb91906105ad565b99506103ec565b806103df86612710610528565b6103e991906105ad565b99505b6002546040805163313ce56760e01b815290516000926001600160a01b03169163313ce5679160048083019260209291908290030181865afa158015610436573d6000803e3d6000fd5b505050506040513d601f19601f8201168201806040525081019061045a91906105e9565b610465906012610613565b61047090600a61071c565b905061047c818c610528565b9a508661048c620f42408d6105ad565b909d909c50949a5092985090965091945050505050565b805169ffffffffffffffffffff811681146104bd57600080fd5b919050565b600080600080600060a086880312156104da57600080fd5b6104e3866104a3565b9450602086015193506040860151925060608601519150610506608087016104a3565b90509295509295909350565b634e487b7160e01b600052601160045260246000fd5b60006001600160ff1b038184138284138082168684048611161561054e5761054e610512565b600160ff1b600087128281168783058912161561056d5761056d610512565b6000871292508782058712848416161561058957610589610512565b8785058712818416161561059f5761059f610512565b505050929093029392505050565b6000826105ca57634e487b7160e01b600052601260045260246000fd5b600160ff1b8214600019841416156105e4576105e4610512565b500590565b6000602082840312156105fb57600080fd5b815160ff8116811461060c57600080fd5b9392505050565b600060ff821660ff84168082101561062d5761062d610512565b90039392505050565b600181815b8085111561067157816000190482111561065757610657610512565b8085161561066457918102915b93841c939080029061063b565b509250929050565b60008261068857506001610716565b8161069557506000610716565b81600181146106ab57600281146106b5576106d1565b6001915050610716565b60ff8411156106c6576106c6610512565b50506001821b610716565b5060208310610133831016604e8410600b84101617156106f4575081810a610716565b6106fe8383610636565b806000190482111561071257610712610512565b0290505b92915050565b600061060c60ff84168361067956fea26469706673582212207049e0a520481cbf09668630eb05fa5d2455e09a3f00872ce450565d5e6309aa64736f6c634300080f0033",
    "linkReferences": {}
  },
  "methodIdentifiers": {
    "decimals()": "313ce567",
    "getOracle1_Price()": "391fb888",
    "getOracle2_Price()": "d6b7ec33",
    "latestRoundData()": "feaf968c",
    "oracle1()": "747a0c3a",
    "oracle2()": "996f7d3a"
  },
  "id": 31
}