{
  "abi": [
    {
      "inputs": [
        {
          "internalType": "address",
          "name": "_oracle1",
          "type": "address"
        },
        {
          "internalType": "address",
          "name": "_oracle2",
          "type": "address"
        }
      ],
      "stateMutability": "nonpayable",
      "type": "constructor"
    },
    {
      "inputs": [],
      "name": "getOracle1_Price",
      "outputs": [
        {
          "internalType": "int256",
          "name": "price",
          "type": "int256"
        }
      ],
      "stateMutability": "view",
      "type": "function"
    },
    {
      "inputs": [],
      "name": "getOracle2_Price",
      "outputs": [
        {
          "internalType": "int256",
          "name": "price",
          "type": "int256"
        }
      ],
      "stateMutability": "view",
      "type": "function"
    },
    {
      "inputs": [],
      "name": "latestRoundData",
      "outputs": [
        {
          "internalType": "uint80",
          "name": "roundID",
          "type": "uint80"
        },
        {
          "internalType": "int256",
          "name": "nowPrice",
          "type": "int256"
        },
        {
          "internalType": "uint256",
          "name": "startedAt",
          "type": "uint256"
        },
        {
          "internalType": "uint256",
          "name": "timeStamp",
          "type": "uint256"
        },
        {
          "internalType": "uint80",
          "name": "answeredInRound",
          "type": "uint80"
        }
      ],
      "stateMutability": "view",
      "type": "function"
    },
    {
      "inputs": [],
      "name": "oracle1",
      "outputs": [
        {
          "internalType": "address",
          "name": "",
          "type": "address"
        }
      ],
      "stateMutability": "view",
      "type": "function"
    },
    {
      "inputs": [],
      "name": "oracle2",
      "outputs": [
        {
          "internalType": "address",
          "name": "",
          "type": "address"
        }
      ],
      "stateMutability": "view",
      "type": "function"
    }
  ],
  "bytecode": {
    "object": "0x608060405234801561001057600080fd5b5060405161073038038061073083398101604081905261002f916101a4565b6001600160a01b0382166100955760405162461bcd60e51b815260206004820152602260248201527f6f7261636c65312063616e6e6f7420626520746865207a65726f206164647265604482015261737360f01b60648201526084015b60405180910390fd5b6001600160a01b0381166100f65760405162461bcd60e51b815260206004820152602260248201527f6f7261636c65322063616e6e6f7420626520746865207a65726f206164647265604482015261737360f01b606482015260840161008c565b806001600160a01b0316826001600160a01b0316036101575760405162461bcd60e51b815260206004820152601560248201527f43616e6e6f742062652073616d65204f7261636c650000000000000000000000604482015260640161008c565b600080546001600160a01b039384166001600160a01b031991821617909155600180549290931691161790556101d7565b80516001600160a01b038116811461019f57600080fd5b919050565b600080604083850312156101b757600080fd5b6101c083610188565b91506101ce60208401610188565b90509250929050565b61054a806101e66000396000f3fe608060405234801561001057600080fd5b50600436106100575760003560e01c8063391fb8881461005c578063747a0c3a14610077578063996f7d3a146100a2578063d6b7ec33146100b5578063feaf968c146100bd575b600080fd5b6100646100fc565b6040519081526020015b60405180910390f35b60005461008a906001600160a01b031681565b6040516001600160a01b03909116815260200161006e565b60015461008a906001600160a01b031681565b610064610287565b6100c56102e6565b6040805169ffffffffffffffffffff968716815260208101959095528401929092526060830152909116608082015260a00161006e565b60008060008054906101000a90046001600160a01b03169050600080600080846001600160a01b031663feaf968c6040518163ffffffff1660e01b815260040160a060405180830381865afa158015610159573d6000803e3d6000fd5b505050506040513d601f19601f8201168201806040525081019061017d91906103ed565b945094505093509350600083136101d25760405162461bcd60e51b81526020600482015260146024820152730436861696e6c696e6b207072696365203c3d20360641b60448201526064015b60405180910390fd5b8369ffffffffffffffffffff168169ffffffffffffffffffff16101561023a5760405162461bcd60e51b815260206004820181905260248201527f526f756e6449442066726f6d204f7261636c65206973206f757464617465642160448201526064016101c9565b8160000361027d5760405162461bcd60e51b815260206004820152601060248201526f54696d657374616d70203d3d2030202160801b60448201526064016101c9565b5090949350505050565b600080600160009054906101000a90046001600160a01b03169050600080600080846001600160a01b031663feaf968c6040518163ffffffff1660e01b815260040160a060405180830381865afa158015610159573d6000803e3d6000fd5b60008060008060008060008054906101000a90046001600160a01b031690506000806000806000856001600160a01b031663feaf968c6040518163ffffffff1660e01b815260040160a060405180830381865afa15801561034b573d6000803e3d6000fd5b505050506040513d601f19601f8201168201806040525081019061036f91906103ed565b939850919650945092509050683635c9adc5dea00000858180610390610287565b61039a9190610453565b6103a48489610453565b6103ae91906104d8565b6103b891906104d8565b909d909c50939a50919850965090945050505050565b805169ffffffffffffffffffff811681146103e857600080fd5b919050565b600080600080600060a0868803121561040557600080fd5b61040e866103ce565b9450602086015193506040860151925060608601519150610431608087016103ce565b90509295509295909350565b634e487b7160e01b600052601160045260246000fd5b60006001600160ff1b03818413828413808216868404861116156104795761047961043d565b600160ff1b60008712828116878305891216156104985761049861043d565b600087129250878205871284841616156104b4576104b461043d565b878505871281841616156104ca576104ca61043d565b505050929093029392505050565b6000826104f557634e487b7160e01b600052601260045260246000fd5b600160ff1b82146000198414161561050f5761050f61043d565b50059056fea26469706673582212207ee9ef37e30b758b56735b8dd87e9845d83ed10fb92b7565166ed00537906c3c64736f6c634300080f0033",
    "linkReferences": {}
  },
  "methodIdentifiers": {
    "getOracle1_Price()": "391fb888",
    "getOracle2_Price()": "d6b7ec33",
    "latestRoundData()": "feaf968c",
    "oracle1()": "747a0c3a",
    "oracle2()": "996f7d3a"
  },
  "id": 30
}