{
  "abi": [
    {
      "inputs": [
        {
          "internalType": "address",
          "name": "_oracle",
          "type": "address"
        },
        {
          "internalType": "int256",
          "name": "_priceSimulation",
          "type": "int256"
        }
      ],
      "stateMutability": "nonpayable",
      "type": "constructor"
    },
    {
      "inputs": [],
      "name": "decimals",
      "outputs": [
        {
          "internalType": "uint8",
          "name": "",
          "type": "uint8"
        }
      ],
      "stateMutability": "view",
      "type": "function"
    },
    {
      "inputs": [],
      "name": "latestRoundData",
      "outputs": [
        {
          "internalType": "uint80",
          "name": "roundID1",
          "type": "uint80"
        },
        {
          "internalType": "int256",
          "name": "nowPrice1",
          "type": "int256"
        },
        {
          "internalType": "uint256",
          "name": "startedAt1",
          "type": "uint256"
        },
        {
          "internalType": "uint256",
          "name": "timeStamp1",
          "type": "uint256"
        },
        {
          "internalType": "uint80",
          "name": "answeredInRound1",
          "type": "uint80"
        }
      ],
      "stateMutability": "view",
      "type": "function"
    },
    {
      "inputs": [],
      "name": "oracle",
      "outputs": [
        {
          "internalType": "address",
          "name": "",
          "type": "address"
        }
      ],
      "stateMutability": "view",
      "type": "function"
    },
    {
      "inputs": [],
      "name": "priceFeed",
      "outputs": [
        {
          "internalType": "contract AggregatorV3Interface",
          "name": "",
          "type": "address"
        }
      ],
      "stateMutability": "view",
      "type": "function"
    },
    {
      "inputs": [],
      "name": "priceSimulation",
      "outputs": [
        {
          "internalType": "int256",
          "name": "",
          "type": "int256"
        }
      ],
      "stateMutability": "view",
      "type": "function"
    }
  ],
  "bytecode": {
    "object": "0x60806040908082523461026157818161054980380380916100208285610266565b8339810103126102615780516001600160a01b03811691908290036102615760208091015191600154600960a11b928360ff60a01b19831617600155821561021457855163313ce56760e01b81528181600481875afa908115610209576000916101ca575b5060ff601291161161017b57606485121561012957600a8513156100d55750600080546001600160a01b031916831790556001600160a81b0319161717600155600255516102a990816102a08239f35b60849086519062461bcd60e51b82526004820152602860248201527f5f707269636553696d756c6174696f6e206d75737420626520677265617465726044820152670207468616e2031360c41b6064820152fd5b60849086519062461bcd60e51b82526004820152602660248201527f5f707269636553696d756c6174696f6e206d757374206265206c6573732074686044820152650616e203130360d41b6064820152fd5b60849086519062461bcd60e51b825260048201526024808201527f446563696d616c73206d757374206265206c657373206f7220657175616c20746044820152630de4062760e31b6064820152fd5b8281813d8311610202575b6101df8183610266565b810103126101fe57519060ff821682036101fb575060ff610085565b80fd5b5080fd5b503d6101d5565b87513d6000823e3d90fd5b60849086519062461bcd60e51b82526004820152602160248201527f6f7261636c652063616e6e6f7420626520746865207a65726f206164647265736044820152607360f81b6064820152fd5b600080fd5b601f909101601f19168101906001600160401b0382119082101761028957604052565b634e487b7160e01b600052604160045260246000fdfe60806040818152600436101561001457600080fd5b600091823560e01c908163313ce56714610235575080634d9fd32714610217578063741bef1a146101ef5780637dc0d1d0146101c85763feaf968c1461005957600080fd5b346101c457816003193601126101c4576001548151633fabe5a360e21b81529060a090829060049082906001600160a01b03165afa80156101b85783918490859261013d575b50600254936001785c3bd5191b525a2484df7f5cfd6a43e17fc6f80abedcc69ba78611878713161661012957858512785c3bd5191b525a2484df7f5cfd6a43e17fc6f80abedcc69ba61986121660011661012957948567016345785d8a000060a097519669ffffffffffffffffffff80971688520260208701528501526060840152166080820152f35b634e487b7160e01b86526011600452602486fd5b9250505060a03d81116101b1575b601f8101601f1916820167ffffffffffffffff81118382101761019d5760a09183918552810103126101995761018081610257565b610191608060608401519301610257565b90913861009f565b8280fd5b634e487b7160e01b85526041600452602485fd5b503d61014b565b505051903d90823e3d90fd5b5080fd5b50346101c457816003193601126101c457905490516001600160a01b039091168152602090f35b50346101c457816003193601126101c45760015490516001600160a01b039091168152602090f35b50346101c457816003193601126101c4576020906002549051908152f35b8390346101c457816003193601126101c45760209060ff60015460a01c168152f35b519069ffffffffffffffffffff8216820361026e57565b600080fdfea264697066735822122089d2fc0085150f13aa5c62e03bddd75407e5daabf1b91a69b7aecc03d6c6247764736f6c634300080f0033",
    "linkReferences": {}
  },
  "methodIdentifiers": {
    "decimals()": "313ce567",
    "latestRoundData()": "feaf968c",
    "oracle()": "7dc0d1d0",
    "priceFeed()": "741bef1a",
    "priceSimulation()": "4d9fd327"
  },
  "id": 45
}