{
  "abi": [
    {
      "inputs": [
        {
          "internalType": "address",
          "name": "_oracle",
          "type": "address"
        }
      ],
      "stateMutability": "nonpayable",
      "type": "constructor"
    },
    {
      "inputs": [],
      "name": "decimals",
      "outputs": [
        {
          "internalType": "uint8",
          "name": "",
          "type": "uint8"
        }
      ],
      "stateMutability": "view",
      "type": "function"
    },
    {
      "inputs": [],
      "name": "latestRoundData",
      "outputs": [
        {
          "internalType": "uint80",
          "name": "roundID1",
          "type": "uint80"
        },
        {
          "internalType": "int256",
          "name": "nowPrice1",
          "type": "int256"
        },
        {
          "internalType": "uint256",
          "name": "startedAt1",
          "type": "uint256"
        },
        {
          "internalType": "uint256",
          "name": "timeStamp1",
          "type": "uint256"
        },
        {
          "internalType": "uint80",
          "name": "answeredInRound1",
          "type": "uint80"
        }
      ],
      "stateMutability": "view",
      "type": "function"
    },
    {
      "inputs": [],
      "name": "oracle",
      "outputs": [
        {
          "internalType": "address",
          "name": "",
          "type": "address"
        }
      ],
      "stateMutability": "view",
      "type": "function"
    },
    {
      "inputs": [],
      "name": "priceFeed",
      "outputs": [
        {
          "internalType": "contract AggregatorV3Interface",
          "name": "",
          "type": "address"
        }
      ],
      "stateMutability": "view",
      "type": "function"
    }
  ],
  "bytecode": {
    "object": "0x60806040526001805460ff60a01b1916600960a11b17905534801561002357600080fd5b5060405161043b38038061043b83398101604081905261004291610197565b6001600160a01b0381166100a75760405162461bcd60e51b815260206004820152602160248201527f6f7261636c652063616e6e6f7420626520746865207a65726f206164647265736044820152607360f81b60648201526084015b60405180910390fd5b6012816001600160a01b031663313ce5676040518163ffffffff1660e01b8152600401602060405180830381865afa1580156100e7573d6000803e3d6000fd5b505050506040513d601f19601f8201168201806040525081019061010b91906101c7565b60ff1611156101685760405162461bcd60e51b8152602060048201526024808201527f446563696d616c73206d757374206265206c657373206f7220657175616c20746044820152630de4062760e31b606482015260840161009e565b600080546001600160a01b039092166001600160a01b03199283168117909155600180549092161790556101ea565b6000602082840312156101a957600080fd5b81516001600160a01b03811681146101c057600080fd5b9392505050565b6000602082840312156101d957600080fd5b815160ff811681146101c057600080fd5b610242806101f96000396000f3fe608060405234801561001057600080fd5b506004361061004c5760003560e01c8063313ce56714610051578063741bef1a1461007c5780637dc0d1d0146100a7578063feaf968c146100ba575b600080fd5b60015461006590600160a01b900460ff1681565b60405160ff90911681526020015b60405180910390f35b60015461008f906001600160a01b031681565b6040516001600160a01b039091168152602001610073565b60005461008f906001600160a01b031681565b6100c26100f9565b6040805169ffffffffffffffffffff968716815260208101959095528401929092526060830152909116608082015260a001610073565b600080600080600080600080600160009054906101000a90046001600160a01b03166001600160a01b031663feaf968c6040518163ffffffff1660e01b815260040160a060405180830381865afa158015610158573d6000803e3d6000fd5b505050506040513d601f19601f8201168201806040525081019061017c91906101bc565b939c677b5bad595e238e389c5060009b509099509297509195505050505050565b805169ffffffffffffffffffff811681146101b757600080fd5b919050565b600080600080600060a086880312156101d457600080fd5b6101dd8661019d565b94506020860151935060408601519250606086015191506102006080870161019d565b9050929550929590935056fea264697066735822122073c5c4439a6f01ce7491932a5771c639eb2a6770f5a99f45b0f60a1f3ad9894f64736f6c634300080f0033",
    "linkReferences": {}
  },
  "methodIdentifiers": {
    "decimals()": "313ce567",
    "latestRoundData()": "feaf968c",
    "oracle()": "7dc0d1d0",
    "priceFeed()": "741bef1a"
  },
  "id": 26
}