{
  "abi": [
    {
      "inputs": [
        {
          "internalType": "address",
          "name": "_assetAddress",
          "type": "address"
        },
        {
          "internalType": "string",
          "name": "_name",
          "type": "string"
        },
        {
          "internalType": "string",
          "name": "_symbol",
          "type": "string"
        },
        {
          "internalType": "address",
          "name": "_treasury",
          "type": "address"
        },
        {
          "internalType": "uint256",
          "name": "_withdrawalFee",
          "type": "uint256"
        },
        {
          "internalType": "address",
          "name": "_token",
          "type": "address"
        },
        {
          "internalType": "int256",
          "name": "_strikePrice",
          "type": "int256"
        },
        {
          "internalType": "address",
          "name": "_controller",
          "type": "address"
        }
      ],
      "stateMutability": "nonpayable",
      "type": "constructor"
    },
    {
      "anonymous": false,
      "inputs": [
        {
          "indexed": true,
          "internalType": "address",
          "name": "account",
          "type": "address"
        },
        {
          "indexed": true,
          "internalType": "address",
          "name": "operator",
          "type": "address"
        },
        {
          "indexed": false,
          "internalType": "bool",
          "name": "approved",
          "type": "bool"
        }
      ],
      "name": "ApprovalForAll",
      "type": "event"
    },
    {
      "anonymous": false,
      "inputs": [
        {
          "indexed": false,
          "internalType": "address",
          "name": "caller",
          "type": "address"
        },
        {
          "indexed": true,
          "internalType": "address",
          "name": "owner",
          "type": "address"
        },
        {
          "indexed": true,
          "internalType": "uint256",
          "name": "id",
          "type": "uint256"
        },
        {
          "indexed": false,
          "internalType": "uint256",
          "name": "assets",
          "type": "uint256"
        },
        {
          "indexed": false,
          "internalType": "uint256",
          "name": "shares",
          "type": "uint256"
        }
      ],
      "name": "Deposit",
      "type": "event"
    },
    {
      "anonymous": false,
      "inputs": [
        {
          "indexed": true,
          "internalType": "address",
          "name": "operator",
          "type": "address"
        },
        {
          "indexed": true,
          "internalType": "address",
          "name": "from",
          "type": "address"
        },
        {
          "indexed": true,
          "internalType": "address",
          "name": "to",
          "type": "address"
        },
        {
          "indexed": false,
          "internalType": "uint256[]",
          "name": "ids",
          "type": "uint256[]"
        },
        {
          "indexed": false,
          "internalType": "uint256[]",
          "name": "values",
          "type": "uint256[]"
        }
      ],
      "name": "TransferBatch",
      "type": "event"
    },
    {
      "anonymous": false,
      "inputs": [
        {
          "indexed": true,
          "internalType": "address",
          "name": "operator",
          "type": "address"
        },
        {
          "indexed": true,
          "internalType": "address",
          "name": "from",
          "type": "address"
        },
        {
          "indexed": true,
          "internalType": "address",
          "name": "to",
          "type": "address"
        },
        {
          "indexed": false,
          "internalType": "uint256",
          "name": "id",
          "type": "uint256"
        },
        {
          "indexed": false,
          "internalType": "uint256",
          "name": "value",
          "type": "uint256"
        }
      ],
      "name": "TransferSingle",
      "type": "event"
    },
    {
      "anonymous": false,
      "inputs": [
        {
          "indexed": false,
          "internalType": "string",
          "name": "value",
          "type": "string"
        },
        {
          "indexed": true,
          "internalType": "uint256",
          "name": "id",
          "type": "uint256"
        }
      ],
      "name": "URI",
      "type": "event"
    },
    {
      "anonymous": false,
      "inputs": [
        {
          "indexed": false,
          "internalType": "address",
          "name": "caller",
          "type": "address"
        },
        {
          "indexed": false,
          "internalType": "address",
          "name": "receiver",
          "type": "address"
        },
        {
          "indexed": true,
          "internalType": "address",
          "name": "owner",
          "type": "address"
        },
        {
          "indexed": true,
          "internalType": "uint256",
          "name": "id",
          "type": "uint256"
        },
        {
          "indexed": false,
          "internalType": "uint256",
          "name": "assets",
          "type": "uint256"
        },
        {
          "indexed": false,
          "internalType": "uint256",
          "name": "shares",
          "type": "uint256"
        }
      ],
      "name": "Withdraw",
      "type": "event"
    },
    {
      "inputs": [],
      "name": "asset",
      "outputs": [
        {
          "internalType": "contract ERC20",
          "name": "",
          "type": "address"
        }
      ],
      "stateMutability": "view",
      "type": "function"
    },
    {
      "inputs": [
        {
          "internalType": "address",
          "name": "account",
          "type": "address"
        },
        {
          "internalType": "uint256",
          "name": "id",
          "type": "uint256"
        }
      ],
      "name": "balanceOf",
      "outputs": [
        {
          "internalType": "uint256",
          "name": "",
          "type": "uint256"
        }
      ],
      "stateMutability": "view",
      "type": "function"
    },
    {
      "inputs": [
        {
          "internalType": "address[]",
          "name": "accounts",
          "type": "address[]"
        },
        {
          "internalType": "uint256[]",
          "name": "ids",
          "type": "uint256[]"
        }
      ],
      "name": "balanceOfBatch",
      "outputs": [
        {
          "internalType": "uint256[]",
          "name": "",
          "type": "uint256[]"
        }
      ],
      "stateMutability": "view",
      "type": "function"
    },
    {
      "inputs": [
        {
          "internalType": "uint256",
          "name": "id",
          "type": "uint256"
        },
        {
          "internalType": "uint256",
          "name": "amount",
          "type": "uint256"
        }
      ],
      "name": "beforeWithdraw",
      "outputs": [
        {
          "internalType": "uint256",
          "name": "entitledAmount",
          "type": "uint256"
        }
      ],
      "stateMutability": "view",
      "type": "function"
    },
    {
      "inputs": [
        {
          "internalType": "uint256",
          "name": "amount",
          "type": "uint256"
        }
      ],
      "name": "calculateWithdrawalFeeValue",
      "outputs": [
        {
          "internalType": "uint256",
          "name": "feeValue",
          "type": "uint256"
        }
      ],
      "stateMutability": "view",
      "type": "function"
    },
    {
      "inputs": [
        {
          "internalType": "address",
          "name": "_controller",
          "type": "address"
        }
      ],
      "name": "changeController",
      "outputs": [],
      "stateMutability": "nonpayable",
      "type": "function"
    },
    {
      "inputs": [
        {
          "internalType": "uint256",
          "name": "_timewindow",
          "type": "uint256"
        }
      ],
      "name": "changeTimewindow",
      "outputs": [],
      "stateMutability": "nonpayable",
      "type": "function"
    },
    {
      "inputs": [
        {
          "internalType": "address",
          "name": "_treasury",
          "type": "address"
        }
      ],
      "name": "changeTreasury",
      "outputs": [],
      "stateMutability": "nonpayable",
      "type": "function"
    },
    {
      "inputs": [
        {
          "internalType": "uint256",
          "name": "_withdrawalFee",
          "type": "uint256"
        }
      ],
      "name": "changeWithdrawalFee",
      "outputs": [],
      "stateMutability": "nonpayable",
      "type": "function"
    },
    {
      "inputs": [],
      "name": "controller",
      "outputs": [
        {
          "internalType": "address",
          "name": "",
          "type": "address"
        }
      ],
      "stateMutability": "view",
      "type": "function"
    },
    {
      "inputs": [
        {
          "internalType": "uint256",
          "name": "id",
          "type": "uint256"
        },
        {
          "internalType": "uint256",
          "name": "shares",
          "type": "uint256"
        }
      ],
      "name": "convertToAssets",
      "outputs": [
        {
          "internalType": "uint256",
          "name": "",
          "type": "uint256"
        }
      ],
      "stateMutability": "view",
      "type": "function"
    },
    {
      "inputs": [
        {
          "internalType": "uint256",
          "name": "id",
          "type": "uint256"
        },
        {
          "internalType": "uint256",
          "name": "assets",
          "type": "uint256"
        }
      ],
      "name": "convertToShares",
      "outputs": [
        {
          "internalType": "uint256",
          "name": "",
          "type": "uint256"
        }
      ],
      "stateMutability": "view",
      "type": "function"
    },
    {
      "inputs": [
        {
          "internalType": "uint256",
          "name": "epochBegin",
          "type": "uint256"
        },
        {
          "internalType": "uint256",
          "name": "epochEnd",
          "type": "uint256"
        }
      ],
      "name": "createAssets",
      "outputs": [],
      "stateMutability": "nonpayable",
      "type": "function"
    },
    {
      "inputs": [
        {
          "internalType": "uint256",
          "name": "id",
          "type": "uint256"
        },
        {
          "internalType": "uint256",
          "name": "assets",
          "type": "uint256"
        },
        {
          "internalType": "address",
          "name": "receiver",
          "type": "address"
        }
      ],
      "name": "deposit",
      "outputs": [
        {
          "internalType": "uint256",
          "name": "shares",
          "type": "uint256"
        }
      ],
      "stateMutability": "nonpayable",
      "type": "function"
    },
    {
      "inputs": [
        {
          "internalType": "uint256",
          "name": "id",
          "type": "uint256"
        },
        {
          "internalType": "address",
          "name": "receiver",
          "type": "address"
        }
      ],
      "name": "depositETH",
      "outputs": [
        {
          "internalType": "uint256",
          "name": "shares",
          "type": "uint256"
        }
      ],
      "stateMutability": "payable",
      "type": "function"
    },
    {
      "inputs": [
        {
          "internalType": "uint256",
          "name": "id",
          "type": "uint256"
        },
        {
          "internalType": "bool",
          "name": "depeg",
          "type": "bool"
        }
      ],
      "name": "endEpoch",
      "outputs": [],
      "stateMutability": "nonpayable",
      "type": "function"
    },
    {
      "inputs": [
        {
          "internalType": "uint256",
          "name": "",
          "type": "uint256"
        }
      ],
      "name": "epochs",
      "outputs": [
        {
          "internalType": "uint256",
          "name": "",
          "type": "uint256"
        }
      ],
      "stateMutability": "view",
      "type": "function"
    },
    {
      "inputs": [],
      "name": "epochsLength",
      "outputs": [
        {
          "internalType": "uint256",
          "name": "",
          "type": "uint256"
        }
      ],
      "stateMutability": "view",
      "type": "function"
    },
    {
      "inputs": [
        {
          "internalType": "uint256",
          "name": "id",
          "type": "uint256"
        }
      ],
      "name": "exists",
      "outputs": [
        {
          "internalType": "bool",
          "name": "",
          "type": "bool"
        }
      ],
      "stateMutability": "view",
      "type": "function"
    },
    {
      "inputs": [
        {
          "internalType": "uint256",
          "name": "_epoch",
          "type": "uint256"
        }
      ],
      "name": "getNextEpoch",
      "outputs": [
        {
          "internalType": "uint256",
          "name": "nextEpochEnd",
          "type": "uint256"
        }
      ],
      "stateMutability": "view",
      "type": "function"
    },
    {
      "inputs": [
        {
          "internalType": "uint256",
          "name": "",
          "type": "uint256"
        }
      ],
      "name": "idClaimTVL",
      "outputs": [
        {
          "internalType": "uint256",
          "name": "",
          "type": "uint256"
        }
      ],
      "stateMutability": "view",
      "type": "function"
    },
    {
      "inputs": [
        {
          "internalType": "uint256",
          "name": "",
          "type": "uint256"
        }
      ],
      "name": "idDepegged",
      "outputs": [
        {
          "internalType": "bool",
          "name": "",
          "type": "bool"
        }
      ],
      "stateMutability": "view",
      "type": "function"
    },
    {
      "inputs": [
        {
          "internalType": "uint256",
          "name": "",
          "type": "uint256"
        }
      ],
      "name": "idEpochBegin",
      "outputs": [
        {
          "internalType": "uint256",
          "name": "",
          "type": "uint256"
        }
      ],
      "stateMutability": "view",
      "type": "function"
    },
    {
      "inputs": [
        {
          "internalType": "uint256",
          "name": "",
          "type": "uint256"
        }
      ],
      "name": "idExists",
      "outputs": [
        {
          "internalType": "bool",
          "name": "",
          "type": "bool"
        }
      ],
      "stateMutability": "view",
      "type": "function"
    },
    {
      "inputs": [
        {
          "internalType": "uint256",
          "name": "",
          "type": "uint256"
        }
      ],
      "name": "idFinalTVL",
      "outputs": [
        {
          "internalType": "uint256",
          "name": "",
          "type": "uint256"
        }
      ],
      "stateMutability": "view",
      "type": "function"
    },
    {
      "inputs": [
        {
          "internalType": "address",
          "name": "account",
          "type": "address"
        },
        {
          "internalType": "address",
          "name": "operator",
          "type": "address"
        }
      ],
      "name": "isApprovedForAll",
      "outputs": [
        {
          "internalType": "bool",
          "name": "",
          "type": "bool"
        }
      ],
      "stateMutability": "view",
      "type": "function"
    },
    {
      "inputs": [
        {
          "internalType": "address",
          "name": "",
          "type": "address"
        }
      ],
      "name": "maxDeposit",
      "outputs": [
        {
          "internalType": "uint256",
          "name": "",
          "type": "uint256"
        }
      ],
      "stateMutability": "view",
      "type": "function"
    },
    {
      "inputs": [
        {
          "internalType": "address",
          "name": "",
          "type": "address"
        }
      ],
      "name": "maxMint",
      "outputs": [
        {
          "internalType": "uint256",
          "name": "",
          "type": "uint256"
        }
      ],
      "stateMutability": "view",
      "type": "function"
    },
    {
      "inputs": [
        {
          "internalType": "uint256",
          "name": "id",
          "type": "uint256"
        },
        {
          "internalType": "address",
          "name": "owner",
          "type": "address"
        }
      ],
      "name": "maxRedeem",
      "outputs": [
        {
          "internalType": "uint256",
          "name": "",
          "type": "uint256"
        }
      ],
      "stateMutability": "view",
      "type": "function"
    },
    {
      "inputs": [
        {
          "internalType": "uint256",
          "name": "id",
          "type": "uint256"
        },
        {
          "internalType": "address",
          "name": "owner",
          "type": "address"
        }
      ],
      "name": "maxWithdraw",
      "outputs": [
        {
          "internalType": "uint256",
          "name": "",
          "type": "uint256"
        }
      ],
      "stateMutability": "view",
      "type": "function"
    },
    {
      "inputs": [
        {
          "internalType": "uint256",
          "name": "id",
          "type": "uint256"
        },
        {
          "internalType": "uint256",
          "name": "shares",
          "type": "uint256"
        },
        {
          "internalType": "address",
          "name": "receiver",
          "type": "address"
        }
      ],
      "name": "mint",
      "outputs": [
        {
          "internalType": "uint256",
          "name": "assets",
          "type": "uint256"
        }
      ],
      "stateMutability": "nonpayable",
      "type": "function"
    },
    {
      "inputs": [
        {
          "internalType": "uint256",
          "name": "id",
          "type": "uint256"
        },
        {
          "internalType": "address",
          "name": "receiver",
          "type": "address"
        }
      ],
      "name": "mintETH",
      "outputs": [
        {
          "internalType": "uint256",
          "name": "shares",
          "type": "uint256"
        }
      ],
      "stateMutability": "payable",
      "type": "function"
    },
    {
      "inputs": [],
      "name": "name",
      "outputs": [
        {
          "internalType": "string",
          "name": "",
          "type": "string"
        }
      ],
      "stateMutability": "view",
      "type": "function"
    },
    {
      "inputs": [
        {
          "internalType": "uint256",
          "name": "id",
          "type": "uint256"
        },
        {
          "internalType": "uint256",
          "name": "assets",
          "type": "uint256"
        }
      ],
      "name": "previewDeposit",
      "outputs": [
        {
          "internalType": "uint256",
          "name": "",
          "type": "uint256"
        }
      ],
      "stateMutability": "view",
      "type": "function"
    },
    {
      "inputs": [
        {
          "internalType": "uint256",
          "name": "id",
          "type": "uint256"
        },
        {
          "internalType": "uint256",
          "name": "shares",
          "type": "uint256"
        }
      ],
      "name": "previewMint",
      "outputs": [
        {
          "internalType": "uint256",
          "name": "",
          "type": "uint256"
        }
      ],
      "stateMutability": "view",
      "type": "function"
    },
    {
      "inputs": [
        {
          "internalType": "uint256",
          "name": "id",
          "type": "uint256"
        },
        {
          "internalType": "uint256",
          "name": "shares",
          "type": "uint256"
        }
      ],
      "name": "previewRedeem",
      "outputs": [
        {
          "internalType": "uint256",
          "name": "",
          "type": "uint256"
        }
      ],
      "stateMutability": "view",
      "type": "function"
    },
    {
      "inputs": [
        {
          "internalType": "uint256",
          "name": "id",
          "type": "uint256"
        },
        {
          "internalType": "uint256",
          "name": "assets",
          "type": "uint256"
        }
      ],
      "name": "previewWithdraw",
      "outputs": [
        {
          "internalType": "uint256",
          "name": "",
          "type": "uint256"
        }
      ],
      "stateMutability": "view",
      "type": "function"
    },
    {
      "inputs": [
        {
          "internalType": "uint256",
          "name": "id",
          "type": "uint256"
        },
        {
          "internalType": "uint256",
          "name": "shares",
          "type": "uint256"
        },
        {
          "internalType": "address",
          "name": "receiver",
          "type": "address"
        },
        {
          "internalType": "address",
          "name": "owner",
          "type": "address"
        }
      ],
      "name": "redeem",
      "outputs": [
        {
          "internalType": "uint256",
          "name": "assets",
          "type": "uint256"
        }
      ],
      "stateMutability": "nonpayable",
      "type": "function"
    },
    {
      "inputs": [
        {
          "internalType": "address",
          "name": "from",
          "type": "address"
        },
        {
          "internalType": "address",
          "name": "to",
          "type": "address"
        },
        {
          "internalType": "uint256[]",
          "name": "ids",
          "type": "uint256[]"
        },
        {
          "internalType": "uint256[]",
          "name": "amounts",
          "type": "uint256[]"
        },
        {
          "internalType": "bytes",
          "name": "data",
          "type": "bytes"
        }
      ],
      "name": "safeBatchTransferFrom",
      "outputs": [],
      "stateMutability": "nonpayable",
      "type": "function"
    },
    {
      "inputs": [
        {
          "internalType": "address",
          "name": "from",
          "type": "address"
        },
        {
          "internalType": "address",
          "name": "to",
          "type": "address"
        },
        {
          "internalType": "uint256",
          "name": "id",
          "type": "uint256"
        },
        {
          "internalType": "uint256",
          "name": "amount",
          "type": "uint256"
        },
        {
          "internalType": "bytes",
          "name": "data",
          "type": "bytes"
        }
      ],
      "name": "safeTransferFrom",
      "outputs": [],
      "stateMutability": "nonpayable",
      "type": "function"
    },
    {
      "inputs": [
        {
          "internalType": "uint256",
          "name": "id",
          "type": "uint256"
        },
        {
          "internalType": "address",
          "name": "_counterparty",
          "type": "address"
        }
      ],
      "name": "sendTokens",
      "outputs": [],
      "stateMutability": "nonpayable",
      "type": "function"
    },
    {
      "inputs": [
        {
          "internalType": "address",
          "name": "operator",
          "type": "address"
        },
        {
          "internalType": "bool",
          "name": "approved",
          "type": "bool"
        }
      ],
      "name": "setApprovalForAll",
      "outputs": [],
      "stateMutability": "nonpayable",
      "type": "function"
    },
    {
      "inputs": [
        {
          "internalType": "uint256",
          "name": "id",
          "type": "uint256"
        },
        {
          "internalType": "uint256",
          "name": "claimTVL",
          "type": "uint256"
        }
      ],
      "name": "setClaimTVL",
      "outputs": [],
      "stateMutability": "nonpayable",
      "type": "function"
    },
    {
      "inputs": [],
      "name": "strikePrice",
      "outputs": [
        {
          "internalType": "int256",
          "name": "",
          "type": "int256"
        }
      ],
      "stateMutability": "view",
      "type": "function"
    },
    {
      "inputs": [
        {
          "internalType": "bytes4",
          "name": "interfaceId",
          "type": "bytes4"
        }
      ],
      "name": "supportsInterface",
      "outputs": [
        {
          "internalType": "bool",
          "name": "",
          "type": "bool"
        }
      ],
      "stateMutability": "view",
      "type": "function"
    },
    {
      "inputs": [],
      "name": "symbol",
      "outputs": [
        {
          "internalType": "string",
          "name": "",
          "type": "string"
        }
      ],
      "stateMutability": "view",
      "type": "function"
    },
    {
      "inputs": [],
      "name": "timewindow",
      "outputs": [
        {
          "internalType": "uint256",
          "name": "",
          "type": "uint256"
        }
      ],
      "stateMutability": "view",
      "type": "function"
    },
    {
      "inputs": [],
      "name": "tokenInsured",
      "outputs": [
        {
          "internalType": "address",
          "name": "",
          "type": "address"
        }
      ],
      "stateMutability": "view",
      "type": "function"
    },
    {
      "inputs": [
        {
          "internalType": "uint256",
          "name": "_id",
          "type": "uint256"
        }
      ],
      "name": "totalAssets",
      "outputs": [
        {
          "internalType": "uint256",
          "name": "",
          "type": "uint256"
        }
      ],
      "stateMutability": "view",
      "type": "function"
    },
    {
      "inputs": [
        {
          "internalType": "uint256",
          "name": "id",
          "type": "uint256"
        }
      ],
      "name": "totalSupply",
      "outputs": [
        {
          "internalType": "uint256",
          "name": "",
          "type": "uint256"
        }
      ],
      "stateMutability": "view",
      "type": "function"
    },
    {
      "inputs": [
        {
          "internalType": "uint256",
          "name": "",
          "type": "uint256"
        }
      ],
      "name": "uri",
      "outputs": [
        {
          "internalType": "string",
          "name": "",
          "type": "string"
        }
      ],
      "stateMutability": "view",
      "type": "function"
    },
    {
      "inputs": [
        {
          "internalType": "uint256",
          "name": "id",
          "type": "uint256"
        },
        {
          "internalType": "uint256",
          "name": "assets",
          "type": "uint256"
        },
        {
          "internalType": "address",
          "name": "receiver",
          "type": "address"
        },
        {
          "internalType": "address",
          "name": "owner",
          "type": "address"
        }
      ],
      "name": "withdraw",
      "outputs": [
        {
          "internalType": "uint256",
          "name": "shares",
          "type": "uint256"
        }
      ],
      "stateMutability": "nonpayable",
      "type": "function"
    },
    {
      "inputs": [],
      "name": "withdrawalFee",
      "outputs": [
        {
          "internalType": "uint256",
          "name": "",
          "type": "uint256"
        }
      ],
      "stateMutability": "view",
      "type": "function"
    }
  ],
  "bytecode": {
    "object": "0x6101006040523480156200001257600080fd5b5060405162003fe538038062003fe5833981016040819052620000359162000397565b8787876040518060200160405280600081525062000059816200029b60201b60201c565b506001600160a01b0383166080526004620000758382620004ef565b506005620000848282620004ef565b50506001600655505060968410620000e35760405162461bcd60e51b815260206004820152601960248201527f466565206d757374206265206c657373207468616e203135250000000000000060448201526064015b60405180910390fd5b6001600160a01b0385166200013b5760405162461bcd60e51b815260206004820152601e60248201527f547265617375727920616464726573732063616e6e6f742062652030783000006044820152606401620000da565b6001600160a01b038116620001935760405162461bcd60e51b815260206004820181905260248201527f436f6e74726f6c6c657220616464726573732063616e6e6f74206265203078306044820152606401620000da565b6001600160a01b038316620001eb5760405162461bcd60e51b815260206004820152601b60248201527f546f6b656e20616464726573732063616e6e6f742062652030783000000000006044820152606401620000da565b60008213620002495760405162461bcd60e51b815260206004820152602360248201527f537472696b65207072696365206d75737420626520677265617465722074686160448201526206e20360ec1b6064820152608401620000da565b6001600160a01b0392831660a052600e80546001600160a01b031990811696851696909617905560c0919091523360e052600f80549094169116179091556201518060085560105550620005bb915050565b6002620002a98282620004ef565b5050565b80516001600160a01b0381168114620002c557600080fd5b919050565b634e487b7160e01b600052604160045260246000fd5b600082601f830112620002f257600080fd5b81516001600160401b03808211156200030f576200030f620002ca565b604051601f8301601f19908116603f011681019082821181831017156200033a576200033a620002ca565b816040528381526020925086838588010111156200035757600080fd5b600091505b838210156200037b57858201830151818301840152908201906200035c565b838211156200038d5760008385830101525b9695505050505050565b600080600080600080600080610100898b031215620003b557600080fd5b620003c089620002ad565b60208a01519098506001600160401b0380821115620003de57600080fd5b620003ec8c838d01620002e0565b985060408b01519150808211156200040357600080fd5b50620004128b828c01620002e0565b9650506200042360608a01620002ad565b9450608089015193506200043a60a08a01620002ad565b925060c089015191506200045160e08a01620002ad565b90509295985092959890939650565b600181811c908216806200047557607f821691505b6020821081036200049657634e487b7160e01b600052602260045260246000fd5b50919050565b601f821115620004ea57600081815260208120601f850160051c81016020861015620004c55750805b601f850160051c820191505b81811015620004e657828155600101620004d1565b5050505b505050565b81516001600160401b038111156200050b576200050b620002ca565b62000523816200051c845462000460565b846200049c565b602080601f8311600181146200055b5760008415620005425750858301515b600019600386901b1c1916600185901b178555620004e6565b600085815260208120601f198616915b828110156200058c578886015182559484019460019091019084016200056b565b5085821015620005ab5787850151600019600388901b60f8161c191681555b5050505050600190811b01905550565b60805160a05160c05160e0516139876200065e60003960008181610f6e015281816110d5015281816112c401528181611853015281816119d10152611d85015260006108b3015260006103b301526000818161058901528181610c4001528181610d2b015281816111ad0152818161156f015281816115f9015281816118f901528181611b8901528181611ea701528181611f3101526120e101526139876000f3fe6080604052600436106103195760003560e01c80636f7e9bd5116101ab578063bd85b039116100f7578063e58c6dfa11610095578063ea859a271161006f578063ea859a27146109ad578063f242432a146109da578063f77c4791146109fa578063f9db242714610a1a57600080fd5b8063e58c6dfa1461093d578063e7d3fe6b1461096d578063e985e9c51461098d57600080fd5b8063c6b61e4c116100d1578063c6b61e4c146108d5578063cfc13da6146108f5578063d662b92d14610908578063db2088f41461091d57600080fd5b8063bd85b03914610874578063c52987cf146108a1578063c63d75b6146105eb57600080fd5b80638fc710cb11610164578063a22cb4651161013e578063a22cb465146107f4578063b14f2a3914610814578063ba37f9e514610834578063bbec4d061461085457600080fd5b80638fc710cb1461079f57806394605857146107bf57806395d89b41146107df57600080fd5b80636f7e9bd5146106e957806371b3177a146107095780637a7af70d14610729578063819b48e3146107495780638bc7e8c4146107695780638dbdbe6d1461077f57600080fd5b806329322e051161026a578063402d267d116102235780634d288ba7116101fd5780634d288ba71461064d5780634e1273f41461067a5780634f558e79146106a757806356150edf146106d657600080fd5b8063402d267d146105eb578063488bd7b01461060d5780634cbd43de1461062d57600080fd5b806329322e05146105215780632eb2c2d6146105415780632fccfc831461056157806338d52e0f146105775780633cebb823146105ab5780633e048365146105cb57600080fd5b80630e89341c116102d757806323d68d8e116102b157806323d68d8e1461049f578063242156ed146104c1578063276b1140146104e157806328337df61461050157600080fd5b80630e89341c1461043f578063181e7b3b1461045f578063236b40201461047f57600080fd5b8062fdd58e1461031e5780630169a9961461035157806301ffc9a71461037157806304da1a46146103a157806306fdde03146103ed5780630b8a295a1461040f575b600080fd5b34801561032a57600080fd5b5061033e610339366004612d7c565b610a47565b6040519081526020015b60405180910390f35b34801561035d57600080fd5b5061033e61036c366004612da6565b610ae0565b34801561037d57600080fd5b5061039161038c366004612e05565b610da6565b6040519015158152602001610348565b3480156103ad57600080fd5b506103d57f000000000000000000000000000000000000000000000000000000000000000081565b6040516001600160a01b039091168152602001610348565b3480156103f957600080fd5b50610402610df6565b6040516103489190612e6f565b34801561041b57600080fd5b5061039161042a366004612e82565b600d6020526000908152604090205460ff1681565b34801561044b57600080fd5b5061040261045a366004612e82565b610e84565b34801561046b57600080fd5b5061033e61047a366004612e9b565b610f18565b34801561048b57600080fd5b5061033e61049a366004612ebd565b610f50565b3480156104ab57600080fd5b506104bf6104ba366004612e9b565b610f63565b005b3480156104cd57600080fd5b5061033e6104dc366004612ebd565b611091565b3480156104ed57600080fd5b5061033e6104fc366004612e9b565b6110a1565b34801561050d57600080fd5b506104bf61051c366004612e82565b6110ca565b34801561052d57600080fd5b506104bf61053c366004612ebd565b611117565b34801561054d57600080fd5b506104bf61055c366004613035565b611222565b34801561056d57600080fd5b5061033e60085481565b34801561058357600080fd5b506103d57f000000000000000000000000000000000000000000000000000000000000000081565b3480156105b757600080fd5b506104bf6105c63660046130df565b6112b9565b3480156105d757600080fd5b506104bf6105e6366004612e9b565b611323565b3480156105f757600080fd5b5061033e6106063660046130df565b5060001990565b34801561061957600080fd5b5061033e610628366004612e9b565b61135f565b34801561063957600080fd5b506104bf610648366004613108565b611389565b34801561065957600080fd5b5061033e610668366004612e82565b600a6020526000908152604090205481565b34801561068657600080fd5b5061069a610695366004613138565b611422565b604051610348919061323e565b3480156106b357600080fd5b506103916106c2366004612e82565b600090815260036020526040902054151590565b61033e6106e4366004612ebd565b61154c565b3480156106f557600080fd5b5061033e610704366004612e9b565b611689565b34801561071557600080fd5b5061033e610724366004612da6565b6117b0565b34801561073557600080fd5b5061033e610744366004612e9b565b6119ba565b34801561075557600080fd5b506104bf610764366004612e82565b6119c6565b34801561077557600080fd5b5061033e60105481565b34801561078b57600080fd5b5061033e61079a366004613251565b611a56565b3480156107ab57600080fd5b5061033e6107ba366004612e82565b611c77565b3480156107cb57600080fd5b5061033e6107da366004612e82565b611d15565b3480156107eb57600080fd5b50610402611d5e565b34801561080057600080fd5b506104bf61080f366004613286565b611d6b565b34801561082057600080fd5b506104bf61082f3660046130df565b611d7a565b34801561084057600080fd5b5061033e61084f366004612e82565b611e3a565b34801561086057600080fd5b5061033e61086f366004612e9b565b611e57565b34801561088057600080fd5b5061033e61088f366004612e82565b60009081526003602052604090205490565b3480156108ad57600080fd5b5061033e7f000000000000000000000000000000000000000000000000000000000000000081565b3480156108e157600080fd5b5061033e6108f0366004612e82565b611e63565b61033e610903366004612ebd565b611e84565b34801561091457600080fd5b5060075461033e565b34801561092957600080fd5b5061033e610938366004612e9b565b611fc1565b34801561094957600080fd5b50610391610958366004612e82565b600c6020526000908152604090205460ff1681565b34801561097957600080fd5b5061033e610988366004613251565b611feb565b34801561099957600080fd5b506103916109a83660046132b2565b6121bd565b3480156109b957600080fd5b5061033e6109c8366004612e82565b600b6020526000908152604090205481565b3480156109e657600080fd5b506104bf6109f53660046132dc565b6121eb565b348015610a0657600080fd5b50600f546103d5906001600160a01b031681565b348015610a2657600080fd5b5061033e610a35366004612e82565b60096020526000908152604090205481565b60006001600160a01b038316610ab75760405162461bcd60e51b815260206004820152602a60248201527f455243313135353a2061646472657373207a65726f206973206e6f742061207660448201526930b634b21037bbb732b960b11b60648201526084015b60405180910390fd5b506000818152602081815260408083206001600160a01b03861684529091529020545b92915050565b6000848042101580610b0557506000818152600c602052604090205460ff1615156001145b610b215760405162461bcd60e51b8152600401610aae90613341565b6000868152600d6020526040902054869060ff161515600114610b565760405162461bcd60e51b8152600401610aae906133ad565b336001600160a01b0385161480610b725750610b7284866121bd565b610b8e5760405162461bcd60e51b8152600401610aae906133dd565b610b98878761135f565b9250610ba48787611e57565b925082600003610be45760405162461bcd60e51b815260206004820152600b60248201526a5a45524f5f41535345545360a81b6044820152606401610aae565b6000610bf08885611689565b9050610bfd858989612272565b6000610c0882611e3a565b9050610c14818361343a565b600e5460405163a9059cbb60e01b81526001600160a01b039182166004820152602481018490529193507f0000000000000000000000000000000000000000000000000000000000000000169063a9059cbb906044016020604051808303816000875af1158015610c89573d6000803e3d6000fd5b505050506040513d601f19601f82011682018060405250810190610cad9190613451565b50604080513381526001600160a01b038981166020830152918101879052606081018490528a918816907fbbbdee62287b5bf3bee13cab60a29ad729cf38109bccbd2a986a11c99b8ca704906080015b60405180910390a360405163a9059cbb60e01b81526001600160a01b038881166004830152602482018490527f0000000000000000000000000000000000000000000000000000000000000000169063a9059cbb906044016020604051808303816000875af1158015610d74573d6000803e3d6000fd5b505050506040513d601f19601f82011682018060405250810190610d989190613451565b509098975050505050505050565b60006001600160e01b03198216636cdb3d1360e11b1480610dd757506001600160e01b031982166303a24d0760e21b145b80610ada57506301ffc9a760e01b6001600160e01b0319831614610ada565b60048054610e039061346e565b80601f0160208091040260200160405190810160405280929190818152602001828054610e2f9061346e565b8015610e7c5780601f10610e5157610100808354040283529160200191610e7c565b820191906000526020600020905b815481529060010190602001808311610e5f57829003601f168201915b505050505081565b606060028054610e939061346e565b80601f0160208091040260200160405190810160405280929190818152602001828054610ebf9061346e565b8015610f0c5780601f10610ee157610100808354040283529160200191610f0c565b820191906000526020600020905b815481529060010190602001808311610eef57829003601f168201915b50505050509050919050565b6000828152600360205260408120548015610f4657610f41610f3985611d15565b849083612407565b610f48565b825b949350505050565b6000610f5c8284610a47565b9392505050565b336001600160a01b037f00000000000000000000000000000000000000000000000000000000000000001614610fab5760405162461bcd60e51b8152600401610aae906134a2565b6000818152600d602052604090205460ff1615610ff65760405162461bcd60e51b815260206004820152600960248201526849445f45584953545360b81b6044820152606401610aae565b8082106110355760405162461bcd60e51b815260206004820152600d60248201526c0929cac82989288be8aa09e869609b1b6044820152606401610aae565b6000818152600d60209081526040808320805460ff19166001908117909155600b90925282209390935560078054938401815590527fa66cc928b5edb82af9bd49922954155ab7b0942694bea4ce44661d9a8736c68890910155565b6000610f5c8361047a8486610a47565b6000828152600360205260408120548015610f4657610f416110c285611d15565b849083612426565b336001600160a01b037f000000000000000000000000000000000000000000000000000000000000000016146111125760405162461bcd60e51b8152600401610aae906134a2565b600855565b600f546001600160a01b031633146111415760405162461bcd60e51b8152600401610aae906134d0565b6000828152600d6020526040902054829060ff1615156001146111765760405162461bcd60e51b8152600401610aae906133ad565b6000838152600960205260409081902054905163a9059cbb60e01b81526001600160a01b03848116600483015260248201929092527f00000000000000000000000000000000000000000000000000000000000000009091169063a9059cbb906044016020604051808303816000875af11580156111f8573d6000803e3d6000fd5b505050506040513d601f19601f8201168201806040525081019061121c9190613451565b50505050565b6001600160a01b03851633148061123e575061123e85336121bd565b6112a55760405162461bcd60e51b815260206004820152603260248201527f455243313135353a207472616e736665722063616c6c6572206973206e6f74206044820152711bdddb995c881b9bdc88185c1c1c9bdd995960721b6064820152608401610aae565b6112b28585858585612454565b5050505050565b336001600160a01b037f000000000000000000000000000000000000000000000000000000000000000016146113015760405162461bcd60e51b8152600401610aae906134a2565b600f80546001600160a01b0319166001600160a01b0392909216919091179055565b600f546001600160a01b0316331461134d5760405162461bcd60e51b8152600401610aae906134d0565b6000918252600a602052604090912055565b6000828152600360205260408120548015610f4657610f418161138186611d15565b859190612426565b600f546001600160a01b031633146113b35760405162461bcd60e51b8152600401610aae906134d0565b6000828152600d6020526040902054829060ff1615156001146113e85760405162461bcd60e51b8152600401610aae906133ad565b6000838152600c60205260409020805460ff191683151517905561140b83611d15565b600093845260096020526040909320929092555050565b606081518351146114875760405162461bcd60e51b815260206004820152602960248201527f455243313135353a206163636f756e747320616e6420696473206c656e677468604482015268040dad2e6dac2e8c6d60bb1b6064820152608401610aae565b6000835167ffffffffffffffff8111156114a3576114a3612ee9565b6040519080825280602002602001820160405280156114cc578160200160208202803683370190505b50905060005b8451811015611544576115178582815181106114f0576114f0613518565b602002602001015185838151811061150a5761150a613518565b6020026020010151610a47565b82828151811061152957611529613518565b602090810291909101015261153d8161352e565b90506114d2565b509392505050565b600080341161156d5760405162461bcd60e51b8152600401610aae90613547565b7f00000000000000000000000000000000000000000000000000000000000000006001600160a01b031663d0e30db0346040518263ffffffff1660e01b81526004016000604051808303818588803b1580156115c857600080fd5b505af11580156115dc573d6000803e3d6000fd5b505060405163a9059cbb60e01b81523360048201523460248201527f00000000000000000000000000000000000000000000000000000000000000006001600160a01b0316935063a9059cbb925060440190506020604051808303816000875af115801561164e573d6000803e3d6000fd5b505050506040513d601f19601f820116820180604052508101906116729190613451565b61167e5761167e613588565b610f5c833484611a56565b604051637259324b60e01b60208201526000906024016040516020818303038152906040528051906020012060056040516020016116c7919061359e565b604051602081830303815290604052805190602001200361177b576000838152600c602052604090205460ff16611746576000838152600a6020908152604080832054600990925290912054839161173591670de0b6b3a76400009061172e90859061263f565b9190612407565b61173f919061363d565b9050610ada565b6000838152600a602090815260408083205460099092529091205461173f9190670de0b6b3a76400009061172e90869061263f565b6000838152600a6020908152604080832054600990925290912054610f5c9190670de0b6b3a76400009061172e90869061263f565b60008480421015806117d557506000818152600c602052604090205460ff1615156001145b6117f15760405162461bcd60e51b8152600401610aae90613341565b6000868152600d6020526040902054869060ff1615156001146118265760405162461bcd60e51b8152600401610aae906133ad565b336001600160a01b0385161480611842575061184284866121bd565b806118755750336001600160a01b037f000000000000000000000000000000000000000000000000000000000000000016145b6118915760405162461bcd60e51b8152600401610aae906133dd565b61189b878761135f565b925060006118a98885611689565b90506118b6858986612272565b60006118c182611e3a565b90506118cd818361343a565b600e5460405163a9059cbb60e01b81526001600160a01b039182166004820152602481018490529193507f0000000000000000000000000000000000000000000000000000000000000000169063a9059cbb906044016020604051808303816000875af1158015611942573d6000803e3d6000fd5b505050506040513d601f19601f820116820180604052508101906119669190613451565b50604080513381526001600160a01b0389811660208301529181018a9052606081018490528a918816907fbbbdee62287b5bf3bee13cab60a29ad729cf38109bccbd2a986a11c99b8ca70490608001610cfd565b6000610f5c8383611fc1565b336001600160a01b037f00000000000000000000000000000000000000000000000000000000000000001614611a0e5760405162461bcd60e51b8152600401610aae906134a2565b60968110611a515760405162461bcd60e51b815260206004820152601060248201526f46656520697320746f6f20686967682160801b6044820152606401610aae565b601055565b6000838152600d6020526040812054849060ff161515600114611a8b5760405162461bcd60e51b8152600401610aae906133ad565b6008546000868152600b60205260409020548691611aa89161343a565b4210611ac65760405162461bcd60e51b8152600401610aae90613655565b600260065403611b185760405162461bcd60e51b815260206004820152601f60248201527f5265656e7472616e637947756172643a207265656e7472616e742063616c6c006044820152606401610aae565b6002600655611b2786866119ba565b925082600003611b675760405162461bcd60e51b815260206004820152600b60248201526a5a45524f5f53484152455360a81b6044820152606401610aae565b6040516323b872dd60e01b8152336004820152306024820152604481018490527f00000000000000000000000000000000000000000000000000000000000000006001600160a01b0316906323b872dd906064016020604051808303816000875af1158015611bda573d6000803e3d6000fd5b505050506040513d601f19601f82011682018060405250810190611bfe9190613451565b50611c1a84878560405180602001604052806000815250612654565b604080513381526020810185905290810184905286906001600160a01b038616907f4e2ca0515ed1aef1395f66b5303bb5d6f1bf9d61a353fa53f73f8ac9973fa9f6906060015b60405180910390a3505060016006559392505050565b6000805b600754811015611d0f578260078281548110611c9957611c99613518565b906000526020600020015403611cfd576001611cb460075490565b611cbe919061343a565b8103611ccd5750600092915050565b6007611cda82600161363d565b81548110611cea57611cea613518565b9060005260206000200154915050919050565b80611d078161352e565b915050611c7b565b50919050565b6000818152600d6020526040812054829060ff161515600114611d4a5760405162461bcd60e51b8152600401610aae906133ad565b505060009081526003602052604090205490565b60058054610e039061346e565b611d7633838361276e565b5050565b336001600160a01b037f00000000000000000000000000000000000000000000000000000000000000001614611dc25760405162461bcd60e51b8152600401610aae906134a2565b6001600160a01b038116611e185760405162461bcd60e51b815260206004820152601c60248201527f547265617375727920616464726573732063616e6e6f742062652030000000006044820152606401610aae565b600e80546001600160a01b0319166001600160a01b0392909216919091179055565b60006103e860105483611e4d91906136a5565b610ada91906136c4565b6000610f5c8383610f18565b60078181548110611e7357600080fd5b600091825260209091200154905081565b6000803411611ea55760405162461bcd60e51b8152600401610aae90613547565b7f00000000000000000000000000000000000000000000000000000000000000006001600160a01b031663d0e30db0346040518263ffffffff1660e01b81526004016000604051808303818588803b158015611f0057600080fd5b505af1158015611f14573d6000803e3d6000fd5b505060405163a9059cbb60e01b81523360048201523460248201527f00000000000000000000000000000000000000000000000000000000000000006001600160a01b0316935063a9059cbb925060440190506020604051808303816000875af1158015611f86573d6000803e3d6000fd5b505050506040513d601f19601f82011682018060405250810190611faa9190613451565b611fb657611fb6613588565b610f5c833484611feb565b6000828152600360205260408120548015610f4657610f4181611fe386611d15565b859190612407565b6000838152600d6020526040812054849060ff1615156001146120205760405162461bcd60e51b8152600401610aae906133ad565b6008546000868152600b6020526040902054869161203d9161343a565b421061205b5760405162461bcd60e51b8152600401610aae90613655565b6002600654036120ad5760405162461bcd60e51b815260206004820152601f60248201527f5265656e7472616e637947756172643a207265656e7472616e742063616c6c006044820152606401610aae565b60026006556120bc86866110a1565b6040516323b872dd60e01b8152336004820152306024820152604481018290529093507f00000000000000000000000000000000000000000000000000000000000000006001600160a01b0316906323b872dd906064016020604051808303816000875af1158015612132573d6000803e3d6000fd5b505050506040513d601f19601f820116820180604052508101906121569190613451565b5061217284878560405180602001604052806000815250612654565b604080513381526020810185905290810186905286906001600160a01b038616907f4e2ca0515ed1aef1395f66b5303bb5d6f1bf9d61a353fa53f73f8ac9973fa9f690606001611c61565b6001600160a01b03918216600090815260016020908152604080832093909416825291909152205460ff1690565b6001600160a01b038516331480612207575061220785336121bd565b6122655760405162461bcd60e51b815260206004820152602960248201527f455243313135353a2063616c6c6572206973206e6f74206f776e6572206e6f7260448201526808185c1c1c9bdd995960ba1b6064820152608401610aae565b6112b2858585858561284e565b6001600160a01b0383166122d45760405162461bcd60e51b815260206004820152602360248201527f455243313135353a206275726e2066726f6d20746865207a65726f206164647260448201526265737360e81b6064820152608401610aae565b3360006122e084612986565b905060006122ed84612986565b905061230d838760008585604051806020016040528060008152506129d1565b6000858152602081815260408083206001600160a01b038a1684529091529020548481101561238a5760405162461bcd60e51b8152602060048201526024808201527f455243313135353a206275726e20616d6f756e7420657863656564732062616c604482015263616e636560e01b6064820152608401610aae565b6000868152602081815260408083206001600160a01b038b81168086529184528285208a8703905582518b81529384018a90529092908816917fc3d58168c5ae7397731d063d5bbf3d657854427343f4c083240f7aacaa2d0f62910160405180910390a46040805160208101909152600090525b50505050505050565b82820281151584158583048514171661241f57600080fd5b0492915050565b82820281151584158583048514171661243e57600080fd5b6001826001830304018115150290509392505050565b81518351146124b65760405162461bcd60e51b815260206004820152602860248201527f455243313135353a2069647320616e6420616d6f756e7473206c656e677468206044820152670dad2e6dac2e8c6d60c31b6064820152608401610aae565b6001600160a01b0384166124dc5760405162461bcd60e51b8152600401610aae906136e6565b336124eb8187878787876129d1565b60005b84518110156125d157600085828151811061250b5761250b613518565b60200260200101519050600085838151811061252957612529613518565b602090810291909101810151600084815280835260408082206001600160a01b038e1683529093529190912054909150818110156125795760405162461bcd60e51b8152600401610aae9061372b565b6000838152602081815260408083206001600160a01b038e8116855292528083208585039055908b168252812080548492906125b690849061363d565b92505081905550505050806125ca9061352e565b90506124ee565b50846001600160a01b0316866001600160a01b0316826001600160a01b03167f4a39dc06d4c0dbc64b70af90fd698a233a518aa5d07e595d983b8c0526c8f7fb8787604051612621929190613775565b60405180910390a4612637818787878787612b4a565b505050505050565b6000610f5c83670de0b6b3a764000084612407565b6001600160a01b0384166126b45760405162461bcd60e51b815260206004820152602160248201527f455243313135353a206d696e7420746f20746865207a65726f206164647265736044820152607360f81b6064820152608401610aae565b3360006126c085612986565b905060006126cd85612986565b90506126de836000898585896129d1565b6000868152602081815260408083206001600160a01b038b1684529091528120805487929061270e90849061363d565b909155505060408051878152602081018790526001600160a01b03808a1692600092918716917fc3d58168c5ae7397731d063d5bbf3d657854427343f4c083240f7aacaa2d0f62910160405180910390a46123fe83600089898989612ca5565b816001600160a01b0316836001600160a01b0316036127e15760405162461bcd60e51b815260206004820152602960248201527f455243313135353a2073657474696e6720617070726f76616c20737461747573604482015268103337b91039b2b63360b91b6064820152608401610aae565b6001600160a01b03838116600081815260016020908152604080832094871680845294825291829020805460ff191686151590811790915591519182527f17307eab39ab6107e8899845ad3d59bd9653f200f220920489ca2b5937696c31910160405180910390a3505050565b6001600160a01b0384166128745760405162461bcd60e51b8152600401610aae906136e6565b33600061288085612986565b9050600061288d85612986565b905061289d8389898585896129d1565b6000868152602081815260408083206001600160a01b038c168452909152902054858110156128de5760405162461bcd60e51b8152600401610aae9061372b565b6000878152602081815260408083206001600160a01b038d8116855292528083208985039055908a1682528120805488929061291b90849061363d565b909155505060408051888152602081018890526001600160a01b03808b16928c821692918816917fc3d58168c5ae7397731d063d5bbf3d657854427343f4c083240f7aacaa2d0f62910160405180910390a461297b848a8a8a8a8a612ca5565b505050505050505050565b604080516001808252818301909252606091600091906020808301908036833701905050905082816000815181106129c0576129c0613518565b602090810291909101015292915050565b6001600160a01b038516612a585760005b8351811015612a56578281815181106129fd576129fd613518565b602002602001015160036000868481518110612a1b57612a1b613518565b602002602001015181526020019081526020016000206000828254612a40919061363d565b90915550612a4f90508161352e565b90506129e2565b505b6001600160a01b0384166126375760005b83518110156123fe576000848281518110612a8657612a86613518565b602002602001015190506000848381518110612aa457612aa4613518565b6020026020010151905060006003600084815260200190815260200160002054905081811015612b275760405162461bcd60e51b815260206004820152602860248201527f455243313135353a206275726e20616d6f756e74206578636565647320746f74604482015267616c537570706c7960c01b6064820152608401610aae565b60009283526003602052604090922091039055612b438161352e565b9050612a69565b6001600160a01b0384163b156126375760405163bc197c8160e01b81526001600160a01b0385169063bc197c8190612b8e90899089908890889088906004016137a3565b6020604051808303816000875af1925050508015612bc9575060408051601f3d908101601f19168201909252612bc691810190613801565b60015b612c7557612bd561381e565b806308c379a003612c0e5750612be961383a565b80612bf45750612c10565b8060405162461bcd60e51b8152600401610aae9190612e6f565b505b60405162461bcd60e51b815260206004820152603460248201527f455243313135353a207472616e7366657220746f206e6f6e20455243313135356044820152732932b1b2b4bb32b91034b6b83632b6b2b73a32b960611b6064820152608401610aae565b6001600160e01b0319811663bc197c8160e01b146123fe5760405162461bcd60e51b8152600401610aae906138c4565b6001600160a01b0384163b156126375760405163f23a6e6160e01b81526001600160a01b0385169063f23a6e6190612ce9908990899088908890889060040161390c565b6020604051808303816000875af1925050508015612d24575060408051601f3d908101601f19168201909252612d2191810190613801565b60015b612d3057612bd561381e565b6001600160e01b0319811663f23a6e6160e01b146123fe5760405162461bcd60e51b8152600401610aae906138c4565b80356001600160a01b0381168114612d7757600080fd5b919050565b60008060408385031215612d8f57600080fd5b612d9883612d60565b946020939093013593505050565b60008060008060808587031215612dbc57600080fd5b8435935060208501359250612dd360408601612d60565b9150612de160608601612d60565b905092959194509250565b6001600160e01b031981168114612e0257600080fd5b50565b600060208284031215612e1757600080fd5b8135610f5c81612dec565b6000815180845260005b81811015612e4857602081850181015186830182015201612e2c565b81811115612e5a576000602083870101525b50601f01601f19169290920160200192915050565b602081526000610f5c6020830184612e22565b600060208284031215612e9457600080fd5b5035919050565b60008060408385031215612eae57600080fd5b50508035926020909101359150565b60008060408385031215612ed057600080fd5b82359150612ee060208401612d60565b90509250929050565b634e487b7160e01b600052604160045260246000fd5b601f8201601f1916810167ffffffffffffffff81118282101715612f2557612f25612ee9565b6040525050565b600067ffffffffffffffff821115612f4657612f46612ee9565b5060051b60200190565b600082601f830112612f6157600080fd5b81356020612f6e82612f2c565b604051612f7b8282612eff565b83815260059390931b8501820192828101915086841115612f9b57600080fd5b8286015b84811015612fb65780358352918301918301612f9f565b509695505050505050565b600082601f830112612fd257600080fd5b813567ffffffffffffffff811115612fec57612fec612ee9565b604051613003601f8301601f191660200182612eff565b81815284602083860101111561301857600080fd5b816020850160208301376000918101602001919091529392505050565b600080600080600060a0868803121561304d57600080fd5b61305686612d60565b945061306460208701612d60565b9350604086013567ffffffffffffffff8082111561308157600080fd5b61308d89838a01612f50565b945060608801359150808211156130a357600080fd5b6130af89838a01612f50565b935060808801359150808211156130c557600080fd5b506130d288828901612fc1565b9150509295509295909350565b6000602082840312156130f157600080fd5b610f5c82612d60565b8015158114612e0257600080fd5b6000806040838503121561311b57600080fd5b82359150602083013561312d816130fa565b809150509250929050565b6000806040838503121561314b57600080fd5b823567ffffffffffffffff8082111561316357600080fd5b818501915085601f83011261317757600080fd5b8135602061318482612f2c565b6040516131918282612eff565b83815260059390931b85018201928281019150898411156131b157600080fd5b948201945b838610156131d6576131c786612d60565b825294820194908201906131b6565b965050860135925050808211156131ec57600080fd5b506131f985828601612f50565b9150509250929050565b600081518084526020808501945080840160005b8381101561323357815187529582019590820190600101613217565b509495945050505050565b602081526000610f5c6020830184613203565b60008060006060848603121561326657600080fd5b833592506020840135915061327d60408501612d60565b90509250925092565b6000806040838503121561329957600080fd5b6132a283612d60565b9150602083013561312d816130fa565b600080604083850312156132c557600080fd5b6132ce83612d60565b9150612ee060208401612d60565b600080600080600060a086880312156132f457600080fd5b6132fd86612d60565b945061330b60208701612d60565b93506040860135925060608601359150608086013567ffffffffffffffff81111561333557600080fd5b6130d288828901612fc1565b60208082526046908201527f45706f636820686173206e6f7420656e6465642c206f7220646570656720657660408201527f656e7420686173206e6f74206f63757272656420696e207468652074696d65206060820152656265696e672160d01b608082015260a00190565b6020808252601690820152754d61726b657420646f6573206e6f742045786973742160501b604082015260600190565b60208082526027908201527f4f776e6572206e6565647320746f20617070726f766520726563656976657220604082015266199bdc88185b1b60ca1b606082015260800190565b634e487b7160e01b600052601160045260246000fd5b60008282101561344c5761344c613424565b500390565b60006020828403121561346357600080fd5b8151610f5c816130fa565b600181811c9082168061348257607f821691505b602082108103611d0f57634e487b7160e01b600052602260045260246000fd5b602080825260149082015273596f7520617265206e6f7420466163746f72792160601b604082015260600190565b60208082526028908201527f596f7520617265206e6f742063616c6c696e672066726f6d2074686520436f6e60408201526774726f6c6c65722160c01b606082015260800190565b634e487b7160e01b600052603260045260246000fd5b60006001820161354057613540613424565b5060010190565b60208082526021908201527f45544820616d6f756e74206d7573742062652067726561746572207468616e206040820152600360fc1b606082015260800190565b634e487b7160e01b600052600160045260246000fd5b600080835481600182811c9150808316806135ba57607f831692505b602080841082036135d957634e487b7160e01b86526022600452602486fd5b8180156135ed57600181146136025761362f565b60ff198616895284151585028901965061362f565b60008a81526020902060005b868110156136275781548b82015290850190830161360e565b505084890196505b509498975050505050505050565b6000821982111561365057613650613424565b500190565b60208082526030908201527f4465706f7369742074696d65206973206f7665722c2045706f6368206861732060408201526f616c726561647920737461727465642160801b606082015260800190565b60008160001904831182151516156136bf576136bf613424565b500290565b6000826136e157634e487b7160e01b600052601260045260246000fd5b500490565b60208082526025908201527f455243313135353a207472616e7366657220746f20746865207a65726f206164604082015264647265737360d81b606082015260800190565b6020808252602a908201527f455243313135353a20696e73756666696369656e742062616c616e636520666f60408201526939103a3930b739b332b960b11b606082015260800190565b6040815260006137886040830185613203565b828103602084015261379a8185613203565b95945050505050565b6001600160a01b0386811682528516602082015260a0604082018190526000906137cf90830186613203565b82810360608401526137e18186613203565b905082810360808401526137f58185612e22565b98975050505050505050565b60006020828403121561381357600080fd5b8151610f5c81612dec565b600060033d11156138375760046000803e5060005160e01c5b90565b600060443d10156138485790565b6040516003193d81016004833e81513d67ffffffffffffffff816024840111818411171561387857505050505090565b82850191508151818111156138905750505050505090565b843d87010160208285010111156138aa5750505050505090565b6138b960208286010187612eff565b509095945050505050565b60208082526028908201527f455243313135353a204552433131353552656365697665722072656a656374656040820152676420746f6b656e7360c01b606082015260800190565b6001600160a01b03868116825285166020820152604081018490526060810183905260a06080820181905260009061394690830184612e22565b97965050505050505056fea26469706673582212202cbe76c35f7cc71b9d53ce981fa5557fd38e80f7ccac3a5686de56c4abe5ef2864736f6c634300080f0033",
    "linkReferences": {}
  },
  "methodIdentifiers": {
    "asset()": "38d52e0f",
    "balanceOf(address,uint256)": "00fdd58e",
    "balanceOfBatch(address[],uint256[])": "4e1273f4",
    "beforeWithdraw(uint256,uint256)": "6f7e9bd5",
    "calculateWithdrawalFeeValue(uint256)": "ba37f9e5",
    "changeController(address)": "3cebb823",
    "changeTimewindow(uint256)": "28337df6",
    "changeTreasury(address)": "b14f2a39",
    "changeWithdrawalFee(uint256)": "819b48e3",
    "controller()": "f77c4791",
    "convertToAssets(uint256,uint256)": "181e7b3b",
    "convertToShares(uint256,uint256)": "db2088f4",
    "createAssets(uint256,uint256)": "23d68d8e",
    "deposit(uint256,uint256,address)": "8dbdbe6d",
    "depositETH(uint256,address)": "56150edf",
    "endEpoch(uint256,bool)": "4cbd43de",
    "epochs(uint256)": "c6b61e4c",
    "epochsLength()": "d662b92d",
    "exists(uint256)": "4f558e79",
    "getNextEpoch(uint256)": "8fc710cb",
    "idClaimTVL(uint256)": "4d288ba7",
    "idDepegged(uint256)": "e58c6dfa",
    "idEpochBegin(uint256)": "ea859a27",
    "idExists(uint256)": "0b8a295a",
    "idFinalTVL(uint256)": "f9db2427",
    "isApprovedForAll(address,address)": "e985e9c5",
    "maxDeposit(address)": "402d267d",
    "maxMint(address)": "c63d75b6",
    "maxRedeem(uint256,address)": "236b4020",
    "maxWithdraw(uint256,address)": "242156ed",
    "mint(uint256,uint256,address)": "e7d3fe6b",
    "mintETH(uint256,address)": "cfc13da6",
    "name()": "06fdde03",
    "previewDeposit(uint256,uint256)": "7a7af70d",
    "previewMint(uint256,uint256)": "276b1140",
    "previewRedeem(uint256,uint256)": "bbec4d06",
    "previewWithdraw(uint256,uint256)": "488bd7b0",
    "redeem(uint256,uint256,address,address)": "0169a996",
    "safeBatchTransferFrom(address,address,uint256[],uint256[],bytes)": "2eb2c2d6",
    "safeTransferFrom(address,address,uint256,uint256,bytes)": "f242432a",
    "sendTokens(uint256,address)": "29322e05",
    "setApprovalForAll(address,bool)": "a22cb465",
    "setClaimTVL(uint256,uint256)": "3e048365",
    "strikePrice()": "c52987cf",
    "supportsInterface(bytes4)": "01ffc9a7",
    "symbol()": "95d89b41",
    "timewindow()": "2fccfc83",
    "tokenInsured()": "04da1a46",
    "totalAssets(uint256)": "94605857",
    "totalSupply(uint256)": "bd85b039",
    "uri(uint256)": "0e89341c",
    "withdraw(uint256,uint256,address,address)": "71b3177a",
    "withdrawalFee()": "8bc7e8c4"
  },
  "id": 27
}