{
  "abi": [
    {
      "inputs": [
        {
          "internalType": "address",
          "name": "_assetAddress",
          "type": "address"
        },
        {
          "internalType": "string",
          "name": "_name",
          "type": "string"
        },
        {
          "internalType": "string",
          "name": "_symbol",
          "type": "string"
        },
        {
          "internalType": "address",
          "name": "_treasury",
          "type": "address"
        },
        {
          "internalType": "uint256",
          "name": "_fee",
          "type": "uint256"
        },
        {
          "internalType": "uint256",
          "name": "_riskWithdrawalFee",
          "type": "uint256"
        },
        {
          "internalType": "address",
          "name": "_token",
          "type": "address"
        },
        {
          "internalType": "int256",
          "name": "_strikePrice",
          "type": "int256"
        },
        {
          "internalType": "address",
          "name": "_controller",
          "type": "address"
        }
      ],
      "stateMutability": "nonpayable",
      "type": "constructor"
    },
    {
      "anonymous": false,
      "inputs": [
        {
          "indexed": true,
          "internalType": "address",
          "name": "account",
          "type": "address"
        },
        {
          "indexed": true,
          "internalType": "address",
          "name": "operator",
          "type": "address"
        },
        {
          "indexed": false,
          "internalType": "bool",
          "name": "approved",
          "type": "bool"
        }
      ],
      "name": "ApprovalForAll",
      "type": "event"
    },
    {
      "anonymous": false,
      "inputs": [
        {
          "indexed": false,
          "internalType": "address",
          "name": "caller",
          "type": "address"
        },
        {
          "indexed": true,
          "internalType": "address",
          "name": "owner",
          "type": "address"
        },
        {
          "indexed": true,
          "internalType": "uint256",
          "name": "id",
          "type": "uint256"
        },
        {
          "indexed": false,
          "internalType": "uint256",
          "name": "assets",
          "type": "uint256"
        },
        {
          "indexed": false,
          "internalType": "uint256",
          "name": "shares",
          "type": "uint256"
        }
      ],
      "name": "Deposit",
      "type": "event"
    },
    {
      "anonymous": false,
      "inputs": [
        {
          "indexed": true,
          "internalType": "address",
          "name": "operator",
          "type": "address"
        },
        {
          "indexed": true,
          "internalType": "address",
          "name": "from",
          "type": "address"
        },
        {
          "indexed": true,
          "internalType": "address",
          "name": "to",
          "type": "address"
        },
        {
          "indexed": false,
          "internalType": "uint256[]",
          "name": "ids",
          "type": "uint256[]"
        },
        {
          "indexed": false,
          "internalType": "uint256[]",
          "name": "values",
          "type": "uint256[]"
        }
      ],
      "name": "TransferBatch",
      "type": "event"
    },
    {
      "anonymous": false,
      "inputs": [
        {
          "indexed": true,
          "internalType": "address",
          "name": "operator",
          "type": "address"
        },
        {
          "indexed": true,
          "internalType": "address",
          "name": "from",
          "type": "address"
        },
        {
          "indexed": true,
          "internalType": "address",
          "name": "to",
          "type": "address"
        },
        {
          "indexed": false,
          "internalType": "uint256",
          "name": "id",
          "type": "uint256"
        },
        {
          "indexed": false,
          "internalType": "uint256",
          "name": "value",
          "type": "uint256"
        }
      ],
      "name": "TransferSingle",
      "type": "event"
    },
    {
      "anonymous": false,
      "inputs": [
        {
          "indexed": false,
          "internalType": "string",
          "name": "value",
          "type": "string"
        },
        {
          "indexed": true,
          "internalType": "uint256",
          "name": "id",
          "type": "uint256"
        }
      ],
      "name": "URI",
      "type": "event"
    },
    {
      "anonymous": false,
      "inputs": [
        {
          "indexed": false,
          "internalType": "address",
          "name": "caller",
          "type": "address"
        },
        {
          "indexed": false,
          "internalType": "address",
          "name": "receiver",
          "type": "address"
        },
        {
          "indexed": true,
          "internalType": "address",
          "name": "owner",
          "type": "address"
        },
        {
          "indexed": true,
          "internalType": "uint256",
          "name": "id",
          "type": "uint256"
        },
        {
          "indexed": false,
          "internalType": "uint256",
          "name": "assets",
          "type": "uint256"
        },
        {
          "indexed": false,
          "internalType": "uint256",
          "name": "shares",
          "type": "uint256"
        }
      ],
      "name": "Withdraw",
      "type": "event"
    },
    {
      "inputs": [],
      "name": "asset",
      "outputs": [
        {
          "internalType": "contract ERC20",
          "name": "",
          "type": "address"
        }
      ],
      "stateMutability": "view",
      "type": "function"
    },
    {
      "inputs": [
        {
          "internalType": "address",
          "name": "account",
          "type": "address"
        },
        {
          "internalType": "uint256",
          "name": "id",
          "type": "uint256"
        }
      ],
      "name": "balanceOf",
      "outputs": [
        {
          "internalType": "uint256",
          "name": "",
          "type": "uint256"
        }
      ],
      "stateMutability": "view",
      "type": "function"
    },
    {
      "inputs": [
        {
          "internalType": "address[]",
          "name": "accounts",
          "type": "address[]"
        },
        {
          "internalType": "uint256[]",
          "name": "ids",
          "type": "uint256[]"
        }
      ],
      "name": "balanceOfBatch",
      "outputs": [
        {
          "internalType": "uint256[]",
          "name": "",
          "type": "uint256[]"
        }
      ],
      "stateMutability": "view",
      "type": "function"
    },
    {
      "inputs": [
        {
          "internalType": "uint256",
          "name": "id",
          "type": "uint256"
        },
        {
          "internalType": "uint256",
          "name": "amount",
          "type": "uint256"
        }
      ],
      "name": "beforeWithdraw",
      "outputs": [
        {
          "internalType": "uint256",
          "name": "entitledAmount",
          "type": "uint256"
        }
      ],
      "stateMutability": "view",
      "type": "function"
    },
    {
      "inputs": [
        {
          "internalType": "uint256",
          "name": "amount",
          "type": "uint256"
        }
      ],
      "name": "calculateFeeValue",
      "outputs": [
        {
          "internalType": "uint256",
          "name": "feeValue",
          "type": "uint256"
        }
      ],
      "stateMutability": "view",
      "type": "function"
    },
    {
      "inputs": [
        {
          "internalType": "uint256",
          "name": "amount",
          "type": "uint256"
        }
      ],
      "name": "calculateWithdrawalFeeValue",
      "outputs": [
        {
          "internalType": "uint256",
          "name": "feeValue",
          "type": "uint256"
        }
      ],
      "stateMutability": "view",
      "type": "function"
    },
    {
      "inputs": [
        {
          "internalType": "address",
          "name": "_controller",
          "type": "address"
        }
      ],
      "name": "changeController",
      "outputs": [],
      "stateMutability": "nonpayable",
      "type": "function"
    },
    {
      "inputs": [
        {
          "internalType": "uint256",
          "name": "_fee",
          "type": "uint256"
        }
      ],
      "name": "changeFee",
      "outputs": [],
      "stateMutability": "nonpayable",
      "type": "function"
    },
    {
      "inputs": [
        {
          "internalType": "uint256",
          "name": "_timewindow",
          "type": "uint256"
        }
      ],
      "name": "changeTimewindow",
      "outputs": [],
      "stateMutability": "nonpayable",
      "type": "function"
    },
    {
      "inputs": [
        {
          "internalType": "address",
          "name": "_treasury",
          "type": "address"
        }
      ],
      "name": "changeTreasury",
      "outputs": [],
      "stateMutability": "nonpayable",
      "type": "function"
    },
    {
      "inputs": [
        {
          "internalType": "uint256",
          "name": "_riskWithdrawalFee",
          "type": "uint256"
        }
      ],
      "name": "changeWithdrawalFee",
      "outputs": [],
      "stateMutability": "nonpayable",
      "type": "function"
    },
    {
      "inputs": [],
      "name": "controller",
      "outputs": [
        {
          "internalType": "address",
          "name": "",
          "type": "address"
        }
      ],
      "stateMutability": "view",
      "type": "function"
    },
    {
      "inputs": [
        {
          "internalType": "uint256",
          "name": "id",
          "type": "uint256"
        },
        {
          "internalType": "uint256",
          "name": "shares",
          "type": "uint256"
        }
      ],
      "name": "convertToAssets",
      "outputs": [
        {
          "internalType": "uint256",
          "name": "",
          "type": "uint256"
        }
      ],
      "stateMutability": "view",
      "type": "function"
    },
    {
      "inputs": [
        {
          "internalType": "uint256",
          "name": "id",
          "type": "uint256"
        },
        {
          "internalType": "uint256",
          "name": "assets",
          "type": "uint256"
        }
      ],
      "name": "convertToShares",
      "outputs": [
        {
          "internalType": "uint256",
          "name": "",
          "type": "uint256"
        }
      ],
      "stateMutability": "view",
      "type": "function"
    },
    {
      "inputs": [
        {
          "internalType": "uint256",
          "name": "epochBegin",
          "type": "uint256"
        },
        {
          "internalType": "uint256",
          "name": "epochEnd",
          "type": "uint256"
        }
      ],
      "name": "createAssets",
      "outputs": [],
      "stateMutability": "nonpayable",
      "type": "function"
    },
    {
      "inputs": [
        {
          "internalType": "uint256",
          "name": "id",
          "type": "uint256"
        },
        {
          "internalType": "uint256",
          "name": "assets",
          "type": "uint256"
        },
        {
          "internalType": "address",
          "name": "receiver",
          "type": "address"
        }
      ],
      "name": "deposit",
      "outputs": [
        {
          "internalType": "uint256",
          "name": "shares",
          "type": "uint256"
        }
      ],
      "stateMutability": "nonpayable",
      "type": "function"
    },
    {
      "inputs": [
        {
          "internalType": "uint256",
          "name": "id",
          "type": "uint256"
        },
        {
          "internalType": "address",
          "name": "receiver",
          "type": "address"
        }
      ],
      "name": "depositETH",
      "outputs": [
        {
          "internalType": "uint256",
          "name": "shares",
          "type": "uint256"
        }
      ],
      "stateMutability": "payable",
      "type": "function"
    },
    {
      "inputs": [
        {
          "internalType": "uint256",
          "name": "id",
          "type": "uint256"
        },
        {
          "internalType": "bool",
          "name": "depeg",
          "type": "bool"
        }
      ],
      "name": "endEpoch",
      "outputs": [],
      "stateMutability": "nonpayable",
      "type": "function"
    },
    {
      "inputs": [
        {
          "internalType": "uint256",
          "name": "",
          "type": "uint256"
        }
      ],
      "name": "epochs",
      "outputs": [
        {
          "internalType": "uint256",
          "name": "",
          "type": "uint256"
        }
      ],
      "stateMutability": "view",
      "type": "function"
    },
    {
      "inputs": [],
      "name": "epochsLength",
      "outputs": [
        {
          "internalType": "uint256",
          "name": "",
          "type": "uint256"
        }
      ],
      "stateMutability": "view",
      "type": "function"
    },
    {
      "inputs": [
        {
          "internalType": "uint256",
          "name": "id",
          "type": "uint256"
        }
      ],
      "name": "exists",
      "outputs": [
        {
          "internalType": "bool",
          "name": "",
          "type": "bool"
        }
      ],
      "stateMutability": "view",
      "type": "function"
    },
    {
      "inputs": [],
      "name": "feeTaken",
      "outputs": [
        {
          "internalType": "uint256",
          "name": "",
          "type": "uint256"
        }
      ],
      "stateMutability": "view",
      "type": "function"
    },
    {
      "inputs": [
        {
          "internalType": "uint256",
          "name": "_epoch",
          "type": "uint256"
        }
      ],
      "name": "getNextEpoch",
      "outputs": [
        {
          "internalType": "uint256",
          "name": "nextEpochEnd",
          "type": "uint256"
        }
      ],
      "stateMutability": "view",
      "type": "function"
    },
    {
      "inputs": [
        {
          "internalType": "uint256",
          "name": "",
          "type": "uint256"
        }
      ],
      "name": "idClaimTVL",
      "outputs": [
        {
          "internalType": "uint256",
          "name": "",
          "type": "uint256"
        }
      ],
      "stateMutability": "view",
      "type": "function"
    },
    {
      "inputs": [
        {
          "internalType": "uint256",
          "name": "",
          "type": "uint256"
        }
      ],
      "name": "idDepegged",
      "outputs": [
        {
          "internalType": "bool",
          "name": "",
          "type": "bool"
        }
      ],
      "stateMutability": "view",
      "type": "function"
    },
    {
      "inputs": [
        {
          "internalType": "uint256",
          "name": "",
          "type": "uint256"
        }
      ],
      "name": "idEpochBegin",
      "outputs": [
        {
          "internalType": "uint256",
          "name": "",
          "type": "uint256"
        }
      ],
      "stateMutability": "view",
      "type": "function"
    },
    {
      "inputs": [
        {
          "internalType": "uint256",
          "name": "",
          "type": "uint256"
        }
      ],
      "name": "idExists",
      "outputs": [
        {
          "internalType": "bool",
          "name": "",
          "type": "bool"
        }
      ],
      "stateMutability": "view",
      "type": "function"
    },
    {
      "inputs": [
        {
          "internalType": "uint256",
          "name": "",
          "type": "uint256"
        }
      ],
      "name": "idFinalTVL",
      "outputs": [
        {
          "internalType": "uint256",
          "name": "",
          "type": "uint256"
        }
      ],
      "stateMutability": "view",
      "type": "function"
    },
    {
      "inputs": [
        {
          "internalType": "address",
          "name": "account",
          "type": "address"
        },
        {
          "internalType": "address",
          "name": "operator",
          "type": "address"
        }
      ],
      "name": "isApprovedForAll",
      "outputs": [
        {
          "internalType": "bool",
          "name": "",
          "type": "bool"
        }
      ],
      "stateMutability": "view",
      "type": "function"
    },
    {
      "inputs": [
        {
          "internalType": "address",
          "name": "",
          "type": "address"
        }
      ],
      "name": "maxDeposit",
      "outputs": [
        {
          "internalType": "uint256",
          "name": "",
          "type": "uint256"
        }
      ],
      "stateMutability": "view",
      "type": "function"
    },
    {
      "inputs": [
        {
          "internalType": "address",
          "name": "",
          "type": "address"
        }
      ],
      "name": "maxMint",
      "outputs": [
        {
          "internalType": "uint256",
          "name": "",
          "type": "uint256"
        }
      ],
      "stateMutability": "view",
      "type": "function"
    },
    {
      "inputs": [
        {
          "internalType": "uint256",
          "name": "id",
          "type": "uint256"
        },
        {
          "internalType": "address",
          "name": "owner",
          "type": "address"
        }
      ],
      "name": "maxRedeem",
      "outputs": [
        {
          "internalType": "uint256",
          "name": "",
          "type": "uint256"
        }
      ],
      "stateMutability": "view",
      "type": "function"
    },
    {
      "inputs": [
        {
          "internalType": "uint256",
          "name": "id",
          "type": "uint256"
        },
        {
          "internalType": "address",
          "name": "owner",
          "type": "address"
        }
      ],
      "name": "maxWithdraw",
      "outputs": [
        {
          "internalType": "uint256",
          "name": "",
          "type": "uint256"
        }
      ],
      "stateMutability": "view",
      "type": "function"
    },
    {
      "inputs": [
        {
          "internalType": "uint256",
          "name": "id",
          "type": "uint256"
        },
        {
          "internalType": "uint256",
          "name": "shares",
          "type": "uint256"
        },
        {
          "internalType": "address",
          "name": "receiver",
          "type": "address"
        }
      ],
      "name": "mint",
      "outputs": [
        {
          "internalType": "uint256",
          "name": "assets",
          "type": "uint256"
        }
      ],
      "stateMutability": "nonpayable",
      "type": "function"
    },
    {
      "inputs": [
        {
          "internalType": "uint256",
          "name": "id",
          "type": "uint256"
        },
        {
          "internalType": "address",
          "name": "receiver",
          "type": "address"
        }
      ],
      "name": "mintETH",
      "outputs": [
        {
          "internalType": "uint256",
          "name": "shares",
          "type": "uint256"
        }
      ],
      "stateMutability": "payable",
      "type": "function"
    },
    {
      "inputs": [],
      "name": "name",
      "outputs": [
        {
          "internalType": "string",
          "name": "",
          "type": "string"
        }
      ],
      "stateMutability": "view",
      "type": "function"
    },
    {
      "inputs": [
        {
          "internalType": "uint256",
          "name": "id",
          "type": "uint256"
        },
        {
          "internalType": "uint256",
          "name": "assets",
          "type": "uint256"
        }
      ],
      "name": "previewDeposit",
      "outputs": [
        {
          "internalType": "uint256",
          "name": "",
          "type": "uint256"
        }
      ],
      "stateMutability": "view",
      "type": "function"
    },
    {
      "inputs": [
        {
          "internalType": "uint256",
          "name": "id",
          "type": "uint256"
        },
        {
          "internalType": "uint256",
          "name": "shares",
          "type": "uint256"
        }
      ],
      "name": "previewMint",
      "outputs": [
        {
          "internalType": "uint256",
          "name": "",
          "type": "uint256"
        }
      ],
      "stateMutability": "view",
      "type": "function"
    },
    {
      "inputs": [
        {
          "internalType": "uint256",
          "name": "id",
          "type": "uint256"
        },
        {
          "internalType": "uint256",
          "name": "shares",
          "type": "uint256"
        }
      ],
      "name": "previewRedeem",
      "outputs": [
        {
          "internalType": "uint256",
          "name": "",
          "type": "uint256"
        }
      ],
      "stateMutability": "view",
      "type": "function"
    },
    {
      "inputs": [
        {
          "internalType": "uint256",
          "name": "id",
          "type": "uint256"
        },
        {
          "internalType": "uint256",
          "name": "assets",
          "type": "uint256"
        }
      ],
      "name": "previewWithdraw",
      "outputs": [
        {
          "internalType": "uint256",
          "name": "",
          "type": "uint256"
        }
      ],
      "stateMutability": "view",
      "type": "function"
    },
    {
      "inputs": [
        {
          "internalType": "uint256",
          "name": "id",
          "type": "uint256"
        },
        {
          "internalType": "uint256",
          "name": "shares",
          "type": "uint256"
        },
        {
          "internalType": "address",
          "name": "receiver",
          "type": "address"
        },
        {
          "internalType": "address",
          "name": "owner",
          "type": "address"
        }
      ],
      "name": "redeem",
      "outputs": [
        {
          "internalType": "uint256",
          "name": "assets",
          "type": "uint256"
        }
      ],
      "stateMutability": "nonpayable",
      "type": "function"
    },
    {
      "inputs": [
        {
          "internalType": "address",
          "name": "from",
          "type": "address"
        },
        {
          "internalType": "address",
          "name": "to",
          "type": "address"
        },
        {
          "internalType": "uint256[]",
          "name": "ids",
          "type": "uint256[]"
        },
        {
          "internalType": "uint256[]",
          "name": "amounts",
          "type": "uint256[]"
        },
        {
          "internalType": "bytes",
          "name": "data",
          "type": "bytes"
        }
      ],
      "name": "safeBatchTransferFrom",
      "outputs": [],
      "stateMutability": "nonpayable",
      "type": "function"
    },
    {
      "inputs": [
        {
          "internalType": "address",
          "name": "from",
          "type": "address"
        },
        {
          "internalType": "address",
          "name": "to",
          "type": "address"
        },
        {
          "internalType": "uint256",
          "name": "id",
          "type": "uint256"
        },
        {
          "internalType": "uint256",
          "name": "amount",
          "type": "uint256"
        },
        {
          "internalType": "bytes",
          "name": "data",
          "type": "bytes"
        }
      ],
      "name": "safeTransferFrom",
      "outputs": [],
      "stateMutability": "nonpayable",
      "type": "function"
    },
    {
      "inputs": [
        {
          "internalType": "uint256",
          "name": "id",
          "type": "uint256"
        },
        {
          "internalType": "address",
          "name": "_counterparty",
          "type": "address"
        }
      ],
      "name": "sendTokens",
      "outputs": [],
      "stateMutability": "nonpayable",
      "type": "function"
    },
    {
      "inputs": [
        {
          "internalType": "address",
          "name": "operator",
          "type": "address"
        },
        {
          "internalType": "bool",
          "name": "approved",
          "type": "bool"
        }
      ],
      "name": "setApprovalForAll",
      "outputs": [],
      "stateMutability": "nonpayable",
      "type": "function"
    },
    {
      "inputs": [
        {
          "internalType": "uint256",
          "name": "id",
          "type": "uint256"
        },
        {
          "internalType": "uint256",
          "name": "claimTVL",
          "type": "uint256"
        }
      ],
      "name": "setClaimTVL",
      "outputs": [],
      "stateMutability": "nonpayable",
      "type": "function"
    },
    {
      "inputs": [],
      "name": "strikePrice",
      "outputs": [
        {
          "internalType": "int256",
          "name": "",
          "type": "int256"
        }
      ],
      "stateMutability": "view",
      "type": "function"
    },
    {
      "inputs": [
        {
          "internalType": "bytes4",
          "name": "interfaceId",
          "type": "bytes4"
        }
      ],
      "name": "supportsInterface",
      "outputs": [
        {
          "internalType": "bool",
          "name": "",
          "type": "bool"
        }
      ],
      "stateMutability": "view",
      "type": "function"
    },
    {
      "inputs": [],
      "name": "symbol",
      "outputs": [
        {
          "internalType": "string",
          "name": "",
          "type": "string"
        }
      ],
      "stateMutability": "view",
      "type": "function"
    },
    {
      "inputs": [],
      "name": "timewindow",
      "outputs": [
        {
          "internalType": "uint256",
          "name": "",
          "type": "uint256"
        }
      ],
      "stateMutability": "view",
      "type": "function"
    },
    {
      "inputs": [],
      "name": "tokenInsured",
      "outputs": [
        {
          "internalType": "address",
          "name": "",
          "type": "address"
        }
      ],
      "stateMutability": "view",
      "type": "function"
    },
    {
      "inputs": [
        {
          "internalType": "uint256",
          "name": "_id",
          "type": "uint256"
        }
      ],
      "name": "totalAssets",
      "outputs": [
        {
          "internalType": "uint256",
          "name": "",
          "type": "uint256"
        }
      ],
      "stateMutability": "view",
      "type": "function"
    },
    {
      "inputs": [
        {
          "internalType": "uint256",
          "name": "id",
          "type": "uint256"
        }
      ],
      "name": "totalSupply",
      "outputs": [
        {
          "internalType": "uint256",
          "name": "",
          "type": "uint256"
        }
      ],
      "stateMutability": "view",
      "type": "function"
    },
    {
      "inputs": [
        {
          "internalType": "uint256",
          "name": "",
          "type": "uint256"
        }
      ],
      "name": "uri",
      "outputs": [
        {
          "internalType": "string",
          "name": "",
          "type": "string"
        }
      ],
      "stateMutability": "view",
      "type": "function"
    },
    {
      "inputs": [
        {
          "internalType": "uint256",
          "name": "id",
          "type": "uint256"
        },
        {
          "internalType": "uint256",
          "name": "assets",
          "type": "uint256"
        },
        {
          "internalType": "address",
          "name": "receiver",
          "type": "address"
        },
        {
          "internalType": "address",
          "name": "owner",
          "type": "address"
        }
      ],
      "name": "withdraw",
      "outputs": [
        {
          "internalType": "uint256",
          "name": "shares",
          "type": "uint256"
        }
      ],
      "stateMutability": "nonpayable",
      "type": "function"
    },
    {
      "inputs": [],
      "name": "withdrawalFee",
      "outputs": [
        {
          "internalType": "uint256",
          "name": "",
          "type": "uint256"
        }
      ],
      "stateMutability": "view",
      "type": "function"
    }
  ],
  "bytecode": {
    "object": "0x6101006040523480156200001257600080fd5b506040516200407e3803806200407e833981016040819052620000359162000236565b8888886040518060200160405280600081525062000059816200013a60201b60201c565b506001600160a01b038316608052600462000075838262000398565b50600562000084828262000398565b50506001600655505060968510620000e25760405162461bcd60e51b815260206004820152601960248201527f466565206d757374206265206c657373207468616e2031352500000000000000604482015260640160405180910390fd5b6001600160a01b0392831660a052600e94909455600f80549583166001600160a01b031996871617905560c0523360e05260108054939091169290931691909117909155620151806008556011555062000464915050565b600262000148828262000398565b5050565b80516001600160a01b03811681146200016457600080fd5b919050565b634e487b7160e01b600052604160045260246000fd5b600082601f8301126200019157600080fd5b81516001600160401b0380821115620001ae57620001ae62000169565b604051601f8301601f19908116603f01168101908282118183101715620001d957620001d962000169565b81604052838152602092508683858801011115620001f657600080fd5b600091505b838210156200021a5785820183015181830184015290820190620001fb565b838211156200022c5760008385830101525b9695505050505050565b60008060008060008060008060006101208a8c0312156200025657600080fd5b620002618a6200014c565b60208b01519099506001600160401b03808211156200027f57600080fd5b6200028d8d838e016200017f565b995060408c0151915080821115620002a457600080fd5b50620002b38c828d016200017f565b975050620002c460608b016200014c565b955060808a0151945060a08a01519350620002e260c08b016200014c565b925060e08a01519150620002fa6101008b016200014c565b90509295985092959850929598565b600181811c908216806200031e57607f821691505b6020821081036200033f57634e487b7160e01b600052602260045260246000fd5b50919050565b601f8211156200039357600081815260208120601f850160051c810160208610156200036e5750805b601f850160051c820191505b818110156200038f578281556001016200037a565b5050505b505050565b81516001600160401b03811115620003b457620003b462000169565b620003cc81620003c5845462000309565b8462000345565b602080601f831160018114620004045760008415620003eb5750858301515b600019600386901b1c1916600185901b1785556200038f565b600085815260208120601f198616915b82811015620004355788860151825594840194600190910190840162000414565b5085821015620004545787850151600019600388901b60f8161c191681555b5050505050600190811b01905550565b60805160a05160c05160e051613b6962000515600039600081816110150152818161113d0152818161132c015281816116fc0152818161194c01528181611aca0152611e8e0152600061093a015260006104040152600081816105f001528181610ce701528181610dd201528181611215015281816115d701528181611661015281816119f201528181611c9101528181611fb00152818161203a0152818161220a01526127c90152613b696000f3fe60806040526004361061036a5760003560e01c80636f7e9bd5116101c6578063c52987cf116100f7578063e58c6dfa11610095578063ea859a271161006f578063ea859a2714610a54578063f242432a14610a81578063f77c479114610aa1578063f9db242714610ac157600080fd5b8063e58c6dfa146109e4578063e7d3fe6b14610a14578063e985e9c514610a3457600080fd5b8063cfc13da6116100d1578063cfc13da61461097c578063d662b92d1461098f578063db2088f4146109a4578063dd2fdd21146109c457600080fd5b8063c52987cf14610928578063c63d75b614610652578063c6b61e4c1461095c57600080fd5b80639460585711610164578063b14f2a391161013e578063b14f2a391461089b578063ba37f9e5146108bb578063bbec4d06146108db578063bd85b039146108fb57600080fd5b8063946058571461084657806395d89b4114610866578063a22cb4651461087b57600080fd5b8063819b48e3116101a0578063819b48e3146107d05780638bc7e8c4146107f05780638dbdbe6d146108065780638fc710cb1461082657600080fd5b80636f7e9bd51461077057806371b3177a146107905780637a7af70d146107b057600080fd5b806329322e05116102a0578063488bd7b01161023e5780634e1273f4116102185780634e1273f4146106e15780634f558e791461070e57806356150edf1461073d5780636a1db1bf1461075057600080fd5b8063488bd7b0146106745780634cbd43de146106945780634d288ba7146106b457600080fd5b806338d52e0f1161027a57806338d52e0f146105de5780633cebb823146106125780633e04836514610632578063402d267d1461065257600080fd5b806329322e05146105885780632eb2c2d6146105a85780632fccfc83146105c857600080fd5b8063181e7b3b1161030d578063242156ed116102e7578063242156ed14610512578063276b114014610532578063281dba1b1461055257806328337df61461056857600080fd5b8063181e7b3b146104b0578063236b4020146104d057806323d68d8e146104f057600080fd5b806304da1a461161034957806304da1a46146103f257806306fdde031461043e5780630b8a295a146104605780630e89341c1461049057600080fd5b8062fdd58e1461036f5780630169a996146103a257806301ffc9a7146103c2575b600080fd5b34801561037b57600080fd5b5061038f61038a366004612f5e565b610aee565b6040519081526020015b60405180910390f35b3480156103ae57600080fd5b5061038f6103bd366004612f88565b610b87565b3480156103ce57600080fd5b506103e26103dd366004612fe7565b610e4d565b6040519015158152602001610399565b3480156103fe57600080fd5b506104267f000000000000000000000000000000000000000000000000000000000000000081565b6040516001600160a01b039091168152602001610399565b34801561044a57600080fd5b50610453610e9d565b6040516103999190613051565b34801561046c57600080fd5b506103e261047b366004613064565b600d6020526000908152604090205460ff1681565b34801561049c57600080fd5b506104536104ab366004613064565b610f2b565b3480156104bc57600080fd5b5061038f6104cb36600461307d565b610fbf565b3480156104dc57600080fd5b5061038f6104eb36600461309f565b610ff7565b3480156104fc57600080fd5b5061051061050b36600461307d565b61100a565b005b34801561051e57600080fd5b5061038f61052d36600461309f565b6110f9565b34801561053e57600080fd5b5061038f61054d36600461307d565b611109565b34801561055e57600080fd5b5061038f600e5481565b34801561057457600080fd5b50610510610583366004613064565b611132565b34801561059457600080fd5b506105106105a336600461309f565b61117f565b3480156105b457600080fd5b506105106105c3366004613217565b61128a565b3480156105d457600080fd5b5061038f60085481565b3480156105ea57600080fd5b506104267f000000000000000000000000000000000000000000000000000000000000000081565b34801561061e57600080fd5b5061051061062d3660046132c1565b611321565b34801561063e57600080fd5b5061051061064d36600461307d565b61138b565b34801561065e57600080fd5b5061038f61066d3660046132c1565b5060001990565b34801561068057600080fd5b5061038f61068f36600461307d565b6113c7565b3480156106a057600080fd5b506105106106af3660046132ea565b6113f1565b3480156106c057600080fd5b5061038f6106cf366004613064565b600a6020526000908152604090205481565b3480156106ed57600080fd5b506107016106fc36600461331a565b61148a565b6040516103999190613420565b34801561071a57600080fd5b506103e2610729366004613064565b600090815260036020526040902054151590565b61038f61074b36600461309f565b6115b4565b34801561075c57600080fd5b5061051061076b366004613064565b6116f1565b34801561077c57600080fd5b5061038f61078b36600461307d565b611782565b34801561079c57600080fd5b5061038f6107ab366004612f88565b6118a9565b3480156107bc57600080fd5b5061038f6107cb36600461307d565b611ab3565b3480156107dc57600080fd5b506105106107eb366004613064565b611abf565b3480156107fc57600080fd5b5061038f60115481565b34801561081257600080fd5b5061038f610821366004613433565b611b50565b34801561083257600080fd5b5061038f610841366004613064565b611d80565b34801561085257600080fd5b5061038f610861366004613064565b611e1e565b34801561087257600080fd5b50610453611e67565b34801561088757600080fd5b50610510610896366004613468565b611e74565b3480156108a757600080fd5b506105106108b63660046132c1565b611e83565b3480156108c757600080fd5b5061038f6108d6366004613064565b611f43565b3480156108e757600080fd5b5061038f6108f636600461307d565b611f60565b34801561090757600080fd5b5061038f610916366004613064565b60009081526003602052604090205490565b34801561093457600080fd5b5061038f7f000000000000000000000000000000000000000000000000000000000000000081565b34801561096857600080fd5b5061038f610977366004613064565b611f6c565b61038f61098a36600461309f565b611f8d565b34801561099b57600080fd5b5060075461038f565b3480156109b057600080fd5b5061038f6109bf36600461307d565b6120ca565b3480156109d057600080fd5b5061038f6109df366004613064565b6120f4565b3480156109f057600080fd5b506103e26109ff366004613064565b600c6020526000908152604090205460ff1681565b348015610a2057600080fd5b5061038f610a2f366004613433565b612107565b348015610a4057600080fd5b506103e2610a4f366004613494565b6122e6565b348015610a6057600080fd5b5061038f610a6f366004613064565b600b6020526000908152604090205481565b348015610a8d57600080fd5b50610510610a9c3660046134be565b612314565b348015610aad57600080fd5b50601054610426906001600160a01b031681565b348015610acd57600080fd5b5061038f610adc366004613064565b60096020526000908152604090205481565b60006001600160a01b038316610b5e5760405162461bcd60e51b815260206004820152602a60248201527f455243313135353a2061646472657373207a65726f206973206e6f742061207660448201526930b634b21037bbb732b960b11b60648201526084015b60405180910390fd5b506000818152602081815260408083206001600160a01b03861684529091529020545b92915050565b6000848042101580610bac57506000818152600c602052604090205460ff1615156001145b610bc85760405162461bcd60e51b8152600401610b5590613523565b6000868152600d6020526040902054869060ff161515600114610bfd5760405162461bcd60e51b8152600401610b559061358f565b336001600160a01b0385161480610c195750610c1984866122e6565b610c355760405162461bcd60e51b8152600401610b55906135bf565b610c3f87876113c7565b9250610c4b8787611f60565b925082600003610c8b5760405162461bcd60e51b815260206004820152600b60248201526a5a45524f5f41535345545360a81b6044820152606401610b55565b6000610c978885611782565b9050610ca485898961239b565b6000610caf82611f43565b9050610cbb818361361c565b600f5460405163a9059cbb60e01b81526001600160a01b039182166004820152602481018490529193507f0000000000000000000000000000000000000000000000000000000000000000169063a9059cbb906044016020604051808303816000875af1158015610d30573d6000803e3d6000fd5b505050506040513d601f19601f82011682018060405250810190610d549190613633565b50604080513381526001600160a01b038981166020830152918101879052606081018490528a918816907fbbbdee62287b5bf3bee13cab60a29ad729cf38109bccbd2a986a11c99b8ca704906080015b60405180910390a360405163a9059cbb60e01b81526001600160a01b038881166004830152602482018490527f0000000000000000000000000000000000000000000000000000000000000000169063a9059cbb906044016020604051808303816000875af1158015610e1b573d6000803e3d6000fd5b505050506040513d601f19601f82011682018060405250810190610e3f9190613633565b509098975050505050505050565b60006001600160e01b03198216636cdb3d1360e11b1480610e7e57506001600160e01b031982166303a24d0760e21b145b80610b8157506301ffc9a760e01b6001600160e01b0319831614610b81565b60048054610eaa90613650565b80601f0160208091040260200160405190810160405280929190818152602001828054610ed690613650565b8015610f235780601f10610ef857610100808354040283529160200191610f23565b820191906000526020600020905b815481529060010190602001808311610f0657829003601f168201915b505050505081565b606060028054610f3a90613650565b80601f0160208091040260200160405190810160405280929190818152602001828054610f6690613650565b8015610fb35780601f10610f8857610100808354040283529160200191610fb3565b820191906000526020600020905b815481529060010190602001808311610f9657829003601f168201915b50505050509050919050565b6000828152600360205260408120548015610fed57610fe8610fe085611e1e565b849083612530565b610fef565b825b949350505050565b60006110038284610aee565b9392505050565b336001600160a01b037f000000000000000000000000000000000000000000000000000000000000000016146110525760405162461bcd60e51b8152600401610b5590613684565b6000818152600d602052604090205460ff161561109d5760405162461bcd60e51b815260206004820152600960248201526849445f45584953545360b81b6044820152606401610b55565b6000818152600d60209081526040808320805460ff19166001908117909155600b90925282209390935560078054938401815590527fa66cc928b5edb82af9bd49922954155ab7b0942694bea4ce44661d9a8736c68890910155565b6000611003836104cb8486610aee565b6000828152600360205260408120548015610fed57610fe861112a85611e1e565b84908361254f565b336001600160a01b037f0000000000000000000000000000000000000000000000000000000000000000161461117a5760405162461bcd60e51b8152600401610b5590613684565b600855565b6010546001600160a01b031633146111a95760405162461bcd60e51b8152600401610b55906136b2565b6000828152600d6020526040902054829060ff1615156001146111de5760405162461bcd60e51b8152600401610b559061358f565b6000838152600960205260409081902054905163a9059cbb60e01b81526001600160a01b03848116600483015260248201929092527f00000000000000000000000000000000000000000000000000000000000000009091169063a9059cbb906044016020604051808303816000875af1158015611260573d6000803e3d6000fd5b505050506040513d601f19601f820116820180604052508101906112849190613633565b50505050565b6001600160a01b0385163314806112a657506112a685336122e6565b61130d5760405162461bcd60e51b815260206004820152603260248201527f455243313135353a207472616e736665722063616c6c6572206973206e6f74206044820152711bdddb995c881b9bdc88185c1c1c9bdd995960721b6064820152608401610b55565b61131a858585858561257d565b5050505050565b336001600160a01b037f000000000000000000000000000000000000000000000000000000000000000016146113695760405162461bcd60e51b8152600401610b5590613684565b601080546001600160a01b0319166001600160a01b0392909216919091179055565b6010546001600160a01b031633146113b55760405162461bcd60e51b8152600401610b55906136b2565b6000918252600a602052604090912055565b6000828152600360205260408120548015610fed57610fe8816113e986611e1e565b85919061254f565b6010546001600160a01b0316331461141b5760405162461bcd60e51b8152600401610b55906136b2565b6000828152600d6020526040902054829060ff1615156001146114505760405162461bcd60e51b8152600401610b559061358f565b6000838152600c60205260409020805460ff191683151517905561147383611e1e565b600093845260096020526040909320929092555050565b606081518351146114ef5760405162461bcd60e51b815260206004820152602960248201527f455243313135353a206163636f756e747320616e6420696473206c656e677468604482015268040dad2e6dac2e8c6d60bb1b6064820152608401610b55565b6000835167ffffffffffffffff81111561150b5761150b6130cb565b604051908082528060200260200182016040528015611534578160200160208202803683370190505b50905060005b84518110156115ac5761157f858281518110611558576115586136fa565b6020026020010151858381518110611572576115726136fa565b6020026020010151610aee565b828281518110611591576115916136fa565b60209081029190910101526115a581613710565b905061153a565b509392505050565b60008034116115d55760405162461bcd60e51b8152600401610b5590613729565b7f00000000000000000000000000000000000000000000000000000000000000006001600160a01b031663d0e30db0346040518263ffffffff1660e01b81526004016000604051808303818588803b15801561163057600080fd5b505af1158015611644573d6000803e3d6000fd5b505060405163a9059cbb60e01b81523360048201523460248201527f00000000000000000000000000000000000000000000000000000000000000006001600160a01b0316935063a9059cbb925060440190506020604051808303816000875af11580156116b6573d6000803e3d6000fd5b505050506040513d601f19601f820116820180604052508101906116da9190613633565b6116e6576116e661376a565b611003833484611b50565b336001600160a01b037f000000000000000000000000000000000000000000000000000000000000000016146117395760405162461bcd60e51b8152600401610b5590613684565b6103e8811061177d5760405162461bcd60e51b815260206004820152601060248201526f46656520697320746f6f20686967682160801b6044820152606401610b55565b600e55565b604051637259324b60e01b60208201526000906024016040516020818303038152906040528051906020012060056040516020016117c09190613780565b6040516020818303038152906040528051906020012003611874576000838152600c602052604090205460ff1661183f576000838152600a6020908152604080832054600990925290912054839161182e91670de0b6b3a764000090611827908590612768565b9190612530565b611838919061381f565b9050610b81565b6000838152600a60209081526040808320546009909252909120546118389190670de0b6b3a764000090611827908690612768565b6000838152600a60209081526040808320546009909252909120546110039190670de0b6b3a764000090611827908690612768565b60008480421015806118ce57506000818152600c602052604090205460ff1615156001145b6118ea5760405162461bcd60e51b8152600401610b5590613523565b6000868152600d6020526040902054869060ff16151560011461191f5760405162461bcd60e51b8152600401610b559061358f565b336001600160a01b038516148061193b575061193b84866122e6565b8061196e5750336001600160a01b037f000000000000000000000000000000000000000000000000000000000000000016145b61198a5760405162461bcd60e51b8152600401610b55906135bf565b61199487876113c7565b925060006119a28885611782565b90506119af85898661239b565b60006119ba82611f43565b90506119c6818361361c565b600f5460405163a9059cbb60e01b81526001600160a01b039182166004820152602481018490529193507f0000000000000000000000000000000000000000000000000000000000000000169063a9059cbb906044016020604051808303816000875af1158015611a3b573d6000803e3d6000fd5b505050506040513d601f19601f82011682018060405250810190611a5f9190613633565b50604080513381526001600160a01b0389811660208301529181018a9052606081018490528a918816907fbbbdee62287b5bf3bee13cab60a29ad729cf38109bccbd2a986a11c99b8ca70490608001610da4565b600061100383836120ca565b336001600160a01b037f00000000000000000000000000000000000000000000000000000000000000001614611b075760405162461bcd60e51b8152600401610b5590613684565b6103e88110611b4b5760405162461bcd60e51b815260206004820152601060248201526f46656520697320746f6f20686967682160801b6044820152606401610b55565b601155565b6000838152600d6020526040812054849060ff161515600114611b855760405162461bcd60e51b8152600401610b559061358f565b6008546000868152600b60205260409020548691611ba29161361c565b4210611bc05760405162461bcd60e51b8152600401610b5590613837565b600260065403611c125760405162461bcd60e51b815260206004820152601f60248201527f5265656e7472616e637947756172643a207265656e7472616e742063616c6c006044820152606401610b55565b6002600655611c218686611ab3565b925082600003611c615760405162461bcd60e51b815260206004820152600b60248201526a5a45524f5f53484152455360a81b6044820152606401610b55565b6000611c6c8461277d565b6040516323b872dd60e01b8152336004820152306024820152604481018290529091507f00000000000000000000000000000000000000000000000000000000000000006001600160a01b0316906323b872dd906064016020604051808303816000875af1158015611ce2573d6000803e3d6000fd5b505050506040513d601f19601f82011682018060405250810190611d069190613633565b50611d2285888360405180602001604052806000815250612836565b604080513381526020810183905290810185905287906001600160a01b038716907f4e2ca0515ed1aef1395f66b5303bb5d6f1bf9d61a353fa53f73f8ac9973fa9f6906060015b60405180910390a360016006559695505050505050565b6000805b600754811015611e18578260078281548110611da257611da26136fa565b906000526020600020015403611e06576001611dbd60075490565b611dc7919061361c565b8103611dd65750600092915050565b6007611de382600161381f565b81548110611df357611df36136fa565b9060005260206000200154915050919050565b80611e1081613710565b915050611d84565b50919050565b6000818152600d6020526040812054829060ff161515600114611e535760405162461bcd60e51b8152600401610b559061358f565b505060009081526003602052604090205490565b60058054610eaa90613650565b611e7f338383612950565b5050565b336001600160a01b037f00000000000000000000000000000000000000000000000000000000000000001614611ecb5760405162461bcd60e51b8152600401610b5590613684565b6001600160a01b038116611f215760405162461bcd60e51b815260206004820152601c60248201527f547265617375727920616464726573732063616e6e6f742062652030000000006044820152606401610b55565b600f80546001600160a01b0319166001600160a01b0392909216919091179055565b60006103e860115483611f569190613887565b610b8191906138a6565b60006110038383610fbf565b60078181548110611f7c57600080fd5b600091825260209091200154905081565b6000803411611fae5760405162461bcd60e51b8152600401610b5590613729565b7f00000000000000000000000000000000000000000000000000000000000000006001600160a01b031663d0e30db0346040518263ffffffff1660e01b81526004016000604051808303818588803b15801561200957600080fd5b505af115801561201d573d6000803e3d6000fd5b505060405163a9059cbb60e01b81523360048201523460248201527f00000000000000000000000000000000000000000000000000000000000000006001600160a01b0316935063a9059cbb925060440190506020604051808303816000875af115801561208f573d6000803e3d6000fd5b505050506040513d601f19601f820116820180604052508101906120b39190613633565b6120bf576120bf61376a565b611003833484612107565b6000828152600360205260408120548015610fed57610fe8816120ec86611e1e565b859190612530565b60006103e8600e5483611f569190613887565b6000838152600d6020526040812054849060ff16151560011461213c5760405162461bcd60e51b8152600401610b559061358f565b6008546000868152600b602052604090205486916121599161361c565b42106121775760405162461bcd60e51b8152600401610b5590613837565b6002600654036121c95760405162461bcd60e51b815260206004820152601f60248201527f5265656e7472616e637947756172643a207265656e7472616e742063616c6c006044820152606401610b55565b60026006556121d88686611109565b925060006121e58461277d565b6040516323b872dd60e01b8152336004820152306024820152604481018290529091507f00000000000000000000000000000000000000000000000000000000000000006001600160a01b0316906323b872dd906064016020604051808303816000875af115801561225b573d6000803e3d6000fd5b505050506040513d601f19601f8201168201806040525081019061227f9190613633565b5061229b85888360405180602001604052806000815250612836565b604080513381526020810183905290810187905287906001600160a01b038716907f4e2ca0515ed1aef1395f66b5303bb5d6f1bf9d61a353fa53f73f8ac9973fa9f690606001611d69565b6001600160a01b03918216600090815260016020908152604080832093909416825291909152205460ff1690565b6001600160a01b038516331480612330575061233085336122e6565b61238e5760405162461bcd60e51b815260206004820152602960248201527f455243313135353a2063616c6c6572206973206e6f74206f776e6572206e6f7260448201526808185c1c1c9bdd995960ba1b6064820152608401610b55565b61131a8585858585612a30565b6001600160a01b0383166123fd5760405162461bcd60e51b815260206004820152602360248201527f455243313135353a206275726e2066726f6d20746865207a65726f206164647260448201526265737360e81b6064820152608401610b55565b33600061240984612b68565b9050600061241684612b68565b905061243683876000858560405180602001604052806000815250612bb3565b6000858152602081815260408083206001600160a01b038a168452909152902054848110156124b35760405162461bcd60e51b8152602060048201526024808201527f455243313135353a206275726e20616d6f756e7420657863656564732062616c604482015263616e636560e01b6064820152608401610b55565b6000868152602081815260408083206001600160a01b038b81168086529184528285208a8703905582518b81529384018a90529092908816917fc3d58168c5ae7397731d063d5bbf3d657854427343f4c083240f7aacaa2d0f62910160405180910390a46040805160208101909152600090525b50505050505050565b82820281151584158583048514171661254857600080fd5b0492915050565b82820281151584158583048514171661256757600080fd5b6001826001830304018115150290509392505050565b81518351146125df5760405162461bcd60e51b815260206004820152602860248201527f455243313135353a2069647320616e6420616d6f756e7473206c656e677468206044820152670dad2e6dac2e8c6d60c31b6064820152608401610b55565b6001600160a01b0384166126055760405162461bcd60e51b8152600401610b55906138c8565b33612614818787878787612bb3565b60005b84518110156126fa576000858281518110612634576126346136fa565b602002602001015190506000858381518110612652576126526136fa565b602090810291909101810151600084815280835260408082206001600160a01b038e1683529093529190912054909150818110156126a25760405162461bcd60e51b8152600401610b559061390d565b6000838152602081815260408083206001600160a01b038e8116855292528083208585039055908b168252812080548492906126df90849061381f565b92505081905550505050806126f390613710565b9050612617565b50846001600160a01b0316866001600160a01b0316826001600160a01b03167f4a39dc06d4c0dbc64b70af90fd698a233a518aa5d07e595d983b8c0526c8f7fb878760405161274a929190613957565b60405180910390a4612760818787878787612d2c565b505050505050565b600061100383670de0b6b3a764000084612530565b600080612789836120f4565b90506000612797828561361c565b600f546040516323b872dd60e01b81523360048201526001600160a01b039182166024820152604481018590529192507f000000000000000000000000000000000000000000000000000000000000000016906323b872dd906064016020604051808303816000875af1158015612812573d6000803e3d6000fd5b505050506040513d601f19601f820116820180604052508101906115ac9190613633565b6001600160a01b0384166128965760405162461bcd60e51b815260206004820152602160248201527f455243313135353a206d696e7420746f20746865207a65726f206164647265736044820152607360f81b6064820152608401610b55565b3360006128a285612b68565b905060006128af85612b68565b90506128c083600089858589612bb3565b6000868152602081815260408083206001600160a01b038b168452909152812080548792906128f090849061381f565b909155505060408051878152602081018790526001600160a01b03808a1692600092918716917fc3d58168c5ae7397731d063d5bbf3d657854427343f4c083240f7aacaa2d0f62910160405180910390a461252783600089898989612e87565b816001600160a01b0316836001600160a01b0316036129c35760405162461bcd60e51b815260206004820152602960248201527f455243313135353a2073657474696e6720617070726f76616c20737461747573604482015268103337b91039b2b63360b91b6064820152608401610b55565b6001600160a01b03838116600081815260016020908152604080832094871680845294825291829020805460ff191686151590811790915591519182527f17307eab39ab6107e8899845ad3d59bd9653f200f220920489ca2b5937696c31910160405180910390a3505050565b6001600160a01b038416612a565760405162461bcd60e51b8152600401610b55906138c8565b336000612a6285612b68565b90506000612a6f85612b68565b9050612a7f838989858589612bb3565b6000868152602081815260408083206001600160a01b038c16845290915290205485811015612ac05760405162461bcd60e51b8152600401610b559061390d565b6000878152602081815260408083206001600160a01b038d8116855292528083208985039055908a16825281208054889290612afd90849061381f565b909155505060408051888152602081018890526001600160a01b03808b16928c821692918816917fc3d58168c5ae7397731d063d5bbf3d657854427343f4c083240f7aacaa2d0f62910160405180910390a4612b5d848a8a8a8a8a612e87565b505050505050505050565b60408051600180825281830190925260609160009190602080830190803683370190505090508281600081518110612ba257612ba26136fa565b602090810291909101015292915050565b6001600160a01b038516612c3a5760005b8351811015612c3857828181518110612bdf57612bdf6136fa565b602002602001015160036000868481518110612bfd57612bfd6136fa565b602002602001015181526020019081526020016000206000828254612c22919061381f565b90915550612c31905081613710565b9050612bc4565b505b6001600160a01b0384166127605760005b8351811015612527576000848281518110612c6857612c686136fa565b602002602001015190506000848381518110612c8657612c866136fa565b6020026020010151905060006003600084815260200190815260200160002054905081811015612d095760405162461bcd60e51b815260206004820152602860248201527f455243313135353a206275726e20616d6f756e74206578636565647320746f74604482015267616c537570706c7960c01b6064820152608401610b55565b60009283526003602052604090922091039055612d2581613710565b9050612c4b565b6001600160a01b0384163b156127605760405163bc197c8160e01b81526001600160a01b0385169063bc197c8190612d709089908990889088908890600401613985565b6020604051808303816000875af1925050508015612dab575060408051601f3d908101601f19168201909252612da8918101906139e3565b60015b612e5757612db7613a00565b806308c379a003612df05750612dcb613a1c565b80612dd65750612df2565b8060405162461bcd60e51b8152600401610b559190613051565b505b60405162461bcd60e51b815260206004820152603460248201527f455243313135353a207472616e7366657220746f206e6f6e20455243313135356044820152732932b1b2b4bb32b91034b6b83632b6b2b73a32b960611b6064820152608401610b55565b6001600160e01b0319811663bc197c8160e01b146125275760405162461bcd60e51b8152600401610b5590613aa6565b6001600160a01b0384163b156127605760405163f23a6e6160e01b81526001600160a01b0385169063f23a6e6190612ecb9089908990889088908890600401613aee565b6020604051808303816000875af1925050508015612f06575060408051601f3d908101601f19168201909252612f03918101906139e3565b60015b612f1257612db7613a00565b6001600160e01b0319811663f23a6e6160e01b146125275760405162461bcd60e51b8152600401610b5590613aa6565b80356001600160a01b0381168114612f5957600080fd5b919050565b60008060408385031215612f7157600080fd5b612f7a83612f42565b946020939093013593505050565b60008060008060808587031215612f9e57600080fd5b8435935060208501359250612fb560408601612f42565b9150612fc360608601612f42565b905092959194509250565b6001600160e01b031981168114612fe457600080fd5b50565b600060208284031215612ff957600080fd5b813561100381612fce565b6000815180845260005b8181101561302a5760208185018101518683018201520161300e565b8181111561303c576000602083870101525b50601f01601f19169290920160200192915050565b6020815260006110036020830184613004565b60006020828403121561307657600080fd5b5035919050565b6000806040838503121561309057600080fd5b50508035926020909101359150565b600080604083850312156130b257600080fd5b823591506130c260208401612f42565b90509250929050565b634e487b7160e01b600052604160045260246000fd5b601f8201601f1916810167ffffffffffffffff81118282101715613107576131076130cb565b6040525050565b600067ffffffffffffffff821115613128576131286130cb565b5060051b60200190565b600082601f83011261314357600080fd5b813560206131508261310e565b60405161315d82826130e1565b83815260059390931b850182019282810191508684111561317d57600080fd5b8286015b848110156131985780358352918301918301613181565b509695505050505050565b600082601f8301126131b457600080fd5b813567ffffffffffffffff8111156131ce576131ce6130cb565b6040516131e5601f8301601f1916602001826130e1565b8181528460208386010111156131fa57600080fd5b816020850160208301376000918101602001919091529392505050565b600080600080600060a0868803121561322f57600080fd5b61323886612f42565b945061324660208701612f42565b9350604086013567ffffffffffffffff8082111561326357600080fd5b61326f89838a01613132565b9450606088013591508082111561328557600080fd5b61329189838a01613132565b935060808801359150808211156132a757600080fd5b506132b4888289016131a3565b9150509295509295909350565b6000602082840312156132d357600080fd5b61100382612f42565b8015158114612fe457600080fd5b600080604083850312156132fd57600080fd5b82359150602083013561330f816132dc565b809150509250929050565b6000806040838503121561332d57600080fd5b823567ffffffffffffffff8082111561334557600080fd5b818501915085601f83011261335957600080fd5b813560206133668261310e565b60405161337382826130e1565b83815260059390931b850182019282810191508984111561339357600080fd5b948201945b838610156133b8576133a986612f42565b82529482019490820190613398565b965050860135925050808211156133ce57600080fd5b506133db85828601613132565b9150509250929050565b600081518084526020808501945080840160005b83811015613415578151875295820195908201906001016133f9565b509495945050505050565b60208152600061100360208301846133e5565b60008060006060848603121561344857600080fd5b833592506020840135915061345f60408501612f42565b90509250925092565b6000806040838503121561347b57600080fd5b61348483612f42565b9150602083013561330f816132dc565b600080604083850312156134a757600080fd5b6134b083612f42565b91506130c260208401612f42565b600080600080600060a086880312156134d657600080fd5b6134df86612f42565b94506134ed60208701612f42565b93506040860135925060608601359150608086013567ffffffffffffffff81111561351757600080fd5b6132b4888289016131a3565b60208082526046908201527f45706f636820686173206e6f7420656e6465642c206f7220646570656720657660408201527f656e7420686173206e6f74206f63757272656420696e207468652074696d65206060820152656265696e672160d01b608082015260a00190565b6020808252601690820152754d61726b657420646f6573206e6f742045786973742160501b604082015260600190565b60208082526027908201527f4f776e6572206e6565647320746f20617070726f766520726563656976657220604082015266199bdc88185b1b60ca1b606082015260800190565b634e487b7160e01b600052601160045260246000fd5b60008282101561362e5761362e613606565b500390565b60006020828403121561364557600080fd5b8151611003816132dc565b600181811c9082168061366457607f821691505b602082108103611e1857634e487b7160e01b600052602260045260246000fd5b602080825260149082015273596f7520617265206e6f7420466163746f72792160601b604082015260600190565b60208082526028908201527f596f7520617265206e6f742063616c6c696e672066726f6d2074686520436f6e60408201526774726f6c6c65722160c01b606082015260800190565b634e487b7160e01b600052603260045260246000fd5b60006001820161372257613722613606565b5060010190565b60208082526021908201527f45544820616d6f756e74206d7573742062652067726561746572207468616e206040820152600360fc1b606082015260800190565b634e487b7160e01b600052600160045260246000fd5b600080835481600182811c91508083168061379c57607f831692505b602080841082036137bb57634e487b7160e01b86526022600452602486fd5b8180156137cf57600181146137e457613811565b60ff1986168952841515850289019650613811565b60008a81526020902060005b868110156138095781548b8201529085019083016137f0565b505084890196505b509498975050505050505050565b6000821982111561383257613832613606565b500190565b60208082526030908201527f4465706f7369742074696d65206973206f7665722c2045706f6368206861732060408201526f616c726561647920737461727465642160801b606082015260800190565b60008160001904831182151516156138a1576138a1613606565b500290565b6000826138c357634e487b7160e01b600052601260045260246000fd5b500490565b60208082526025908201527f455243313135353a207472616e7366657220746f20746865207a65726f206164604082015264647265737360d81b606082015260800190565b6020808252602a908201527f455243313135353a20696e73756666696369656e742062616c616e636520666f60408201526939103a3930b739b332b960b11b606082015260800190565b60408152600061396a60408301856133e5565b828103602084015261397c81856133e5565b95945050505050565b6001600160a01b0386811682528516602082015260a0604082018190526000906139b1908301866133e5565b82810360608401526139c381866133e5565b905082810360808401526139d78185613004565b98975050505050505050565b6000602082840312156139f557600080fd5b815161100381612fce565b600060033d1115613a195760046000803e5060005160e01c5b90565b600060443d1015613a2a5790565b6040516003193d81016004833e81513d67ffffffffffffffff8160248401118184111715613a5a57505050505090565b8285019150815181811115613a725750505050505090565b843d8701016020828501011115613a8c5750505050505090565b613a9b602082860101876130e1565b509095945050505050565b60208082526028908201527f455243313135353a204552433131353552656365697665722072656a656374656040820152676420746f6b656e7360c01b606082015260800190565b6001600160a01b03868116825285166020820152604081018490526060810183905260a060808201819052600090613b2890830184613004565b97965050505050505056fea26469706673582212209f6cf4c61c091ab14b3697c8d2789217ec11f43e63ed0d37d69a998390e8eb3164736f6c634300080f0033",
    "linkReferences": {}
  },
  "methodIdentifiers": {
    "asset()": "38d52e0f",
    "balanceOf(address,uint256)": "00fdd58e",
    "balanceOfBatch(address[],uint256[])": "4e1273f4",
    "beforeWithdraw(uint256,uint256)": "6f7e9bd5",
    "calculateFeeValue(uint256)": "dd2fdd21",
    "calculateWithdrawalFeeValue(uint256)": "ba37f9e5",
    "changeController(address)": "3cebb823",
    "changeFee(uint256)": "6a1db1bf",
    "changeTimewindow(uint256)": "28337df6",
    "changeTreasury(address)": "b14f2a39",
    "changeWithdrawalFee(uint256)": "819b48e3",
    "controller()": "f77c4791",
    "convertToAssets(uint256,uint256)": "181e7b3b",
    "convertToShares(uint256,uint256)": "db2088f4",
    "createAssets(uint256,uint256)": "23d68d8e",
    "deposit(uint256,uint256,address)": "8dbdbe6d",
    "depositETH(uint256,address)": "56150edf",
    "endEpoch(uint256,bool)": "4cbd43de",
    "epochs(uint256)": "c6b61e4c",
    "epochsLength()": "d662b92d",
    "exists(uint256)": "4f558e79",
    "feeTaken()": "281dba1b",
    "getNextEpoch(uint256)": "8fc710cb",
    "idClaimTVL(uint256)": "4d288ba7",
    "idDepegged(uint256)": "e58c6dfa",
    "idEpochBegin(uint256)": "ea859a27",
    "idExists(uint256)": "0b8a295a",
    "idFinalTVL(uint256)": "f9db2427",
    "isApprovedForAll(address,address)": "e985e9c5",
    "maxDeposit(address)": "402d267d",
    "maxMint(address)": "c63d75b6",
    "maxRedeem(uint256,address)": "236b4020",
    "maxWithdraw(uint256,address)": "242156ed",
    "mint(uint256,uint256,address)": "e7d3fe6b",
    "mintETH(uint256,address)": "cfc13da6",
    "name()": "06fdde03",
    "previewDeposit(uint256,uint256)": "7a7af70d",
    "previewMint(uint256,uint256)": "276b1140",
    "previewRedeem(uint256,uint256)": "bbec4d06",
    "previewWithdraw(uint256,uint256)": "488bd7b0",
    "redeem(uint256,uint256,address,address)": "0169a996",
    "safeBatchTransferFrom(address,address,uint256[],uint256[],bytes)": "2eb2c2d6",
    "safeTransferFrom(address,address,uint256,uint256,bytes)": "f242432a",
    "sendTokens(uint256,address)": "29322e05",
    "setApprovalForAll(address,bool)": "a22cb465",
    "setClaimTVL(uint256,uint256)": "3e048365",
    "strikePrice()": "c52987cf",
    "supportsInterface(bytes4)": "01ffc9a7",
    "symbol()": "95d89b41",
    "timewindow()": "2fccfc83",
    "tokenInsured()": "04da1a46",
    "totalAssets(uint256)": "94605857",
    "totalSupply(uint256)": "bd85b039",
    "uri(uint256)": "0e89341c",
    "withdraw(uint256,uint256,address,address)": "71b3177a",
    "withdrawalFee()": "8bc7e8c4"
  },
  "id": 27
}