{
  "abi": [
    {
      "inputs": [
        {
          "internalType": "address",
          "name": "_assetAddress",
          "type": "address"
        },
        {
          "internalType": "string",
          "name": "_name",
          "type": "string"
        },
        {
          "internalType": "string",
          "name": "_symbol",
          "type": "string"
        },
        {
          "internalType": "address",
          "name": "_treasury",
          "type": "address"
        },
        {
          "internalType": "uint256",
          "name": "_fee",
          "type": "uint256"
        },
        {
          "internalType": "uint256",
          "name": "_riskWithdrawalFee",
          "type": "uint256"
        },
        {
          "internalType": "address",
          "name": "_token",
          "type": "address"
        },
        {
          "internalType": "int256",
          "name": "_strikePrice",
          "type": "int256"
        },
        {
          "internalType": "address",
          "name": "_controller",
          "type": "address"
        }
      ],
      "stateMutability": "nonpayable",
      "type": "constructor"
    },
    {
      "anonymous": false,
      "inputs": [
        {
          "indexed": true,
          "internalType": "address",
          "name": "account",
          "type": "address"
        },
        {
          "indexed": true,
          "internalType": "address",
          "name": "operator",
          "type": "address"
        },
        {
          "indexed": false,
          "internalType": "bool",
          "name": "approved",
          "type": "bool"
        }
      ],
      "name": "ApprovalForAll",
      "type": "event"
    },
    {
      "anonymous": false,
      "inputs": [
        {
          "indexed": false,
          "internalType": "address",
          "name": "caller",
          "type": "address"
        },
        {
          "indexed": true,
          "internalType": "address",
          "name": "owner",
          "type": "address"
        },
        {
          "indexed": true,
          "internalType": "uint256",
          "name": "id",
          "type": "uint256"
        },
        {
          "indexed": false,
          "internalType": "uint256",
          "name": "assets",
          "type": "uint256"
        },
        {
          "indexed": false,
          "internalType": "uint256",
          "name": "shares",
          "type": "uint256"
        }
      ],
      "name": "Deposit",
      "type": "event"
    },
    {
      "anonymous": false,
      "inputs": [
        {
          "indexed": true,
          "internalType": "address",
          "name": "operator",
          "type": "address"
        },
        {
          "indexed": true,
          "internalType": "address",
          "name": "from",
          "type": "address"
        },
        {
          "indexed": true,
          "internalType": "address",
          "name": "to",
          "type": "address"
        },
        {
          "indexed": false,
          "internalType": "uint256[]",
          "name": "ids",
          "type": "uint256[]"
        },
        {
          "indexed": false,
          "internalType": "uint256[]",
          "name": "values",
          "type": "uint256[]"
        }
      ],
      "name": "TransferBatch",
      "type": "event"
    },
    {
      "anonymous": false,
      "inputs": [
        {
          "indexed": true,
          "internalType": "address",
          "name": "operator",
          "type": "address"
        },
        {
          "indexed": true,
          "internalType": "address",
          "name": "from",
          "type": "address"
        },
        {
          "indexed": true,
          "internalType": "address",
          "name": "to",
          "type": "address"
        },
        {
          "indexed": false,
          "internalType": "uint256",
          "name": "id",
          "type": "uint256"
        },
        {
          "indexed": false,
          "internalType": "uint256",
          "name": "value",
          "type": "uint256"
        }
      ],
      "name": "TransferSingle",
      "type": "event"
    },
    {
      "anonymous": false,
      "inputs": [
        {
          "indexed": false,
          "internalType": "string",
          "name": "value",
          "type": "string"
        },
        {
          "indexed": true,
          "internalType": "uint256",
          "name": "id",
          "type": "uint256"
        }
      ],
      "name": "URI",
      "type": "event"
    },
    {
      "anonymous": false,
      "inputs": [
        {
          "indexed": false,
          "internalType": "address",
          "name": "caller",
          "type": "address"
        },
        {
          "indexed": false,
          "internalType": "address",
          "name": "receiver",
          "type": "address"
        },
        {
          "indexed": true,
          "internalType": "address",
          "name": "owner",
          "type": "address"
        },
        {
          "indexed": true,
          "internalType": "uint256",
          "name": "id",
          "type": "uint256"
        },
        {
          "indexed": false,
          "internalType": "uint256",
          "name": "assets",
          "type": "uint256"
        },
        {
          "indexed": false,
          "internalType": "uint256",
          "name": "shares",
          "type": "uint256"
        }
      ],
      "name": "Withdraw",
      "type": "event"
    },
    {
      "inputs": [],
      "name": "asset",
      "outputs": [
        {
          "internalType": "contract ERC20",
          "name": "",
          "type": "address"
        }
      ],
      "stateMutability": "view",
      "type": "function"
    },
    {
      "inputs": [
        {
          "internalType": "address",
          "name": "account",
          "type": "address"
        },
        {
          "internalType": "uint256",
          "name": "id",
          "type": "uint256"
        }
      ],
      "name": "balanceOf",
      "outputs": [
        {
          "internalType": "uint256",
          "name": "",
          "type": "uint256"
        }
      ],
      "stateMutability": "view",
      "type": "function"
    },
    {
      "inputs": [
        {
          "internalType": "address[]",
          "name": "accounts",
          "type": "address[]"
        },
        {
          "internalType": "uint256[]",
          "name": "ids",
          "type": "uint256[]"
        }
      ],
      "name": "balanceOfBatch",
      "outputs": [
        {
          "internalType": "uint256[]",
          "name": "",
          "type": "uint256[]"
        }
      ],
      "stateMutability": "view",
      "type": "function"
    },
    {
      "inputs": [
        {
          "internalType": "uint256",
          "name": "id",
          "type": "uint256"
        },
        {
          "internalType": "uint256",
          "name": "amount",
          "type": "uint256"
        }
      ],
      "name": "beforeWithdraw",
      "outputs": [
        {
          "internalType": "uint256",
          "name": "entitledAmount",
          "type": "uint256"
        }
      ],
      "stateMutability": "view",
      "type": "function"
    },
    {
      "inputs": [
        {
          "internalType": "uint256",
          "name": "amount",
          "type": "uint256"
        }
      ],
      "name": "calculateFeeValue",
      "outputs": [
        {
          "internalType": "uint256",
          "name": "feeValue",
          "type": "uint256"
        }
      ],
      "stateMutability": "view",
      "type": "function"
    },
    {
      "inputs": [
        {
          "internalType": "uint256",
          "name": "amount",
          "type": "uint256"
        }
      ],
      "name": "calculateWithdrawalFeeValue",
      "outputs": [
        {
          "internalType": "uint256",
          "name": "feeValue",
          "type": "uint256"
        }
      ],
      "stateMutability": "view",
      "type": "function"
    },
    {
      "inputs": [
        {
          "internalType": "address",
          "name": "_controller",
          "type": "address"
        }
      ],
      "name": "changeController",
      "outputs": [],
      "stateMutability": "nonpayable",
      "type": "function"
    },
    {
      "inputs": [
        {
          "internalType": "uint256",
          "name": "_fee",
          "type": "uint256"
        }
      ],
      "name": "changeFee",
      "outputs": [],
      "stateMutability": "nonpayable",
      "type": "function"
    },
    {
      "inputs": [
        {
          "internalType": "uint256",
          "name": "_timewindow",
          "type": "uint256"
        }
      ],
      "name": "changeTimewindow",
      "outputs": [],
      "stateMutability": "nonpayable",
      "type": "function"
    },
    {
      "inputs": [
        {
          "internalType": "address",
          "name": "_treasury",
          "type": "address"
        }
      ],
      "name": "changeTreasury",
      "outputs": [],
      "stateMutability": "nonpayable",
      "type": "function"
    },
    {
      "inputs": [
        {
          "internalType": "uint256",
          "name": "_riskWithdrawalFee",
          "type": "uint256"
        }
      ],
      "name": "changeWithdrawalFee",
      "outputs": [],
      "stateMutability": "nonpayable",
      "type": "function"
    },
    {
      "inputs": [],
      "name": "controller",
      "outputs": [
        {
          "internalType": "address",
          "name": "",
          "type": "address"
        }
      ],
      "stateMutability": "view",
      "type": "function"
    },
    {
      "inputs": [
        {
          "internalType": "uint256",
          "name": "id",
          "type": "uint256"
        },
        {
          "internalType": "uint256",
          "name": "shares",
          "type": "uint256"
        }
      ],
      "name": "convertToAssets",
      "outputs": [
        {
          "internalType": "uint256",
          "name": "",
          "type": "uint256"
        }
      ],
      "stateMutability": "view",
      "type": "function"
    },
    {
      "inputs": [
        {
          "internalType": "uint256",
          "name": "id",
          "type": "uint256"
        },
        {
          "internalType": "uint256",
          "name": "assets",
          "type": "uint256"
        }
      ],
      "name": "convertToShares",
      "outputs": [
        {
          "internalType": "uint256",
          "name": "",
          "type": "uint256"
        }
      ],
      "stateMutability": "view",
      "type": "function"
    },
    {
      "inputs": [
        {
          "internalType": "uint256",
          "name": "epochBegin",
          "type": "uint256"
        },
        {
          "internalType": "uint256",
          "name": "epochEnd",
          "type": "uint256"
        }
      ],
      "name": "createAssets",
      "outputs": [],
      "stateMutability": "nonpayable",
      "type": "function"
    },
    {
      "inputs": [
        {
          "internalType": "uint256",
          "name": "id",
          "type": "uint256"
        },
        {
          "internalType": "uint256",
          "name": "assets",
          "type": "uint256"
        },
        {
          "internalType": "address",
          "name": "receiver",
          "type": "address"
        }
      ],
      "name": "deposit",
      "outputs": [
        {
          "internalType": "uint256",
          "name": "shares",
          "type": "uint256"
        }
      ],
      "stateMutability": "nonpayable",
      "type": "function"
    },
    {
      "inputs": [
        {
          "internalType": "uint256",
          "name": "id",
          "type": "uint256"
        },
        {
          "internalType": "address",
          "name": "receiver",
          "type": "address"
        }
      ],
      "name": "depositETH",
      "outputs": [
        {
          "internalType": "uint256",
          "name": "shares",
          "type": "uint256"
        }
      ],
      "stateMutability": "payable",
      "type": "function"
    },
    {
      "inputs": [
        {
          "internalType": "uint256",
          "name": "id",
          "type": "uint256"
        },
        {
          "internalType": "bool",
          "name": "depeg",
          "type": "bool"
        }
      ],
      "name": "endEpoch",
      "outputs": [],
      "stateMutability": "nonpayable",
      "type": "function"
    },
    {
      "inputs": [
        {
          "internalType": "uint256",
          "name": "",
          "type": "uint256"
        }
      ],
      "name": "epochs",
      "outputs": [
        {
          "internalType": "uint256",
          "name": "",
          "type": "uint256"
        }
      ],
      "stateMutability": "view",
      "type": "function"
    },
    {
      "inputs": [],
      "name": "epochsLength",
      "outputs": [
        {
          "internalType": "uint256",
          "name": "",
          "type": "uint256"
        }
      ],
      "stateMutability": "view",
      "type": "function"
    },
    {
      "inputs": [
        {
          "internalType": "uint256",
          "name": "id",
          "type": "uint256"
        }
      ],
      "name": "exists",
      "outputs": [
        {
          "internalType": "bool",
          "name": "",
          "type": "bool"
        }
      ],
      "stateMutability": "view",
      "type": "function"
    },
    {
      "inputs": [],
      "name": "feeTaken",
      "outputs": [
        {
          "internalType": "uint256",
          "name": "",
          "type": "uint256"
        }
      ],
      "stateMutability": "view",
      "type": "function"
    },
    {
      "inputs": [
        {
          "internalType": "uint256",
          "name": "_epoch",
          "type": "uint256"
        }
      ],
      "name": "getNextEpoch",
      "outputs": [
        {
          "internalType": "uint256",
          "name": "nextEpochEnd",
          "type": "uint256"
        }
      ],
      "stateMutability": "view",
      "type": "function"
    },
    {
      "inputs": [
        {
          "internalType": "uint256",
          "name": "",
          "type": "uint256"
        }
      ],
      "name": "idClaimTVL",
      "outputs": [
        {
          "internalType": "uint256",
          "name": "",
          "type": "uint256"
        }
      ],
      "stateMutability": "view",
      "type": "function"
    },
    {
      "inputs": [
        {
          "internalType": "uint256",
          "name": "",
          "type": "uint256"
        }
      ],
      "name": "idDepegged",
      "outputs": [
        {
          "internalType": "bool",
          "name": "",
          "type": "bool"
        }
      ],
      "stateMutability": "view",
      "type": "function"
    },
    {
      "inputs": [
        {
          "internalType": "uint256",
          "name": "",
          "type": "uint256"
        }
      ],
      "name": "idEpochBegin",
      "outputs": [
        {
          "internalType": "uint256",
          "name": "",
          "type": "uint256"
        }
      ],
      "stateMutability": "view",
      "type": "function"
    },
    {
      "inputs": [
        {
          "internalType": "uint256",
          "name": "",
          "type": "uint256"
        }
      ],
      "name": "idExists",
      "outputs": [
        {
          "internalType": "bool",
          "name": "",
          "type": "bool"
        }
      ],
      "stateMutability": "view",
      "type": "function"
    },
    {
      "inputs": [
        {
          "internalType": "uint256",
          "name": "",
          "type": "uint256"
        }
      ],
      "name": "idFinalTVL",
      "outputs": [
        {
          "internalType": "uint256",
          "name": "",
          "type": "uint256"
        }
      ],
      "stateMutability": "view",
      "type": "function"
    },
    {
      "inputs": [
        {
          "internalType": "address",
          "name": "account",
          "type": "address"
        },
        {
          "internalType": "address",
          "name": "operator",
          "type": "address"
        }
      ],
      "name": "isApprovedForAll",
      "outputs": [
        {
          "internalType": "bool",
          "name": "",
          "type": "bool"
        }
      ],
      "stateMutability": "view",
      "type": "function"
    },
    {
      "inputs": [
        {
          "internalType": "address",
          "name": "",
          "type": "address"
        }
      ],
      "name": "maxDeposit",
      "outputs": [
        {
          "internalType": "uint256",
          "name": "",
          "type": "uint256"
        }
      ],
      "stateMutability": "view",
      "type": "function"
    },
    {
      "inputs": [
        {
          "internalType": "address",
          "name": "",
          "type": "address"
        }
      ],
      "name": "maxMint",
      "outputs": [
        {
          "internalType": "uint256",
          "name": "",
          "type": "uint256"
        }
      ],
      "stateMutability": "view",
      "type": "function"
    },
    {
      "inputs": [
        {
          "internalType": "uint256",
          "name": "id",
          "type": "uint256"
        },
        {
          "internalType": "address",
          "name": "owner",
          "type": "address"
        }
      ],
      "name": "maxRedeem",
      "outputs": [
        {
          "internalType": "uint256",
          "name": "",
          "type": "uint256"
        }
      ],
      "stateMutability": "view",
      "type": "function"
    },
    {
      "inputs": [
        {
          "internalType": "uint256",
          "name": "id",
          "type": "uint256"
        },
        {
          "internalType": "address",
          "name": "owner",
          "type": "address"
        }
      ],
      "name": "maxWithdraw",
      "outputs": [
        {
          "internalType": "uint256",
          "name": "",
          "type": "uint256"
        }
      ],
      "stateMutability": "view",
      "type": "function"
    },
    {
      "inputs": [
        {
          "internalType": "uint256",
          "name": "id",
          "type": "uint256"
        },
        {
          "internalType": "uint256",
          "name": "shares",
          "type": "uint256"
        },
        {
          "internalType": "address",
          "name": "receiver",
          "type": "address"
        }
      ],
      "name": "mint",
      "outputs": [
        {
          "internalType": "uint256",
          "name": "assets",
          "type": "uint256"
        }
      ],
      "stateMutability": "nonpayable",
      "type": "function"
    },
    {
      "inputs": [
        {
          "internalType": "uint256",
          "name": "id",
          "type": "uint256"
        },
        {
          "internalType": "address",
          "name": "receiver",
          "type": "address"
        }
      ],
      "name": "mintETH",
      "outputs": [
        {
          "internalType": "uint256",
          "name": "shares",
          "type": "uint256"
        }
      ],
      "stateMutability": "payable",
      "type": "function"
    },
    {
      "inputs": [
        {
          "internalType": "uint256",
          "name": "id",
          "type": "uint256"
        },
        {
          "internalType": "uint256",
          "name": "assets",
          "type": "uint256"
        }
      ],
      "name": "previewDeposit",
      "outputs": [
        {
          "internalType": "uint256",
          "name": "",
          "type": "uint256"
        }
      ],
      "stateMutability": "view",
      "type": "function"
    },
    {
      "inputs": [
        {
          "internalType": "uint256",
          "name": "id",
          "type": "uint256"
        },
        {
          "internalType": "uint256",
          "name": "shares",
          "type": "uint256"
        }
      ],
      "name": "previewMint",
      "outputs": [
        {
          "internalType": "uint256",
          "name": "",
          "type": "uint256"
        }
      ],
      "stateMutability": "view",
      "type": "function"
    },
    {
      "inputs": [
        {
          "internalType": "uint256",
          "name": "id",
          "type": "uint256"
        },
        {
          "internalType": "uint256",
          "name": "shares",
          "type": "uint256"
        }
      ],
      "name": "previewRedeem",
      "outputs": [
        {
          "internalType": "uint256",
          "name": "",
          "type": "uint256"
        }
      ],
      "stateMutability": "view",
      "type": "function"
    },
    {
      "inputs": [
        {
          "internalType": "uint256",
          "name": "id",
          "type": "uint256"
        },
        {
          "internalType": "uint256",
          "name": "assets",
          "type": "uint256"
        }
      ],
      "name": "previewWithdraw",
      "outputs": [
        {
          "internalType": "uint256",
          "name": "",
          "type": "uint256"
        }
      ],
      "stateMutability": "view",
      "type": "function"
    },
    {
      "inputs": [
        {
          "internalType": "uint256",
          "name": "id",
          "type": "uint256"
        },
        {
          "internalType": "uint256",
          "name": "shares",
          "type": "uint256"
        },
        {
          "internalType": "address",
          "name": "receiver",
          "type": "address"
        },
        {
          "internalType": "address",
          "name": "owner",
          "type": "address"
        }
      ],
      "name": "redeem",
      "outputs": [
        {
          "internalType": "uint256",
          "name": "assets",
          "type": "uint256"
        }
      ],
      "stateMutability": "nonpayable",
      "type": "function"
    },
    {
      "inputs": [
        {
          "internalType": "address",
          "name": "from",
          "type": "address"
        },
        {
          "internalType": "address",
          "name": "to",
          "type": "address"
        },
        {
          "internalType": "uint256[]",
          "name": "ids",
          "type": "uint256[]"
        },
        {
          "internalType": "uint256[]",
          "name": "amounts",
          "type": "uint256[]"
        },
        {
          "internalType": "bytes",
          "name": "data",
          "type": "bytes"
        }
      ],
      "name": "safeBatchTransferFrom",
      "outputs": [],
      "stateMutability": "nonpayable",
      "type": "function"
    },
    {
      "inputs": [
        {
          "internalType": "address",
          "name": "from",
          "type": "address"
        },
        {
          "internalType": "address",
          "name": "to",
          "type": "address"
        },
        {
          "internalType": "uint256",
          "name": "id",
          "type": "uint256"
        },
        {
          "internalType": "uint256",
          "name": "amount",
          "type": "uint256"
        },
        {
          "internalType": "bytes",
          "name": "data",
          "type": "bytes"
        }
      ],
      "name": "safeTransferFrom",
      "outputs": [],
      "stateMutability": "nonpayable",
      "type": "function"
    },
    {
      "inputs": [
        {
          "internalType": "uint256",
          "name": "id",
          "type": "uint256"
        },
        {
          "internalType": "address",
          "name": "_counterparty",
          "type": "address"
        }
      ],
      "name": "sendTokens",
      "outputs": [],
      "stateMutability": "nonpayable",
      "type": "function"
    },
    {
      "inputs": [
        {
          "internalType": "address",
          "name": "operator",
          "type": "address"
        },
        {
          "internalType": "bool",
          "name": "approved",
          "type": "bool"
        }
      ],
      "name": "setApprovalForAll",
      "outputs": [],
      "stateMutability": "nonpayable",
      "type": "function"
    },
    {
      "inputs": [
        {
          "internalType": "uint256",
          "name": "id",
          "type": "uint256"
        },
        {
          "internalType": "uint256",
          "name": "claimTVL",
          "type": "uint256"
        }
      ],
      "name": "setClaimTVL",
      "outputs": [],
      "stateMutability": "nonpayable",
      "type": "function"
    },
    {
      "inputs": [],
      "name": "strikePrice",
      "outputs": [
        {
          "internalType": "int256",
          "name": "",
          "type": "int256"
        }
      ],
      "stateMutability": "view",
      "type": "function"
    },
    {
      "inputs": [
        {
          "internalType": "bytes4",
          "name": "interfaceId",
          "type": "bytes4"
        }
      ],
      "name": "supportsInterface",
      "outputs": [
        {
          "internalType": "bool",
          "name": "",
          "type": "bool"
        }
      ],
      "stateMutability": "view",
      "type": "function"
    },
    {
      "inputs": [],
      "name": "timewindow",
      "outputs": [
        {
          "internalType": "uint256",
          "name": "",
          "type": "uint256"
        }
      ],
      "stateMutability": "view",
      "type": "function"
    },
    {
      "inputs": [],
      "name": "tokenInsured",
      "outputs": [
        {
          "internalType": "address",
          "name": "",
          "type": "address"
        }
      ],
      "stateMutability": "view",
      "type": "function"
    },
    {
      "inputs": [],
      "name": "tokenName",
      "outputs": [
        {
          "internalType": "string",
          "name": "",
          "type": "string"
        }
      ],
      "stateMutability": "view",
      "type": "function"
    },
    {
      "inputs": [],
      "name": "tokenSymbol",
      "outputs": [
        {
          "internalType": "string",
          "name": "",
          "type": "string"
        }
      ],
      "stateMutability": "view",
      "type": "function"
    },
    {
      "inputs": [
        {
          "internalType": "uint256",
          "name": "_id",
          "type": "uint256"
        }
      ],
      "name": "totalAssets",
      "outputs": [
        {
          "internalType": "uint256",
          "name": "",
          "type": "uint256"
        }
      ],
      "stateMutability": "view",
      "type": "function"
    },
    {
      "inputs": [
        {
          "internalType": "uint256",
          "name": "id",
          "type": "uint256"
        }
      ],
      "name": "totalSupply",
      "outputs": [
        {
          "internalType": "uint256",
          "name": "",
          "type": "uint256"
        }
      ],
      "stateMutability": "view",
      "type": "function"
    },
    {
      "inputs": [
        {
          "internalType": "uint256",
          "name": "",
          "type": "uint256"
        }
      ],
      "name": "uri",
      "outputs": [
        {
          "internalType": "string",
          "name": "",
          "type": "string"
        }
      ],
      "stateMutability": "view",
      "type": "function"
    },
    {
      "inputs": [
        {
          "internalType": "uint256",
          "name": "id",
          "type": "uint256"
        },
        {
          "internalType": "uint256",
          "name": "assets",
          "type": "uint256"
        },
        {
          "internalType": "address",
          "name": "receiver",
          "type": "address"
        },
        {
          "internalType": "address",
          "name": "owner",
          "type": "address"
        }
      ],
      "name": "withdraw",
      "outputs": [
        {
          "internalType": "uint256",
          "name": "shares",
          "type": "uint256"
        }
      ],
      "stateMutability": "nonpayable",
      "type": "function"
    },
    {
      "inputs": [],
      "name": "withdrawalFee",
      "outputs": [
        {
          "internalType": "uint256",
          "name": "",
          "type": "uint256"
        }
      ],
      "stateMutability": "view",
      "type": "function"
    }
  ],
  "bytecode": {
    "object": "0x6040610100815234620008305762003f91803803806200001f8162000835565b9283398101916101208284031262000830576200003c826200085b565b60208301519092906001600160401b0381116200083057846200006191830162000870565b8183015190946001600160401b03821162000830576200008391830162000870565b9262000092606083016200085b565b9060808301519260a081015193620000ad60c083016200085b565b620000c161010060e085015194016200085b565b875190949060208101906001600160401b038211818310176200049c576000918a5252600254600181811c9116801562000825575b60208210146200047b57601f8111620007d8575b5060006002556001600160a01b031660805288516001600160401b0381116200049c57600454600181811c91168015620007cd575b60208210146200047b57601f811162000767575b50806020601f8211600114620006dc57600091620006d0575b508160011b916000199060031b1c1916176004555b87516001600160401b0381116200049c57600554600181811c91168015620006c5575b60208210146200047b57601f81116200067b575b50806020601f8211600114620005f057600091620005e4575b508160011b916000199060031b1c1916176005555b60016006556096821015620005a05760a052600e55600f80546001600160a01b039485166001600160a01b03199182161790915560c0919091523360e052601080549290931691161790556201518060085583516001600160401b0381116200049c57601154600181811c9116801562000595575b60208210146200047b57601f81116200052b575b50602094601f8211600114620004be57948192939495600092620004b2575b50508160011b916000199060031b1c1916176011555b82516001600160401b0381116200049c57601254600181811c9116801562000491575b60208210146200047b57601f811162000422575b506020601f8211600114620003a957819293946000926200039d575b50508160011b916000199060031b1c1916176012555b6013555161367d9081620008f482396080518181816105ea01528181610b3801528181610f200152818161126301528181611ab301528181612a7801528181612eb401526133bf015260a0518161075b015260c05181611a05015260e05181818161095b01528181610a9c01528181610f7801528181611388015281816115aa0152818161170f015261190a0152f35b015190503880620002f7565b6012600090815260008051602062003f718339815191529190601f198416905b8181106200040957509583600195969710620003ef575b505050811b016012556200030d565b015160001960f88460031b161c19169055388080620003e0565b9192602060018192868b015181550194019201620003c9565b601260005260008051602062003f71833981519152601f830160051c8101916020841062000470575b601f0160051c01905b818110620004635750620002db565b6000815560010162000454565b90915081906200044b565b634e487b7160e01b600052602260045260246000fd5b90607f1690620002c7565b634e487b7160e01b600052604160045260246000fd5b0151905038806200028e565b601f19821695601160005260206000209160005b8881106200051257508360019596979810620004f8575b505050811b01601155620002a4565b015160001960f88460031b161c19169055388080620004e9565b91926020600181928685015181550194019201620004d2565b60116000527f31ecc21a745e3968a04e9570e4425bc18fa8019c68028196b546d1669c200c68601f830160051c810191602084106200058a575b601f0160051c01905b8181106200057d57506200026f565b600081556001016200056e565b909150819062000565565b90607f16906200025b565b865162461bcd60e51b815260206004820152601960248201527f466565206d757374206265206c657373207468616e20313525000000000000006044820152606490fd5b905089015138620001d1565b6005600090815292507f036b6384b5eca791c62761152d0c79bb0604c104a5fb6f4eb0703f3154bb3db0905b8b601f19841685106200066357506001935082601f1981161062000649575b5050811b01600555620001e6565b8b015160001960f88460031b161c1916905538806200063b565b8101518255602093840193600190920191016200061c565b60056000526020600020601f830160051c810160208410620006bd575b601f830160051c82018110620006b0575050620001b8565b6000815560010162000698565b508062000698565b90607f1690620001a4565b90508a0151386200016c565b6004600090815292507f8a35acfbc15ff81a39ae7d344fd709f28e8600b4aa8c65c6b64bfe7fe36bd19b905b8c601f19841685106200074f57506001935082601f1981161062000735575b5050811b0160045562000181565b8c015160001960f88460031b161c19169055388062000727565b81015182556020938401936001909201910162000708565b60046000527f8a35acfbc15ff81a39ae7d344fd709f28e8600b4aa8c65c6b64bfe7fe36bd19b601f830160051c810160208410620007c5575b601f830160051c82018110620007b857505062000153565b60008155600101620007a0565b5080620007a0565b90607f16906200013f565b6002600052601f0160051c7f405787fa12a823e0f2b7631cc41b3ba8828b3321ca811111fa75cd3aa3bb5ace908101905b8181106200081857506200010a565b6000815560010162000809565b90607f1690620000f6565b600080fd5b6040519190601f01601f191682016001600160401b038111838210176200049c57604052565b51906001600160a01b03821682036200083057565b81601f8201121562000830578051906001600160401b0382116200049c57602090620008a5601f8401601f1916830162000835565b93838552828483010111620008305782906000905b83838310620008da57505011620008d057505090565b6000918301015290565b81935082819392010151828288010152018391620008ba56fe60806040526004361015610013575b600080fd5b60003560e01c8062fdd58e146104575780630169a9961461044e57806301ffc9a71461044557806304da1a461461043c5780630b8a295a146104335780630e89341c1461042a578063181e7b3b1461030a578063236b40201461042157806323d68d8e14610418578063242156ed1461040f578063276b114014610406578063281dba1b146103fd57806328337df6146103f457806329322e05146103eb5780632eb2c2d6146103e25780632fccfc83146103d957806338d52e0f146103d05780633cebb823146103c75780633e048365146103be578063402d267d146102ef578063488bd7b0146103b55780634cbd43de146103ac5780634d288ba7146103a35780634e1273f41461039a5780634f558e791461039157806356150edf146103885780636a1db1bf1461037f5780636c02a931146103765780636f7e9bd51461036d57806371b3177a146103645780637a7af70d146102cb5780637b61c3201461035b578063819b48e3146103525780638bc7e8c4146103495780638dbdbe6d146103405780638fc710cb14610337578063946058571461032e578063a22cb46514610325578063b14f2a391461031c578063ba37f9e514610313578063bbec4d061461030a578063bd85b03914610301578063c52987cf146102f8578063c63d75b6146102ef578063c6b61e4c146102e6578063cfc13da6146102dd578063d662b92d146102d4578063db2088f4146102cb578063dd2fdd21146102c2578063e58c6dfa146102b9578063e7d3fe6b146102b0578063e985e9c5146102a7578063ea859a271461029e578063f242432a14610295578063f77c47911461028c5763f9db24271461028457600080fd5b61000e611d74565b5061000e611d4a565b5061000e611c5f565b5061000e611c32565b5061000e611bd4565b5061000e611bba565b5061000e611b88565b5061000e611b63565b5061000e61162a565b5061000e611b44565b5061000e611a91565b5061000e611a3f565b5061000e611001565b5061000e6119ec565b5061000e6119c1565b5061000e6108f7565b5061000e611993565b5061000e6118e1565b5061000e6117f0565b5061000e6117d1565b5061000e6117b2565b5061000e611798565b5061000e61174f565b5061000e6116f4565b5061000e61164c565b5061000e6114fa565b5061000e6114d8565b5061000e611402565b5061000e61136d565b5061000e611241565b5061000e611212565b5061000e611157565b5061000e6110e5565b5061000e611054565b5061000e611028565b5061000e610fbf565b5061000e610f4f565b5061000e610f09565b5061000e610eea565b5061000e610cbc565b5061000e610ad2565b5061000e610a84565b5061000e610a65565b5061000e610a43565b5061000e610a17565b5061000e610940565b5061000e610919565b5061000e610821565b5061000e61078a565b5061000e610744565b5061000e6106ca565b5061000e610509565b5061000e6104a0565b600435906001600160a01b038216820361000e57565b602435906001600160a01b038216820361000e57565b35906001600160a01b038216820361000e57565b503461000e57604036600319011261000e5760206104c86104bf610460565b60243590611da1565b604051908152f35b608090600319011261000e5760043590602435906001600160a01b0390604435828116810361000e5791606435908116810361000e5790565b503461000e5761065f7fbbbdee62287b5bf3bee13cab60a29ad729cf38109bccbd2a986a11c99b8ca70461064f61053f366104d0565b90919280421080159061069b575b61055690612efe565b80600052600d602052610575600160ff60406000205416151514612993565b6001600160a01b0382163381148015610663575b61059290612f7f565b61059c8583612962565b506105c76105aa86846128dc565b956105b68715156131bc565b836105c1888261347f565b95613033565b6105e16103e86105d96013548661322a565b048094612b25565b968780966106217f00000000000000000000000000000000000000000000000000000000000000009661061b600f5460018060a01b031690565b8861314b565b604080513381526001600160a01b0389166020820152908101919091526060810191909152608090a361314b565b6040519081529081906020820190565b0390f35b5080600052600160205261059260ff6106928660406000209060018060a01b0316600052602052604060002090565b54169050610589565b506000818152600c602052604090205460ff16151560011461054d565b6001600160e01b031981160361000e57565b503461000e57602036600319011261000e5760206004356106ea816106b8565b63ffffffff60e01b16636cdb3d1360e11b8114908115610728575b8115610717575b506040519015158152f35b6301ffc9a760e01b1490503861070c565b6303a24d0760e21b81149150610705565b600091031261000e57565b503461000e57600036600319011261000e576040517f00000000000000000000000000000000000000000000000000000000000000006001600160a01b03168152602090f35b503461000e57602036600319011261000e57600435600052600d602052602060ff604060002054166040519015158152f35b91908251928382526000905b8482106107f55750928060209394116107e8575b601f01601f1916010190565b60008382840101526107dc565b906020908180828501015190828601015201906107c8565b90602061081e9281815201906107bc565b90565b503461000e5760208060031936011261000e57604051600091600254610846816113c8565b808452906001908181169081156108d7575060011461087c575b61065f8461087081880382610bb0565b6040519182918261080d565b600260009081529294507f405787fa12a823e0f2b7631cc41b3ba8828b3321ca811111fa75cd3aa3bb5ace5b8284106108c4575050508161065f936108709282010193610860565b80548585018701529285019281016108a8565b60ff1916858501525050151560051b82010191506108708161065f610860565b503461000e57604036600319011261000e5760206104c86024356004356128dc565b503461000e57604036600319011261000e5760206104c860043561093b610476565b611da1565b503461000e57604036600319011261000e57602435610989337f00000000000000000000000000000000000000000000000000000000000000006001600160a01b031614613249565b80600052600d60205260ff604060002054166109e657806109c76109ba6109e493600052600d602052604060002090565b805460ff19166001179055565b6004356109de82600052600b602052604060002090565b556132cb565b005b60405162461bcd60e51b815260206004820152600960248201526849445f45584953545360b81b6044820152606490fd5b503461000e57604036600319011261000e5760206104c8600435610a3d8161093b610476565b906128dc565b503461000e57604036600319011261000e5760206104c860243560043561290d565b503461000e57600036600319011261000e576020600e54604051908152f35b503461000e57602036600319011261000e57610aca337f00000000000000000000000000000000000000000000000000000000000000006001600160a01b031614613249565b600435600855005b503461000e57604036600319011261000e576109e4600435610af2610476565b90610b0860018060a01b03601054163314613334565b80600052600d602052610b27600160ff60406000205416151514612993565b6000526009602052604060002054907f000000000000000000000000000000000000000000000000000000000000000061314b565b50634e487b7160e01b600052604160045260246000fd5b67ffffffffffffffff8111610b8757604052565b610b8f610b5c565b604052565b6020810190811067ffffffffffffffff821117610b8757604052565b90601f8019910116810190811067ffffffffffffffff821117610b8757604052565b60209067ffffffffffffffff8111610bec575b60051b0190565b610bf4610b5c565b610be5565b81601f8201121561000e57803591610c1083610bd2565b92610c1e6040519485610bb0565b808452602092838086019260051b82010192831161000e578301905b828210610c48575050505090565b81358152908301908301610c3a565b81601f8201121561000e5780359067ffffffffffffffff8211610caf575b60405192610c8d601f8401601f191660200185610bb0565b8284526020838301011161000e57816000926020809301838601378301015290565b610cb7610b5c565b610c75565b503461000e5760a036600319011261000e57610cd6610460565b610cde610476565b9067ffffffffffffffff9060443582811161000e57610d01903690600401610bf9565b9160643581811161000e57610d1a903690600401610bf9565b9060843590811161000e57610d33903690600401610c57565b6001600160a01b038381169491903386148015610ec7575b15610e6757610d5d8351855114612209565b8616610d6a811515611f7c565b610d76848489886127d6565b60005b8351811015610e235780610d90610e1e9286611e92565b51610e17610e0f8b610dc4610da5868c611e92565b51948c610dfe87610ddb83610dc4866000526000602052604060002090565b9060018060a01b0316600052602052604060002090565b54610de882821015611fd6565b0391610dc4846000526000602052604060002090565b556000526000602052604060002090565b918254612035565b9055611e76565b610d79565b50938691946109e4966040517f4a39dc06d4c0dbc64b70af90fd698a233a518aa5d07e595d983b8c0526c8f7fb339180610e5e8a8a83612266565b0390a433612673565b60405162461bcd60e51b815260206004820152603260248201527f455243313135353a207472616e736665722063616c6c6572206973206e6f74206044820152711bdddb995c881b9bdc88185c1c1c9bdd995960721b6064820152608490fd5b50600086815260016020908152604080832033845290915290205460ff16610d4b565b503461000e57600036600319011261000e576020600854604051908152f35b503461000e57600036600319011261000e576040517f00000000000000000000000000000000000000000000000000000000000000006001600160a01b03168152602090f35b503461000e57602036600319011261000e57610f69610460565b6001600160a01b0390610f9f337f0000000000000000000000000000000000000000000000000000000000000000841614613249565b166bffffffffffffffffffffffff60a01b60105416176010556000604051f35b503461000e57604036600319011261000e57610fe660018060a01b03601054163314613334565b600435600052600a6020526024356040600020556000604051f35b503461000e57602036600319011261000e5761101b610460565b5060206040516000198152f35b503461000e57604036600319011261000e5760206104c8602435600435612962565b8015150361000e57565b503461000e57604036600319011261000e576024356004356110758261104a565b61108a60018060a01b03601054163314613334565b6110ca600092828452600d6020526110ad600160ff604087205416151514612993565b828452600c602052604084209060ff801983541691151516179055565b6110d3816131f6565b90825260096020526040822055604051f35b503461000e57602036600319011261000e57600435600052600a6020526020604060002054604051908152f35b90815180825260208080930193019160005b828110611132575050505090565b835185529381019392810192600101611124565b90602061081e928181520190611112565b503461000e57604036600319011261000e5760043567ffffffffffffffff80821161000e573660238301121561000e57816004013561119581610bd2565b926111a36040519485610bb0565b81845260209160248386019160051b8301019136831161000e57602401905b8282106111fb578560243586811161000e5761065f916111e96111ef923690600401610bf9565b90611eb4565b60405191829182611146565b8380916112078461048c565b8152019101906111c2565b503461000e57602036600319011261000e57600435600052600360205260206040600020541515604051908152f35b50604036600319011261000e57611256610476565b611261341515612d94565b7f00000000000000000000000000000000000000000000000000000000000000006001600160a01b0316803b1561000e5761065f9161130361064f92604051630d0e30db60e41b815260008160048134865af18015611360575b611347575b5060405163a9059cbb60e01b815233600482015234602482015290602090829081600081604481015b03925af190811561133a575b60009161130c575b50612dff565b346004356129d8565b61132d915060203d8111611333575b6113258183610bb0565b810190612dea565b386112fd565b503d61131b565b611342612304565b6112f5565b8061135461135a92610b73565b80610739565b386112c0565b611368612304565b6112bb565b503461000e57602036600319011261000e576004356113b6337f00000000000000000000000000000000000000000000000000000000000000006001600160a01b031614613249565b6113c36103e8821061328c565b600e55005b90600182811c921680156113f8575b60208310146113e257565b634e487b7160e01b600052602260045260246000fd5b91607f16916113d7565b503461000e576000806003193601126114d5576040519080601154611426816113c8565b808552916001918083169081156114ab5750600114611450575b61065f8561087081870382610bb0565b9250601183527f31ecc21a745e3968a04e9570e4425bc18fa8019c68028196b546d1669c200c685b8284106114935750505081016020016108708261065f611440565b80546020858701810191909152909301928101611478565b86955061065f9693506020925061087094915060ff191682840152151560051b8201019293611440565b80fd5b503461000e57604036600319011261000e5760206104c860243560043561347f565b503461000e5761065f7fbbbdee62287b5bf3bee13cab60a29ad729cf38109bccbd2a986a11c99b8ca70461064f611530366104d0565b90919280421080159061160d575b61154790612efe565b80600052600d602052611566600160ff60406000205416151514612993565b6001600160a01b038281169061158e903383149081156115d2575b81156115a6575b50612f7f565b6105c761159b8684612962565b836105c1828261347f565b90507f000000000000000000000000000000000000000000000000000000000000000016331438611588565b90508260005260016020526116076116008760406000209060018060a01b0316600052602052604060002090565b5460ff1690565b90611581565b506000818152600c602052604090205460ff16151560011461153e565b503461000e57604036600319011261000e5760206104c8602435600435612850565b503461000e576000806003193601126114d5576040519080601254611670816113c8565b808552916001918083169081156114ab57506001146116995761065f8561087081870382610bb0565b9250601283527fbb8a6a4669ba250d26cd7a459eca9d215f8307e33aebe50379bc5a3617ec34445b8284106116dc5750505081016020016108708261065f611440565b805460208587018101919091529093019281016116c1565b503461000e57602036600319011261000e5760043561173d337f00000000000000000000000000000000000000000000000000000000000000006001600160a01b031614613249565b61174a6103e8821061328c565b601355005b503461000e57600036600319011261000e576020601354604051908152f35b606090600319011261000e5760043590602435906044356001600160a01b038116810361000e5790565b503461000e5760206104c86117ac3661176e565b916129d8565b503461000e57602036600319011261000e5760206104c860043561356b565b503461000e57602036600319011261000e5760206104c86004356131f6565b503461000e57604036600319011261000e5761180a610460565b6024356118168161104a565b6001600160a01b0382169133831461188a573360009081526001602052604090206118589183916118479190610dc4565b9060ff801983541691151516179055565b604051901515815233907f17307eab39ab6107e8899845ad3d59bd9653f200f220920489ca2b5937696c3190602090a3005b60405162461bcd60e51b815260206004820152602960248201527f455243313135353a2073657474696e6720617070726f76616c20737461747573604482015268103337b91039b2b63360b91b6064820152608490fd5b503461000e57602036600319011261000e576118fb610460565b6001600160a01b0390611931337f0000000000000000000000000000000000000000000000000000000000000000841614613249565b16801561194e57600f80546001600160a01b031916919091179055005b60405162461bcd60e51b815260206004820152601c60248201527f547265617375727920616464726573732063616e6e6f742062652030000000006044820152606490fd5b503461000e57602036600319011261000e5760206103e86119b860135460043561322a565b04604051908152f35b503461000e57602036600319011261000e5760206104c8600435600052600360205260406000205490565b503461000e57600036600319011261000e5760206040517f00000000000000000000000000000000000000000000000000000000000000008152f35b50634e487b7160e01b600052603260045260246000fd5b503461000e57602036600319011261000e5760043560075481101561000e5760209060076000527fa66cc928b5edb82af9bd49922954155ab7b0942694bea4ce44661d9a8736c6880154604051908152f35b50604036600319011261000e57611aa6610476565b611ab1341515612d94565b7f00000000000000000000000000000000000000000000000000000000000000006001600160a01b0316803b1561000e5761065f91611b3b61064f92604051630d0e30db60e41b815260008160048134865af1801561136057611347575060405163a9059cbb60e01b815233600482015234602482015290602090829081600081604481016112e9565b34600435612e1c565b503461000e57600036600319011261000e576020600754604051908152f35b503461000e57602036600319011261000e5760206103e86119b8600e5460043561322a565b503461000e57602036600319011261000e57600435600052600c602052602060ff604060002054166040519015158152f35b503461000e5760206104c8611bce3661176e565b91612e1c565b503461000e57604036600319011261000e57602060ff611c26611bf5610460565b611bfd610476565b6001600160a01b0391821660009081526001865260408082209290931681526020919091522090565b54166040519015158152f35b503461000e57602036600319011261000e57600435600052600b6020526020604060002054604051908152f35b503461000e5760a036600319011261000e57611c79610460565b611c81610476565b60843567ffffffffffffffff811161000e57611ca1903690600401610c57565b906001600160a01b038316338114908115611d25575b5015611cce576109e4926064359160443591612041565b60405162461bcd60e51b815260206004820152602960248201527f455243313135353a2063616c6c6572206973206e6f74206f776e6572206e6f7260448201526808185c1c1c9bdd995960ba1b6064820152608490fd5b6000908152600160209081526040808320338452909152902060ff9150541638611cb7565b503461000e57600036600319011261000e576010546040516001600160a01b039091168152602090f35b503461000e57602036600319011261000e5760043560005260096020526020604060002054604051908152f35b6001600160a01b03811615611dd5576000918252602082815260408084206001600160a01b03909316845291905290205490565b60405162461bcd60e51b815260206004820152602a60248201527f455243313135353a2061646472657373207a65726f206973206e6f742061207660448201526930b634b21037bbb732b960b11b6064820152608490fd5b90611e3782610bd2565b611e446040519182610bb0565b8281528092611e55601f1991610bd2565b0190602036910137565b50634e487b7160e01b600052601160045260246000fd5b6001906000198114611e86570190565b611e8e611e5f565b0190565b6020918151811015611ea7575b60051b010190565b611eaf611a28565b611e9f565b9190918051835103611f2557611eca8151611e2d565b9060005b8151811015611f1e5780611f09611ef8611eeb611f199486611e92565b516001600160a01b031690565b611f028389611e92565b5190611da1565b611f138286611e92565b52611e76565b611ece565b5090925050565b60405162461bcd60e51b815260206004820152602960248201527f455243313135353a206163636f756e747320616e6420696473206c656e677468604482015268040dad2e6dac2e8c6d60bb1b6064820152608490fd5b15611f8357565b60405162461bcd60e51b815260206004820152602560248201527f455243313135353a207472616e7366657220746f20746865207a65726f206164604482015264647265737360d81b6064820152608490fd5b15611fdd57565b60405162461bcd60e51b815260206004820152602a60248201527f455243313135353a20696e73756666696369656e742062616c616e636520666f60448201526939103a3930b739b332b960b11b6064820152608490fd5b81198111611e86570190565b6001600160a01b03959493929190868216801561205e8115611f7c565b612067856126ad565b98612071876126ad565b9084169182156121ac575b612128575b50612126979850856120a184610dc4886000526000602052604060002090565b546120ae82821015611fd6565b036120c784610dc4886000526000602052604060002090565b556120e084610dc4876000526000602052604060002090565b6120eb878254612035565b9055604080518681526020810188905233917fc3d58168c5ae7397731d063d5bbf3d657854427343f4c083240f7aacaa2d0f6291a43361254d565b565b969492909795939160005b8a51811015612197578061214a612192928d611e92565b5161218c612158838d611e92565b5161216d836000526003602052604060002090565b5461217a828210156126fd565b03916000526003602052604060002090565b55611e76565b612133565b50919395985091939550612126968897612081565b98969492909795939160005b8b80518210156121f957906121f491610e17610e0f6121e3848f816121dc91611e92565b5194611e92565b516000526003602052604060002090565b6121b8565b505091939597909294969861207c565b1561221057565b60405162461bcd60e51b815260206004820152602860248201527f455243313135353a2069647320616e6420616d6f756e7473206c656e677468206044820152670dad2e6dac2e8c6d60c31b6064820152608490fd5b909161227d61081e93604084526040840190611112565b916020818403910152611112565b9081602091031261000e575161081e816106b8565b909260a09261081e9594600180861b03168352600060208401526040830152606082015281608082015201906107bc565b919261081e95949160a094600180871b0380921685521660208401526040830152606082015281608082015201906107bc565b506040513d6000823e3d90fd5b60809060208152602860208201527f455243313135353a204552433131353552656365697665722072656a656374656040820152676420746f6b656e7360c01b60608201520190565b60009060033d1161236757565b905060046000803e60005160e01c90565b600060443d1061081e57604051600319913d83016004833e815167ffffffffffffffff918282113d6024840111176123d6578184019485519384116123de573d850101602084870101116123d6575061081e92910160200190610bb0565b949350505050565b50949350505050565b9390803b6123f7575b5050505050565b61241f9360006020946040519687958694859363f23a6e6160e01b9b8c8652600486016122a0565b03926001600160a01b03165af16000918161251d575b506124f5575050600161244661235a565b6308c379a0146124c6575b612460575b38808080806123f0565b60405162461bcd60e51b815260206004820152603460248201527f455243313135353a207472616e7366657220746f206e6f6e20455243313135356044820152732932b1b2b4bb32b91034b6b83632b6b2b73a32b960611b6064820152608490fd5b0390fd5b6124ce612378565b806124d95750612451565b60405162461bcd60e51b81529081906124c2906004830161080d565b6001600160e01b031916146124565760405162461bcd60e51b8152806124c260048201612311565b61253f91925060203d8111612546575b6125378183610bb0565b81019061228b565b9038612435565b503d61252d565b9493919092813b612561575b505050505050565b60006020946125886040519788968795869463f23a6e6160e01b9c8d8752600487016122d1565b03926001600160a01b03165af160009181612605575b506125dd57505060016125af61235a565b6308c379a0146125ca575b612460575b388080808080612559565b6125d2612378565b806124d957506125ba565b6001600160e01b031916146125bf5760405162461bcd60e51b8152806124c260048201612311565b61261e91925060203d8111612546576125378183610bb0565b903861259e565b939061081e9593612657916126659460018060a01b03809216885216602087015260a0604087015260a0860190611112565b908482036060860152611112565b9160808184039101526107bc565b9493919092813b61268657505050505050565b60006020946125886040519788968795869463bc197c8160e01b9c8d875260048701612625565b604051906040820182811067ffffffffffffffff8211176126f0575b604052600182526020820160203682378251156126e4575290565b6126ec611a28565b5290565b6126f8610b5c565b6126c9565b1561270457565b60405162461bcd60e51b815260206004820152602860248201527f455243313135353a206275726e20616d6f756e74206578636565647320746f74604482015267616c537570706c7960c01b6064820152608490fd5b909291906001600160a01b0316156127a0575b60005b835181101561279a57806127876127959286611e92565b5161218c6121588386611e92565b612770565b50509050565b60005b83518110156127d057806127ba6127cb9284611e92565b51610e17610e0f6121e38489611e92565b6127a3565b5061276d565b919392916001600160a01b039190821615612816575b16156127f757509050565b60005b835181101561279a57806127876128119286611e92565b6127fa565b929060005b855181101561284857806128326128439286611e92565b51610e17610e0f6121e3848b611e92565b61281b565b5090926127ec565b90816000526003602052604060002054801560001461286f5750905090565b61287b61081e936131f6565b916128c4565b81810291818304149015176001161561000e57670de0b6b3a7640000900490565b670de0b6b3a7640000908181029181830414901517821515161561000e570490565b8181029181830414901517821515161561000e570490565b8060005260036020526040600020549081156000146128fa57505090565b9161290761081e936131f6565b906128c4565b80600052600360205260406000205490811560001461292b57505090565b9161293861081e936131f6565b905b9190918281029281840414901517811515161561000e57600190600019830104019015150290565b9081600052600360205260406000205480156000146129815750905090565b61298d61081e936131f6565b9161293a565b1561299a57565b60405162461bcd60e51b81526020600482015260166024820152754d61726b657420646f6573206e6f742045786973742160501b6044820152606490fd5b90612a3c9082600052600d6020526129fc600160ff60406000205416151514612993565b82600052600b602052612a2260406000205460085490818110612b18575b034210612b3c565b612a3160026006541415612ba1565b600260065582612850565b8015612ae5577f4e2ca0515ed1aef1395f66b5303bb5d6f1bf9d61a353fa53f73f8ac9973fa9f6612ad8612a6f83613391565b94612a9c8630337f0000000000000000000000000000000000000000000000000000000000000000612d18565b612aaf612aa7612bed565b878784612c00565b6040805133815260208101889052908101949094526001600160a01b0316929081906060820190565b0390a361081e6001600655565b60405162461bcd60e51b815260206004820152600b60248201526a5a45524f5f53484152455360a81b6044820152606490fd5b612b20611e5f565b612a1a565b818110612b30570390565b612b38611e5f565b0390565b15612b4357565b60405162461bcd60e51b815260206004820152603060248201527f4465706f7369742074696d65206973206f7665722c2045706f6368206861732060448201526f616c726561647920737461727465642160801b6064820152608490fd5b15612ba857565b60405162461bcd60e51b815260206004820152601f60248201527f5265656e7472616e637947756172643a207265656e7472616e742063616c6c006044820152606490fd5b60405190612bfa82610b94565b60008252565b936001600160a01b0385169391929091908415612cc957612c20846126ad565b93612c2a826126ad565b9660005b8651811015612c5b5780612c45612c56928b611e92565b51610e17610e0f6121e3848c611e92565b612c2e565b509193965091935061212694612c7f82610dc4856000526000602052604060002090565b612c8a858254612035565b9055604080518481526020810186905260009133917fc3d58168c5ae7397731d063d5bbf3d657854427343f4c083240f7aacaa2d0f629190a4336123e7565b60405162461bcd60e51b815260206004820152602160248201527f455243313135353a206d696e7420746f20746865207a65726f206164647265736044820152607360f81b6064820152608490fd5b9060006064926020958295604051946323b872dd60e01b86526004860152602485015260448401525af13d15601f3d1160016000511416171615612d5857565b60405162461bcd60e51b81526020600482015260146024820152731514905394d1915497d19493d357d1905253115160621b6044820152606490fd5b15612d9b57565b60405162461bcd60e51b815260206004820152602160248201527f45544820616d6f756e74206d7573742062652067726561746572207468616e206044820152600360fc1b6064820152608490fd5b9081602091031261000e575161081e8161104a565b15612e0657565b634e487b7160e01b600052600160045260246000fd5b9081600052600d602052612e3c600160ff60406000205416151514612993565b81600052600b602052612e6160406000205460085490818110612b1857034210612b3c565b612e7060026006541415612ba1565b60026006557f4e2ca0515ed1aef1395f66b5303bb5d6f1bf9d61a353fa53f73f8ac9973fa9f6612ef3612eab612ea6848661290d565b613391565b94612ed88630337f0000000000000000000000000000000000000000000000000000000000000000612d18565b612aaf604051612ee781610b94565b60008152878784612c00565b0390a3600160065590565b15612f0557565b60405162461bcd60e51b815260206004820152604660248201527f45706f636820686173206e6f7420656e6465642c206f7220646570656720657660448201527f656e7420686173206e6f74206f63757272656420696e207468652074696d65206064820152656265696e672160d01b608482015260a490fd5b15612f8657565b60405162461bcd60e51b815260206004820152602760248201527f4f776e6572206e6565647320746f20617070726f766520726563656976657220604482015266199bdc88185b1b60ca1b6064820152608490fd5b15612fe257565b60405162461bcd60e51b8152602060048201526024808201527f455243313135353a206275726e20616d6f756e7420657863656564732062616c604482015263616e636560e01b6064820152608490fd5b916001600160a01b038316919082156130fa576130ec7fc3d58168c5ae7397731d063d5bbf3d657854427343f4c083240f7aacaa2d0f629160009561309361307a866126ad565b613083846126ad565b9061308c612bed565b508361275a565b6130d2826130af83610dc4896000526000602052604060002090565b546130bc82821015612fdb565b0391610dc4876000526000602052604060002090565b556040805194855260208501919091523393918291820190565b0390a46130f7612bed565b50565b60405162461bcd60e51b815260206004820152602360248201527f455243313135353a206275726e2066726f6d20746865207a65726f206164647260448201526265737360e81b6064820152608490fd5b600091826044926020956040519363a9059cbb60e01b8552600485015260248401525af13d15601f3d116001600051141617161561318557565b60405162461bcd60e51b815260206004820152600f60248201526e1514905394d1915497d19052531151608a1b6044820152606490fd5b156131c357565b60405162461bcd60e51b815260206004820152600b60248201526a5a45524f5f41535345545360a81b6044820152606490fd5b61081e9080600052600d602052613219600160ff60406000205416151514612993565b600052600360205260406000205490565b806000190482118115151661323d570290565b613245611e5f565b0290565b1561325057565b60405162461bcd60e51b8152602060048201526014602482015273596f7520617265206e6f7420466163746f72792160601b6044820152606490fd5b1561329357565b60405162461bcd60e51b815260206004820152601060248201526f46656520697320746f6f20686967682160801b6044820152606490fd5b60075468010000000000000000811015613327575b600181018060075581101561331a575b60076000527fa66cc928b5edb82af9bd49922954155ab7b0942694bea4ce44661d9a8736c6880155565b613322611a28565b6132f0565b61332f610b5c565b6132e0565b1561333b57565b60405162461bcd60e51b815260206004820152602860248201527f596f7520617265206e6f742063616c6c696e672066726f6d2074686520436f6e60448201526774726f6c6c65722160c01b6064820152608490fd5b6103e86133a0600e548361322a565b04908181106133e3575b600f54612b389083906001600160a01b0316337f0000000000000000000000000000000000000000000000000000000000000000612d18565b6133eb611e5f565b6133aa565b60055460009291613400826113c8565b9160019081811690811561346c575060011461341b57505050565b909192935060056000527f036b6384b5eca791c62761152d0c79bb0604c104a5fb6f4eb0703f3154bb3db0906000915b848310613459575050500190565b818160209254858701520192019161344b565b60ff191683525050811515909102019150565b6040516020810181613490826133f0565b03916134a4601f1993848101835282610bb0565b519020906040516134d56020820192826134c985600490637259324b60e01b81520190565b03908101835282610bb0565b51902003613546576134fb6134f761160083600052600c602052604060002090565b1590565b1561354657906135418261353a61352961352261081e966000526009602052604060002090565b54856128a2565b91600052600a602052604060002090565b5490612881565b612035565b61353a61352961081e93613564846000526009602052604060002090565b54906128a2565b60078054600093929184805b838110613585575050505050565b82825284817fa66cc928b5edb82af9bd49922954155ab7b0942694bea4ce44661d9a8736c6880154146135c0576135bb90611e76565b613577565b9350909193945060019384811061363a575b60001981018414613632577fa66cc928b5edb82af9bd49922954155ab7b0942694bea4ce44661d9a8736c689946001198511613625575b84011015613618575b52015490565b613620611a28565b613612565b61362d611e5f565b613609565b509250505090565b613642611e5f565b6135d256fea264697066735822122061bec3197c0d2250599fecfb271c966bb9aad29f931a69f82ef90c94d125c6b064736f6c634300080f0033bb8a6a4669ba250d26cd7a459eca9d215f8307e33aebe50379bc5a3617ec3444",
    "linkReferences": {}
  },
  "methodIdentifiers": {
    "asset()": "38d52e0f",
    "balanceOf(address,uint256)": "00fdd58e",
    "balanceOfBatch(address[],uint256[])": "4e1273f4",
    "beforeWithdraw(uint256,uint256)": "6f7e9bd5",
    "calculateFeeValue(uint256)": "dd2fdd21",
    "calculateWithdrawalFeeValue(uint256)": "ba37f9e5",
    "changeController(address)": "3cebb823",
    "changeFee(uint256)": "6a1db1bf",
    "changeTimewindow(uint256)": "28337df6",
    "changeTreasury(address)": "b14f2a39",
    "changeWithdrawalFee(uint256)": "819b48e3",
    "controller()": "f77c4791",
    "convertToAssets(uint256,uint256)": "181e7b3b",
    "convertToShares(uint256,uint256)": "db2088f4",
    "createAssets(uint256,uint256)": "23d68d8e",
    "deposit(uint256,uint256,address)": "8dbdbe6d",
    "depositETH(uint256,address)": "56150edf",
    "endEpoch(uint256,bool)": "4cbd43de",
    "epochs(uint256)": "c6b61e4c",
    "epochsLength()": "d662b92d",
    "exists(uint256)": "4f558e79",
    "feeTaken()": "281dba1b",
    "getNextEpoch(uint256)": "8fc710cb",
    "idClaimTVL(uint256)": "4d288ba7",
    "idDepegged(uint256)": "e58c6dfa",
    "idEpochBegin(uint256)": "ea859a27",
    "idExists(uint256)": "0b8a295a",
    "idFinalTVL(uint256)": "f9db2427",
    "isApprovedForAll(address,address)": "e985e9c5",
    "maxDeposit(address)": "402d267d",
    "maxMint(address)": "c63d75b6",
    "maxRedeem(uint256,address)": "236b4020",
    "maxWithdraw(uint256,address)": "242156ed",
    "mint(uint256,uint256,address)": "e7d3fe6b",
    "mintETH(uint256,address)": "cfc13da6",
    "previewDeposit(uint256,uint256)": "7a7af70d",
    "previewMint(uint256,uint256)": "276b1140",
    "previewRedeem(uint256,uint256)": "bbec4d06",
    "previewWithdraw(uint256,uint256)": "488bd7b0",
    "redeem(uint256,uint256,address,address)": "0169a996",
    "safeBatchTransferFrom(address,address,uint256[],uint256[],bytes)": "2eb2c2d6",
    "safeTransferFrom(address,address,uint256,uint256,bytes)": "f242432a",
    "sendTokens(uint256,address)": "29322e05",
    "setApprovalForAll(address,bool)": "a22cb465",
    "setClaimTVL(uint256,uint256)": "3e048365",
    "strikePrice()": "c52987cf",
    "supportsInterface(bytes4)": "01ffc9a7",
    "timewindow()": "2fccfc83",
    "tokenInsured()": "04da1a46",
    "tokenName()": "6c02a931",
    "tokenSymbol()": "7b61c320",
    "totalAssets(uint256)": "94605857",
    "totalSupply(uint256)": "bd85b039",
    "uri(uint256)": "0e89341c",
    "withdraw(uint256,uint256,address,address)": "71b3177a",
    "withdrawalFee()": "8bc7e8c4"
  },
  "id": 28
}