{
  "abi": [
    {
      "inputs": [
        {
          "internalType": "address",
          "name": "_assetAddress",
          "type": "address"
        },
        {
          "internalType": "string",
          "name": "_name",
          "type": "string"
        },
        {
          "internalType": "string",
          "name": "_symbol",
          "type": "string"
        },
        {
          "internalType": "address",
          "name": "_treasury",
          "type": "address"
        },
        {
          "internalType": "uint256",
          "name": "_fee",
          "type": "uint256"
        },
        {
          "internalType": "uint256",
          "name": "_riskWithdrawalFee",
          "type": "uint256"
        },
        {
          "internalType": "address",
          "name": "_token",
          "type": "address"
        },
        {
          "internalType": "int256",
          "name": "_strikePrice",
          "type": "int256"
        },
        {
          "internalType": "address",
          "name": "_controller",
          "type": "address"
        }
      ],
      "stateMutability": "nonpayable",
      "type": "constructor"
    },
    {
      "anonymous": false,
      "inputs": [
        {
          "indexed": true,
          "internalType": "address",
          "name": "account",
          "type": "address"
        },
        {
          "indexed": true,
          "internalType": "address",
          "name": "operator",
          "type": "address"
        },
        {
          "indexed": false,
          "internalType": "bool",
          "name": "approved",
          "type": "bool"
        }
      ],
      "name": "ApprovalForAll",
      "type": "event"
    },
    {
      "anonymous": false,
      "inputs": [
        {
          "indexed": false,
          "internalType": "address",
          "name": "caller",
          "type": "address"
        },
        {
          "indexed": true,
          "internalType": "address",
          "name": "owner",
          "type": "address"
        },
        {
          "indexed": true,
          "internalType": "uint256",
          "name": "id",
          "type": "uint256"
        },
        {
          "indexed": false,
          "internalType": "uint256",
          "name": "assets",
          "type": "uint256"
        },
        {
          "indexed": false,
          "internalType": "uint256",
          "name": "shares",
          "type": "uint256"
        }
      ],
      "name": "Deposit",
      "type": "event"
    },
    {
      "anonymous": false,
      "inputs": [
        {
          "indexed": true,
          "internalType": "address",
          "name": "operator",
          "type": "address"
        },
        {
          "indexed": true,
          "internalType": "address",
          "name": "from",
          "type": "address"
        },
        {
          "indexed": true,
          "internalType": "address",
          "name": "to",
          "type": "address"
        },
        {
          "indexed": false,
          "internalType": "uint256[]",
          "name": "ids",
          "type": "uint256[]"
        },
        {
          "indexed": false,
          "internalType": "uint256[]",
          "name": "values",
          "type": "uint256[]"
        }
      ],
      "name": "TransferBatch",
      "type": "event"
    },
    {
      "anonymous": false,
      "inputs": [
        {
          "indexed": true,
          "internalType": "address",
          "name": "operator",
          "type": "address"
        },
        {
          "indexed": true,
          "internalType": "address",
          "name": "from",
          "type": "address"
        },
        {
          "indexed": true,
          "internalType": "address",
          "name": "to",
          "type": "address"
        },
        {
          "indexed": false,
          "internalType": "uint256",
          "name": "id",
          "type": "uint256"
        },
        {
          "indexed": false,
          "internalType": "uint256",
          "name": "value",
          "type": "uint256"
        }
      ],
      "name": "TransferSingle",
      "type": "event"
    },
    {
      "anonymous": false,
      "inputs": [
        {
          "indexed": false,
          "internalType": "string",
          "name": "value",
          "type": "string"
        },
        {
          "indexed": true,
          "internalType": "uint256",
          "name": "id",
          "type": "uint256"
        }
      ],
      "name": "URI",
      "type": "event"
    },
    {
      "anonymous": false,
      "inputs": [
        {
          "indexed": false,
          "internalType": "address",
          "name": "caller",
          "type": "address"
        },
        {
          "indexed": false,
          "internalType": "address",
          "name": "receiver",
          "type": "address"
        },
        {
          "indexed": true,
          "internalType": "address",
          "name": "owner",
          "type": "address"
        },
        {
          "indexed": true,
          "internalType": "uint256",
          "name": "id",
          "type": "uint256"
        },
        {
          "indexed": false,
          "internalType": "uint256",
          "name": "assets",
          "type": "uint256"
        },
        {
          "indexed": false,
          "internalType": "uint256",
          "name": "shares",
          "type": "uint256"
        }
      ],
      "name": "Withdraw",
      "type": "event"
    },
    {
      "inputs": [],
      "name": "asset",
      "outputs": [
        {
          "internalType": "contract ERC20",
          "name": "",
          "type": "address"
        }
      ],
      "stateMutability": "view",
      "type": "function"
    },
    {
      "inputs": [
        {
          "internalType": "address",
          "name": "account",
          "type": "address"
        },
        {
          "internalType": "uint256",
          "name": "id",
          "type": "uint256"
        }
      ],
      "name": "balanceOf",
      "outputs": [
        {
          "internalType": "uint256",
          "name": "",
          "type": "uint256"
        }
      ],
      "stateMutability": "view",
      "type": "function"
    },
    {
      "inputs": [
        {
          "internalType": "address[]",
          "name": "accounts",
          "type": "address[]"
        },
        {
          "internalType": "uint256[]",
          "name": "ids",
          "type": "uint256[]"
        }
      ],
      "name": "balanceOfBatch",
      "outputs": [
        {
          "internalType": "uint256[]",
          "name": "",
          "type": "uint256[]"
        }
      ],
      "stateMutability": "view",
      "type": "function"
    },
    {
      "inputs": [
        {
          "internalType": "uint256",
          "name": "id",
          "type": "uint256"
        },
        {
          "internalType": "uint256",
          "name": "amount",
          "type": "uint256"
        }
      ],
      "name": "beforeWithdraw",
      "outputs": [
        {
          "internalType": "uint256",
          "name": "entitledAmount",
          "type": "uint256"
        }
      ],
      "stateMutability": "view",
      "type": "function"
    },
    {
      "inputs": [
        {
          "internalType": "uint256",
          "name": "amount",
          "type": "uint256"
        }
      ],
      "name": "calculateFeeValue",
      "outputs": [
        {
          "internalType": "uint256",
          "name": "feeValue",
          "type": "uint256"
        }
      ],
      "stateMutability": "view",
      "type": "function"
    },
    {
      "inputs": [
        {
          "internalType": "uint256",
          "name": "amount",
          "type": "uint256"
        }
      ],
      "name": "calculateWithdrawalFeeValue",
      "outputs": [
        {
          "internalType": "uint256",
          "name": "feeValue",
          "type": "uint256"
        }
      ],
      "stateMutability": "view",
      "type": "function"
    },
    {
      "inputs": [
        {
          "internalType": "address",
          "name": "_controller",
          "type": "address"
        }
      ],
      "name": "changeController",
      "outputs": [],
      "stateMutability": "nonpayable",
      "type": "function"
    },
    {
      "inputs": [
        {
          "internalType": "uint256",
          "name": "_fee",
          "type": "uint256"
        }
      ],
      "name": "changeFee",
      "outputs": [],
      "stateMutability": "nonpayable",
      "type": "function"
    },
    {
      "inputs": [
        {
          "internalType": "uint256",
          "name": "_timewindow",
          "type": "uint256"
        }
      ],
      "name": "changeTimewindow",
      "outputs": [],
      "stateMutability": "nonpayable",
      "type": "function"
    },
    {
      "inputs": [
        {
          "internalType": "address",
          "name": "_treasury",
          "type": "address"
        }
      ],
      "name": "changeTreasury",
      "outputs": [],
      "stateMutability": "nonpayable",
      "type": "function"
    },
    {
      "inputs": [
        {
          "internalType": "uint256",
          "name": "_riskWithdrawalFee",
          "type": "uint256"
        }
      ],
      "name": "changeWithdrawalFee",
      "outputs": [],
      "stateMutability": "nonpayable",
      "type": "function"
    },
    {
      "inputs": [],
      "name": "controller",
      "outputs": [
        {
          "internalType": "address",
          "name": "",
          "type": "address"
        }
      ],
      "stateMutability": "view",
      "type": "function"
    },
    {
      "inputs": [
        {
          "internalType": "uint256",
          "name": "id",
          "type": "uint256"
        },
        {
          "internalType": "uint256",
          "name": "shares",
          "type": "uint256"
        }
      ],
      "name": "convertToAssets",
      "outputs": [
        {
          "internalType": "uint256",
          "name": "",
          "type": "uint256"
        }
      ],
      "stateMutability": "view",
      "type": "function"
    },
    {
      "inputs": [
        {
          "internalType": "uint256",
          "name": "id",
          "type": "uint256"
        },
        {
          "internalType": "uint256",
          "name": "assets",
          "type": "uint256"
        }
      ],
      "name": "convertToShares",
      "outputs": [
        {
          "internalType": "uint256",
          "name": "",
          "type": "uint256"
        }
      ],
      "stateMutability": "view",
      "type": "function"
    },
    {
      "inputs": [
        {
          "internalType": "uint256",
          "name": "epochBegin",
          "type": "uint256"
        },
        {
          "internalType": "uint256",
          "name": "epochEnd",
          "type": "uint256"
        }
      ],
      "name": "createAssets",
      "outputs": [],
      "stateMutability": "nonpayable",
      "type": "function"
    },
    {
      "inputs": [
        {
          "internalType": "uint256",
          "name": "id",
          "type": "uint256"
        },
        {
          "internalType": "uint256",
          "name": "assets",
          "type": "uint256"
        },
        {
          "internalType": "address",
          "name": "receiver",
          "type": "address"
        }
      ],
      "name": "deposit",
      "outputs": [
        {
          "internalType": "uint256",
          "name": "shares",
          "type": "uint256"
        }
      ],
      "stateMutability": "nonpayable",
      "type": "function"
    },
    {
      "inputs": [
        {
          "internalType": "uint256",
          "name": "id",
          "type": "uint256"
        },
        {
          "internalType": "address",
          "name": "receiver",
          "type": "address"
        }
      ],
      "name": "depositETH",
      "outputs": [
        {
          "internalType": "uint256",
          "name": "shares",
          "type": "uint256"
        }
      ],
      "stateMutability": "payable",
      "type": "function"
    },
    {
      "inputs": [
        {
          "internalType": "uint256",
          "name": "id",
          "type": "uint256"
        },
        {
          "internalType": "bool",
          "name": "depeg",
          "type": "bool"
        }
      ],
      "name": "endEpoch",
      "outputs": [],
      "stateMutability": "nonpayable",
      "type": "function"
    },
    {
      "inputs": [
        {
          "internalType": "uint256",
          "name": "",
          "type": "uint256"
        }
      ],
      "name": "epochs",
      "outputs": [
        {
          "internalType": "uint256",
          "name": "",
          "type": "uint256"
        }
      ],
      "stateMutability": "view",
      "type": "function"
    },
    {
      "inputs": [],
      "name": "epochsLength",
      "outputs": [
        {
          "internalType": "uint256",
          "name": "",
          "type": "uint256"
        }
      ],
      "stateMutability": "view",
      "type": "function"
    },
    {
      "inputs": [
        {
          "internalType": "uint256",
          "name": "id",
          "type": "uint256"
        }
      ],
      "name": "exists",
      "outputs": [
        {
          "internalType": "bool",
          "name": "",
          "type": "bool"
        }
      ],
      "stateMutability": "view",
      "type": "function"
    },
    {
      "inputs": [],
      "name": "feeTaken",
      "outputs": [
        {
          "internalType": "uint256",
          "name": "",
          "type": "uint256"
        }
      ],
      "stateMutability": "view",
      "type": "function"
    },
    {
      "inputs": [
        {
          "internalType": "uint256",
          "name": "_epoch",
          "type": "uint256"
        }
      ],
      "name": "getNextEpoch",
      "outputs": [
        {
          "internalType": "uint256",
          "name": "nextEpochEnd",
          "type": "uint256"
        }
      ],
      "stateMutability": "view",
      "type": "function"
    },
    {
      "inputs": [
        {
          "internalType": "uint256",
          "name": "",
          "type": "uint256"
        }
      ],
      "name": "idClaimTVL",
      "outputs": [
        {
          "internalType": "uint256",
          "name": "",
          "type": "uint256"
        }
      ],
      "stateMutability": "view",
      "type": "function"
    },
    {
      "inputs": [
        {
          "internalType": "uint256",
          "name": "",
          "type": "uint256"
        }
      ],
      "name": "idDepegged",
      "outputs": [
        {
          "internalType": "bool",
          "name": "",
          "type": "bool"
        }
      ],
      "stateMutability": "view",
      "type": "function"
    },
    {
      "inputs": [
        {
          "internalType": "uint256",
          "name": "",
          "type": "uint256"
        }
      ],
      "name": "idEpochBegin",
      "outputs": [
        {
          "internalType": "uint256",
          "name": "",
          "type": "uint256"
        }
      ],
      "stateMutability": "view",
      "type": "function"
    },
    {
      "inputs": [
        {
          "internalType": "uint256",
          "name": "",
          "type": "uint256"
        }
      ],
      "name": "idExists",
      "outputs": [
        {
          "internalType": "bool",
          "name": "",
          "type": "bool"
        }
      ],
      "stateMutability": "view",
      "type": "function"
    },
    {
      "inputs": [
        {
          "internalType": "uint256",
          "name": "",
          "type": "uint256"
        }
      ],
      "name": "idFinalTVL",
      "outputs": [
        {
          "internalType": "uint256",
          "name": "",
          "type": "uint256"
        }
      ],
      "stateMutability": "view",
      "type": "function"
    },
    {
      "inputs": [
        {
          "internalType": "address",
          "name": "account",
          "type": "address"
        },
        {
          "internalType": "address",
          "name": "operator",
          "type": "address"
        }
      ],
      "name": "isApprovedForAll",
      "outputs": [
        {
          "internalType": "bool",
          "name": "",
          "type": "bool"
        }
      ],
      "stateMutability": "view",
      "type": "function"
    },
    {
      "inputs": [
        {
          "internalType": "address",
          "name": "",
          "type": "address"
        }
      ],
      "name": "maxDeposit",
      "outputs": [
        {
          "internalType": "uint256",
          "name": "",
          "type": "uint256"
        }
      ],
      "stateMutability": "view",
      "type": "function"
    },
    {
      "inputs": [
        {
          "internalType": "address",
          "name": "",
          "type": "address"
        }
      ],
      "name": "maxMint",
      "outputs": [
        {
          "internalType": "uint256",
          "name": "",
          "type": "uint256"
        }
      ],
      "stateMutability": "view",
      "type": "function"
    },
    {
      "inputs": [
        {
          "internalType": "uint256",
          "name": "id",
          "type": "uint256"
        },
        {
          "internalType": "address",
          "name": "owner",
          "type": "address"
        }
      ],
      "name": "maxRedeem",
      "outputs": [
        {
          "internalType": "uint256",
          "name": "",
          "type": "uint256"
        }
      ],
      "stateMutability": "view",
      "type": "function"
    },
    {
      "inputs": [
        {
          "internalType": "uint256",
          "name": "id",
          "type": "uint256"
        },
        {
          "internalType": "address",
          "name": "owner",
          "type": "address"
        }
      ],
      "name": "maxWithdraw",
      "outputs": [
        {
          "internalType": "uint256",
          "name": "",
          "type": "uint256"
        }
      ],
      "stateMutability": "view",
      "type": "function"
    },
    {
      "inputs": [
        {
          "internalType": "uint256",
          "name": "id",
          "type": "uint256"
        },
        {
          "internalType": "uint256",
          "name": "shares",
          "type": "uint256"
        },
        {
          "internalType": "address",
          "name": "receiver",
          "type": "address"
        }
      ],
      "name": "mint",
      "outputs": [
        {
          "internalType": "uint256",
          "name": "assets",
          "type": "uint256"
        }
      ],
      "stateMutability": "nonpayable",
      "type": "function"
    },
    {
      "inputs": [
        {
          "internalType": "uint256",
          "name": "id",
          "type": "uint256"
        },
        {
          "internalType": "address",
          "name": "receiver",
          "type": "address"
        }
      ],
      "name": "mintETH",
      "outputs": [
        {
          "internalType": "uint256",
          "name": "shares",
          "type": "uint256"
        }
      ],
      "stateMutability": "payable",
      "type": "function"
    },
    {
      "inputs": [],
      "name": "name",
      "outputs": [
        {
          "internalType": "string",
          "name": "",
          "type": "string"
        }
      ],
      "stateMutability": "view",
      "type": "function"
    },
    {
      "inputs": [
        {
          "internalType": "uint256",
          "name": "id",
          "type": "uint256"
        },
        {
          "internalType": "uint256",
          "name": "assets",
          "type": "uint256"
        }
      ],
      "name": "previewDeposit",
      "outputs": [
        {
          "internalType": "uint256",
          "name": "",
          "type": "uint256"
        }
      ],
      "stateMutability": "view",
      "type": "function"
    },
    {
      "inputs": [
        {
          "internalType": "uint256",
          "name": "id",
          "type": "uint256"
        },
        {
          "internalType": "uint256",
          "name": "shares",
          "type": "uint256"
        }
      ],
      "name": "previewMint",
      "outputs": [
        {
          "internalType": "uint256",
          "name": "",
          "type": "uint256"
        }
      ],
      "stateMutability": "view",
      "type": "function"
    },
    {
      "inputs": [
        {
          "internalType": "uint256",
          "name": "id",
          "type": "uint256"
        },
        {
          "internalType": "uint256",
          "name": "shares",
          "type": "uint256"
        }
      ],
      "name": "previewRedeem",
      "outputs": [
        {
          "internalType": "uint256",
          "name": "",
          "type": "uint256"
        }
      ],
      "stateMutability": "view",
      "type": "function"
    },
    {
      "inputs": [
        {
          "internalType": "uint256",
          "name": "id",
          "type": "uint256"
        },
        {
          "internalType": "uint256",
          "name": "assets",
          "type": "uint256"
        }
      ],
      "name": "previewWithdraw",
      "outputs": [
        {
          "internalType": "uint256",
          "name": "",
          "type": "uint256"
        }
      ],
      "stateMutability": "view",
      "type": "function"
    },
    {
      "inputs": [
        {
          "internalType": "uint256",
          "name": "id",
          "type": "uint256"
        },
        {
          "internalType": "uint256",
          "name": "shares",
          "type": "uint256"
        },
        {
          "internalType": "address",
          "name": "receiver",
          "type": "address"
        },
        {
          "internalType": "address",
          "name": "owner",
          "type": "address"
        }
      ],
      "name": "redeem",
      "outputs": [
        {
          "internalType": "uint256",
          "name": "assets",
          "type": "uint256"
        }
      ],
      "stateMutability": "nonpayable",
      "type": "function"
    },
    {
      "inputs": [
        {
          "internalType": "address",
          "name": "from",
          "type": "address"
        },
        {
          "internalType": "address",
          "name": "to",
          "type": "address"
        },
        {
          "internalType": "uint256[]",
          "name": "ids",
          "type": "uint256[]"
        },
        {
          "internalType": "uint256[]",
          "name": "amounts",
          "type": "uint256[]"
        },
        {
          "internalType": "bytes",
          "name": "data",
          "type": "bytes"
        }
      ],
      "name": "safeBatchTransferFrom",
      "outputs": [],
      "stateMutability": "nonpayable",
      "type": "function"
    },
    {
      "inputs": [
        {
          "internalType": "address",
          "name": "from",
          "type": "address"
        },
        {
          "internalType": "address",
          "name": "to",
          "type": "address"
        },
        {
          "internalType": "uint256",
          "name": "id",
          "type": "uint256"
        },
        {
          "internalType": "uint256",
          "name": "amount",
          "type": "uint256"
        },
        {
          "internalType": "bytes",
          "name": "data",
          "type": "bytes"
        }
      ],
      "name": "safeTransferFrom",
      "outputs": [],
      "stateMutability": "nonpayable",
      "type": "function"
    },
    {
      "inputs": [
        {
          "internalType": "uint256",
          "name": "id",
          "type": "uint256"
        },
        {
          "internalType": "address",
          "name": "_counterparty",
          "type": "address"
        }
      ],
      "name": "sendTokens",
      "outputs": [],
      "stateMutability": "nonpayable",
      "type": "function"
    },
    {
      "inputs": [
        {
          "internalType": "address",
          "name": "operator",
          "type": "address"
        },
        {
          "internalType": "bool",
          "name": "approved",
          "type": "bool"
        }
      ],
      "name": "setApprovalForAll",
      "outputs": [],
      "stateMutability": "nonpayable",
      "type": "function"
    },
    {
      "inputs": [
        {
          "internalType": "uint256",
          "name": "id",
          "type": "uint256"
        },
        {
          "internalType": "uint256",
          "name": "claimTVL",
          "type": "uint256"
        }
      ],
      "name": "setClaimTVL",
      "outputs": [],
      "stateMutability": "nonpayable",
      "type": "function"
    },
    {
      "inputs": [],
      "name": "strikePrice",
      "outputs": [
        {
          "internalType": "int256",
          "name": "",
          "type": "int256"
        }
      ],
      "stateMutability": "view",
      "type": "function"
    },
    {
      "inputs": [
        {
          "internalType": "bytes4",
          "name": "interfaceId",
          "type": "bytes4"
        }
      ],
      "name": "supportsInterface",
      "outputs": [
        {
          "internalType": "bool",
          "name": "",
          "type": "bool"
        }
      ],
      "stateMutability": "view",
      "type": "function"
    },
    {
      "inputs": [],
      "name": "symbol",
      "outputs": [
        {
          "internalType": "string",
          "name": "",
          "type": "string"
        }
      ],
      "stateMutability": "view",
      "type": "function"
    },
    {
      "inputs": [],
      "name": "timewindow",
      "outputs": [
        {
          "internalType": "uint256",
          "name": "",
          "type": "uint256"
        }
      ],
      "stateMutability": "view",
      "type": "function"
    },
    {
      "inputs": [],
      "name": "tokenInsured",
      "outputs": [
        {
          "internalType": "address",
          "name": "",
          "type": "address"
        }
      ],
      "stateMutability": "view",
      "type": "function"
    },
    {
      "inputs": [],
      "name": "tokenName",
      "outputs": [
        {
          "internalType": "string",
          "name": "",
          "type": "string"
        }
      ],
      "stateMutability": "view",
      "type": "function"
    },
    {
      "inputs": [],
      "name": "tokenSymbol",
      "outputs": [
        {
          "internalType": "string",
          "name": "",
          "type": "string"
        }
      ],
      "stateMutability": "view",
      "type": "function"
    },
    {
      "inputs": [
        {
          "internalType": "uint256",
          "name": "_id",
          "type": "uint256"
        }
      ],
      "name": "totalAssets",
      "outputs": [
        {
          "internalType": "uint256",
          "name": "",
          "type": "uint256"
        }
      ],
      "stateMutability": "view",
      "type": "function"
    },
    {
      "inputs": [
        {
          "internalType": "uint256",
          "name": "id",
          "type": "uint256"
        }
      ],
      "name": "totalSupply",
      "outputs": [
        {
          "internalType": "uint256",
          "name": "",
          "type": "uint256"
        }
      ],
      "stateMutability": "view",
      "type": "function"
    },
    {
      "inputs": [
        {
          "internalType": "uint256",
          "name": "",
          "type": "uint256"
        }
      ],
      "name": "uri",
      "outputs": [
        {
          "internalType": "string",
          "name": "",
          "type": "string"
        }
      ],
      "stateMutability": "view",
      "type": "function"
    },
    {
      "inputs": [
        {
          "internalType": "uint256",
          "name": "id",
          "type": "uint256"
        },
        {
          "internalType": "uint256",
          "name": "assets",
          "type": "uint256"
        },
        {
          "internalType": "address",
          "name": "receiver",
          "type": "address"
        },
        {
          "internalType": "address",
          "name": "owner",
          "type": "address"
        }
      ],
      "name": "withdraw",
      "outputs": [
        {
          "internalType": "uint256",
          "name": "shares",
          "type": "uint256"
        }
      ],
      "stateMutability": "nonpayable",
      "type": "function"
    },
    {
      "inputs": [],
      "name": "withdrawalFee",
      "outputs": [
        {
          "internalType": "uint256",
          "name": "",
          "type": "uint256"
        }
      ],
      "stateMutability": "view",
      "type": "function"
    }
  ],
  "bytecode": {
    "object": "0x6101006040523480156200001257600080fd5b506040516200414d3803806200414d833981016040819052620000359162000414565b8888886040518060200160405280600081525062000059816200031860201b60201c565b506001600160a01b038316608052600462000075838262000576565b50600562000084828262000576565b50506001600655505060968510620000e35760405162461bcd60e51b815260206004820152601960248201527f466565206d757374206265206c657373207468616e203135250000000000000060448201526064015b60405180910390fd5b60968410620001355760405162461bcd60e51b815260206004820152601960248201527f466565206d757374206265206c657373207468616e20313525000000000000006044820152606401620000da565b6001600160a01b0386166200018d5760405162461bcd60e51b815260206004820152601e60248201527f547265617375727920616464726573732063616e6e6f742062652030783000006044820152606401620000da565b6001600160a01b038116620001e55760405162461bcd60e51b815260206004820181905260248201527f436f6e74726f6c6c657220616464726573732063616e6e6f74206265203078306044820152606401620000da565b6001600160a01b0383166200023d5760405162461bcd60e51b815260206004820152601b60248201527f546f6b656e20616464726573732063616e6e6f742062652030783000000000006044820152606401620000da565b600082136200029b5760405162461bcd60e51b815260206004820152602360248201527f537472696b65207072696365206d75737420626520677265617465722074686160448201526206e20360ec1b6064820152608401620000da565b6001600160a01b0383811660a052600e869055600f80546001600160a01b03199081168984161790915560c08490523360e05260108054909116918316919091179055620151806008556011620002f3898262000576565b50601262000302888262000576565b5050506013919091555062000642945050505050565b600262000326828262000576565b5050565b80516001600160a01b03811681146200034257600080fd5b919050565b634e487b7160e01b600052604160045260246000fd5b600082601f8301126200036f57600080fd5b81516001600160401b03808211156200038c576200038c62000347565b604051601f8301601f19908116603f01168101908282118183101715620003b757620003b762000347565b81604052838152602092508683858801011115620003d457600080fd5b600091505b83821015620003f85785820183015181830184015290820190620003d9565b838211156200040a5760008385830101525b9695505050505050565b60008060008060008060008060006101208a8c0312156200043457600080fd5b6200043f8a6200032a565b60208b01519099506001600160401b03808211156200045d57600080fd5b6200046b8d838e016200035d565b995060408c01519150808211156200048257600080fd5b50620004918c828d016200035d565b975050620004a260608b016200032a565b955060808a0151945060a08a01519350620004c060c08b016200032a565b925060e08a01519150620004d86101008b016200032a565b90509295985092959850929598565b600181811c90821680620004fc57607f821691505b6020821081036200051d57634e487b7160e01b600052602260045260246000fd5b50919050565b601f8211156200057157600081815260208120601f850160051c810160208610156200054c5750805b601f850160051c820191505b818110156200056d5782815560010162000558565b5050505b505050565b81516001600160401b0381111562000592576200059262000347565b620005aa81620005a38454620004e7565b8462000523565b602080601f831160018114620005e25760008415620005c95750858301515b600019600386901b1c1916600185901b1785556200056d565b600085815260208120601f198616915b828110156200061357888601518255948401946001909101908401620005f2565b5085821015620006325787850151600019600388901b60f8161c191681555b5050505050600190811b01905550565b60805160a05160c05160e051613a5a620006f360003960008181610f97015281816110fe0152818161128b0152818161165b015281816118b8015281816119e60152611d460152600061097a0152600061041a01526000818161060601528181610d0f01528181610d9c015281816111bc01528181611536015281816115c00152818161194601528181611b9701528181611e6801528181611ef2015281816120ac015261267d0152613a5a6000f3fe6080604052600436106103805760003560e01c80636f7e9bd5116101d1578063bd85b03911610102578063dd2fdd21116100a0578063ea859a271161006f578063ea859a2714610a94578063f242432a14610ac1578063f77c479114610ae1578063f9db242714610b0157600080fd5b8063dd2fdd2114610a04578063e58c6dfa14610a24578063e7d3fe6b14610a54578063e985e9c514610a7457600080fd5b8063c6b61e4c116100dc578063c6b61e4c1461099c578063cfc13da6146109bc578063d662b92d146109cf578063db2088f4146109e457600080fd5b8063bd85b0391461093b578063c52987cf14610968578063c63d75b61461066857600080fd5b80638fc710cb1161016f578063a22cb46511610149578063a22cb465146108bb578063b14f2a39146108db578063ba37f9e5146108fb578063bbec4d061461091b57600080fd5b80638fc710cb14610866578063946058571461088657806395d89b41146108a657600080fd5b80637b61c320116101ab5780637b61c320146107fb578063819b48e3146108105780638bc7e8c4146108305780638dbdbe6d1461084657600080fd5b80636f7e9bd51461079b57806371b3177a146107bb5780637a7af70d146107db57600080fd5b806329322e05116102b6578063488bd7b0116102545780634f558e79116102235780634f558e791461072457806356150edf146107535780636a1db1bf146107665780636c02a9311461078657600080fd5b8063488bd7b01461068a5780634cbd43de146106aa5780634d288ba7146106ca5780634e1273f4146106f757600080fd5b806338d52e0f1161029057806338d52e0f146105f45780633cebb823146106285780633e04836514610648578063402d267d1461066857600080fd5b806329322e051461059e5780632eb2c2d6146105be5780632fccfc83146105de57600080fd5b8063181e7b3b11610323578063242156ed116102fd578063242156ed14610528578063276b114014610548578063281dba1b1461056857806328337df61461057e57600080fd5b8063181e7b3b146104c6578063236b4020146104e657806323d68d8e1461050657600080fd5b806304da1a461161035f57806304da1a461461040857806306fdde03146104545780630b8a295a146104765780630e89341c146104a657600080fd5b8062fdd58e146103855780630169a996146103b857806301ffc9a7146103d8575b600080fd5b34801561039157600080fd5b506103a56103a0366004612e4f565b610b2e565b6040519081526020015b60405180910390f35b3480156103c457600080fd5b506103a56103d3366004612e79565b610bc7565b3480156103e457600080fd5b506103f86103f3366004612ed8565b610dcf565b60405190151581526020016103af565b34801561041457600080fd5b5061043c7f000000000000000000000000000000000000000000000000000000000000000081565b6040516001600160a01b0390911681526020016103af565b34801561046057600080fd5b50610469610e1f565b6040516103af9190612f42565b34801561048257600080fd5b506103f8610491366004612f55565b600d6020526000908152604090205460ff1681565b3480156104b257600080fd5b506104696104c1366004612f55565b610ead565b3480156104d257600080fd5b506103a56104e1366004612f6e565b610f41565b3480156104f257600080fd5b506103a5610501366004612f90565b610f79565b34801561051257600080fd5b50610526610521366004612f6e565b610f8c565b005b34801561053457600080fd5b506103a5610543366004612f90565b6110ba565b34801561055457600080fd5b506103a5610563366004612f6e565b6110ca565b34801561057457600080fd5b506103a5600e5481565b34801561058a57600080fd5b50610526610599366004612f55565b6110f3565b3480156105aa57600080fd5b506105266105b9366004612f90565b611140565b3480156105ca57600080fd5b506105266105d9366004613108565b6111e9565b3480156105ea57600080fd5b506103a560085481565b34801561060057600080fd5b5061043c7f000000000000000000000000000000000000000000000000000000000000000081565b34801561063457600080fd5b506105266106433660046131b2565b611280565b34801561065457600080fd5b50610526610663366004612f6e565b6112ea565b34801561067457600080fd5b506103a56106833660046131b2565b5060001990565b34801561069657600080fd5b506103a56106a5366004612f6e565b611326565b3480156106b657600080fd5b506105266106c53660046131db565b611350565b3480156106d657600080fd5b506103a56106e5366004612f55565b600a6020526000908152604090205481565b34801561070357600080fd5b5061071761071236600461320b565b6113e9565b6040516103af9190613311565b34801561073057600080fd5b506103f861073f366004612f55565b600090815260036020526040902054151590565b6103a5610761366004612f90565b611513565b34801561077257600080fd5b50610526610781366004612f55565b611650565b34801561079257600080fd5b506104696116e1565b3480156107a757600080fd5b506103a56107b6366004612f6e565b6116ee565b3480156107c757600080fd5b506103a56107d6366004612e79565b611815565b3480156107e757600080fd5b506103a56107f6366004612f6e565b6119c2565b34801561080757600080fd5b506104696119ce565b34801561081c57600080fd5b5061052661082b366004612f55565b6119db565b34801561083c57600080fd5b506103a560135481565b34801561085257600080fd5b506103a5610861366004613324565b611a6c565b34801561087257600080fd5b506103a5610881366004612f55565b611c38565b34801561089257600080fd5b506103a56108a1366004612f55565b611cd6565b3480156108b257600080fd5b50610469611d1f565b3480156108c757600080fd5b506105266108d6366004613359565b611d2c565b3480156108e757600080fd5b506105266108f63660046131b2565b611d3b565b34801561090757600080fd5b506103a5610916366004612f55565b611dfb565b34801561092757600080fd5b506103a5610936366004612f6e565b611e18565b34801561094757600080fd5b506103a5610956366004612f55565b60009081526003602052604090205490565b34801561097457600080fd5b506103a57f000000000000000000000000000000000000000000000000000000000000000081565b3480156109a857600080fd5b506103a56109b7366004612f55565b611e24565b6103a56109ca366004612f90565b611e45565b3480156109db57600080fd5b506007546103a5565b3480156109f057600080fd5b506103a56109ff366004612f6e565b611f82565b348015610a1057600080fd5b506103a5610a1f366004612f55565b611fac565b348015610a3057600080fd5b506103f8610a3f366004612f55565b600c6020526000908152604090205460ff1681565b348015610a6057600080fd5b506103a5610a6f366004613324565b611fbf565b348015610a8057600080fd5b506103f8610a8f366004613385565b61213a565b348015610aa057600080fd5b506103a5610aaf366004612f55565b600b6020526000908152604090205481565b348015610acd57600080fd5b50610526610adc3660046133af565b612168565b348015610aed57600080fd5b5060105461043c906001600160a01b031681565b348015610b0d57600080fd5b506103a5610b1c366004612f55565b60096020526000908152604090205481565b60006001600160a01b038316610b9e5760405162461bcd60e51b815260206004820152602a60248201527f455243313135353a2061646472657373207a65726f206973206e6f742061207660448201526930b634b21037bbb732b960b11b60648201526084015b60405180910390fd5b506000818152602081815260408083206001600160a01b03861684529091529020545b92915050565b6000848042101580610bec57506000818152600c602052604090205460ff1615156001145b610c085760405162461bcd60e51b8152600401610b9590613414565b6000868152600d6020526040902054869060ff161515600114610c3d5760405162461bcd60e51b8152600401610b9590613480565b336001600160a01b0385161480610c595750610c59848661213a565b610c755760405162461bcd60e51b8152600401610b95906134b0565b610c7f8787611326565b9250610c8b8787611e18565b925082600003610ccb5760405162461bcd60e51b815260206004820152600b60248201526a5a45524f5f41535345545360a81b6044820152606401610b95565b6000610cd788856116ee565b9050610ce48589896121ef565b6000610cef82611dfb565b9050610cfb818361350d565b600f54909250610d38906001600160a01b037f00000000000000000000000000000000000000000000000000000000000000008116911683612384565b604080513381526001600160a01b038981166020830152918101879052606081018490528a918816907fbbbdee62287b5bf3bee13cab60a29ad729cf38109bccbd2a986a11c99b8ca704906080015b60405180910390a3610dc36001600160a01b037f0000000000000000000000000000000000000000000000000000000000000000168884612384565b50979650505050505050565b60006001600160e01b03198216636cdb3d1360e11b1480610e0057506001600160e01b031982166303a24d0760e21b145b80610bc157506301ffc9a760e01b6001600160e01b0319831614610bc1565b60048054610e2c90613524565b80601f0160208091040260200160405190810160405280929190818152602001828054610e5890613524565b8015610ea55780601f10610e7a57610100808354040283529160200191610ea5565b820191906000526020600020905b815481529060010190602001808311610e8857829003601f168201915b505050505081565b606060028054610ebc90613524565b80601f0160208091040260200160405190810160405280929190818152602001828054610ee890613524565b8015610f355780601f10610f0a57610100808354040283529160200191610f35565b820191906000526020600020905b815481529060010190602001808311610f1857829003601f168201915b50505050509050919050565b6000828152600360205260408120548015610f6f57610f6a610f6285611cd6565b849083612402565b610f71565b825b949350505050565b6000610f858284610b2e565b9392505050565b336001600160a01b037f00000000000000000000000000000000000000000000000000000000000000001614610fd45760405162461bcd60e51b8152600401610b9590613558565b6000818152600d602052604090205460ff161561101f5760405162461bcd60e51b815260206004820152600960248201526849445f45584953545360b81b6044820152606401610b95565b80821061105e5760405162461bcd60e51b815260206004820152600d60248201526c0929cac82989288be8aa09e869609b1b6044820152606401610b95565b6000818152600d60209081526040808320805460ff19166001908117909155600b90925282209390935560078054938401815590527fa66cc928b5edb82af9bd49922954155ab7b0942694bea4ce44661d9a8736c68890910155565b6000610f85836104e18486610b2e565b6000828152600360205260408120548015610f6f57610f6a6110eb85611cd6565b849083612421565b336001600160a01b037f0000000000000000000000000000000000000000000000000000000000000000161461113b5760405162461bcd60e51b8152600401610b9590613558565b600855565b6010546001600160a01b0316331461116a5760405162461bcd60e51b8152600401610b9590613586565b6000828152600d6020526040902054829060ff16151560011461119f5760405162461bcd60e51b8152600401610b9590613480565b6000838152600960205260409020546111e4906001600160a01b037f000000000000000000000000000000000000000000000000000000000000000016908490612384565b505050565b6001600160a01b0385163314806112055750611205853361213a565b61126c5760405162461bcd60e51b815260206004820152603260248201527f455243313135353a207472616e736665722063616c6c6572206973206e6f74206044820152711bdddb995c881b9bdc88185c1c1c9bdd995960721b6064820152608401610b95565b611279858585858561244f565b5050505050565b336001600160a01b037f000000000000000000000000000000000000000000000000000000000000000016146112c85760405162461bcd60e51b8152600401610b9590613558565b601080546001600160a01b0319166001600160a01b0392909216919091179055565b6010546001600160a01b031633146113145760405162461bcd60e51b8152600401610b9590613586565b6000918252600a602052604090912055565b6000828152600360205260408120548015610f6f57610f6a8161134886611cd6565b859190612421565b6010546001600160a01b0316331461137a5760405162461bcd60e51b8152600401610b9590613586565b6000828152600d6020526040902054829060ff1615156001146113af5760405162461bcd60e51b8152600401610b9590613480565b6000838152600c60205260409020805460ff19168315151790556113d283611cd6565b600093845260096020526040909320929092555050565b6060815183511461144e5760405162461bcd60e51b815260206004820152602960248201527f455243313135353a206163636f756e747320616e6420696473206c656e677468604482015268040dad2e6dac2e8c6d60bb1b6064820152608401610b95565b6000835167ffffffffffffffff81111561146a5761146a612fbc565b604051908082528060200260200182016040528015611493578160200160208202803683370190505b50905060005b845181101561150b576114de8582815181106114b7576114b76135ce565b60200260200101518583815181106114d1576114d16135ce565b6020026020010151610b2e565b8282815181106114f0576114f06135ce565b6020908102919091010152611504816135e4565b9050611499565b509392505050565b60008034116115345760405162461bcd60e51b8152600401610b95906135fd565b7f00000000000000000000000000000000000000000000000000000000000000006001600160a01b031663d0e30db0346040518263ffffffff1660e01b81526004016000604051808303818588803b15801561158f57600080fd5b505af11580156115a3573d6000803e3d6000fd5b505060405163a9059cbb60e01b81523360048201523460248201527f00000000000000000000000000000000000000000000000000000000000000006001600160a01b0316935063a9059cbb925060440190506020604051808303816000875af1158015611615573d6000803e3d6000fd5b505050506040513d601f19601f82011682018060405250810190611639919061363e565b6116455761164561365b565b610f85833484611a6c565b336001600160a01b037f000000000000000000000000000000000000000000000000000000000000000016146116985760405162461bcd60e51b8152600401610b9590613558565b6103e881106116dc5760405162461bcd60e51b815260206004820152601060248201526f46656520697320746f6f20686967682160801b6044820152606401610b95565b600e55565b60118054610e2c90613524565b604051637259324b60e01b602082015260009060240160405160208183030381529060405280519060200120600560405160200161172c9190613671565b60405160208183030381529060405280519060200120036117e0576000838152600c602052604090205460ff166117ab576000838152600a6020908152604080832054600990925290912054839161179a91670de0b6b3a76400009061179390859061263a565b9190612402565b6117a49190613710565b9050610bc1565b6000838152600a60209081526040808320546009909252909120546117a49190670de0b6b3a76400009061179390869061263a565b6000838152600a6020908152604080832054600990925290912054610f859190670de0b6b3a76400009061179390869061263a565b600084804210158061183a57506000818152600c602052604090205460ff1615156001145b6118565760405162461bcd60e51b8152600401610b9590613414565b6000868152600d6020526040902054869060ff16151560011461188b5760405162461bcd60e51b8152600401610b9590613480565b336001600160a01b03851614806118a757506118a7848661213a565b806118da5750336001600160a01b037f000000000000000000000000000000000000000000000000000000000000000016145b6118f65760405162461bcd60e51b8152600401610b95906134b0565b6119008787611326565b9250600061190e88856116ee565b905061191b8589866121ef565b600061192682611dfb565b9050611932818361350d565b600f5490925061196f906001600160a01b037f00000000000000000000000000000000000000000000000000000000000000008116911683612384565b604080513381526001600160a01b0389811660208301529181018a9052606081018490528a918816907fbbbdee62287b5bf3bee13cab60a29ad729cf38109bccbd2a986a11c99b8ca70490608001610d87565b6000610f858383611f82565b60128054610e2c90613524565b336001600160a01b037f00000000000000000000000000000000000000000000000000000000000000001614611a235760405162461bcd60e51b8152600401610b9590613558565b6103e88110611a675760405162461bcd60e51b815260206004820152601060248201526f46656520697320746f6f20686967682160801b6044820152606401610b95565b601355565b6000838152600d6020526040812054849060ff161515600114611aa15760405162461bcd60e51b8152600401610b9590613480565b6008546000868152600b60205260409020548691611abe9161350d565b4210611adc5760405162461bcd60e51b8152600401610b9590613728565b600260065403611b2e5760405162461bcd60e51b815260206004820152601f60248201527f5265656e7472616e637947756172643a207265656e7472616e742063616c6c006044820152606401610b95565b6002600655611b3d86866119c2565b925082600003611b7d5760405162461bcd60e51b815260206004820152600b60248201526a5a45524f5f53484152455360a81b6044820152606401610b95565b6000611b888461264f565b9050611bbf6001600160a01b037f0000000000000000000000000000000000000000000000000000000000000000163330846126a4565b611bda85888360405180602001604052806000815250612727565b604080513381526020810183905290810185905287906001600160a01b038716907f4e2ca0515ed1aef1395f66b5303bb5d6f1bf9d61a353fa53f73f8ac9973fa9f6906060015b60405180910390a360016006559695505050505050565b6000805b600754811015611cd0578260078281548110611c5a57611c5a6135ce565b906000526020600020015403611cbe576001611c7560075490565b611c7f919061350d565b8103611c8e5750600092915050565b6007611c9b826001613710565b81548110611cab57611cab6135ce565b9060005260206000200154915050919050565b80611cc8816135e4565b915050611c3c565b50919050565b6000818152600d6020526040812054829060ff161515600114611d0b5760405162461bcd60e51b8152600401610b9590613480565b505060009081526003602052604090205490565b60058054610e2c90613524565b611d37338383612841565b5050565b336001600160a01b037f00000000000000000000000000000000000000000000000000000000000000001614611d835760405162461bcd60e51b8152600401610b9590613558565b6001600160a01b038116611dd95760405162461bcd60e51b815260206004820152601c60248201527f547265617375727920616464726573732063616e6e6f742062652030000000006044820152606401610b95565b600f80546001600160a01b0319166001600160a01b0392909216919091179055565b60006103e860135483611e0e9190613778565b610bc19190613797565b6000610f858383610f41565b60078181548110611e3457600080fd5b600091825260209091200154905081565b6000803411611e665760405162461bcd60e51b8152600401610b95906135fd565b7f00000000000000000000000000000000000000000000000000000000000000006001600160a01b031663d0e30db0346040518263ffffffff1660e01b81526004016000604051808303818588803b158015611ec157600080fd5b505af1158015611ed5573d6000803e3d6000fd5b505060405163a9059cbb60e01b81523360048201523460248201527f00000000000000000000000000000000000000000000000000000000000000006001600160a01b0316935063a9059cbb925060440190506020604051808303816000875af1158015611f47573d6000803e3d6000fd5b505050506040513d601f19601f82011682018060405250810190611f6b919061363e565b611f7757611f7761365b565b610f85833484611fbf565b6000828152600360205260408120548015610f6f57610f6a81611fa486611cd6565b859190612402565b60006103e8600e5483611e0e9190613778565b6000838152600d6020526040812054849060ff161515600114611ff45760405162461bcd60e51b8152600401610b9590613480565b6008546000868152600b602052604090205486916120119161350d565b421061202f5760405162461bcd60e51b8152600401610b9590613728565b6002600654036120815760405162461bcd60e51b815260206004820152601f60248201527f5265656e7472616e637947756172643a207265656e7472616e742063616c6c006044820152606401610b95565b600260065561209086866110ca565b9250600061209d8461264f565b90506120d46001600160a01b037f0000000000000000000000000000000000000000000000000000000000000000163330846126a4565b6120ef85888360405180602001604052806000815250612727565b604080513381526020810183905290810187905287906001600160a01b038716907f4e2ca0515ed1aef1395f66b5303bb5d6f1bf9d61a353fa53f73f8ac9973fa9f690606001611c21565b6001600160a01b03918216600090815260016020908152604080832093909416825291909152205460ff1690565b6001600160a01b0385163314806121845750612184853361213a565b6121e25760405162461bcd60e51b815260206004820152602960248201527f455243313135353a2063616c6c6572206973206e6f74206f776e6572206e6f7260448201526808185c1c1c9bdd995960ba1b6064820152608401610b95565b6112798585858585612921565b6001600160a01b0383166122515760405162461bcd60e51b815260206004820152602360248201527f455243313135353a206275726e2066726f6d20746865207a65726f206164647260448201526265737360e81b6064820152608401610b95565b33600061225d84612a59565b9050600061226a84612a59565b905061228a83876000858560405180602001604052806000815250612aa4565b6000858152602081815260408083206001600160a01b038a168452909152902054848110156123075760405162461bcd60e51b8152602060048201526024808201527f455243313135353a206275726e20616d6f756e7420657863656564732062616c604482015263616e636560e01b6064820152608401610b95565b6000868152602081815260408083206001600160a01b038b81168086529184528285208a8703905582518b81529384018a90529092908816917fc3d58168c5ae7397731d063d5bbf3d657854427343f4c083240f7aacaa2d0f62910160405180910390a46040805160208101909152600090525b50505050505050565b600060405163a9059cbb60e01b8152836004820152826024820152602060006044836000895af13d15601f3d11600160005114161716915050806123fc5760405162461bcd60e51b815260206004820152600f60248201526e1514905394d1915497d19052531151608a1b6044820152606401610b95565b50505050565b82820281151584158583048514171661241a57600080fd5b0492915050565b82820281151584158583048514171661243957600080fd5b6001826001830304018115150290509392505050565b81518351146124b15760405162461bcd60e51b815260206004820152602860248201527f455243313135353a2069647320616e6420616d6f756e7473206c656e677468206044820152670dad2e6dac2e8c6d60c31b6064820152608401610b95565b6001600160a01b0384166124d75760405162461bcd60e51b8152600401610b95906137b9565b336124e6818787878787612aa4565b60005b84518110156125cc576000858281518110612506576125066135ce565b602002602001015190506000858381518110612524576125246135ce565b602090810291909101810151600084815280835260408082206001600160a01b038e1683529093529190912054909150818110156125745760405162461bcd60e51b8152600401610b95906137fe565b6000838152602081815260408083206001600160a01b038e8116855292528083208585039055908b168252812080548492906125b1908490613710565b92505081905550505050806125c5906135e4565b90506124e9565b50846001600160a01b0316866001600160a01b0316826001600160a01b03167f4a39dc06d4c0dbc64b70af90fd698a233a518aa5d07e595d983b8c0526c8f7fb878760405161261c929190613848565b60405180910390a4612632818787878787612c1d565b505050505050565b6000610f8583670de0b6b3a764000084612402565b60008061265b83611fac565b90506000612669828561350d565b600f54909150610f85906001600160a01b037f0000000000000000000000000000000000000000000000000000000000000000811691339116855b60006040516323b872dd60e01b81528460048201528360248201528260448201526020600060648360008a5af13d15601f3d11600160005114161716915050806112795760405162461bcd60e51b81526020600482015260146024820152731514905394d1915497d19493d357d1905253115160621b6044820152606401610b95565b6001600160a01b0384166127875760405162461bcd60e51b815260206004820152602160248201527f455243313135353a206d696e7420746f20746865207a65726f206164647265736044820152607360f81b6064820152608401610b95565b33600061279385612a59565b905060006127a085612a59565b90506127b183600089858589612aa4565b6000868152602081815260408083206001600160a01b038b168452909152812080548792906127e1908490613710565b909155505060408051878152602081018790526001600160a01b03808a1692600092918716917fc3d58168c5ae7397731d063d5bbf3d657854427343f4c083240f7aacaa2d0f62910160405180910390a461237b83600089898989612d78565b816001600160a01b0316836001600160a01b0316036128b45760405162461bcd60e51b815260206004820152602960248201527f455243313135353a2073657474696e6720617070726f76616c20737461747573604482015268103337b91039b2b63360b91b6064820152608401610b95565b6001600160a01b03838116600081815260016020908152604080832094871680845294825291829020805460ff191686151590811790915591519182527f17307eab39ab6107e8899845ad3d59bd9653f200f220920489ca2b5937696c31910160405180910390a3505050565b6001600160a01b0384166129475760405162461bcd60e51b8152600401610b95906137b9565b33600061295385612a59565b9050600061296085612a59565b9050612970838989858589612aa4565b6000868152602081815260408083206001600160a01b038c168452909152902054858110156129b15760405162461bcd60e51b8152600401610b95906137fe565b6000878152602081815260408083206001600160a01b038d8116855292528083208985039055908a168252812080548892906129ee908490613710565b909155505060408051888152602081018890526001600160a01b03808b16928c821692918816917fc3d58168c5ae7397731d063d5bbf3d657854427343f4c083240f7aacaa2d0f62910160405180910390a4612a4e848a8a8a8a8a612d78565b505050505050505050565b60408051600180825281830190925260609160009190602080830190803683370190505090508281600081518110612a9357612a936135ce565b602090810291909101015292915050565b6001600160a01b038516612b2b5760005b8351811015612b2957828181518110612ad057612ad06135ce565b602002602001015160036000868481518110612aee57612aee6135ce565b602002602001015181526020019081526020016000206000828254612b139190613710565b90915550612b229050816135e4565b9050612ab5565b505b6001600160a01b0384166126325760005b835181101561237b576000848281518110612b5957612b596135ce565b602002602001015190506000848381518110612b7757612b776135ce565b6020026020010151905060006003600084815260200190815260200160002054905081811015612bfa5760405162461bcd60e51b815260206004820152602860248201527f455243313135353a206275726e20616d6f756e74206578636565647320746f74604482015267616c537570706c7960c01b6064820152608401610b95565b60009283526003602052604090922091039055612c16816135e4565b9050612b3c565b6001600160a01b0384163b156126325760405163bc197c8160e01b81526001600160a01b0385169063bc197c8190612c619089908990889088908890600401613876565b6020604051808303816000875af1925050508015612c9c575060408051601f3d908101601f19168201909252612c99918101906138d4565b60015b612d4857612ca86138f1565b806308c379a003612ce15750612cbc61390d565b80612cc75750612ce3565b8060405162461bcd60e51b8152600401610b959190612f42565b505b60405162461bcd60e51b815260206004820152603460248201527f455243313135353a207472616e7366657220746f206e6f6e20455243313135356044820152732932b1b2b4bb32b91034b6b83632b6b2b73a32b960611b6064820152608401610b95565b6001600160e01b0319811663bc197c8160e01b1461237b5760405162461bcd60e51b8152600401610b9590613997565b6001600160a01b0384163b156126325760405163f23a6e6160e01b81526001600160a01b0385169063f23a6e6190612dbc90899089908890889088906004016139df565b6020604051808303816000875af1925050508015612df7575060408051601f3d908101601f19168201909252612df4918101906138d4565b60015b612e0357612ca86138f1565b6001600160e01b0319811663f23a6e6160e01b1461237b5760405162461bcd60e51b8152600401610b9590613997565b80356001600160a01b0381168114612e4a57600080fd5b919050565b60008060408385031215612e6257600080fd5b612e6b83612e33565b946020939093013593505050565b60008060008060808587031215612e8f57600080fd5b8435935060208501359250612ea660408601612e33565b9150612eb460608601612e33565b905092959194509250565b6001600160e01b031981168114612ed557600080fd5b50565b600060208284031215612eea57600080fd5b8135610f8581612ebf565b6000815180845260005b81811015612f1b57602081850181015186830182015201612eff565b81811115612f2d576000602083870101525b50601f01601f19169290920160200192915050565b602081526000610f856020830184612ef5565b600060208284031215612f6757600080fd5b5035919050565b60008060408385031215612f8157600080fd5b50508035926020909101359150565b60008060408385031215612fa357600080fd5b82359150612fb360208401612e33565b90509250929050565b634e487b7160e01b600052604160045260246000fd5b601f8201601f1916810167ffffffffffffffff81118282101715612ff857612ff8612fbc565b6040525050565b600067ffffffffffffffff82111561301957613019612fbc565b5060051b60200190565b600082601f83011261303457600080fd5b8135602061304182612fff565b60405161304e8282612fd2565b83815260059390931b850182019282810191508684111561306e57600080fd5b8286015b848110156130895780358352918301918301613072565b509695505050505050565b600082601f8301126130a557600080fd5b813567ffffffffffffffff8111156130bf576130bf612fbc565b6040516130d6601f8301601f191660200182612fd2565b8181528460208386010111156130eb57600080fd5b816020850160208301376000918101602001919091529392505050565b600080600080600060a0868803121561312057600080fd5b61312986612e33565b945061313760208701612e33565b9350604086013567ffffffffffffffff8082111561315457600080fd5b61316089838a01613023565b9450606088013591508082111561317657600080fd5b61318289838a01613023565b9350608088013591508082111561319857600080fd5b506131a588828901613094565b9150509295509295909350565b6000602082840312156131c457600080fd5b610f8582612e33565b8015158114612ed557600080fd5b600080604083850312156131ee57600080fd5b823591506020830135613200816131cd565b809150509250929050565b6000806040838503121561321e57600080fd5b823567ffffffffffffffff8082111561323657600080fd5b818501915085601f83011261324a57600080fd5b8135602061325782612fff565b6040516132648282612fd2565b83815260059390931b850182019282810191508984111561328457600080fd5b948201945b838610156132a95761329a86612e33565b82529482019490820190613289565b965050860135925050808211156132bf57600080fd5b506132cc85828601613023565b9150509250929050565b600081518084526020808501945080840160005b83811015613306578151875295820195908201906001016132ea565b509495945050505050565b602081526000610f8560208301846132d6565b60008060006060848603121561333957600080fd5b833592506020840135915061335060408501612e33565b90509250925092565b6000806040838503121561336c57600080fd5b61337583612e33565b91506020830135613200816131cd565b6000806040838503121561339857600080fd5b6133a183612e33565b9150612fb360208401612e33565b600080600080600060a086880312156133c757600080fd5b6133d086612e33565b94506133de60208701612e33565b93506040860135925060608601359150608086013567ffffffffffffffff81111561340857600080fd5b6131a588828901613094565b60208082526046908201527f45706f636820686173206e6f7420656e6465642c206f7220646570656720657660408201527f656e7420686173206e6f74206f63757272656420696e207468652074696d65206060820152656265696e672160d01b608082015260a00190565b6020808252601690820152754d61726b657420646f6573206e6f742045786973742160501b604082015260600190565b60208082526027908201527f4f776e6572206e6565647320746f20617070726f766520726563656976657220604082015266199bdc88185b1b60ca1b606082015260800190565b634e487b7160e01b600052601160045260246000fd5b60008282101561351f5761351f6134f7565b500390565b600181811c9082168061353857607f821691505b602082108103611cd057634e487b7160e01b600052602260045260246000fd5b602080825260149082015273596f7520617265206e6f7420466163746f72792160601b604082015260600190565b60208082526028908201527f596f7520617265206e6f742063616c6c696e672066726f6d2074686520436f6e60408201526774726f6c6c65722160c01b606082015260800190565b634e487b7160e01b600052603260045260246000fd5b6000600182016135f6576135f66134f7565b5060010190565b60208082526021908201527f45544820616d6f756e74206d7573742062652067726561746572207468616e206040820152600360fc1b606082015260800190565b60006020828403121561365057600080fd5b8151610f85816131cd565b634e487b7160e01b600052600160045260246000fd5b600080835481600182811c91508083168061368d57607f831692505b602080841082036136ac57634e487b7160e01b86526022600452602486fd5b8180156136c057600181146136d557613702565b60ff1986168952841515850289019650613702565b60008a81526020902060005b868110156136fa5781548b8201529085019083016136e1565b505084890196505b509498975050505050505050565b60008219821115613723576137236134f7565b500190565b60208082526030908201527f4465706f7369742074696d65206973206f7665722c2045706f6368206861732060408201526f616c726561647920737461727465642160801b606082015260800190565b6000816000190483118215151615613792576137926134f7565b500290565b6000826137b457634e487b7160e01b600052601260045260246000fd5b500490565b60208082526025908201527f455243313135353a207472616e7366657220746f20746865207a65726f206164604082015264647265737360d81b606082015260800190565b6020808252602a908201527f455243313135353a20696e73756666696369656e742062616c616e636520666f60408201526939103a3930b739b332b960b11b606082015260800190565b60408152600061385b60408301856132d6565b828103602084015261386d81856132d6565b95945050505050565b6001600160a01b0386811682528516602082015260a0604082018190526000906138a2908301866132d6565b82810360608401526138b481866132d6565b905082810360808401526138c88185612ef5565b98975050505050505050565b6000602082840312156138e657600080fd5b8151610f8581612ebf565b600060033d111561390a5760046000803e5060005160e01c5b90565b600060443d101561391b5790565b6040516003193d81016004833e81513d67ffffffffffffffff816024840111818411171561394b57505050505090565b82850191508151818111156139635750505050505090565b843d870101602082850101111561397d5750505050505090565b61398c60208286010187612fd2565b509095945050505050565b60208082526028908201527f455243313135353a204552433131353552656365697665722072656a656374656040820152676420746f6b656e7360c01b606082015260800190565b6001600160a01b03868116825285166020820152604081018490526060810183905260a060808201819052600090613a1990830184612ef5565b97965050505050505056fea2646970667358221220b8196023b65a410fc919702b5a67a768e7cbfb1fe2e614df64288e88fcc2e92064736f6c634300080f0033",
    "linkReferences": {}
  },
  "methodIdentifiers": {
    "asset()": "38d52e0f",
    "balanceOf(address,uint256)": "00fdd58e",
    "balanceOfBatch(address[],uint256[])": "4e1273f4",
    "beforeWithdraw(uint256,uint256)": "6f7e9bd5",
    "calculateFeeValue(uint256)": "dd2fdd21",
    "calculateWithdrawalFeeValue(uint256)": "ba37f9e5",
    "changeController(address)": "3cebb823",
    "changeFee(uint256)": "6a1db1bf",
    "changeTimewindow(uint256)": "28337df6",
    "changeTreasury(address)": "b14f2a39",
    "changeWithdrawalFee(uint256)": "819b48e3",
    "controller()": "f77c4791",
    "convertToAssets(uint256,uint256)": "181e7b3b",
    "convertToShares(uint256,uint256)": "db2088f4",
    "createAssets(uint256,uint256)": "23d68d8e",
    "deposit(uint256,uint256,address)": "8dbdbe6d",
    "depositETH(uint256,address)": "56150edf",
    "endEpoch(uint256,bool)": "4cbd43de",
    "epochs(uint256)": "c6b61e4c",
    "epochsLength()": "d662b92d",
    "exists(uint256)": "4f558e79",
    "feeTaken()": "281dba1b",
    "getNextEpoch(uint256)": "8fc710cb",
    "idClaimTVL(uint256)": "4d288ba7",
    "idDepegged(uint256)": "e58c6dfa",
    "idEpochBegin(uint256)": "ea859a27",
    "idExists(uint256)": "0b8a295a",
    "idFinalTVL(uint256)": "f9db2427",
    "isApprovedForAll(address,address)": "e985e9c5",
    "maxDeposit(address)": "402d267d",
    "maxMint(address)": "c63d75b6",
    "maxRedeem(uint256,address)": "236b4020",
    "maxWithdraw(uint256,address)": "242156ed",
    "mint(uint256,uint256,address)": "e7d3fe6b",
    "mintETH(uint256,address)": "cfc13da6",
    "name()": "06fdde03",
    "previewDeposit(uint256,uint256)": "7a7af70d",
    "previewMint(uint256,uint256)": "276b1140",
    "previewRedeem(uint256,uint256)": "bbec4d06",
    "previewWithdraw(uint256,uint256)": "488bd7b0",
    "redeem(uint256,uint256,address,address)": "0169a996",
    "safeBatchTransferFrom(address,address,uint256[],uint256[],bytes)": "2eb2c2d6",
    "safeTransferFrom(address,address,uint256,uint256,bytes)": "f242432a",
    "sendTokens(uint256,address)": "29322e05",
    "setApprovalForAll(address,bool)": "a22cb465",
    "setClaimTVL(uint256,uint256)": "3e048365",
    "strikePrice()": "c52987cf",
    "supportsInterface(bytes4)": "01ffc9a7",
    "symbol()": "95d89b41",
    "timewindow()": "2fccfc83",
    "tokenInsured()": "04da1a46",
    "tokenName()": "6c02a931",
    "tokenSymbol()": "7b61c320",
    "totalAssets(uint256)": "94605857",
    "totalSupply(uint256)": "bd85b039",
    "uri(uint256)": "0e89341c",
    "withdraw(uint256,uint256,address,address)": "71b3177a",
    "withdrawalFee()": "8bc7e8c4"
  },
  "id": 27
}