{
  "abi": [
    {
      "inputs": [
        {
          "internalType": "address",
          "name": "_assetAddress",
          "type": "address"
        },
        {
          "internalType": "string",
          "name": "_name",
          "type": "string"
        },
        {
          "internalType": "string",
          "name": "_symbol",
          "type": "string"
        },
        {
          "internalType": "address",
          "name": "_treasury",
          "type": "address"
        },
        {
          "internalType": "uint256",
          "name": "_fee",
          "type": "uint256"
        },
        {
          "internalType": "uint256",
          "name": "_riskWithdrawalFee",
          "type": "uint256"
        },
        {
          "internalType": "address",
          "name": "_token",
          "type": "address"
        },
        {
          "internalType": "int256",
          "name": "_strikePrice",
          "type": "int256"
        },
        {
          "internalType": "address",
          "name": "_controller",
          "type": "address"
        }
      ],
      "stateMutability": "nonpayable",
      "type": "constructor"
    },
    {
      "anonymous": false,
      "inputs": [
        {
          "indexed": true,
          "internalType": "address",
          "name": "account",
          "type": "address"
        },
        {
          "indexed": true,
          "internalType": "address",
          "name": "operator",
          "type": "address"
        },
        {
          "indexed": false,
          "internalType": "bool",
          "name": "approved",
          "type": "bool"
        }
      ],
      "name": "ApprovalForAll",
      "type": "event"
    },
    {
      "anonymous": false,
      "inputs": [
        {
          "indexed": false,
          "internalType": "address",
          "name": "caller",
          "type": "address"
        },
        {
          "indexed": true,
          "internalType": "address",
          "name": "owner",
          "type": "address"
        },
        {
          "indexed": true,
          "internalType": "uint256",
          "name": "id",
          "type": "uint256"
        },
        {
          "indexed": false,
          "internalType": "uint256",
          "name": "assets",
          "type": "uint256"
        },
        {
          "indexed": false,
          "internalType": "uint256",
          "name": "shares",
          "type": "uint256"
        }
      ],
      "name": "Deposit",
      "type": "event"
    },
    {
      "anonymous": false,
      "inputs": [
        {
          "indexed": true,
          "internalType": "address",
          "name": "operator",
          "type": "address"
        },
        {
          "indexed": true,
          "internalType": "address",
          "name": "from",
          "type": "address"
        },
        {
          "indexed": true,
          "internalType": "address",
          "name": "to",
          "type": "address"
        },
        {
          "indexed": false,
          "internalType": "uint256[]",
          "name": "ids",
          "type": "uint256[]"
        },
        {
          "indexed": false,
          "internalType": "uint256[]",
          "name": "values",
          "type": "uint256[]"
        }
      ],
      "name": "TransferBatch",
      "type": "event"
    },
    {
      "anonymous": false,
      "inputs": [
        {
          "indexed": true,
          "internalType": "address",
          "name": "operator",
          "type": "address"
        },
        {
          "indexed": true,
          "internalType": "address",
          "name": "from",
          "type": "address"
        },
        {
          "indexed": true,
          "internalType": "address",
          "name": "to",
          "type": "address"
        },
        {
          "indexed": false,
          "internalType": "uint256",
          "name": "id",
          "type": "uint256"
        },
        {
          "indexed": false,
          "internalType": "uint256",
          "name": "value",
          "type": "uint256"
        }
      ],
      "name": "TransferSingle",
      "type": "event"
    },
    {
      "anonymous": false,
      "inputs": [
        {
          "indexed": false,
          "internalType": "string",
          "name": "value",
          "type": "string"
        },
        {
          "indexed": true,
          "internalType": "uint256",
          "name": "id",
          "type": "uint256"
        }
      ],
      "name": "URI",
      "type": "event"
    },
    {
      "anonymous": false,
      "inputs": [
        {
          "indexed": false,
          "internalType": "address",
          "name": "caller",
          "type": "address"
        },
        {
          "indexed": false,
          "internalType": "address",
          "name": "receiver",
          "type": "address"
        },
        {
          "indexed": true,
          "internalType": "address",
          "name": "owner",
          "type": "address"
        },
        {
          "indexed": true,
          "internalType": "uint256",
          "name": "id",
          "type": "uint256"
        },
        {
          "indexed": false,
          "internalType": "uint256",
          "name": "assets",
          "type": "uint256"
        },
        {
          "indexed": false,
          "internalType": "uint256",
          "name": "shares",
          "type": "uint256"
        }
      ],
      "name": "Withdraw",
      "type": "event"
    },
    {
      "inputs": [],
      "name": "asset",
      "outputs": [
        {
          "internalType": "contract ERC20",
          "name": "",
          "type": "address"
        }
      ],
      "stateMutability": "view",
      "type": "function"
    },
    {
      "inputs": [
        {
          "internalType": "address",
          "name": "account",
          "type": "address"
        },
        {
          "internalType": "uint256",
          "name": "id",
          "type": "uint256"
        }
      ],
      "name": "balanceOf",
      "outputs": [
        {
          "internalType": "uint256",
          "name": "",
          "type": "uint256"
        }
      ],
      "stateMutability": "view",
      "type": "function"
    },
    {
      "inputs": [
        {
          "internalType": "address[]",
          "name": "accounts",
          "type": "address[]"
        },
        {
          "internalType": "uint256[]",
          "name": "ids",
          "type": "uint256[]"
        }
      ],
      "name": "balanceOfBatch",
      "outputs": [
        {
          "internalType": "uint256[]",
          "name": "",
          "type": "uint256[]"
        }
      ],
      "stateMutability": "view",
      "type": "function"
    },
    {
      "inputs": [
        {
          "internalType": "uint256",
          "name": "id",
          "type": "uint256"
        },
        {
          "internalType": "uint256",
          "name": "amount",
          "type": "uint256"
        }
      ],
      "name": "beforeWithdraw",
      "outputs": [
        {
          "internalType": "uint256",
          "name": "entitledAmount",
          "type": "uint256"
        }
      ],
      "stateMutability": "view",
      "type": "function"
    },
    {
      "inputs": [
        {
          "internalType": "uint256",
          "name": "amount",
          "type": "uint256"
        }
      ],
      "name": "calculateFeeValue",
      "outputs": [
        {
          "internalType": "uint256",
          "name": "feeValue",
          "type": "uint256"
        }
      ],
      "stateMutability": "view",
      "type": "function"
    },
    {
      "inputs": [
        {
          "internalType": "uint256",
          "name": "amount",
          "type": "uint256"
        }
      ],
      "name": "calculateWithdrawalFeeValue",
      "outputs": [
        {
          "internalType": "uint256",
          "name": "feeValue",
          "type": "uint256"
        }
      ],
      "stateMutability": "view",
      "type": "function"
    },
    {
      "inputs": [
        {
          "internalType": "address",
          "name": "_controller",
          "type": "address"
        }
      ],
      "name": "changeController",
      "outputs": [],
      "stateMutability": "nonpayable",
      "type": "function"
    },
    {
      "inputs": [
        {
          "internalType": "uint256",
          "name": "_fee",
          "type": "uint256"
        }
      ],
      "name": "changeFee",
      "outputs": [],
      "stateMutability": "nonpayable",
      "type": "function"
    },
    {
      "inputs": [
        {
          "internalType": "uint256",
          "name": "_timewindow",
          "type": "uint256"
        }
      ],
      "name": "changeTimewindow",
      "outputs": [],
      "stateMutability": "nonpayable",
      "type": "function"
    },
    {
      "inputs": [
        {
          "internalType": "address",
          "name": "_treasury",
          "type": "address"
        }
      ],
      "name": "changeTreasury",
      "outputs": [],
      "stateMutability": "nonpayable",
      "type": "function"
    },
    {
      "inputs": [
        {
          "internalType": "uint256",
          "name": "_riskWithdrawalFee",
          "type": "uint256"
        }
      ],
      "name": "changeWithdrawalFee",
      "outputs": [],
      "stateMutability": "nonpayable",
      "type": "function"
    },
    {
      "inputs": [],
      "name": "controller",
      "outputs": [
        {
          "internalType": "address",
          "name": "",
          "type": "address"
        }
      ],
      "stateMutability": "view",
      "type": "function"
    },
    {
      "inputs": [
        {
          "internalType": "uint256",
          "name": "id",
          "type": "uint256"
        },
        {
          "internalType": "uint256",
          "name": "shares",
          "type": "uint256"
        }
      ],
      "name": "convertToAssets",
      "outputs": [
        {
          "internalType": "uint256",
          "name": "",
          "type": "uint256"
        }
      ],
      "stateMutability": "view",
      "type": "function"
    },
    {
      "inputs": [
        {
          "internalType": "uint256",
          "name": "id",
          "type": "uint256"
        },
        {
          "internalType": "uint256",
          "name": "assets",
          "type": "uint256"
        }
      ],
      "name": "convertToShares",
      "outputs": [
        {
          "internalType": "uint256",
          "name": "",
          "type": "uint256"
        }
      ],
      "stateMutability": "view",
      "type": "function"
    },
    {
      "inputs": [
        {
          "internalType": "uint256",
          "name": "epochBegin",
          "type": "uint256"
        },
        {
          "internalType": "uint256",
          "name": "epochEnd",
          "type": "uint256"
        }
      ],
      "name": "createAssets",
      "outputs": [],
      "stateMutability": "nonpayable",
      "type": "function"
    },
    {
      "inputs": [
        {
          "internalType": "uint256",
          "name": "id",
          "type": "uint256"
        },
        {
          "internalType": "uint256",
          "name": "assets",
          "type": "uint256"
        },
        {
          "internalType": "address",
          "name": "receiver",
          "type": "address"
        }
      ],
      "name": "deposit",
      "outputs": [
        {
          "internalType": "uint256",
          "name": "shares",
          "type": "uint256"
        }
      ],
      "stateMutability": "nonpayable",
      "type": "function"
    },
    {
      "inputs": [
        {
          "internalType": "uint256",
          "name": "id",
          "type": "uint256"
        },
        {
          "internalType": "address",
          "name": "receiver",
          "type": "address"
        }
      ],
      "name": "depositETH",
      "outputs": [
        {
          "internalType": "uint256",
          "name": "shares",
          "type": "uint256"
        }
      ],
      "stateMutability": "payable",
      "type": "function"
    },
    {
      "inputs": [
        {
          "internalType": "uint256",
          "name": "id",
          "type": "uint256"
        },
        {
          "internalType": "bool",
          "name": "depeg",
          "type": "bool"
        }
      ],
      "name": "endEpoch",
      "outputs": [],
      "stateMutability": "nonpayable",
      "type": "function"
    },
    {
      "inputs": [
        {
          "internalType": "uint256",
          "name": "",
          "type": "uint256"
        }
      ],
      "name": "epochs",
      "outputs": [
        {
          "internalType": "uint256",
          "name": "",
          "type": "uint256"
        }
      ],
      "stateMutability": "view",
      "type": "function"
    },
    {
      "inputs": [],
      "name": "epochsLength",
      "outputs": [
        {
          "internalType": "uint256",
          "name": "",
          "type": "uint256"
        }
      ],
      "stateMutability": "view",
      "type": "function"
    },
    {
      "inputs": [
        {
          "internalType": "uint256",
          "name": "id",
          "type": "uint256"
        }
      ],
      "name": "exists",
      "outputs": [
        {
          "internalType": "bool",
          "name": "",
          "type": "bool"
        }
      ],
      "stateMutability": "view",
      "type": "function"
    },
    {
      "inputs": [],
      "name": "feeTaken",
      "outputs": [
        {
          "internalType": "uint256",
          "name": "",
          "type": "uint256"
        }
      ],
      "stateMutability": "view",
      "type": "function"
    },
    {
      "inputs": [
        {
          "internalType": "uint256",
          "name": "_epoch",
          "type": "uint256"
        }
      ],
      "name": "getNextEpoch",
      "outputs": [
        {
          "internalType": "uint256",
          "name": "nextEpochEnd",
          "type": "uint256"
        }
      ],
      "stateMutability": "view",
      "type": "function"
    },
    {
      "inputs": [
        {
          "internalType": "uint256",
          "name": "",
          "type": "uint256"
        }
      ],
      "name": "idClaimTVL",
      "outputs": [
        {
          "internalType": "uint256",
          "name": "",
          "type": "uint256"
        }
      ],
      "stateMutability": "view",
      "type": "function"
    },
    {
      "inputs": [
        {
          "internalType": "uint256",
          "name": "",
          "type": "uint256"
        }
      ],
      "name": "idDepegged",
      "outputs": [
        {
          "internalType": "bool",
          "name": "",
          "type": "bool"
        }
      ],
      "stateMutability": "view",
      "type": "function"
    },
    {
      "inputs": [
        {
          "internalType": "uint256",
          "name": "",
          "type": "uint256"
        }
      ],
      "name": "idEpochBegin",
      "outputs": [
        {
          "internalType": "uint256",
          "name": "",
          "type": "uint256"
        }
      ],
      "stateMutability": "view",
      "type": "function"
    },
    {
      "inputs": [
        {
          "internalType": "uint256",
          "name": "",
          "type": "uint256"
        }
      ],
      "name": "idExists",
      "outputs": [
        {
          "internalType": "bool",
          "name": "",
          "type": "bool"
        }
      ],
      "stateMutability": "view",
      "type": "function"
    },
    {
      "inputs": [
        {
          "internalType": "uint256",
          "name": "",
          "type": "uint256"
        }
      ],
      "name": "idFinalTVL",
      "outputs": [
        {
          "internalType": "uint256",
          "name": "",
          "type": "uint256"
        }
      ],
      "stateMutability": "view",
      "type": "function"
    },
    {
      "inputs": [
        {
          "internalType": "address",
          "name": "account",
          "type": "address"
        },
        {
          "internalType": "address",
          "name": "operator",
          "type": "address"
        }
      ],
      "name": "isApprovedForAll",
      "outputs": [
        {
          "internalType": "bool",
          "name": "",
          "type": "bool"
        }
      ],
      "stateMutability": "view",
      "type": "function"
    },
    {
      "inputs": [
        {
          "internalType": "address",
          "name": "",
          "type": "address"
        }
      ],
      "name": "maxDeposit",
      "outputs": [
        {
          "internalType": "uint256",
          "name": "",
          "type": "uint256"
        }
      ],
      "stateMutability": "view",
      "type": "function"
    },
    {
      "inputs": [
        {
          "internalType": "address",
          "name": "",
          "type": "address"
        }
      ],
      "name": "maxMint",
      "outputs": [
        {
          "internalType": "uint256",
          "name": "",
          "type": "uint256"
        }
      ],
      "stateMutability": "view",
      "type": "function"
    },
    {
      "inputs": [
        {
          "internalType": "uint256",
          "name": "id",
          "type": "uint256"
        },
        {
          "internalType": "address",
          "name": "owner",
          "type": "address"
        }
      ],
      "name": "maxRedeem",
      "outputs": [
        {
          "internalType": "uint256",
          "name": "",
          "type": "uint256"
        }
      ],
      "stateMutability": "view",
      "type": "function"
    },
    {
      "inputs": [
        {
          "internalType": "uint256",
          "name": "id",
          "type": "uint256"
        },
        {
          "internalType": "address",
          "name": "owner",
          "type": "address"
        }
      ],
      "name": "maxWithdraw",
      "outputs": [
        {
          "internalType": "uint256",
          "name": "",
          "type": "uint256"
        }
      ],
      "stateMutability": "view",
      "type": "function"
    },
    {
      "inputs": [
        {
          "internalType": "uint256",
          "name": "id",
          "type": "uint256"
        },
        {
          "internalType": "uint256",
          "name": "shares",
          "type": "uint256"
        },
        {
          "internalType": "address",
          "name": "receiver",
          "type": "address"
        }
      ],
      "name": "mint",
      "outputs": [
        {
          "internalType": "uint256",
          "name": "assets",
          "type": "uint256"
        }
      ],
      "stateMutability": "nonpayable",
      "type": "function"
    },
    {
      "inputs": [
        {
          "internalType": "uint256",
          "name": "id",
          "type": "uint256"
        },
        {
          "internalType": "address",
          "name": "receiver",
          "type": "address"
        }
      ],
      "name": "mintETH",
      "outputs": [
        {
          "internalType": "uint256",
          "name": "shares",
          "type": "uint256"
        }
      ],
      "stateMutability": "payable",
      "type": "function"
    },
    {
      "inputs": [],
      "name": "name",
      "outputs": [
        {
          "internalType": "string",
          "name": "",
          "type": "string"
        }
      ],
      "stateMutability": "view",
      "type": "function"
    },
    {
      "inputs": [
        {
          "internalType": "uint256",
          "name": "id",
          "type": "uint256"
        },
        {
          "internalType": "uint256",
          "name": "assets",
          "type": "uint256"
        }
      ],
      "name": "previewDeposit",
      "outputs": [
        {
          "internalType": "uint256",
          "name": "",
          "type": "uint256"
        }
      ],
      "stateMutability": "view",
      "type": "function"
    },
    {
      "inputs": [
        {
          "internalType": "uint256",
          "name": "id",
          "type": "uint256"
        },
        {
          "internalType": "uint256",
          "name": "shares",
          "type": "uint256"
        }
      ],
      "name": "previewMint",
      "outputs": [
        {
          "internalType": "uint256",
          "name": "",
          "type": "uint256"
        }
      ],
      "stateMutability": "view",
      "type": "function"
    },
    {
      "inputs": [
        {
          "internalType": "uint256",
          "name": "id",
          "type": "uint256"
        },
        {
          "internalType": "uint256",
          "name": "shares",
          "type": "uint256"
        }
      ],
      "name": "previewRedeem",
      "outputs": [
        {
          "internalType": "uint256",
          "name": "",
          "type": "uint256"
        }
      ],
      "stateMutability": "view",
      "type": "function"
    },
    {
      "inputs": [
        {
          "internalType": "uint256",
          "name": "id",
          "type": "uint256"
        },
        {
          "internalType": "uint256",
          "name": "assets",
          "type": "uint256"
        }
      ],
      "name": "previewWithdraw",
      "outputs": [
        {
          "internalType": "uint256",
          "name": "",
          "type": "uint256"
        }
      ],
      "stateMutability": "view",
      "type": "function"
    },
    {
      "inputs": [
        {
          "internalType": "uint256",
          "name": "id",
          "type": "uint256"
        },
        {
          "internalType": "uint256",
          "name": "shares",
          "type": "uint256"
        },
        {
          "internalType": "address",
          "name": "receiver",
          "type": "address"
        },
        {
          "internalType": "address",
          "name": "owner",
          "type": "address"
        }
      ],
      "name": "redeem",
      "outputs": [
        {
          "internalType": "uint256",
          "name": "assets",
          "type": "uint256"
        }
      ],
      "stateMutability": "nonpayable",
      "type": "function"
    },
    {
      "inputs": [
        {
          "internalType": "address",
          "name": "from",
          "type": "address"
        },
        {
          "internalType": "address",
          "name": "to",
          "type": "address"
        },
        {
          "internalType": "uint256[]",
          "name": "ids",
          "type": "uint256[]"
        },
        {
          "internalType": "uint256[]",
          "name": "amounts",
          "type": "uint256[]"
        },
        {
          "internalType": "bytes",
          "name": "data",
          "type": "bytes"
        }
      ],
      "name": "safeBatchTransferFrom",
      "outputs": [],
      "stateMutability": "nonpayable",
      "type": "function"
    },
    {
      "inputs": [
        {
          "internalType": "address",
          "name": "from",
          "type": "address"
        },
        {
          "internalType": "address",
          "name": "to",
          "type": "address"
        },
        {
          "internalType": "uint256",
          "name": "id",
          "type": "uint256"
        },
        {
          "internalType": "uint256",
          "name": "amount",
          "type": "uint256"
        },
        {
          "internalType": "bytes",
          "name": "data",
          "type": "bytes"
        }
      ],
      "name": "safeTransferFrom",
      "outputs": [],
      "stateMutability": "nonpayable",
      "type": "function"
    },
    {
      "inputs": [
        {
          "internalType": "uint256",
          "name": "id",
          "type": "uint256"
        },
        {
          "internalType": "address",
          "name": "_counterparty",
          "type": "address"
        }
      ],
      "name": "sendTokens",
      "outputs": [],
      "stateMutability": "nonpayable",
      "type": "function"
    },
    {
      "inputs": [
        {
          "internalType": "address",
          "name": "operator",
          "type": "address"
        },
        {
          "internalType": "bool",
          "name": "approved",
          "type": "bool"
        }
      ],
      "name": "setApprovalForAll",
      "outputs": [],
      "stateMutability": "nonpayable",
      "type": "function"
    },
    {
      "inputs": [
        {
          "internalType": "uint256",
          "name": "id",
          "type": "uint256"
        },
        {
          "internalType": "uint256",
          "name": "claimTVL",
          "type": "uint256"
        }
      ],
      "name": "setClaimTVL",
      "outputs": [],
      "stateMutability": "nonpayable",
      "type": "function"
    },
    {
      "inputs": [],
      "name": "strikePrice",
      "outputs": [
        {
          "internalType": "int256",
          "name": "",
          "type": "int256"
        }
      ],
      "stateMutability": "view",
      "type": "function"
    },
    {
      "inputs": [
        {
          "internalType": "bytes4",
          "name": "interfaceId",
          "type": "bytes4"
        }
      ],
      "name": "supportsInterface",
      "outputs": [
        {
          "internalType": "bool",
          "name": "",
          "type": "bool"
        }
      ],
      "stateMutability": "view",
      "type": "function"
    },
    {
      "inputs": [],
      "name": "symbol",
      "outputs": [
        {
          "internalType": "string",
          "name": "",
          "type": "string"
        }
      ],
      "stateMutability": "view",
      "type": "function"
    },
    {
      "inputs": [],
      "name": "timewindow",
      "outputs": [
        {
          "internalType": "uint256",
          "name": "",
          "type": "uint256"
        }
      ],
      "stateMutability": "view",
      "type": "function"
    },
    {
      "inputs": [],
      "name": "tokenInsured",
      "outputs": [
        {
          "internalType": "address",
          "name": "",
          "type": "address"
        }
      ],
      "stateMutability": "view",
      "type": "function"
    },
    {
      "inputs": [],
      "name": "tokenName",
      "outputs": [
        {
          "internalType": "string",
          "name": "",
          "type": "string"
        }
      ],
      "stateMutability": "view",
      "type": "function"
    },
    {
      "inputs": [],
      "name": "tokenSymbol",
      "outputs": [
        {
          "internalType": "string",
          "name": "",
          "type": "string"
        }
      ],
      "stateMutability": "view",
      "type": "function"
    },
    {
      "inputs": [
        {
          "internalType": "uint256",
          "name": "_id",
          "type": "uint256"
        }
      ],
      "name": "totalAssets",
      "outputs": [
        {
          "internalType": "uint256",
          "name": "",
          "type": "uint256"
        }
      ],
      "stateMutability": "view",
      "type": "function"
    },
    {
      "inputs": [
        {
          "internalType": "uint256",
          "name": "id",
          "type": "uint256"
        }
      ],
      "name": "totalSupply",
      "outputs": [
        {
          "internalType": "uint256",
          "name": "",
          "type": "uint256"
        }
      ],
      "stateMutability": "view",
      "type": "function"
    },
    {
      "inputs": [
        {
          "internalType": "uint256",
          "name": "",
          "type": "uint256"
        }
      ],
      "name": "uri",
      "outputs": [
        {
          "internalType": "string",
          "name": "",
          "type": "string"
        }
      ],
      "stateMutability": "view",
      "type": "function"
    },
    {
      "inputs": [
        {
          "internalType": "uint256",
          "name": "id",
          "type": "uint256"
        },
        {
          "internalType": "uint256",
          "name": "assets",
          "type": "uint256"
        },
        {
          "internalType": "address",
          "name": "receiver",
          "type": "address"
        },
        {
          "internalType": "address",
          "name": "owner",
          "type": "address"
        }
      ],
      "name": "withdraw",
      "outputs": [
        {
          "internalType": "uint256",
          "name": "shares",
          "type": "uint256"
        }
      ],
      "stateMutability": "nonpayable",
      "type": "function"
    },
    {
      "inputs": [],
      "name": "withdrawalFee",
      "outputs": [
        {
          "internalType": "uint256",
          "name": "",
          "type": "uint256"
        }
      ],
      "stateMutability": "view",
      "type": "function"
    }
  ],
  "bytecode": {
    "object": "0x6101006040523480156200001257600080fd5b5060405162003f5538038062003f5583398101604081905262000035916200025b565b8888886040518060200160405280600081525062000059816200015f60201b60201c565b506001600160a01b0383166080526004620000758382620003bd565b506005620000848282620003bd565b50506001600655505060968510620000e25760405162461bcd60e51b815260206004820152601960248201527f466565206d757374206265206c657373207468616e2031352500000000000000604482015260640160405180910390fd5b6001600160a01b0383811660a052600e869055600f80546001600160a01b03199081168984161790915560c08490523360e052601080549091169183169190911790556201518060085560116200013a8982620003bd565b506012620001498882620003bd565b5050506013919091555062000489945050505050565b60026200016d8282620003bd565b5050565b80516001600160a01b03811681146200018957600080fd5b919050565b634e487b7160e01b600052604160045260246000fd5b600082601f830112620001b657600080fd5b81516001600160401b0380821115620001d357620001d36200018e565b604051601f8301601f19908116603f01168101908282118183101715620001fe57620001fe6200018e565b816040528381526020925086838588010111156200021b57600080fd5b600091505b838210156200023f578582018301518183018401529082019062000220565b83821115620002515760008385830101525b9695505050505050565b60008060008060008060008060006101208a8c0312156200027b57600080fd5b620002868a62000171565b60208b01519099506001600160401b0380821115620002a457600080fd5b620002b28d838e01620001a4565b995060408c0151915080821115620002c957600080fd5b50620002d88c828d01620001a4565b975050620002e960608b0162000171565b955060808a0151945060a08a015193506200030760c08b0162000171565b925060e08a015191506200031f6101008b0162000171565b90509295985092959850929598565b600181811c908216806200034357607f821691505b6020821081036200036457634e487b7160e01b600052602260045260246000fd5b50919050565b601f821115620003b857600081815260208120601f850160051c81016020861015620003935750805b601f850160051c820191505b81811015620003b4578281556001016200039f565b5050505b505050565b81516001600160401b03811115620003d957620003d96200018e565b620003f181620003ea84546200032e565b846200036a565b602080601f831160018114620004295760008415620004105750858301515b600019600386901b1c1916600185901b178555620003b4565b600085815260208120601f198616915b828110156200045a5788860151825594840194600190910190840162000439565b5085821015620004795787850151600019600388901b60f8161c191681555b5050505050600190811b01905550565b60805160a05160c05160e051613a1b6200053a60003960008181610f97015281816110bf0152818161124c0152818161161c01528181611879015281816119a70152611d070152600061097a0152600061041a01526000818161060601528181610d0f01528181610d9c0152818161117d015281816114f7015281816115810152818161190701528181611b5801528181611e2901528181611eb30152818161206d015261263e0152613a1b6000f3fe6080604052600436106103805760003560e01c80636f7e9bd5116101d1578063bd85b03911610102578063dd2fdd21116100a0578063ea859a271161006f578063ea859a2714610a94578063f242432a14610ac1578063f77c479114610ae1578063f9db242714610b0157600080fd5b8063dd2fdd2114610a04578063e58c6dfa14610a24578063e7d3fe6b14610a54578063e985e9c514610a7457600080fd5b8063c6b61e4c116100dc578063c6b61e4c1461099c578063cfc13da6146109bc578063d662b92d146109cf578063db2088f4146109e457600080fd5b8063bd85b0391461093b578063c52987cf14610968578063c63d75b61461066857600080fd5b80638fc710cb1161016f578063a22cb46511610149578063a22cb465146108bb578063b14f2a39146108db578063ba37f9e5146108fb578063bbec4d061461091b57600080fd5b80638fc710cb14610866578063946058571461088657806395d89b41146108a657600080fd5b80637b61c320116101ab5780637b61c320146107fb578063819b48e3146108105780638bc7e8c4146108305780638dbdbe6d1461084657600080fd5b80636f7e9bd51461079b57806371b3177a146107bb5780637a7af70d146107db57600080fd5b806329322e05116102b6578063488bd7b0116102545780634f558e79116102235780634f558e791461072457806356150edf146107535780636a1db1bf146107665780636c02a9311461078657600080fd5b8063488bd7b01461068a5780634cbd43de146106aa5780634d288ba7146106ca5780634e1273f4146106f757600080fd5b806338d52e0f1161029057806338d52e0f146105f45780633cebb823146106285780633e04836514610648578063402d267d1461066857600080fd5b806329322e051461059e5780632eb2c2d6146105be5780632fccfc83146105de57600080fd5b8063181e7b3b11610323578063242156ed116102fd578063242156ed14610528578063276b114014610548578063281dba1b1461056857806328337df61461057e57600080fd5b8063181e7b3b146104c6578063236b4020146104e657806323d68d8e1461050657600080fd5b806304da1a461161035f57806304da1a461461040857806306fdde03146104545780630b8a295a146104765780630e89341c146104a657600080fd5b8062fdd58e146103855780630169a996146103b857806301ffc9a7146103d8575b600080fd5b34801561039157600080fd5b506103a56103a0366004612e10565b610b2e565b6040519081526020015b60405180910390f35b3480156103c457600080fd5b506103a56103d3366004612e3a565b610bc7565b3480156103e457600080fd5b506103f86103f3366004612e99565b610dcf565b60405190151581526020016103af565b34801561041457600080fd5b5061043c7f000000000000000000000000000000000000000000000000000000000000000081565b6040516001600160a01b0390911681526020016103af565b34801561046057600080fd5b50610469610e1f565b6040516103af9190612f03565b34801561048257600080fd5b506103f8610491366004612f16565b600d6020526000908152604090205460ff1681565b3480156104b257600080fd5b506104696104c1366004612f16565b610ead565b3480156104d257600080fd5b506103a56104e1366004612f2f565b610f41565b3480156104f257600080fd5b506103a5610501366004612f51565b610f79565b34801561051257600080fd5b50610526610521366004612f2f565b610f8c565b005b34801561053457600080fd5b506103a5610543366004612f51565b61107b565b34801561055457600080fd5b506103a5610563366004612f2f565b61108b565b34801561057457600080fd5b506103a5600e5481565b34801561058a57600080fd5b50610526610599366004612f16565b6110b4565b3480156105aa57600080fd5b506105266105b9366004612f51565b611101565b3480156105ca57600080fd5b506105266105d93660046130c9565b6111aa565b3480156105ea57600080fd5b506103a560085481565b34801561060057600080fd5b5061043c7f000000000000000000000000000000000000000000000000000000000000000081565b34801561063457600080fd5b50610526610643366004613173565b611241565b34801561065457600080fd5b50610526610663366004612f2f565b6112ab565b34801561067457600080fd5b506103a5610683366004613173565b5060001990565b34801561069657600080fd5b506103a56106a5366004612f2f565b6112e7565b3480156106b657600080fd5b506105266106c536600461319c565b611311565b3480156106d657600080fd5b506103a56106e5366004612f16565b600a6020526000908152604090205481565b34801561070357600080fd5b506107176107123660046131cc565b6113aa565b6040516103af91906132d2565b34801561073057600080fd5b506103f861073f366004612f16565b600090815260036020526040902054151590565b6103a5610761366004612f51565b6114d4565b34801561077257600080fd5b50610526610781366004612f16565b611611565b34801561079257600080fd5b506104696116a2565b3480156107a757600080fd5b506103a56107b6366004612f2f565b6116af565b3480156107c757600080fd5b506103a56107d6366004612e3a565b6117d6565b3480156107e757600080fd5b506103a56107f6366004612f2f565b611983565b34801561080757600080fd5b5061046961198f565b34801561081c57600080fd5b5061052661082b366004612f16565b61199c565b34801561083c57600080fd5b506103a560135481565b34801561085257600080fd5b506103a56108613660046132e5565b611a2d565b34801561087257600080fd5b506103a5610881366004612f16565b611bf9565b34801561089257600080fd5b506103a56108a1366004612f16565b611c97565b3480156108b257600080fd5b50610469611ce0565b3480156108c757600080fd5b506105266108d636600461331a565b611ced565b3480156108e757600080fd5b506105266108f6366004613173565b611cfc565b34801561090757600080fd5b506103a5610916366004612f16565b611dbc565b34801561092757600080fd5b506103a5610936366004612f2f565b611dd9565b34801561094757600080fd5b506103a5610956366004612f16565b60009081526003602052604090205490565b34801561097457600080fd5b506103a57f000000000000000000000000000000000000000000000000000000000000000081565b3480156109a857600080fd5b506103a56109b7366004612f16565b611de5565b6103a56109ca366004612f51565b611e06565b3480156109db57600080fd5b506007546103a5565b3480156109f057600080fd5b506103a56109ff366004612f2f565b611f43565b348015610a1057600080fd5b506103a5610a1f366004612f16565b611f6d565b348015610a3057600080fd5b506103f8610a3f366004612f16565b600c6020526000908152604090205460ff1681565b348015610a6057600080fd5b506103a5610a6f3660046132e5565b611f80565b348015610a8057600080fd5b506103f8610a8f366004613346565b6120fb565b348015610aa057600080fd5b506103a5610aaf366004612f16565b600b6020526000908152604090205481565b348015610acd57600080fd5b50610526610adc366004613370565b612129565b348015610aed57600080fd5b5060105461043c906001600160a01b031681565b348015610b0d57600080fd5b506103a5610b1c366004612f16565b60096020526000908152604090205481565b60006001600160a01b038316610b9e5760405162461bcd60e51b815260206004820152602a60248201527f455243313135353a2061646472657373207a65726f206973206e6f742061207660448201526930b634b21037bbb732b960b11b60648201526084015b60405180910390fd5b506000818152602081815260408083206001600160a01b03861684529091529020545b92915050565b6000848042101580610bec57506000818152600c602052604090205460ff1615156001145b610c085760405162461bcd60e51b8152600401610b95906133d5565b6000868152600d6020526040902054869060ff161515600114610c3d5760405162461bcd60e51b8152600401610b9590613441565b336001600160a01b0385161480610c595750610c5984866120fb565b610c755760405162461bcd60e51b8152600401610b9590613471565b610c7f87876112e7565b9250610c8b8787611dd9565b925082600003610ccb5760405162461bcd60e51b815260206004820152600b60248201526a5a45524f5f41535345545360a81b6044820152606401610b95565b6000610cd788856116af565b9050610ce48589896121b0565b6000610cef82611dbc565b9050610cfb81836134ce565b600f54909250610d38906001600160a01b037f00000000000000000000000000000000000000000000000000000000000000008116911683612345565b604080513381526001600160a01b038981166020830152918101879052606081018490528a918816907fbbbdee62287b5bf3bee13cab60a29ad729cf38109bccbd2a986a11c99b8ca704906080015b60405180910390a3610dc36001600160a01b037f0000000000000000000000000000000000000000000000000000000000000000168884612345565b50979650505050505050565b60006001600160e01b03198216636cdb3d1360e11b1480610e0057506001600160e01b031982166303a24d0760e21b145b80610bc157506301ffc9a760e01b6001600160e01b0319831614610bc1565b60048054610e2c906134e5565b80601f0160208091040260200160405190810160405280929190818152602001828054610e58906134e5565b8015610ea55780601f10610e7a57610100808354040283529160200191610ea5565b820191906000526020600020905b815481529060010190602001808311610e8857829003601f168201915b505050505081565b606060028054610ebc906134e5565b80601f0160208091040260200160405190810160405280929190818152602001828054610ee8906134e5565b8015610f355780601f10610f0a57610100808354040283529160200191610f35565b820191906000526020600020905b815481529060010190602001808311610f1857829003601f168201915b50505050509050919050565b6000828152600360205260408120548015610f6f57610f6a610f6285611c97565b8490836123c3565b610f71565b825b949350505050565b6000610f858284610b2e565b9392505050565b336001600160a01b037f00000000000000000000000000000000000000000000000000000000000000001614610fd45760405162461bcd60e51b8152600401610b9590613519565b6000818152600d602052604090205460ff161561101f5760405162461bcd60e51b815260206004820152600960248201526849445f45584953545360b81b6044820152606401610b95565b6000818152600d60209081526040808320805460ff19166001908117909155600b90925282209390935560078054938401815590527fa66cc928b5edb82af9bd49922954155ab7b0942694bea4ce44661d9a8736c68890910155565b6000610f85836104e18486610b2e565b6000828152600360205260408120548015610f6f57610f6a6110ac85611c97565b8490836123e2565b336001600160a01b037f000000000000000000000000000000000000000000000000000000000000000016146110fc5760405162461bcd60e51b8152600401610b9590613519565b600855565b6010546001600160a01b0316331461112b5760405162461bcd60e51b8152600401610b9590613547565b6000828152600d6020526040902054829060ff1615156001146111605760405162461bcd60e51b8152600401610b9590613441565b6000838152600960205260409020546111a5906001600160a01b037f000000000000000000000000000000000000000000000000000000000000000016908490612345565b505050565b6001600160a01b0385163314806111c657506111c685336120fb565b61122d5760405162461bcd60e51b815260206004820152603260248201527f455243313135353a207472616e736665722063616c6c6572206973206e6f74206044820152711bdddb995c881b9bdc88185c1c1c9bdd995960721b6064820152608401610b95565b61123a8585858585612410565b5050505050565b336001600160a01b037f000000000000000000000000000000000000000000000000000000000000000016146112895760405162461bcd60e51b8152600401610b9590613519565b601080546001600160a01b0319166001600160a01b0392909216919091179055565b6010546001600160a01b031633146112d55760405162461bcd60e51b8152600401610b9590613547565b6000918252600a602052604090912055565b6000828152600360205260408120548015610f6f57610f6a8161130986611c97565b8591906123e2565b6010546001600160a01b0316331461133b5760405162461bcd60e51b8152600401610b9590613547565b6000828152600d6020526040902054829060ff1615156001146113705760405162461bcd60e51b8152600401610b9590613441565b6000838152600c60205260409020805460ff191683151517905561139383611c97565b600093845260096020526040909320929092555050565b6060815183511461140f5760405162461bcd60e51b815260206004820152602960248201527f455243313135353a206163636f756e747320616e6420696473206c656e677468604482015268040dad2e6dac2e8c6d60bb1b6064820152608401610b95565b6000835167ffffffffffffffff81111561142b5761142b612f7d565b604051908082528060200260200182016040528015611454578160200160208202803683370190505b50905060005b84518110156114cc5761149f8582815181106114785761147861358f565b60200260200101518583815181106114925761149261358f565b6020026020010151610b2e565b8282815181106114b1576114b161358f565b60209081029190910101526114c5816135a5565b905061145a565b509392505050565b60008034116114f55760405162461bcd60e51b8152600401610b95906135be565b7f00000000000000000000000000000000000000000000000000000000000000006001600160a01b031663d0e30db0346040518263ffffffff1660e01b81526004016000604051808303818588803b15801561155057600080fd5b505af1158015611564573d6000803e3d6000fd5b505060405163a9059cbb60e01b81523360048201523460248201527f00000000000000000000000000000000000000000000000000000000000000006001600160a01b0316935063a9059cbb925060440190506020604051808303816000875af11580156115d6573d6000803e3d6000fd5b505050506040513d601f19601f820116820180604052508101906115fa91906135ff565b6116065761160661361c565b610f85833484611a2d565b336001600160a01b037f000000000000000000000000000000000000000000000000000000000000000016146116595760405162461bcd60e51b8152600401610b9590613519565b6103e8811061169d5760405162461bcd60e51b815260206004820152601060248201526f46656520697320746f6f20686967682160801b6044820152606401610b95565b600e55565b60118054610e2c906134e5565b604051637259324b60e01b60208201526000906024016040516020818303038152906040528051906020012060056040516020016116ed9190613632565b60405160208183030381529060405280519060200120036117a1576000838152600c602052604090205460ff1661176c576000838152600a6020908152604080832054600990925290912054839161175b91670de0b6b3a7640000906117549085906125fb565b91906123c3565b61176591906136d1565b9050610bc1565b6000838152600a60209081526040808320546009909252909120546117659190670de0b6b3a7640000906117549086906125fb565b6000838152600a6020908152604080832054600990925290912054610f859190670de0b6b3a7640000906117549086906125fb565b60008480421015806117fb57506000818152600c602052604090205460ff1615156001145b6118175760405162461bcd60e51b8152600401610b95906133d5565b6000868152600d6020526040902054869060ff16151560011461184c5760405162461bcd60e51b8152600401610b9590613441565b336001600160a01b0385161480611868575061186884866120fb565b8061189b5750336001600160a01b037f000000000000000000000000000000000000000000000000000000000000000016145b6118b75760405162461bcd60e51b8152600401610b9590613471565b6118c187876112e7565b925060006118cf88856116af565b90506118dc8589866121b0565b60006118e782611dbc565b90506118f381836134ce565b600f54909250611930906001600160a01b037f00000000000000000000000000000000000000000000000000000000000000008116911683612345565b604080513381526001600160a01b0389811660208301529181018a9052606081018490528a918816907fbbbdee62287b5bf3bee13cab60a29ad729cf38109bccbd2a986a11c99b8ca70490608001610d87565b6000610f858383611f43565b60128054610e2c906134e5565b336001600160a01b037f000000000000000000000000000000000000000000000000000000000000000016146119e45760405162461bcd60e51b8152600401610b9590613519565b6103e88110611a285760405162461bcd60e51b815260206004820152601060248201526f46656520697320746f6f20686967682160801b6044820152606401610b95565b601355565b6000838152600d6020526040812054849060ff161515600114611a625760405162461bcd60e51b8152600401610b9590613441565b6008546000868152600b60205260409020548691611a7f916134ce565b4210611a9d5760405162461bcd60e51b8152600401610b95906136e9565b600260065403611aef5760405162461bcd60e51b815260206004820152601f60248201527f5265656e7472616e637947756172643a207265656e7472616e742063616c6c006044820152606401610b95565b6002600655611afe8686611983565b925082600003611b3e5760405162461bcd60e51b815260206004820152600b60248201526a5a45524f5f53484152455360a81b6044820152606401610b95565b6000611b4984612610565b9050611b806001600160a01b037f000000000000000000000000000000000000000000000000000000000000000016333084612665565b611b9b858883604051806020016040528060008152506126e8565b604080513381526020810183905290810185905287906001600160a01b038716907f4e2ca0515ed1aef1395f66b5303bb5d6f1bf9d61a353fa53f73f8ac9973fa9f6906060015b60405180910390a360016006559695505050505050565b6000805b600754811015611c91578260078281548110611c1b57611c1b61358f565b906000526020600020015403611c7f576001611c3660075490565b611c4091906134ce565b8103611c4f5750600092915050565b6007611c5c8260016136d1565b81548110611c6c57611c6c61358f565b9060005260206000200154915050919050565b80611c89816135a5565b915050611bfd565b50919050565b6000818152600d6020526040812054829060ff161515600114611ccc5760405162461bcd60e51b8152600401610b9590613441565b505060009081526003602052604090205490565b60058054610e2c906134e5565b611cf8338383612802565b5050565b336001600160a01b037f00000000000000000000000000000000000000000000000000000000000000001614611d445760405162461bcd60e51b8152600401610b9590613519565b6001600160a01b038116611d9a5760405162461bcd60e51b815260206004820152601c60248201527f547265617375727920616464726573732063616e6e6f742062652030000000006044820152606401610b95565b600f80546001600160a01b0319166001600160a01b0392909216919091179055565b60006103e860135483611dcf9190613739565b610bc19190613758565b6000610f858383610f41565b60078181548110611df557600080fd5b600091825260209091200154905081565b6000803411611e275760405162461bcd60e51b8152600401610b95906135be565b7f00000000000000000000000000000000000000000000000000000000000000006001600160a01b031663d0e30db0346040518263ffffffff1660e01b81526004016000604051808303818588803b158015611e8257600080fd5b505af1158015611e96573d6000803e3d6000fd5b505060405163a9059cbb60e01b81523360048201523460248201527f00000000000000000000000000000000000000000000000000000000000000006001600160a01b0316935063a9059cbb925060440190506020604051808303816000875af1158015611f08573d6000803e3d6000fd5b505050506040513d601f19601f82011682018060405250810190611f2c91906135ff565b611f3857611f3861361c565b610f85833484611f80565b6000828152600360205260408120548015610f6f57610f6a81611f6586611c97565b8591906123c3565b60006103e8600e5483611dcf9190613739565b6000838152600d6020526040812054849060ff161515600114611fb55760405162461bcd60e51b8152600401610b9590613441565b6008546000868152600b60205260409020548691611fd2916134ce565b4210611ff05760405162461bcd60e51b8152600401610b95906136e9565b6002600654036120425760405162461bcd60e51b815260206004820152601f60248201527f5265656e7472616e637947756172643a207265656e7472616e742063616c6c006044820152606401610b95565b6002600655612051868661108b565b9250600061205e84612610565b90506120956001600160a01b037f000000000000000000000000000000000000000000000000000000000000000016333084612665565b6120b0858883604051806020016040528060008152506126e8565b604080513381526020810183905290810187905287906001600160a01b038716907f4e2ca0515ed1aef1395f66b5303bb5d6f1bf9d61a353fa53f73f8ac9973fa9f690606001611be2565b6001600160a01b03918216600090815260016020908152604080832093909416825291909152205460ff1690565b6001600160a01b038516331480612145575061214585336120fb565b6121a35760405162461bcd60e51b815260206004820152602960248201527f455243313135353a2063616c6c6572206973206e6f74206f776e6572206e6f7260448201526808185c1c1c9bdd995960ba1b6064820152608401610b95565b61123a85858585856128e2565b6001600160a01b0383166122125760405162461bcd60e51b815260206004820152602360248201527f455243313135353a206275726e2066726f6d20746865207a65726f206164647260448201526265737360e81b6064820152608401610b95565b33600061221e84612a1a565b9050600061222b84612a1a565b905061224b83876000858560405180602001604052806000815250612a65565b6000858152602081815260408083206001600160a01b038a168452909152902054848110156122c85760405162461bcd60e51b8152602060048201526024808201527f455243313135353a206275726e20616d6f756e7420657863656564732062616c604482015263616e636560e01b6064820152608401610b95565b6000868152602081815260408083206001600160a01b038b81168086529184528285208a8703905582518b81529384018a90529092908816917fc3d58168c5ae7397731d063d5bbf3d657854427343f4c083240f7aacaa2d0f62910160405180910390a46040805160208101909152600090525b50505050505050565b600060405163a9059cbb60e01b8152836004820152826024820152602060006044836000895af13d15601f3d11600160005114161716915050806123bd5760405162461bcd60e51b815260206004820152600f60248201526e1514905394d1915497d19052531151608a1b6044820152606401610b95565b50505050565b8282028115158415858304851417166123db57600080fd5b0492915050565b8282028115158415858304851417166123fa57600080fd5b6001826001830304018115150290509392505050565b81518351146124725760405162461bcd60e51b815260206004820152602860248201527f455243313135353a2069647320616e6420616d6f756e7473206c656e677468206044820152670dad2e6dac2e8c6d60c31b6064820152608401610b95565b6001600160a01b0384166124985760405162461bcd60e51b8152600401610b959061377a565b336124a7818787878787612a65565b60005b845181101561258d5760008582815181106124c7576124c761358f565b6020026020010151905060008583815181106124e5576124e561358f565b602090810291909101810151600084815280835260408082206001600160a01b038e1683529093529190912054909150818110156125355760405162461bcd60e51b8152600401610b95906137bf565b6000838152602081815260408083206001600160a01b038e8116855292528083208585039055908b168252812080548492906125729084906136d1565b9250508190555050505080612586906135a5565b90506124aa565b50846001600160a01b0316866001600160a01b0316826001600160a01b03167f4a39dc06d4c0dbc64b70af90fd698a233a518aa5d07e595d983b8c0526c8f7fb87876040516125dd929190613809565b60405180910390a46125f3818787878787612bde565b505050505050565b6000610f8583670de0b6b3a7640000846123c3565b60008061261c83611f6d565b9050600061262a82856134ce565b600f54909150610f85906001600160a01b037f0000000000000000000000000000000000000000000000000000000000000000811691339116855b60006040516323b872dd60e01b81528460048201528360248201528260448201526020600060648360008a5af13d15601f3d116001600051141617169150508061123a5760405162461bcd60e51b81526020600482015260146024820152731514905394d1915497d19493d357d1905253115160621b6044820152606401610b95565b6001600160a01b0384166127485760405162461bcd60e51b815260206004820152602160248201527f455243313135353a206d696e7420746f20746865207a65726f206164647265736044820152607360f81b6064820152608401610b95565b33600061275485612a1a565b9050600061276185612a1a565b905061277283600089858589612a65565b6000868152602081815260408083206001600160a01b038b168452909152812080548792906127a29084906136d1565b909155505060408051878152602081018790526001600160a01b03808a1692600092918716917fc3d58168c5ae7397731d063d5bbf3d657854427343f4c083240f7aacaa2d0f62910160405180910390a461233c83600089898989612d39565b816001600160a01b0316836001600160a01b0316036128755760405162461bcd60e51b815260206004820152602960248201527f455243313135353a2073657474696e6720617070726f76616c20737461747573604482015268103337b91039b2b63360b91b6064820152608401610b95565b6001600160a01b03838116600081815260016020908152604080832094871680845294825291829020805460ff191686151590811790915591519182527f17307eab39ab6107e8899845ad3d59bd9653f200f220920489ca2b5937696c31910160405180910390a3505050565b6001600160a01b0384166129085760405162461bcd60e51b8152600401610b959061377a565b33600061291485612a1a565b9050600061292185612a1a565b9050612931838989858589612a65565b6000868152602081815260408083206001600160a01b038c168452909152902054858110156129725760405162461bcd60e51b8152600401610b95906137bf565b6000878152602081815260408083206001600160a01b038d8116855292528083208985039055908a168252812080548892906129af9084906136d1565b909155505060408051888152602081018890526001600160a01b03808b16928c821692918816917fc3d58168c5ae7397731d063d5bbf3d657854427343f4c083240f7aacaa2d0f62910160405180910390a4612a0f848a8a8a8a8a612d39565b505050505050505050565b60408051600180825281830190925260609160009190602080830190803683370190505090508281600081518110612a5457612a5461358f565b602090810291909101015292915050565b6001600160a01b038516612aec5760005b8351811015612aea57828181518110612a9157612a9161358f565b602002602001015160036000868481518110612aaf57612aaf61358f565b602002602001015181526020019081526020016000206000828254612ad491906136d1565b90915550612ae39050816135a5565b9050612a76565b505b6001600160a01b0384166125f35760005b835181101561233c576000848281518110612b1a57612b1a61358f565b602002602001015190506000848381518110612b3857612b3861358f565b6020026020010151905060006003600084815260200190815260200160002054905081811015612bbb5760405162461bcd60e51b815260206004820152602860248201527f455243313135353a206275726e20616d6f756e74206578636565647320746f74604482015267616c537570706c7960c01b6064820152608401610b95565b60009283526003602052604090922091039055612bd7816135a5565b9050612afd565b6001600160a01b0384163b156125f35760405163bc197c8160e01b81526001600160a01b0385169063bc197c8190612c229089908990889088908890600401613837565b6020604051808303816000875af1925050508015612c5d575060408051601f3d908101601f19168201909252612c5a91810190613895565b60015b612d0957612c696138b2565b806308c379a003612ca25750612c7d6138ce565b80612c885750612ca4565b8060405162461bcd60e51b8152600401610b959190612f03565b505b60405162461bcd60e51b815260206004820152603460248201527f455243313135353a207472616e7366657220746f206e6f6e20455243313135356044820152732932b1b2b4bb32b91034b6b83632b6b2b73a32b960611b6064820152608401610b95565b6001600160e01b0319811663bc197c8160e01b1461233c5760405162461bcd60e51b8152600401610b9590613958565b6001600160a01b0384163b156125f35760405163f23a6e6160e01b81526001600160a01b0385169063f23a6e6190612d7d90899089908890889088906004016139a0565b6020604051808303816000875af1925050508015612db8575060408051601f3d908101601f19168201909252612db591810190613895565b60015b612dc457612c696138b2565b6001600160e01b0319811663f23a6e6160e01b1461233c5760405162461bcd60e51b8152600401610b9590613958565b80356001600160a01b0381168114612e0b57600080fd5b919050565b60008060408385031215612e2357600080fd5b612e2c83612df4565b946020939093013593505050565b60008060008060808587031215612e5057600080fd5b8435935060208501359250612e6760408601612df4565b9150612e7560608601612df4565b905092959194509250565b6001600160e01b031981168114612e9657600080fd5b50565b600060208284031215612eab57600080fd5b8135610f8581612e80565b6000815180845260005b81811015612edc57602081850181015186830182015201612ec0565b81811115612eee576000602083870101525b50601f01601f19169290920160200192915050565b602081526000610f856020830184612eb6565b600060208284031215612f2857600080fd5b5035919050565b60008060408385031215612f4257600080fd5b50508035926020909101359150565b60008060408385031215612f6457600080fd5b82359150612f7460208401612df4565b90509250929050565b634e487b7160e01b600052604160045260246000fd5b601f8201601f1916810167ffffffffffffffff81118282101715612fb957612fb9612f7d565b6040525050565b600067ffffffffffffffff821115612fda57612fda612f7d565b5060051b60200190565b600082601f830112612ff557600080fd5b8135602061300282612fc0565b60405161300f8282612f93565b83815260059390931b850182019282810191508684111561302f57600080fd5b8286015b8481101561304a5780358352918301918301613033565b509695505050505050565b600082601f83011261306657600080fd5b813567ffffffffffffffff81111561308057613080612f7d565b604051613097601f8301601f191660200182612f93565b8181528460208386010111156130ac57600080fd5b816020850160208301376000918101602001919091529392505050565b600080600080600060a086880312156130e157600080fd5b6130ea86612df4565b94506130f860208701612df4565b9350604086013567ffffffffffffffff8082111561311557600080fd5b61312189838a01612fe4565b9450606088013591508082111561313757600080fd5b61314389838a01612fe4565b9350608088013591508082111561315957600080fd5b5061316688828901613055565b9150509295509295909350565b60006020828403121561318557600080fd5b610f8582612df4565b8015158114612e9657600080fd5b600080604083850312156131af57600080fd5b8235915060208301356131c18161318e565b809150509250929050565b600080604083850312156131df57600080fd5b823567ffffffffffffffff808211156131f757600080fd5b818501915085601f83011261320b57600080fd5b8135602061321882612fc0565b6040516132258282612f93565b83815260059390931b850182019282810191508984111561324557600080fd5b948201945b8386101561326a5761325b86612df4565b8252948201949082019061324a565b9650508601359250508082111561328057600080fd5b5061328d85828601612fe4565b9150509250929050565b600081518084526020808501945080840160005b838110156132c7578151875295820195908201906001016132ab565b509495945050505050565b602081526000610f856020830184613297565b6000806000606084860312156132fa57600080fd5b833592506020840135915061331160408501612df4565b90509250925092565b6000806040838503121561332d57600080fd5b61333683612df4565b915060208301356131c18161318e565b6000806040838503121561335957600080fd5b61336283612df4565b9150612f7460208401612df4565b600080600080600060a0868803121561338857600080fd5b61339186612df4565b945061339f60208701612df4565b93506040860135925060608601359150608086013567ffffffffffffffff8111156133c957600080fd5b61316688828901613055565b60208082526046908201527f45706f636820686173206e6f7420656e6465642c206f7220646570656720657660408201527f656e7420686173206e6f74206f63757272656420696e207468652074696d65206060820152656265696e672160d01b608082015260a00190565b6020808252601690820152754d61726b657420646f6573206e6f742045786973742160501b604082015260600190565b60208082526027908201527f4f776e6572206e6565647320746f20617070726f766520726563656976657220604082015266199bdc88185b1b60ca1b606082015260800190565b634e487b7160e01b600052601160045260246000fd5b6000828210156134e0576134e06134b8565b500390565b600181811c908216806134f957607f821691505b602082108103611c9157634e487b7160e01b600052602260045260246000fd5b602080825260149082015273596f7520617265206e6f7420466163746f72792160601b604082015260600190565b60208082526028908201527f596f7520617265206e6f742063616c6c696e672066726f6d2074686520436f6e60408201526774726f6c6c65722160c01b606082015260800190565b634e487b7160e01b600052603260045260246000fd5b6000600182016135b7576135b76134b8565b5060010190565b60208082526021908201527f45544820616d6f756e74206d7573742062652067726561746572207468616e206040820152600360fc1b606082015260800190565b60006020828403121561361157600080fd5b8151610f858161318e565b634e487b7160e01b600052600160045260246000fd5b600080835481600182811c91508083168061364e57607f831692505b6020808410820361366d57634e487b7160e01b86526022600452602486fd5b8180156136815760018114613696576136c3565b60ff19861689528415158502890196506136c3565b60008a81526020902060005b868110156136bb5781548b8201529085019083016136a2565b505084890196505b509498975050505050505050565b600082198211156136e4576136e46134b8565b500190565b60208082526030908201527f4465706f7369742074696d65206973206f7665722c2045706f6368206861732060408201526f616c726561647920737461727465642160801b606082015260800190565b6000816000190483118215151615613753576137536134b8565b500290565b60008261377557634e487b7160e01b600052601260045260246000fd5b500490565b60208082526025908201527f455243313135353a207472616e7366657220746f20746865207a65726f206164604082015264647265737360d81b606082015260800190565b6020808252602a908201527f455243313135353a20696e73756666696369656e742062616c616e636520666f60408201526939103a3930b739b332b960b11b606082015260800190565b60408152600061381c6040830185613297565b828103602084015261382e8185613297565b95945050505050565b6001600160a01b0386811682528516602082015260a06040820181905260009061386390830186613297565b82810360608401526138758186613297565b905082810360808401526138898185612eb6565b98975050505050505050565b6000602082840312156138a757600080fd5b8151610f8581612e80565b600060033d11156138cb5760046000803e5060005160e01c5b90565b600060443d10156138dc5790565b6040516003193d81016004833e81513d67ffffffffffffffff816024840111818411171561390c57505050505090565b82850191508151818111156139245750505050505090565b843d870101602082850101111561393e5750505050505090565b61394d60208286010187612f93565b509095945050505050565b60208082526028908201527f455243313135353a204552433131353552656365697665722072656a656374656040820152676420746f6b656e7360c01b606082015260800190565b6001600160a01b03868116825285166020820152604081018490526060810183905260a0608082018190526000906139da90830184612eb6565b97965050505050505056fea26469706673582212209826c57bc21a20a4d6f7af3c6cb971a0418bc72d4113836261bdb857e4c301c564736f6c634300080f0033",
    "linkReferences": {}
  },
  "methodIdentifiers": {
    "asset()": "38d52e0f",
    "balanceOf(address,uint256)": "00fdd58e",
    "balanceOfBatch(address[],uint256[])": "4e1273f4",
    "beforeWithdraw(uint256,uint256)": "6f7e9bd5",
    "calculateFeeValue(uint256)": "dd2fdd21",
    "calculateWithdrawalFeeValue(uint256)": "ba37f9e5",
    "changeController(address)": "3cebb823",
    "changeFee(uint256)": "6a1db1bf",
    "changeTimewindow(uint256)": "28337df6",
    "changeTreasury(address)": "b14f2a39",
    "changeWithdrawalFee(uint256)": "819b48e3",
    "controller()": "f77c4791",
    "convertToAssets(uint256,uint256)": "181e7b3b",
    "convertToShares(uint256,uint256)": "db2088f4",
    "createAssets(uint256,uint256)": "23d68d8e",
    "deposit(uint256,uint256,address)": "8dbdbe6d",
    "depositETH(uint256,address)": "56150edf",
    "endEpoch(uint256,bool)": "4cbd43de",
    "epochs(uint256)": "c6b61e4c",
    "epochsLength()": "d662b92d",
    "exists(uint256)": "4f558e79",
    "feeTaken()": "281dba1b",
    "getNextEpoch(uint256)": "8fc710cb",
    "idClaimTVL(uint256)": "4d288ba7",
    "idDepegged(uint256)": "e58c6dfa",
    "idEpochBegin(uint256)": "ea859a27",
    "idExists(uint256)": "0b8a295a",
    "idFinalTVL(uint256)": "f9db2427",
    "isApprovedForAll(address,address)": "e985e9c5",
    "maxDeposit(address)": "402d267d",
    "maxMint(address)": "c63d75b6",
    "maxRedeem(uint256,address)": "236b4020",
    "maxWithdraw(uint256,address)": "242156ed",
    "mint(uint256,uint256,address)": "e7d3fe6b",
    "mintETH(uint256,address)": "cfc13da6",
    "name()": "06fdde03",
    "previewDeposit(uint256,uint256)": "7a7af70d",
    "previewMint(uint256,uint256)": "276b1140",
    "previewRedeem(uint256,uint256)": "bbec4d06",
    "previewWithdraw(uint256,uint256)": "488bd7b0",
    "redeem(uint256,uint256,address,address)": "0169a996",
    "safeBatchTransferFrom(address,address,uint256[],uint256[],bytes)": "2eb2c2d6",
    "safeTransferFrom(address,address,uint256,uint256,bytes)": "f242432a",
    "sendTokens(uint256,address)": "29322e05",
    "setApprovalForAll(address,bool)": "a22cb465",
    "setClaimTVL(uint256,uint256)": "3e048365",
    "strikePrice()": "c52987cf",
    "supportsInterface(bytes4)": "01ffc9a7",
    "symbol()": "95d89b41",
    "timewindow()": "2fccfc83",
    "tokenInsured()": "04da1a46",
    "tokenName()": "6c02a931",
    "tokenSymbol()": "7b61c320",
    "totalAssets(uint256)": "94605857",
    "totalSupply(uint256)": "bd85b039",
    "uri(uint256)": "0e89341c",
    "withdraw(uint256,uint256,address,address)": "71b3177a",
    "withdrawalFee()": "8bc7e8c4"
  },
  "id": 27
}