{
  "abi": [
    {
      "anonymous": false,
      "inputs": [
        {
          "indexed": false,
          "internalType": "address",
          "name": "who",
          "type": "address"
        },
        {
          "indexed": false,
          "internalType": "bytes4",
          "name": "fsig",
          "type": "bytes4"
        },
        {
          "indexed": false,
          "internalType": "bytes32",
          "name": "keysHash",
          "type": "bytes32"
        },
        {
          "indexed": false,
          "internalType": "uint256",
          "name": "slot",
          "type": "uint256"
        }
      ],
      "name": "SlotFound",
      "type": "event"
    },
    {
      "anonymous": false,
      "inputs": [
        {
          "indexed": false,
          "internalType": "address",
          "name": "who",
          "type": "address"
        },
        {
          "indexed": false,
          "internalType": "uint256",
          "name": "slot",
          "type": "uint256"
        }
      ],
      "name": "WARNING_UninitedSlot",
      "type": "event"
    },
    {
      "inputs": [
        {
          "internalType": "bytes",
          "name": "b",
          "type": "bytes"
        },
        {
          "internalType": "uint256",
          "name": "offset",
          "type": "uint256"
        }
      ],
      "name": "bytesToBytes32",
      "outputs": [
        {
          "internalType": "bytes32",
          "name": "",
          "type": "bytes32"
        }
      ],
      "stateMutability": "pure",
      "type": "function"
    }
  ],
  "bytecode": {
    "object": "0x6080806040523461001a576101bb9081610020823930815050f35b600080fdfe60806004908136101561001157600080fd5b600091823560e01c63535849391461002857600080fd5b604036600319011261016a5767ffffffffffffffff928135848111610181573660238201121561018157808301359480861161016e57601f8601601f19908116603f011685019081118582101761016e576040528484526024943686828401011161016a579180918387959460209889930183890137860101528235918194805187811160001461015f5750869291909493945b82955b8487106100d0578888604051908152f35b909192939495968719821161012957878201835181101561014d5783018901516001600160f81b0319168815156000198a90046008111661013b578860031b1c17966000198114610129576001019594939291906100bf565b634e487b7160e01b8552601184528685fd5b634e487b7160e01b8652601185528786fd5b634e487b7160e01b8652603285528786fd5b9291909493946100bc565b8280fd5b634e487b7160e01b835260418452602483fd5b5080fdfea26469706673582212207ffb83054dc590ffbeb0e6f16f8b77ff1d98fe539ce3a9f70d669f4693a8ad0d64736f6c634300080f0033",
    "linkReferences": {}
  },
  "methodIdentifiers": {
    "bytesToBytes32(bytes,uint256)": "53584939"
  },
  "id": 5
}