{
  "abi": [
    {
      "inputs": [],
      "stateMutability": "nonpayable",
      "type": "constructor"
    },
    {
      "anonymous": false,
      "inputs": [
        {
          "indexed": true,
          "internalType": "address",
          "name": "owner",
          "type": "address"
        },
        {
          "indexed": true,
          "internalType": "address",
          "name": "spender",
          "type": "address"
        },
        {
          "indexed": false,
          "internalType": "uint256",
          "name": "amount",
          "type": "uint256"
        }
      ],
      "name": "Approval",
      "type": "event"
    },
    {
      "anonymous": false,
      "inputs": [
        {
          "indexed": true,
          "internalType": "address",
          "name": "from",
          "type": "address"
        },
        {
          "indexed": true,
          "internalType": "address",
          "name": "to",
          "type": "address"
        },
        {
          "indexed": false,
          "internalType": "uint256",
          "name": "amount",
          "type": "uint256"
        }
      ],
      "name": "Transfer",
      "type": "event"
    },
    {
      "inputs": [],
      "name": "DOMAIN_SEPARATOR",
      "outputs": [
        {
          "internalType": "bytes32",
          "name": "",
          "type": "bytes32"
        }
      ],
      "stateMutability": "view",
      "type": "function"
    },
    {
      "inputs": [
        {
          "internalType": "address",
          "name": "",
          "type": "address"
        },
        {
          "internalType": "address",
          "name": "",
          "type": "address"
        }
      ],
      "name": "allowance",
      "outputs": [
        {
          "internalType": "uint256",
          "name": "",
          "type": "uint256"
        }
      ],
      "stateMutability": "view",
      "type": "function"
    },
    {
      "inputs": [
        {
          "internalType": "address",
          "name": "spender",
          "type": "address"
        },
        {
          "internalType": "uint256",
          "name": "amount",
          "type": "uint256"
        }
      ],
      "name": "approve",
      "outputs": [
        {
          "internalType": "bool",
          "name": "",
          "type": "bool"
        }
      ],
      "stateMutability": "nonpayable",
      "type": "function"
    },
    {
      "inputs": [
        {
          "internalType": "address",
          "name": "",
          "type": "address"
        }
      ],
      "name": "balanceOf",
      "outputs": [
        {
          "internalType": "uint256",
          "name": "",
          "type": "uint256"
        }
      ],
      "stateMutability": "view",
      "type": "function"
    },
    {
      "inputs": [],
      "name": "decimals",
      "outputs": [
        {
          "internalType": "uint8",
          "name": "",
          "type": "uint8"
        }
      ],
      "stateMutability": "view",
      "type": "function"
    },
    {
      "inputs": [
        {
          "internalType": "address",
          "name": "_sender",
          "type": "address"
        }
      ],
      "name": "moneyPrinterGoesBrr",
      "outputs": [],
      "stateMutability": "nonpayable",
      "type": "function"
    },
    {
      "inputs": [],
      "name": "name",
      "outputs": [
        {
          "internalType": "string",
          "name": "",
          "type": "string"
        }
      ],
      "stateMutability": "view",
      "type": "function"
    },
    {
      "inputs": [
        {
          "internalType": "address",
          "name": "",
          "type": "address"
        }
      ],
      "name": "nonces",
      "outputs": [
        {
          "internalType": "uint256",
          "name": "",
          "type": "uint256"
        }
      ],
      "stateMutability": "view",
      "type": "function"
    },
    {
      "inputs": [
        {
          "internalType": "address",
          "name": "owner",
          "type": "address"
        },
        {
          "internalType": "address",
          "name": "spender",
          "type": "address"
        },
        {
          "internalType": "uint256",
          "name": "value",
          "type": "uint256"
        },
        {
          "internalType": "uint256",
          "name": "deadline",
          "type": "uint256"
        },
        {
          "internalType": "uint8",
          "name": "v",
          "type": "uint8"
        },
        {
          "internalType": "bytes32",
          "name": "r",
          "type": "bytes32"
        },
        {
          "internalType": "bytes32",
          "name": "s",
          "type": "bytes32"
        }
      ],
      "name": "permit",
      "outputs": [],
      "stateMutability": "nonpayable",
      "type": "function"
    },
    {
      "inputs": [],
      "name": "symbol",
      "outputs": [
        {
          "internalType": "string",
          "name": "",
          "type": "string"
        }
      ],
      "stateMutability": "view",
      "type": "function"
    },
    {
      "inputs": [],
      "name": "totalSupply",
      "outputs": [
        {
          "internalType": "uint256",
          "name": "",
          "type": "uint256"
        }
      ],
      "stateMutability": "view",
      "type": "function"
    },
    {
      "inputs": [
        {
          "internalType": "address",
          "name": "to",
          "type": "address"
        },
        {
          "internalType": "uint256",
          "name": "amount",
          "type": "uint256"
        }
      ],
      "name": "transfer",
      "outputs": [
        {
          "internalType": "bool",
          "name": "",
          "type": "bool"
        }
      ],
      "stateMutability": "nonpayable",
      "type": "function"
    },
    {
      "inputs": [
        {
          "internalType": "address",
          "name": "from",
          "type": "address"
        },
        {
          "internalType": "address",
          "name": "to",
          "type": "address"
        },
        {
          "internalType": "uint256",
          "name": "amount",
          "type": "uint256"
        }
      ],
      "name": "transferFrom",
      "outputs": [
        {
          "internalType": "bool",
          "name": "",
          "type": "bool"
        }
      ],
      "stateMutability": "nonpayable",
      "type": "function"
    }
  ],
  "bytecode": {
    "object": "0x60e060405234620003f85762000014620003fd565b6200001e620003fd565b81516001600160401b03929091838311620003e257600092806200004385546200042d565b93601f948581116200038f575b50602090858311600114620003275786926200031b575b50508160011b916000199060031b1c19161783555b8051848111620001e357806001926200009684546200042d565b858111620002c6575b506020908583116001146200026257869262000256575b5050600019600383901b1c191690821b1781555b60126080524660a052604051918390845492620000e7846200042d565b90818652602086019481811690816000146200023a5750600114620001f7575b505083601f199203011682019180831085841117620001e357826040525190209160208201927f8b73c3c69bb8fe3d512ecc4cf759cc79239f7b179b0ffacaa9a75d522b39400f845260408301527fc89efdaa54c0f20c7adf612882df0950f5a951637e0307cdcb4c672f298b8bc660608301524660808301523060a083015260a0825260c082019382851090851117620001cf57508260405251902060c052610b1090816200046b8239608051816105ec015260a05181610939015260c051816109600152f35b634e487b7160e01b81526041600452602490fd5b634e487b7160e01b84526041600452602484fd5b90919250858052602086209086915b838310620002205750506020915084010190388062000107565b81816020929493945483858b010152019101919062000206565b60ff191686525050151560051b84016020019150388062000107565b015190503880620000b6565b8487528187208594509190601f198416885b818110620002ad5750841162000293575b505050811b018155620000ca565b015160001960f88460031b161c1916905538808062000285565b8284015185558796909401936020938401930162000274565b909150838652602086208580850160051c8201926020861062000311575b918691869594930160051c01915b828110620003025750506200009f565b888155859450869101620002f2565b92508192620002e4565b01519050388062000067565b8680528187209250601f198416875b8181106200037657509084600195949392106200035c575b505050811b0183556200007c565b015160001960f88460031b161c191690553880806200034e565b9293602060018192878601518155019501930162000336565b909150858052602086208580850160051c82019260208610620003d8575b9085949392910160051c01905b818110620003c9575062000050565b878155849350600101620003ba565b92508192620003ad565b634e487b7160e01b600052604160045260246000fd5b600080fd5b60408051919082016001600160401b03811183821017620003e257604052600382526259324b60e81b6020830152565b90600182811c921680156200045f575b60208310146200044957565b634e487b7160e01b600052602260045260246000fd5b91607f16916200043d56fe6080604081815260048036101561001557600080fd5b600092833560e01c90816306fdde031461077357508063095ea7b31461070557806318160ddd146106e657806323b872dd14610610578063313ce567146105d25780633644e515146105ae57806346e9ef521461051057806370a08231146104d85780637ecebe00146104a057806395d89b41146103c1578063a9059cbb14610339578063d505accf146100fd5763dd62ed3e146100b257600080fd5b346100f957816003193601126100f95760209282916100cf6108e2565b6100d76108fd565b6001600160a01b03918216845291865283832091168252845220549051908152f35b8280fd5b50346100f95760e03660031901126100f9576101176108e2565b61011f6108fd565b604435606435936084359360ff8516809503610335574286106102f25786610145610934565b9460018060a01b0380931696878b5260209660058852838c20998a549a60018c019055858551948b8b8701977f6e71edae12b1b97f4d1f60370fef10105fa2faae0126114a169c64845d6126c98952870152169a8b606086015288608086015260a085015260c084015260c0835260e0830167ffffffffffffffff94848210868311176102df57818d528451902061010085019261190160f01b845261010286015261012285015260428152610160840194818610908611176102cc57848c52519020835261018082015260a4356101a082015260c4356101c0909101528880528490899060809060015afa156102c257875116801515806102b9575b156102855787528252848620848752825284862081905584519081527f8c5be1e5ebec7d5bd14f71427d1e84f3dd0314c0f7b2291e5b200ac8c7c3b9259190a351f35b865162461bcd60e51b8152808301859052600e60248201526d24a72b20a624a22fa9a4a3a722a960911b6044820152606490fd5b50848114610242565b86513d89823e3d90fd5b634e487b7160e01b8d526041875260248dfd5b634e487b7160e01b8e526041885260248efd5b865162461bcd60e51b8152602081840152601760248201527f5045524d49545f444541444c494e455f455850495245440000000000000000006044820152606490fd5b8780fd5b5050346103bd57806003193601126103bd576020916103566108e2565b826024359133845260038652818420610370848254610913565b90556001600160a01b0316808452600386529220805482019055825190815233907fddf252ad1be2c89b69c2b068fc378daa952ba7f163c4a11628f55a4df523b3ef908590a35160018152f35b5080fd5b5050346103bd57816003193601126103bd578051908260018054916103e583610819565b80865292828116908115610478575060011461041c575b50505061040e82610418940383610853565b519182918261088b565b0390f35b94508085527fb10e2d527612073b26eecdfd717e6a320cf44b4afac2b0732d9fcbe2b7fa0cf65b8286106104605750505061040e82602061041895820101946103fc565b80546020878701810191909152909501948101610443565b61041897508693506020925061040e94915060ff191682840152151560051b820101946103fc565b5050346103bd5760203660031901126103bd5760209181906001600160a01b036104c86108e2565b1681526005845220549051908152f35b5050346103bd5760203660031901126103bd5760209181906001600160a01b036105006108e2565b1681526003845220549051908152f35b50346100f95760203660031901126100f95761052a6108e2565b6002549168056bc75e2d6310000019831161059b575068056bc75e2d631000009182016002556001600160a01b0316808452600360209081528385208054840190558351928352909184917fddf252ad1be2c89b69c2b068fc378daa952ba7f163c4a11628f55a4df523b3ef91a351f35b634e487b7160e01b855260119052602484fd5b5050346103bd57816003193601126103bd576020906105cb610934565b9051908152f35b5050346103bd57816003193601126103bd576020905160ff7f0000000000000000000000000000000000000000000000000000000000000000168152f35b5091346106e35760603660031901126106e35761062b6108e2565b7fddf252ad1be2c89b69c2b068fc378daa952ba7f163c4a11628f55a4df523b3ef6106546108fd565b6001600160a01b03928316808552602087815286862033875281528686205490979194889360443593899385600182016106c0575b505050868852600385528288206106a1858254610913565b9055169586815260038452208181540190558551908152a35160018152f35b6106c991610913565b90888a528652838920338a52865283892055388085610689565b80fd5b5050346103bd57816003193601126103bd576020906002549051908152f35b50346100f957816003193601126100f9576020926107216108e2565b918360243592839233825287528181209460018060a01b0316948582528752205582519081527f8c5be1e5ebec7d5bd14f71427d1e84f3dd0314c0f7b2291e5b200ac8c7c3b925843392a35160018152f35b849084346100f957826003193601126100f95782805461079281610819565b8085529160019180831690811561047857506001146107bd5750505061040e82610418940383610853565b80809650527f290decd9548b62a8d60345a988386fc84ba6bc95484008f6362f93160ef3e5635b8286106108015750505061040e82602061041895820101946103fc565b805460208787018101919091529095019481016107e4565b90600182811c92168015610849575b602083101461083357565b634e487b7160e01b600052602260045260246000fd5b91607f1691610828565b90601f8019910116810190811067ffffffffffffffff82111761087557604052565b634e487b7160e01b600052604160045260246000fd5b919091602080825283519081818401526000945b8286106108cc5750508060409394116108bf575b601f01601f1916010190565b60008382840101526108b3565b858101820151848701604001529481019461089f565b600435906001600160a01b03821682036108f857565b600080fd5b602435906001600160a01b03821682036108f857565b81811061091e570390565b634e487b7160e01b600052601160045260246000fd5b6000467f00000000000000000000000000000000000000000000000000000000000000000361098257507f000000000000000000000000000000000000000000000000000000000000000090565b6040518154829161099282610819565b8082528160209485820194600190878282169182600014610abc575050600114610a63575b506109c492500382610853565b51902091604051918201927f8b73c3c69bb8fe3d512ecc4cf759cc79239f7b179b0ffacaa9a75d522b39400f845260408301527fc89efdaa54c0f20c7adf612882df0950f5a951637e0307cdcb4c672f298b8bc660608301524660808301523060a083015260a0825260c082019082821067ffffffffffffffff831117610a4f575060405251902090565b634e487b7160e01b81526041600452602490fd5b87805286915087907f290decd9548b62a8d60345a988386fc84ba6bc95484008f6362f93160ef3e5635b858310610aa45750506109c49350820101386109b7565b80548388018501528694508893909201918101610a8d565b60ff191688526109c495151560051b85010192503891506109b7905056fea2646970667358221220b6cc1faa307a66aff5c9778512d4b2eca43fe46af7a81613b50d527a0036c28164736f6c634300080f0033",
    "linkReferences": {}
  },
  "methodIdentifiers": {
    "DOMAIN_SEPARATOR()": "3644e515",
    "allowance(address,address)": "dd62ed3e",
    "approve(address,uint256)": "095ea7b3",
    "balanceOf(address)": "70a08231",
    "decimals()": "313ce567",
    "moneyPrinterGoesBrr(address)": "46e9ef52",
    "name()": "06fdde03",
    "nonces(address)": "7ecebe00",
    "permit(address,address,uint256,uint256,uint8,bytes32,bytes32)": "d505accf",
    "symbol()": "95d89b41",
    "totalSupply()": "18160ddd",
    "transfer(address,uint256)": "a9059cbb",
    "transferFrom(address,address,uint256)": "23b872dd"
  },
  "id": 41
}