{
  "abi": [
    {
      "inputs": [
        {
          "internalType": "address",
          "name": "_factory",
          "type": "address"
        },
        {
          "internalType": "address",
          "name": "_admin",
          "type": "address"
        }
      ],
      "stateMutability": "nonpayable",
      "type": "constructor"
    },
    {
      "anonymous": false,
      "inputs": [
        {
          "indexed": false,
          "internalType": "uint256",
          "name": "index",
          "type": "uint256"
        },
        {
          "indexed": false,
          "internalType": "uint256",
          "name": "epoch",
          "type": "uint256"
        },
        {
          "indexed": false,
          "internalType": "string",
          "name": "name",
          "type": "string"
        },
        {
          "indexed": false,
          "internalType": "uint256",
          "name": "time",
          "type": "uint256"
        },
        {
          "indexed": false,
          "internalType": "int256",
          "name": "depegPrice",
          "type": "int256"
        }
      ],
      "name": "DepegInsurance",
      "type": "event"
    },
    {
      "anonymous": false,
      "inputs": [
        {
          "indexed": false,
          "internalType": "uint256",
          "name": "RISK_claimTVL",
          "type": "uint256"
        },
        {
          "indexed": false,
          "internalType": "uint256",
          "name": "RISK_finalTVL",
          "type": "uint256"
        },
        {
          "indexed": false,
          "internalType": "uint256",
          "name": "INSR_claimTVL",
          "type": "uint256"
        },
        {
          "indexed": false,
          "internalType": "uint256",
          "name": "INSR_finalTVL",
          "type": "uint256"
        }
      ],
      "name": "VaultTVL",
      "type": "event"
    },
    {
      "inputs": [],
      "name": "admin",
      "outputs": [
        {
          "internalType": "address",
          "name": "",
          "type": "address"
        }
      ],
      "stateMutability": "view",
      "type": "function"
    },
    {
      "inputs": [
        {
          "internalType": "address",
          "name": "_token",
          "type": "address"
        }
      ],
      "name": "getLatestPrice",
      "outputs": [
        {
          "internalType": "int256",
          "name": "nowPrice",
          "type": "int256"
        }
      ],
      "stateMutability": "view",
      "type": "function"
    },
    {
      "inputs": [
        {
          "internalType": "uint256",
          "name": "marketIndex",
          "type": "uint256"
        },
        {
          "internalType": "uint256",
          "name": "mintId",
          "type": "uint256"
        }
      ],
      "name": "triggerDepeg",
      "outputs": [],
      "stateMutability": "nonpayable",
      "type": "function"
    },
    {
      "inputs": [
        {
          "internalType": "uint256",
          "name": "marketIndex",
          "type": "uint256"
        },
        {
          "internalType": "uint256",
          "name": "mintId",
          "type": "uint256"
        }
      ],
      "name": "triggerEndEpoch",
      "outputs": [],
      "stateMutability": "nonpayable",
      "type": "function"
    }
  ],
  "bytecode": {
    "object": "0x60c03461013557601f620017b238819003918201601f19168301916001600160401b0383118484101761013a57808492604094855283398101031261013557610053602061004c83610150565b9201610150565b906001600160a01b0390818316156100f157169081156100a15760805260a05260405161164d9081620001658239608051816062015260a05181818160c8015281816107de015261141d0152f35b60405162461bcd60e51b815260206004820152602260248201527f666163746f72792063616e6e6f7420626520746865207a65726f206164647265604482015261737360f01b6064820152608490fd5b606460405162461bcd60e51b815260206004820152602060248201527f61646d696e2063616e6e6f7420626520746865207a65726f20616464726573736044820152fd5b600080fd5b634e487b7160e01b600052604160045260246000fd5b51906001600160a01b03821682036101355756fe6040608081526004908136101561001557600080fd5b600091823560e01c90816316345f18146110e1578163bcbbcfe4146107a9578163cdfd29b314610095575063f851a4401461004f57600080fd5b34610091578160031936011261009157517f00000000000000000000000000000000000000000000000000000000000000006001600160a01b03168152602090f35b5080fd5b905034610600576100a53661111c565b8351630468d16d60e41b80825281850184905292936024936001600160a01b03927f00000000000000000000000000000000000000000000000000000000000000008416919089818881865afa90811561079f5761010f916002918c91610785575b505114611216565b8442106107315788908689518094819382528a878301525afa9081156104db57889161070f575b50826101418261127e565b5116948361014e836112a1565b5116908989519563f9db242760e01b948588528887890152878a818660209b8c935afa9081156106045784916106db575b5061018a90156112b1565b8b51868152898882015288818681895afa9081156106045784916106a7575b506101b490156112b1565b893b15610600578683808c8f8d60449151948593849263265ea1ef60e11b98898552840152818c8401525af1908115610643578591610693575b5050853b15610672578c51908152898882015283858201528381604481838a5af190811561060457849161067f575b5050893b1561060057868c84808d60448e85519485938492633e04836560e01b998a8552840152818d8401525af191821561067657878a8f8f95938f958f95908c9161064d575b505051958694859384528301525afa908115610643578591610612575b50863b1561060e578d519182528a89830152858201528381604481838a5af19081156106045784916105ec575b50506102b9906112a1565b5116883b15610091578a516329322e0560e01b81528681018981526001600160a01b039092166020830152908290829081906040010381838d5af180156105e2576105ca575b5050885190634d288ba760e01b808352878684015286838381875afa928315610560578c9361059b575b508a519081528786820152868183818c5afa9384156105605787918d9561056a575b509082918c51928380928982528c8b8301525afa9485156105605787918d9661052f575b508b5192839182528988830152818b5afa908115610525578b916104e5575b5089519182526020820192909252604081019290925260608201526000805160206115f883398151915290608090a185516306fdde0360e01b81529387858381845afa9485156104db5788956104b5575b50829087519283809263026d0d2360e11b82525afa9182156104ab578792610446575b50507fab13908bfc0af63d2c29b612200de382c99a64d707c27ea438d1a26dbb3b002893610432610440926113f4565b908651948594429286611396565b0390a151f35b90809250813d83116104a4575b61045d818361115c565b810103126104a0577fab13908bfc0af63d2c29b612200de382c99a64d707c27ea438d1a26dbb3b0028936104326104966104409361117e565b9250819550610402565b8580fd5b503d610453565b86513d89823e3d90fd5b839195506104d4903d808b833e6104cc818361115c565b81019061132a565b94906103df565b87513d8a823e3d90fd5b90508581813d831161051e575b6104fc818361115c565b8101031261051957516000805160206115f883398151915261038e565b600080fd5b503d6104f2565b8a513d8d823e3d90fd5b8281939297503d8311610559575b610547818361115c565b8101031261051957869051943861036f565b503d61053d565b8b513d8e823e3d90fd5b8281939296503d8311610594575b610582818361115c565b8101031261051957519286908261034b565b503d610578565b9092508681813d83116105c3575b6105b3818361115c565b8101031261051957519138610329565b503d6105a9565b6105d390611132565b6105de5789386102ff565b8980fd5b8b513d84823e3d90fd5b6105f590611132565b6106005782386102ae565b8280fd5b8d513d86823e3d90fd5b8480fd5b8095508a8092503d831161063c575b61062b818361115c565b81010312610519578d935138610281565b503d610621565b8e513d87823e3d90fd5b955096505050505061065f9150611132565b610672578989898f8a8f8a928a38610264565b8380fd5b513d87823e3d90fd5b61068890611132565b61060057823861021d565b61069c90611132565b6106725783386101ee565b809450898092503d83116106d4575b6106c0818361115c565b81010312610519576101b48d9351906101a9565b503d6106b6565b809450898092503d8311610708575b6106f4818361115c565b810103126105195761018a8d93519061017f565b503d6106ea565b61072b91503d808a833e610723818361115c565b810190611192565b38610136565b875162461bcd60e51b81526020818501526029818801527f45706f636820666f72207468697320696e737572616e636520686173206e6f7460448201526820657870697265642160b81b6064820152608490fd5b61079991503d808e833e610723818361115c565b38610107565b89513d8c823e3d90fd5b905034610600576107b93661111c565b8351630468d16d60e41b8082528185018490529293926001600160a01b0391602491907f000000000000000000000000000000000000000000000000000000000000000084169089818581855afa90811561079f57859161082e918c916110c7575b506108296002825114611216565b61127e565b51169388519263c52987cf60e01b845260209586858a81845afa948515610560578c95611098575b508a5163026d0d2360e11b80825295908d89828d81875afa908115610ec85790611062575b61088591506113f4565b13611007578688878b8e51948593849263ea859a2760e01b84528301525afa908115610560578c91610fd6575b50421115610f6e5786421015610f1e578a90858b518095819382528c8c8301525afa91821561079f578a92610f02575b50806108ed8361127e565b511693816108fa846112a1565b5116928a519263f9db242760e01b93848152898b8201528d898286818c5afa908115610ec85790610ed3575b6109319150156112b1565b8c8c518581528a8c820152898186818a5afa918215610ec85791610e97575b50610e5b57863b15610e57578b5163265ea1ef60e11b8082528b82018b9052600185830152908e81604481838d5af18015610e4b57610e34575b50908d9291863b15610672578d519081528a8c8201526001858201528381604481838b5af1908115610da0578491610e20575b50508c518581528a8c820152898186818a5afa908115610da0578491610def575b50883b15610672578d51633e04836560e01b808252818e018d9052868201929092528481604481838e5af1908115610d81578591610ddb575b50508d518681528b8d8201528a8187818d5afa908115610d81578591610daa575b50873b1561060e578e519182528b8d830152858201528381604481838b5af1908115610da0578491610d8c575b505080610a71836112a1565b511691883b15610672578d516329322e0560e01b8082528d82018d81526001600160a01b03959095166020860152938590829081900360400181838e5af1908115610d81578591610d6d575b5050610ac89061127e565b511690853b15610600578c51908152808b018a81526001600160a01b03909216602083015290829082908190604001038183895af18015610d6357610d4b575b50508951908b634d288ba760e01b93848452898b85015288848481895afa938415610ccc578294610d18575b508c51948552898b860152888584818b5afa948d8615610d0f578c8c918c938699610cd6575b5090869151998a9384928784528301525afa958615610ccc57899296610c9b575b508c5192839182528a8c83015281895afa908115610560578c91610c60575b508a519182526020820192909252604081019290925260608201526000805160206115f883398151915290608090a186516306fdde0360e01b81529488868281865afa958615610c56578996610c36575b5090839188518094819382525afa9182156104ab5787926104465750507fab13908bfc0af63d2c29b612200de382c99a64d707c27ea438d1a26dbb3b002893610432610440926113f4565b8492919650610c4e903d808c833e6104cc818361115c565b959091610beb565b88513d8b823e3d90fd5b90508681813d8311610c94575b610c77818361115c565b8101031261051957516000805160206115f8833981519152610b9a565b503d610c6d565b8281939297503d8311610cc5575b610cb3818361115c565b81010312610519578790519438610b7b565b503d610ca9565b8d513d84823e3d90fd5b955050505090945081813d8311610d08575b610cf2818361115c565b810103126105195751928c90888a8c8f86610b5a565b503d610ce8565b513d84823e3d90fd5b89809295508193503d8311610d44575b610d32818361115c565b81010312610519578c90519238610b34565b503d610d28565b610d5490611132565b610d5f578a38610b08565b8a80fd5b8c513d84823e3d90fd5b610d7690611132565b610672578338610abd565b508e513d86823e3d90fd5b610d9590611132565b610600578238610a65565b8e513d86823e3d90fd5b8095508b8092503d8311610dd4575b610dc3818361115c565b81010312610519578e935138610a38565b503d610db9565b610de490611132565b610672578338610a17565b8094508a8092503d8311610e19575b610e08818361115c565b81010312610519578d9251386109de565b503d610dfe565b610e2990611132565b6106005782386109bd565b610e42909e9193929e611132565b9c90913861098a565b8f8f51903d90823e3d90fd5b8c80fd5b508a5162461bcd60e51b8152808a018890526016818401527504572726f723a2054564c73206d7573742074626520360541b6044820152606490fd5b90508881813d8311610ec1575b610eae818361115c565b81010312610ebd575138610950565b8d80fd5b503d610ea4565b8e51903d90823e3d90fd5b508881813d8311610efb575b610ee9818361115c565b81010312610ebd576109319051610926565b503d610edf565b610f179192503d808c833e610723818361115c565b90386108e2565b895162461bcd60e51b81528089018790526025818701527f45706f636820666f72207468697320696e737572616e63652068617320657870604482015264697265642160d81b6064820152608490fd5b895162461bcd60e51b8152808901879052603d818701527f45706f636820686173206e6f7420737461727465642c2063616e6e6f7420696e60448201527f7375726520756e74696c2065706f6368206861732073746172746564210000006064820152608490fd5b90508681813d8311611000575b610fed818361115c565b81010312610ffc5751386108b2565b8b80fd5b503d610fe3565b8a5162461bcd60e51b8152808a018890526030818801527f43757272656e74207072696365206973206e6f7420617420746865207374726960448201526f6b65207072696365207461726765742160801b6064820152608490fd5b508881813d8311611091575b611078818361115c565b81010312610ebd5761108c6108859161117e565b61087b565b503d61106e565b9094508681813d83116110c0575b6110b0818361115c565b81010312610ffc57519338610856565b503d6110a6565b6110db91503d808e833e610723818361115c565b3861081b565b9050346106005760203660031901126106005735916001600160a01b038316830361111957506111126020926113f4565b9051908152f35b80fd5b6040906003190112610519576004359060243590565b67ffffffffffffffff811161114657604052565b634e487b7160e01b600052604160045260246000fd5b90601f8019910116810190811067ffffffffffffffff82111761114657604052565b51906001600160a01b038216820361051957565b90602090818382031261051957825167ffffffffffffffff93848211610519570181601f82011215610519578051938411611146578360051b90604051946111dc8584018761115c565b85528380860192820101928311610519578301905b8282106111ff575050505090565b83809161120b8461117e565b8152019101906111f1565b1561121d57565b60405162461bcd60e51b815260206004820152603360248201527f5468657265206973206e6f206d61726b657420617661696c61626c6520666f726044820152722074686973206d61726b657420496e6465782160681b6064820152608490fd5b80511561128b5760200190565b634e487b7160e01b600052603260045260246000fd5b80516001101561128b5760400190565b156112b857565b60405162461bcd60e51b815260206004820152601560248201527404572726f723a2054564c73206d757374206265203605c1b6044820152606490fd5b918091926000905b82821061131557501161130e575050565b6000910152565b915080602091830151818601520182916112fd565b60208183031261051957805167ffffffffffffffff9182821161051957019082601f830112156105195781519081116111465760405192611375601f8301601f19166020018561115c565b818452602082840101116105195761139391602080850191016112f5565b90565b919260809360c092979695978452602084015260a060408401526113c9815180928160a0870152602085870191016112f5565b601f80199101168201019460608201520152565b519069ffffffffffffffffffff8216820361051957565b60408051639820c73360e01b81526001600160a01b0392831660048201526020919082816024817f000000000000000000000000000000000000000000000000000000000000000088165afa80156115ec576000906115b7575b60a091506004835180968193633fabe5a360e21b8352165afa9283156115ac576000938480928192611557575b50600086131561151c5769ffffffffffffffffffff8091169116106114da57156114a457505090565b60649250519062461bcd60e51b82526004820152601060248201526f54696d657374616d70203d3d2030202160801b6044820152fd5b60648383519062461bcd60e51b825280600483015260248201527f526f756e6449442066726f6d204f7261636c65206973206f75746461746564216044820152fd5b835162461bcd60e51b81526004810186905260146024820152730436861696e6c696e6b207072696365203c3d20360641b6044820152606490fd5b955091505060a0843d82116115a4575b8161157460a0938361115c565b810103126111195750611586836113dd565b8284015161159b6080606087015196016113dd565b9094913861147b565b3d9150611567565b50513d6000823e3d90fd5b8382813d83116115e5575b6115cc818361115c565b8101031261111957506115e060a09161117e565b61144e565b503d6115c2565b82513d6000823e3d90fdfef3209bdfa08baafc0dce5fa27215ddf0df6f7a3a7abfbb996a832bdbb321f08ba2646970667358221220aae2f8e9cea60f187a26f95005dc3aec05219fe5886c59bf9d5a0358a02062c864736f6c634300080f0033",
    "linkReferences": {}
  },
  "methodIdentifiers": {
    "admin()": "f851a440",
    "getLatestPrice(address)": "16345f18",
    "triggerDepeg(uint256,uint256)": "bcbbcfe4",
    "triggerEndEpoch(uint256,uint256)": "cdfd29b3"
  },
  "id": 25
}