{
  "abi": [
    {
      "inputs": [
        {
          "internalType": "address",
          "name": "_factory",
          "type": "address"
        },
        {
          "internalType": "address",
          "name": "_admin",
          "type": "address"
        },
        {
          "internalType": "address",
          "name": "_l2Sequencer",
          "type": "address"
        }
      ],
      "stateMutability": "nonpayable",
      "type": "constructor"
    },
    {
      "inputs": [],
      "name": "AddressNotAdmin",
      "type": "error"
    },
    {
      "inputs": [
        {
          "internalType": "uint256",
          "name": "epoch",
          "type": "uint256"
        }
      ],
      "name": "EpochExpired",
      "type": "error"
    },
    {
      "inputs": [
        {
          "internalType": "uint256",
          "name": "epoch",
          "type": "uint256"
        }
      ],
      "name": "EpochNotExist",
      "type": "error"
    },
    {
      "inputs": [
        {
          "internalType": "uint256",
          "name": "epoch",
          "type": "uint256"
        }
      ],
      "name": "EpochNotExpired",
      "type": "error"
    },
    {
      "inputs": [
        {
          "internalType": "uint256",
          "name": "epoch",
          "type": "uint256"
        }
      ],
      "name": "EpochNotStarted",
      "type": "error"
    },
    {
      "inputs": [],
      "name": "GracePeriodNotOver",
      "type": "error"
    },
    {
      "inputs": [
        {
          "internalType": "uint256",
          "name": "marketId",
          "type": "uint256"
        }
      ],
      "name": "MarketDoesNotExist",
      "type": "error"
    },
    {
      "inputs": [],
      "name": "NotZeroTVL",
      "type": "error"
    },
    {
      "inputs": [],
      "name": "OraclePriceZero",
      "type": "error"
    },
    {
      "inputs": [
        {
          "internalType": "int256",
          "name": "price",
          "type": "int256"
        }
      ],
      "name": "PriceNotAtStrikePrice",
      "type": "error"
    },
    {
      "inputs": [],
      "name": "RoundIDOutdated",
      "type": "error"
    },
    {
      "inputs": [],
      "name": "SequencerDown",
      "type": "error"
    },
    {
      "inputs": [],
      "name": "TimestampZero",
      "type": "error"
    },
    {
      "inputs": [],
      "name": "ZeroAddress",
      "type": "error"
    },
    {
      "anonymous": false,
      "inputs": [
        {
          "indexed": false,
          "internalType": "bytes32",
          "name": "epochMarketID",
          "type": "bytes32"
        },
        {
          "components": [
            {
              "internalType": "uint256",
              "name": "RISK_claimTVL",
              "type": "uint256"
            },
            {
              "internalType": "uint256",
              "name": "RISK_finalTVL",
              "type": "uint256"
            },
            {
              "internalType": "uint256",
              "name": "INSR_claimTVL",
              "type": "uint256"
            },
            {
              "internalType": "uint256",
              "name": "INSR_finalTVL",
              "type": "uint256"
            }
          ],
          "indexed": false,
          "internalType": "struct Controller.VaultTVL",
          "name": "tvl",
          "type": "tuple"
        },
        {
          "indexed": false,
          "internalType": "bool",
          "name": "isDisaster",
          "type": "bool"
        },
        {
          "indexed": false,
          "internalType": "uint256",
          "name": "epoch",
          "type": "uint256"
        },
        {
          "indexed": false,
          "internalType": "uint256",
          "name": "time",
          "type": "uint256"
        },
        {
          "indexed": false,
          "internalType": "int256",
          "name": "depegPrice",
          "type": "int256"
        }
      ],
      "name": "DepegInsurance",
      "type": "event"
    },
    {
      "inputs": [],
      "name": "VAULTS_LENGTH",
      "outputs": [
        {
          "internalType": "uint256",
          "name": "",
          "type": "uint256"
        }
      ],
      "stateMutability": "view",
      "type": "function"
    },
    {
      "inputs": [],
      "name": "admin",
      "outputs": [
        {
          "internalType": "address",
          "name": "",
          "type": "address"
        }
      ],
      "stateMutability": "view",
      "type": "function"
    },
    {
      "inputs": [
        {
          "internalType": "address",
          "name": "_token",
          "type": "address"
        }
      ],
      "name": "getLatestPrice",
      "outputs": [
        {
          "internalType": "int256",
          "name": "nowPrice",
          "type": "int256"
        }
      ],
      "stateMutability": "view",
      "type": "function"
    },
    {
      "inputs": [],
      "name": "getVaultFactory",
      "outputs": [
        {
          "internalType": "address",
          "name": "",
          "type": "address"
        }
      ],
      "stateMutability": "view",
      "type": "function"
    },
    {
      "inputs": [
        {
          "internalType": "uint256",
          "name": "marketIndex",
          "type": "uint256"
        },
        {
          "internalType": "uint256",
          "name": "epochEnd",
          "type": "uint256"
        }
      ],
      "name": "triggerDepeg",
      "outputs": [],
      "stateMutability": "nonpayable",
      "type": "function"
    },
    {
      "inputs": [
        {
          "internalType": "uint256",
          "name": "marketIndex",
          "type": "uint256"
        },
        {
          "internalType": "uint256",
          "name": "epochEnd",
          "type": "uint256"
        }
      ],
      "name": "triggerEndEpoch",
      "outputs": [],
      "stateMutability": "nonpayable",
      "type": "function"
    },
    {
      "inputs": [],
      "name": "vaultFactory",
      "outputs": [
        {
          "internalType": "contract VaultFactory",
          "name": "",
          "type": "address"
        }
      ],
      "stateMutability": "view",
      "type": "function"
    }
  ],
  "bytecode": {
    "object": "0x60c06040523480156200001157600080fd5b5060405162001f0538038062001f058339810160408190526200003491620000fb565b6001600160a01b0382166200005c5760405163d92e233d60e01b815260040160405180910390fd5b6001600160a01b038316620000845760405163d92e233d60e01b815260040160405180910390fd5b6001600160a01b038116620000ac5760405163d92e233d60e01b815260040160405180910390fd5b6001600160a01b0391821660805291811660a052600080546001600160a01b0319169290911691909117905562000145565b80516001600160a01b0381168114620000f657600080fd5b919050565b6000806000606084860312156200011157600080fd5b6200011c84620000de565b92506200012c60208501620000de565b91506200013c60408501620000de565b90509250925092565b60805160a051611d71620001946000396000818160aa015281816101170152818161025501528181610455015281816107be01528181610fd301526110a90152600061013e0152611d716000f3fe608060405234801561001057600080fd5b506004361061007d5760003560e01c8063c4e8adf31161005b578063c4e8adf3146100f7578063cdfd29b3146100ff578063d8a06f7314610112578063f851a4401461013957600080fd5b806316345f181461008257806318bcb284146100a8578063bcbbcfe4146100e2575b600080fd5b6100956100903660046118de565b610160565b6040519081526020015b60405180910390f35b7f00000000000000000000000000000000000000000000000000000000000000005b6040516001600160a01b03909116815260200161009f565b6100f56100f0366004611902565b61044f565b005b610095600281565b6100f561010d366004611902565b610fba565b6100ca7f000000000000000000000000000000000000000000000000000000000000000081565b6100ca7f000000000000000000000000000000000000000000000000000000000000000081565b60008060008060009054906101000a90046001600160a01b03166001600160a01b031663feaf968c6040518163ffffffff1660e01b815260040160a060405180830381865afa1580156101b7573d6000803e3d6000fd5b505050506040513d601f19601f820116820180604052508101906101db9190611943565b5091945092505082159050806102035760405162032b3d60e81b815260040160405180910390fd5b600061020f83426119a9565b9050610e1081116102335760405163d15f73b560e01b815260040160405180910390fd5b604051639820c73360e01b81526001600160a01b0387811660048301526000917f000000000000000000000000000000000000000000000000000000000000000090911690639820c73390602401602060405180830381865afa15801561029e573d6000803e3d6000fd5b505050506040513d601f19601f820116820180604052508101906102c291906119cb565b9050600080600080846001600160a01b031663feaf968c6040518163ffffffff1660e01b815260040160a060405180830381865afa158015610308573d6000803e3d6000fd5b505050506040513d601f19601f8201168201806040525081019061032c9190611943565b9450945050935093506000856001600160a01b031663313ce5676040518163ffffffff1660e01b8152600401602060405180830381865afa158015610375573d6000803e3d6000fd5b505050506040513d601f19601f8201168201806040525081019061039991906119e8565b6103a490600a611af1565b6103b690678ac7230489e80000611b00565b90506103c28185611b3c565b9350600084136103e5576040516315e5656b60e21b815260040160405180910390fd5b8469ffffffffffffffffffff168269ffffffffffffffffffff16101561041e576040516346e8c97560e11b815260040160405180910390fd5b8260000361043f57604051632f9ad49d60e11b815260040160405180910390fd5b50919a9950505050505050505050565b818160007f00000000000000000000000000000000000000000000000000000000000000006001600160a01b031663468d16d0846040518263ffffffff1660e01b81526004016104a191815260200190565b600060405180830381865afa1580156104be573d6000803e3d6000fd5b505050506040513d6000823e601f3d908101601f191682016040526104e69190810190611bd7565b9050600281511461051257604051630fff01a760e31b8152600481018490526024015b60405180910390fd5b60008160008151811061052757610527611c9c565b602002602001015190506000819050806001600160a01b0316630b8a295a856040518263ffffffff1660e01b815260040161056491815260200190565b602060405180830381865afa158015610581573d6000803e3d6000fd5b505050506040513d601f19601f820116820180604052508101906105a59190611cb2565b15156000036105ca5760405163119f6f9f60e31b815260048101859052602401610509565b61062f816001600160a01b03166304da1a466040518163ffffffff1660e01b8152600401602060405180830381865afa15801561060b573d6000803e3d6000fd5b505050506040513d601f19601f8201168201806040525081019061009091906119cb565b816001600160a01b031663c52987cf6040518163ffffffff1660e01b8152600401602060405180830381865afa15801561066d573d6000803e3d6000fd5b505050506040513d601f19601f820116820180604052508101906106919190611cd4565b12156106f4576106d8816001600160a01b03166304da1a466040518163ffffffff1660e01b8152600401602060405180830381865afa15801561060b573d6000803e3d6000fd5b604051632067f80160e21b815260040161050991815260200190565b60405163ea859a2760e01b81526004810185905242906001600160a01b0383169063ea859a2790602401602060405180830381865afa15801561073b573d6000803e3d6000fd5b505050506040513d601f19601f8201168201806040525081019061075f9190611cd4565b1115610781576040516319b043d160e21b815260048101859052602401610509565b834211156107a55760405163f2149bd160e01b815260048101859052602401610509565b604051630468d16d60e41b8152600481018890526000907f00000000000000000000000000000000000000000000000000000000000000006001600160a01b03169063468d16d090602401600060405180830381865afa15801561080d573d6000803e3d6000fd5b505050506040513d6000823e601f3d908101601f191682016040526108359190810190611bd7565b905060008160008151811061084c5761084c611c9c565b6020026020010151905060008260018151811061086b5761086b611c9c565b60200260200101519050816001600160a01b031663f9db24278a6040518263ffffffff1660e01b81526004016108a391815260200190565b602060405180830381865afa1580156108c0573d6000803e3d6000fd5b505050506040513d601f19601f820116820180604052508101906108e49190611cd4565b156109025760405163ea6cde4560e01b815260040160405180910390fd5b60405163f9db242760e01b8152600481018a90526001600160a01b0382169063f9db242790602401602060405180830381865afa158015610947573d6000803e3d6000fd5b505050506040513d601f19601f8201168201806040525081019061096b9190611cd4565b156109895760405163ea6cde4560e01b815260040160405180910390fd5b60405163265ea1ef60e11b8152600481018a9052600160248201526001600160a01b03831690634cbd43de90604401600060405180830381600087803b1580156109d257600080fd5b505af11580156109e6573d6000803e3d6000fd5b505060405163265ea1ef60e11b8152600481018c9052600160248201526001600160a01b0384169250634cbd43de9150604401600060405180830381600087803b158015610a3357600080fd5b505af1158015610a47573d6000803e3d6000fd5b50505050816001600160a01b0316633e0483658a836001600160a01b031663f9db24278d6040518263ffffffff1660e01b8152600401610a8991815260200190565b602060405180830381865afa158015610aa6573d6000803e3d6000fd5b505050506040513d601f19601f82011682018060405250810190610aca9190611cd4565b6040516001600160e01b031960e085901b16815260048101929092526024820152604401600060405180830381600087803b158015610b0857600080fd5b505af1158015610b1c573d6000803e3d6000fd5b50505050806001600160a01b0316633e0483658a846001600160a01b031663f9db24278d6040518263ffffffff1660e01b8152600401610b5e91815260200190565b602060405180830381865afa158015610b7b573d6000803e3d6000fd5b505050506040513d601f19601f82011682018060405250810190610b9f9190611cd4565b6040516001600160e01b031960e085901b16815260048101929092526024820152604401600060405180830381600087803b158015610bdd57600080fd5b505af1158015610bf1573d6000803e3d6000fd5b50506040516329322e0560e01b8152600481018c90526001600160a01b038481166024830152851692506329322e059150604401600060405180830381600087803b158015610c3f57600080fd5b505af1158015610c53573d6000803e3d6000fd5b50506040516329322e0560e01b8152600481018c90526001600160a01b038581166024830152841692506329322e059150604401600060405180830381600087803b158015610ca157600080fd5b505af1158015610cb5573d6000803e3d6000fd5b5050604080516080810191829052634d288ba760e01b909152608481018c9052600092509050806001600160a01b038416634d288ba760a48301602060405180830381865afa158015610d0c573d6000803e3d6000fd5b505050506040513d601f19601f82011682018060405250810190610d309190611cd4565b8152602001846001600160a01b0316634d288ba78d6040518263ffffffff1660e01b8152600401610d6391815260200190565b602060405180830381865afa158015610d80573d6000803e3d6000fd5b505050506040513d601f19601f82011682018060405250810190610da49190611cd4565b8152602001836001600160a01b031663f9db24278d6040518263ffffffff1660e01b8152600401610dd791815260200190565b602060405180830381865afa158015610df4573d6000803e3d6000fd5b505050506040513d601f19601f82011682018060405250810190610e189190611cd4565b8152602001846001600160a01b031663f9db24278d6040518263ffffffff1660e01b8152600401610e4b91815260200190565b602060405180830381865afa158015610e68573d6000803e3d6000fd5b505050506040513d601f19601f82011682018060405250810190610e8c9190611cd4565b905260405163ea859a2760e01b8152600481018c90529091507f4c48fdcd7e3cb84b81aa54aa5dd04105736ae1bc179d84611c6fa5a642e803f2908c906001600160a01b0386169063ea859a2790602401602060405180830381865afa158015610efa573d6000803e3d6000fd5b505050506040513d601f19601f82011682018060405250810190610f1e9190611cd4565b604080516020810193909352820152606081018c9052608001604051602081830303815290604052805190602001208260008d42610f93896001600160a01b03166304da1a466040518163ffffffff1660e01b8152600401602060405180830381865afa15801561060b573d6000803e3d6000fd5b604051610fa596959493929190611ced565b60405180910390a15050505050505050505050565b604051630468d16d60e41b8152600481018390526002907f00000000000000000000000000000000000000000000000000000000000000006001600160a01b03169063468d16d090602401600060405180830381865afa158015611022573d6000803e3d6000fd5b505050506040513d6000823e601f3d908101601f1916820160405261104a9190810190611bd7565b511461106c57604051630fff01a760e31b815260048101839052602401610509565b8042101561109057604051630b6ead5b60e01b815260048101829052602401610509565b604051630468d16d60e41b8152600481018390526000907f00000000000000000000000000000000000000000000000000000000000000006001600160a01b03169063468d16d090602401600060405180830381865afa1580156110f8573d6000803e3d6000fd5b505050506040513d6000823e601f3d908101601f191682016040526111209190810190611bd7565b905060008160008151811061113757611137611c9c565b6020026020010151905060008260018151811061115657611156611c9c565b60200260200101519050816001600160a01b0316630b8a295a856040518263ffffffff1660e01b815260040161118e91815260200190565b602060405180830381865afa1580156111ab573d6000803e3d6000fd5b505050506040513d601f19601f820116820180604052508101906111cf9190611cb2565b158061124157506040516305c514ad60e11b8152600481018590526001600160a01b03821690630b8a295a90602401602060405180830381865afa15801561121b573d6000803e3d6000fd5b505050506040513d601f19601f8201168201806040525081019061123f9190611cb2565b155b156112625760405163119f6f9f60e31b815260048101859052602401610509565b60405163f9db242760e01b8152600481018590526001600160a01b0383169063f9db242790602401602060405180830381865afa1580156112a7573d6000803e3d6000fd5b505050506040513d601f19601f820116820180604052508101906112cb9190611cd4565b156112e95760405163ea6cde4560e01b815260040160405180910390fd5b60405163f9db242760e01b8152600481018590526001600160a01b0382169063f9db242790602401602060405180830381865afa15801561132e573d6000803e3d6000fd5b505050506040513d601f19601f820116820180604052508101906113529190611cd4565b156113705760405163ea6cde4560e01b815260040160405180910390fd5b60405163265ea1ef60e11b815260048101859052600060248201526001600160a01b03831690634cbd43de90604401600060405180830381600087803b1580156113b957600080fd5b505af11580156113cd573d6000803e3d6000fd5b505060405163265ea1ef60e11b815260048101879052600060248201526001600160a01b0384169250634cbd43de9150604401600060405180830381600087803b15801561141a57600080fd5b505af115801561142e573d6000803e3d6000fd5b5050604051633e04836560e01b815260048101879052600060248201526001600160a01b0385169250633e0483659150604401600060405180830381600087803b15801561147b57600080fd5b505af115801561148f573d6000803e3d6000fd5b50505050806001600160a01b0316633e04836585846001600160a01b031663f9db2427886040518263ffffffff1660e01b81526004016114d191815260200190565b602060405180830381865afa1580156114ee573d6000803e3d6000fd5b505050506040513d601f19601f820116820180604052508101906115129190611cd4565b6040516001600160e01b031960e085901b16815260048101929092526024820152604401600060405180830381600087803b15801561155057600080fd5b505af1158015611564573d6000803e3d6000fd5b50506040516329322e0560e01b8152600481018790526001600160a01b038481166024830152851692506329322e059150604401600060405180830381600087803b1580156115b257600080fd5b505af11580156115c6573d6000803e3d6000fd5b5050604080516080810191829052634d288ba760e01b90915260848101879052600092509050806001600160a01b038416634d288ba760a48301602060405180830381865afa15801561161d573d6000803e3d6000fd5b505050506040513d601f19601f820116820180604052508101906116419190611cd4565b8152602001846001600160a01b0316634d288ba7886040518263ffffffff1660e01b815260040161167491815260200190565b602060405180830381865afa158015611691573d6000803e3d6000fd5b505050506040513d601f19601f820116820180604052508101906116b59190611cd4565b8152602001836001600160a01b031663f9db2427886040518263ffffffff1660e01b81526004016116e891815260200190565b602060405180830381865afa158015611705573d6000803e3d6000fd5b505050506040513d601f19601f820116820180604052508101906117299190611cd4565b8152602001846001600160a01b031663f9db2427886040518263ffffffff1660e01b815260040161175c91815260200190565b602060405180830381865afa158015611779573d6000803e3d6000fd5b505050506040513d601f19601f8201168201806040525081019061179d9190611cd4565b905260405163ea859a2760e01b8152600481018790529091507f4c48fdcd7e3cb84b81aa54aa5dd04105736ae1bc179d84611c6fa5a642e803f29087906001600160a01b0386169063ea859a2790602401602060405180830381865afa15801561180b573d6000803e3d6000fd5b505050506040513d601f19601f8201168201806040525081019061182f9190611cd4565b604080516020810193909352820152606081018790526080016040516020818303038152906040528051906020012082600088426118a4896001600160a01b03166304da1a466040518163ffffffff1660e01b8152600401602060405180830381865afa15801561060b573d6000803e3d6000fd5b6040516118b696959493929190611ced565b60405180910390a1505050505050565b6001600160a01b03811681146118db57600080fd5b50565b6000602082840312156118f057600080fd5b81356118fb816118c6565b9392505050565b6000806040838503121561191557600080fd5b50508035926020909101359150565b805169ffffffffffffffffffff8116811461193e57600080fd5b919050565b600080600080600060a0868803121561195b57600080fd5b61196486611924565b945060208601519350604086015192506060860151915061198760808701611924565b90509295509295909350565b634e487b7160e01b600052601160045260246000fd5b6000828210156119bb576119bb611993565b500390565b805161193e816118c6565b6000602082840312156119dd57600080fd5b81516118fb816118c6565b6000602082840312156119fa57600080fd5b815160ff811681146118fb57600080fd5b600181815b80851115611a46578160001904821115611a2c57611a2c611993565b80851615611a3957918102915b93841c9390800290611a10565b509250929050565b600082611a5d57506001611aeb565b81611a6a57506000611aeb565b8160018114611a805760028114611a8a57611aa6565b6001915050611aeb565b60ff841115611a9b57611a9b611993565b50506001821b611aeb565b5060208310610133831016604e8410600b8410161715611ac9575081810a611aeb565b611ad38383611a0b565b8060001904821115611ae757611ae7611993565b0290505b92915050565b60006118fb60ff841683611a4e565b600082611b1d57634e487b7160e01b600052601260045260246000fd5b600160ff1b821460001984141615611b3757611b37611993565b500590565b60006001600160ff1b0381841382841380821686840486111615611b6257611b62611993565b600160ff1b6000871282811687830589121615611b8157611b81611993565b60008712925087820587128484161615611b9d57611b9d611993565b87850587128184161615611bb357611bb3611993565b505050929093029392505050565b634e487b7160e01b600052604160045260246000fd5b60006020808385031215611bea57600080fd5b825167ffffffffffffffff80821115611c0257600080fd5b818501915085601f830112611c1657600080fd5b815181811115611c2857611c28611bc1565b8060051b604051601f19603f83011681018181108582111715611c4d57611c4d611bc1565b604052918252848201925083810185019188831115611c6b57600080fd5b938501935b82851015611c9057611c81856119c0565b84529385019392850192611c70565b98975050505050505050565b634e487b7160e01b600052603260045260246000fd5b600060208284031215611cc457600080fd5b815180151581146118fb57600080fd5b600060208284031215611ce657600080fd5b5051919050565b958652845160208088019190915285015160408088019190915285015160608088019190915290940151608086015291151560a085015260c084015260e0830152610100820152610120019056fea2646970667358221220d175daa8c29188ae4cec118f3d7039c9898d2ab747b6263ee07139d95eee33bb64736f6c634300080f0033",
    "linkReferences": {}
  },
  "methodIdentifiers": {
    "VAULTS_LENGTH()": "c4e8adf3",
    "admin()": "f851a440",
    "getLatestPrice(address)": "16345f18",
    "getVaultFactory()": "18bcb284",
    "triggerDepeg(uint256,uint256)": "bcbbcfe4",
    "triggerEndEpoch(uint256,uint256)": "cdfd29b3",
    "vaultFactory()": "d8a06f73"
  },
  "id": 28
}