{
  "abi": [
    {
      "inputs": [
        {
          "internalType": "address",
          "name": "_factory",
          "type": "address"
        },
        {
          "internalType": "address",
          "name": "_admin",
          "type": "address"
        },
        {
          "internalType": "address",
          "name": "_l2Sequencer",
          "type": "address"
        }
      ],
      "stateMutability": "nonpayable",
      "type": "constructor"
    },
    {
      "inputs": [],
      "name": "GracePeriodNotOver",
      "type": "error"
    },
    {
      "inputs": [],
      "name": "SequencerDown",
      "type": "error"
    },
    {
      "anonymous": false,
      "inputs": [
        {
          "indexed": false,
          "internalType": "bytes32",
          "name": "epochMarketID",
          "type": "bytes32"
        },
        {
          "components": [
            {
              "internalType": "uint256",
              "name": "RISK_claimTVL",
              "type": "uint256"
            },
            {
              "internalType": "uint256",
              "name": "RISK_finalTVL",
              "type": "uint256"
            },
            {
              "internalType": "uint256",
              "name": "INSR_claimTVL",
              "type": "uint256"
            },
            {
              "internalType": "uint256",
              "name": "INSR_finalTVL",
              "type": "uint256"
            }
          ],
          "indexed": false,
          "internalType": "struct Controller.VaultTVL",
          "name": "tvl",
          "type": "tuple"
        },
        {
          "indexed": false,
          "internalType": "bool",
          "name": "isDisaster",
          "type": "bool"
        },
        {
          "indexed": false,
          "internalType": "uint256",
          "name": "epoch",
          "type": "uint256"
        },
        {
          "indexed": false,
          "internalType": "uint256",
          "name": "time",
          "type": "uint256"
        },
        {
          "indexed": false,
          "internalType": "int256",
          "name": "depegPrice",
          "type": "int256"
        }
      ],
      "name": "DepegInsurance",
      "type": "event"
    },
    {
      "inputs": [],
      "name": "admin",
      "outputs": [
        {
          "internalType": "address",
          "name": "",
          "type": "address"
        }
      ],
      "stateMutability": "view",
      "type": "function"
    },
    {
      "inputs": [
        {
          "internalType": "address",
          "name": "_token",
          "type": "address"
        }
      ],
      "name": "getLatestPrice",
      "outputs": [
        {
          "internalType": "int256",
          "name": "nowPrice",
          "type": "int256"
        }
      ],
      "stateMutability": "view",
      "type": "function"
    },
    {
      "inputs": [],
      "name": "getVaultFactory",
      "outputs": [
        {
          "internalType": "address",
          "name": "",
          "type": "address"
        }
      ],
      "stateMutability": "view",
      "type": "function"
    },
    {
      "inputs": [
        {
          "internalType": "uint256",
          "name": "marketIndex",
          "type": "uint256"
        },
        {
          "internalType": "uint256",
          "name": "epochEnd",
          "type": "uint256"
        }
      ],
      "name": "triggerDepeg",
      "outputs": [],
      "stateMutability": "nonpayable",
      "type": "function"
    },
    {
      "inputs": [
        {
          "internalType": "uint256",
          "name": "marketIndex",
          "type": "uint256"
        },
        {
          "internalType": "uint256",
          "name": "epochEnd",
          "type": "uint256"
        }
      ],
      "name": "triggerEndEpoch",
      "outputs": [],
      "stateMutability": "nonpayable",
      "type": "function"
    },
    {
      "inputs": [],
      "name": "vaultFactory",
      "outputs": [
        {
          "internalType": "contract VaultFactory",
          "name": "",
          "type": "address"
        }
      ],
      "stateMutability": "view",
      "type": "function"
    }
  ],
  "bytecode": {
    "object": "0x60c06040523480156200001157600080fd5b5060405162001f5438038062001f54833981016040819052620000349162000142565b6001600160a01b038216620000905760405162461bcd60e51b815260206004820181905260248201527f61646d696e2063616e6e6f7420626520746865207a65726f206164647265737360448201526064015b60405180910390fd5b6001600160a01b038316620000f35760405162461bcd60e51b815260206004820152602260248201527f666163746f72792063616e6e6f7420626520746865207a65726f206164647265604482015261737360f01b606482015260840162000087565b6001600160a01b0391821660805291811660a052600080546001600160a01b031916929091169190911790556200018c565b80516001600160a01b03811681146200013d57600080fd5b919050565b6000806000606084860312156200015857600080fd5b620001638462000125565b9250620001736020850162000125565b9150620001836040850162000125565b90509250925092565b60805160a051611d7a620001da60003960008181608f0152818160f401528181610232015281816104ab015281816108050152818161103e01526111500152600061011b0152611d7a6000f3fe608060405234801561001057600080fd5b50600436106100625760003560e01c806316345f181461006757806318bcb2841461008d578063bcbbcfe4146100c7578063cdfd29b3146100dc578063d8a06f73146100ef578063f851a44014610116575b600080fd5b61007a610075366004611887565b61013d565b6040519081526020015b60405180910390f35b7f00000000000000000000000000000000000000000000000000000000000000005b6040516001600160a01b039091168152602001610084565b6100da6100d53660046118ab565b6104a5565b005b6100da6100ea3660046118ab565b611028565b6100af7f000000000000000000000000000000000000000000000000000000000000000081565b6100af7f000000000000000000000000000000000000000000000000000000000000000081565b60008060008060009054906101000a90046001600160a01b03166001600160a01b031663feaf968c6040518163ffffffff1660e01b815260040160a060405180830381865afa158015610194573d6000803e3d6000fd5b505050506040513d601f19601f820116820180604052508101906101b891906118ec565b5091945092505082159050806101e05760405162032b3d60e81b815260040160405180910390fd5b60006101ec8342611952565b9050610e1081116102105760405163d15f73b560e01b815260040160405180910390fd5b604051639820c73360e01b81526001600160a01b0387811660048301526000917f000000000000000000000000000000000000000000000000000000000000000090911690639820c73390602401602060405180830381865afa15801561027b573d6000803e3d6000fd5b505050506040513d601f19601f8201168201806040525081019061029f9190611974565b9050600080600080846001600160a01b031663feaf968c6040518163ffffffff1660e01b815260040160a060405180830381865afa1580156102e5573d6000803e3d6000fd5b505050506040513d601f19601f8201168201806040525081019061030991906118ec565b9450945050935093506000856001600160a01b031663313ce5676040518163ffffffff1660e01b8152600401602060405180830381865afa158015610352573d6000803e3d6000fd5b505050506040513d601f19601f820116820180604052508101906103769190611991565b61038190600a611a9a565b61039390678ac7230489e80000611aa9565b905061039f8185611ae5565b9350600084136103ea5760405162461bcd60e51b815260206004820152601160248201527004f7261636c65207072696365203c3d203607c1b60448201526064015b60405180910390fd5b8469ffffffffffffffffffff168269ffffffffffffffffffff1610156104525760405162461bcd60e51b815260206004820181905260248201527f526f756e6449442066726f6d204f7261636c65206973206f757464617465642160448201526064016103e1565b826000036104955760405162461bcd60e51b815260206004820152601060248201526f54696d657374616d70203d3d2030202160801b60448201526064016103e1565b50919a9950505050505050505050565b818160007f00000000000000000000000000000000000000000000000000000000000000006001600160a01b031663468d16d0846040518263ffffffff1660e01b81526004016104f791815260200190565b600060405180830381865afa158015610514573d6000803e3d6000fd5b505050506040513d6000823e601f3d908101601f1916820160405261053c9190810190611b80565b9050805160021461055f5760405162461bcd60e51b81526004016103e190611c45565b60008160008151811061057457610574611c98565b6020026020010151905060008190506105e8816001600160a01b03166304da1a466040518163ffffffff1660e01b8152600401602060405180830381865afa1580156105c4573d6000803e3d6000fd5b505050506040513d601f19601f820116820180604052508101906100759190611974565b816001600160a01b031663c52987cf6040518163ffffffff1660e01b8152600401602060405180830381865afa158015610626573d6000803e3d6000fd5b505050506040513d601f19601f8201168201806040525081019061064a9190611cae565b12156106b15760405162461bcd60e51b815260206004820152603060248201527f43757272656e74207072696365206973206e6f7420617420746865207374726960448201526f6b65207072696365207461726765742160801b60648201526084016103e1565b60405163ea859a2760e01b81526004810185905242906001600160a01b0383169063ea859a2790602401602060405180830381865afa1580156106f8573d6000803e3d6000fd5b505050506040513d601f19601f8201168201806040525081019061071c9190611cae565b1061078f5760405162461bcd60e51b815260206004820152603d60248201527f45706f636820686173206e6f7420737461727465642c2063616e6e6f7420696e60448201527f7375726520756e74696c2065706f63682068617320737461727465642100000060648201526084016103e1565b8342106107ec5760405162461bcd60e51b815260206004820152602560248201527f45706f636820666f72207468697320696e737572616e63652068617320657870604482015264697265642160d81b60648201526084016103e1565b604051630468d16d60e41b8152600481018890526000907f00000000000000000000000000000000000000000000000000000000000000006001600160a01b03169063468d16d090602401600060405180830381865afa158015610854573d6000803e3d6000fd5b505050506040513d6000823e601f3d908101601f1916820160405261087c9190810190611b80565b905060008160008151811061089357610893611c98565b602002602001015190506000826001815181106108b2576108b2611c98565b60200260200101519050816001600160a01b031663f9db24278a6040518263ffffffff1660e01b81526004016108ea91815260200190565b602060405180830381865afa158015610907573d6000803e3d6000fd5b505050506040513d601f19601f8201168201806040525081019061092b9190611cae565b156109485760405162461bcd60e51b81526004016103e190611cc7565b60405163f9db242760e01b8152600481018a90526001600160a01b0382169063f9db242790602401602060405180830381865afa15801561098d573d6000803e3d6000fd5b505050506040513d601f19601f820116820180604052508101906109b19190611cae565b156109f75760405162461bcd60e51b815260206004820152601660248201527504572726f723a2054564c73206d7573742074626520360541b60448201526064016103e1565b60405163265ea1ef60e11b8152600481018a9052600160248201526001600160a01b03831690634cbd43de90604401600060405180830381600087803b158015610a4057600080fd5b505af1158015610a54573d6000803e3d6000fd5b505060405163265ea1ef60e11b8152600481018c9052600160248201526001600160a01b0384169250634cbd43de9150604401600060405180830381600087803b158015610aa157600080fd5b505af1158015610ab5573d6000803e3d6000fd5b50505050816001600160a01b0316633e0483658a836001600160a01b031663f9db24278d6040518263ffffffff1660e01b8152600401610af791815260200190565b602060405180830381865afa158015610b14573d6000803e3d6000fd5b505050506040513d601f19601f82011682018060405250810190610b389190611cae565b6040516001600160e01b031960e085901b16815260048101929092526024820152604401600060405180830381600087803b158015610b7657600080fd5b505af1158015610b8a573d6000803e3d6000fd5b50505050806001600160a01b0316633e0483658a846001600160a01b031663f9db24278d6040518263ffffffff1660e01b8152600401610bcc91815260200190565b602060405180830381865afa158015610be9573d6000803e3d6000fd5b505050506040513d601f19601f82011682018060405250810190610c0d9190611cae565b6040516001600160e01b031960e085901b16815260048101929092526024820152604401600060405180830381600087803b158015610c4b57600080fd5b505af1158015610c5f573d6000803e3d6000fd5b50506040516329322e0560e01b8152600481018c90526001600160a01b038481166024830152851692506329322e059150604401600060405180830381600087803b158015610cad57600080fd5b505af1158015610cc1573d6000803e3d6000fd5b50506040516329322e0560e01b8152600481018c90526001600160a01b038581166024830152841692506329322e059150604401600060405180830381600087803b158015610d0f57600080fd5b505af1158015610d23573d6000803e3d6000fd5b5050604080516080810191829052634d288ba760e01b909152608481018c9052600092509050806001600160a01b038416634d288ba760a48301602060405180830381865afa158015610d7a573d6000803e3d6000fd5b505050506040513d601f19601f82011682018060405250810190610d9e9190611cae565b8152602001846001600160a01b0316634d288ba78d6040518263ffffffff1660e01b8152600401610dd191815260200190565b602060405180830381865afa158015610dee573d6000803e3d6000fd5b505050506040513d601f19601f82011682018060405250810190610e129190611cae565b8152602001836001600160a01b031663f9db24278d6040518263ffffffff1660e01b8152600401610e4591815260200190565b602060405180830381865afa158015610e62573d6000803e3d6000fd5b505050506040513d601f19601f82011682018060405250810190610e869190611cae565b8152602001846001600160a01b031663f9db24278d6040518263ffffffff1660e01b8152600401610eb991815260200190565b602060405180830381865afa158015610ed6573d6000803e3d6000fd5b505050506040513d601f19601f82011682018060405250810190610efa9190611cae565b905260405163ea859a2760e01b8152600481018c90529091507f4c48fdcd7e3cb84b81aa54aa5dd04105736ae1bc179d84611c6fa5a642e803f2908c906001600160a01b0386169063ea859a2790602401602060405180830381865afa158015610f68573d6000803e3d6000fd5b505050506040513d601f19601f82011682018060405250810190610f8c9190611cae565b604080516020810193909352820152606081018c9052608001604051602081830303815290604052805190602001208260008d42611001896001600160a01b03166304da1a466040518163ffffffff1660e01b8152600401602060405180830381865afa1580156105c4573d6000803e3d6000fd5b60405161101396959493929190611cf6565b60405180910390a15050505050505050505050565b604051630468d16d60e41b8152600481018390527f00000000000000000000000000000000000000000000000000000000000000006001600160a01b03169063468d16d090602401600060405180830381865afa15801561108d573d6000803e3d6000fd5b505050506040513d6000823e601f3d908101601f191682016040526110b59190810190611b80565b516002146110d55760405162461bcd60e51b81526004016103e190611c45565b804210156111375760405162461bcd60e51b815260206004820152602960248201527f45706f636820666f72207468697320696e737572616e636520686173206e6f7460448201526820657870697265642160b81b60648201526084016103e1565b604051630468d16d60e41b8152600481018390526000907f00000000000000000000000000000000000000000000000000000000000000006001600160a01b03169063468d16d090602401600060405180830381865afa15801561119f573d6000803e3d6000fd5b505050506040513d6000823e601f3d908101601f191682016040526111c79190810190611b80565b90506000816000815181106111de576111de611c98565b602002602001015190506000826001815181106111fd576111fd611c98565b60200260200101519050816001600160a01b031663f9db2427856040518263ffffffff1660e01b815260040161123591815260200190565b602060405180830381865afa158015611252573d6000803e3d6000fd5b505050506040513d601f19601f820116820180604052508101906112769190611cae565b156112935760405162461bcd60e51b81526004016103e190611cc7565b60405163f9db242760e01b8152600481018590526001600160a01b0382169063f9db242790602401602060405180830381865afa1580156112d8573d6000803e3d6000fd5b505050506040513d601f19601f820116820180604052508101906112fc9190611cae565b156113195760405162461bcd60e51b81526004016103e190611cc7565b60405163265ea1ef60e11b815260048101859052600060248201526001600160a01b03831690634cbd43de90604401600060405180830381600087803b15801561136257600080fd5b505af1158015611376573d6000803e3d6000fd5b505060405163265ea1ef60e11b815260048101879052600060248201526001600160a01b0384169250634cbd43de9150604401600060405180830381600087803b1580156113c357600080fd5b505af11580156113d7573d6000803e3d6000fd5b5050604051633e04836560e01b815260048101879052600060248201526001600160a01b0385169250633e0483659150604401600060405180830381600087803b15801561142457600080fd5b505af1158015611438573d6000803e3d6000fd5b50505050806001600160a01b0316633e04836585846001600160a01b031663f9db2427886040518263ffffffff1660e01b815260040161147a91815260200190565b602060405180830381865afa158015611497573d6000803e3d6000fd5b505050506040513d601f19601f820116820180604052508101906114bb9190611cae565b6040516001600160e01b031960e085901b16815260048101929092526024820152604401600060405180830381600087803b1580156114f957600080fd5b505af115801561150d573d6000803e3d6000fd5b50506040516329322e0560e01b8152600481018790526001600160a01b038481166024830152851692506329322e059150604401600060405180830381600087803b15801561155b57600080fd5b505af115801561156f573d6000803e3d6000fd5b5050604080516080810191829052634d288ba760e01b90915260848101879052600092509050806001600160a01b038416634d288ba760a48301602060405180830381865afa1580156115c6573d6000803e3d6000fd5b505050506040513d601f19601f820116820180604052508101906115ea9190611cae565b8152602001846001600160a01b0316634d288ba7886040518263ffffffff1660e01b815260040161161d91815260200190565b602060405180830381865afa15801561163a573d6000803e3d6000fd5b505050506040513d601f19601f8201168201806040525081019061165e9190611cae565b8152602001836001600160a01b031663f9db2427886040518263ffffffff1660e01b815260040161169191815260200190565b602060405180830381865afa1580156116ae573d6000803e3d6000fd5b505050506040513d601f19601f820116820180604052508101906116d29190611cae565b8152602001846001600160a01b031663f9db2427886040518263ffffffff1660e01b815260040161170591815260200190565b602060405180830381865afa158015611722573d6000803e3d6000fd5b505050506040513d601f19601f820116820180604052508101906117469190611cae565b905260405163ea859a2760e01b8152600481018790529091507f4c48fdcd7e3cb84b81aa54aa5dd04105736ae1bc179d84611c6fa5a642e803f29087906001600160a01b0386169063ea859a2790602401602060405180830381865afa1580156117b4573d6000803e3d6000fd5b505050506040513d601f19601f820116820180604052508101906117d89190611cae565b6040805160208101939093528201526060810187905260800160405160208183030381529060405280519060200120826000884261184d896001600160a01b03166304da1a466040518163ffffffff1660e01b8152600401602060405180830381865afa1580156105c4573d6000803e3d6000fd5b60405161185f96959493929190611cf6565b60405180910390a1505050505050565b6001600160a01b038116811461188457600080fd5b50565b60006020828403121561189957600080fd5b81356118a48161186f565b9392505050565b600080604083850312156118be57600080fd5b50508035926020909101359150565b805169ffffffffffffffffffff811681146118e757600080fd5b919050565b600080600080600060a0868803121561190457600080fd5b61190d866118cd565b9450602086015193506040860151925060608601519150611930608087016118cd565b90509295509295909350565b634e487b7160e01b600052601160045260246000fd5b6000828210156119645761196461193c565b500390565b80516118e78161186f565b60006020828403121561198657600080fd5b81516118a48161186f565b6000602082840312156119a357600080fd5b815160ff811681146118a457600080fd5b600181815b808511156119ef5781600019048211156119d5576119d561193c565b808516156119e257918102915b93841c93908002906119b9565b509250929050565b600082611a0657506001611a94565b81611a1357506000611a94565b8160018114611a295760028114611a3357611a4f565b6001915050611a94565b60ff841115611a4457611a4461193c565b50506001821b611a94565b5060208310610133831016604e8410600b8410161715611a72575081810a611a94565b611a7c83836119b4565b8060001904821115611a9057611a9061193c565b0290505b92915050565b60006118a460ff8416836119f7565b600082611ac657634e487b7160e01b600052601260045260246000fd5b600160ff1b821460001984141615611ae057611ae061193c565b500590565b60006001600160ff1b0381841382841380821686840486111615611b0b57611b0b61193c565b600160ff1b6000871282811687830589121615611b2a57611b2a61193c565b60008712925087820587128484161615611b4657611b4661193c565b87850587128184161615611b5c57611b5c61193c565b505050929093029392505050565b634e487b7160e01b600052604160045260246000fd5b60006020808385031215611b9357600080fd5b825167ffffffffffffffff80821115611bab57600080fd5b818501915085601f830112611bbf57600080fd5b815181811115611bd157611bd1611b6a565b8060051b604051601f19603f83011681018181108582111715611bf657611bf6611b6a565b604052918252848201925083810185019188831115611c1457600080fd5b938501935b82851015611c3957611c2a85611969565b84529385019392850192611c19565b98975050505050505050565b60208082526033908201527f5468657265206973206e6f206d61726b657420617661696c61626c6520666f726040820152722074686973206d61726b657420496e6465782160681b606082015260800190565b634e487b7160e01b600052603260045260246000fd5b600060208284031215611cc057600080fd5b5051919050565b60208082526015908201527404572726f723a2054564c73206d757374206265203605c1b604082015260600190565b958652845160208088019190915285015160408088019190915285015160608088019190915290940151608086015291151560a085015260c084015260e0830152610100820152610120019056fea26469706673582212201d6ef4e996f7ce457ac23670f6a33a40673e2e5988510f504a23be9875ab45b764736f6c634300080f0033",
    "linkReferences": {}
  },
  "methodIdentifiers": {
    "admin()": "f851a440",
    "getLatestPrice(address)": "16345f18",
    "getVaultFactory()": "18bcb284",
    "triggerDepeg(uint256,uint256)": "bcbbcfe4",
    "triggerEndEpoch(uint256,uint256)": "cdfd29b3",
    "vaultFactory()": "d8a06f73"
  },
  "id": 28
}