{
  "abi": [
    {
      "inputs": [
        {
          "internalType": "address",
          "name": "_factory",
          "type": "address"
        },
        {
          "internalType": "address",
          "name": "_admin",
          "type": "address"
        }
      ],
      "stateMutability": "nonpayable",
      "type": "constructor"
    },
    {
      "anonymous": false,
      "inputs": [
        {
          "indexed": false,
          "internalType": "uint256",
          "name": "index",
          "type": "uint256"
        },
        {
          "indexed": false,
          "internalType": "uint256",
          "name": "epoch",
          "type": "uint256"
        },
        {
          "indexed": false,
          "internalType": "string",
          "name": "name",
          "type": "string"
        },
        {
          "indexed": false,
          "internalType": "uint256",
          "name": "time",
          "type": "uint256"
        },
        {
          "indexed": false,
          "internalType": "int256",
          "name": "depegPrice",
          "type": "int256"
        }
      ],
      "name": "DepegInsurance",
      "type": "event"
    },
    {
      "anonymous": false,
      "inputs": [
        {
          "indexed": false,
          "internalType": "uint256",
          "name": "RISK_claimTVL",
          "type": "uint256"
        },
        {
          "indexed": false,
          "internalType": "uint256",
          "name": "RISK_finalTVL",
          "type": "uint256"
        },
        {
          "indexed": false,
          "internalType": "uint256",
          "name": "INSR_claimTVL",
          "type": "uint256"
        },
        {
          "indexed": false,
          "internalType": "uint256",
          "name": "INSR_finalTVL",
          "type": "uint256"
        }
      ],
      "name": "VaultTVL",
      "type": "event"
    },
    {
      "inputs": [],
      "name": "admin",
      "outputs": [
        {
          "internalType": "address",
          "name": "",
          "type": "address"
        }
      ],
      "stateMutability": "view",
      "type": "function"
    },
    {
      "inputs": [
        {
          "internalType": "address",
          "name": "_token",
          "type": "address"
        }
      ],
      "name": "getLatestPrice",
      "outputs": [
        {
          "internalType": "int256",
          "name": "nowPrice",
          "type": "int256"
        }
      ],
      "stateMutability": "view",
      "type": "function"
    },
    {
      "inputs": [
        {
          "internalType": "uint256",
          "name": "marketIndex",
          "type": "uint256"
        },
        {
          "internalType": "uint256",
          "name": "mintId",
          "type": "uint256"
        }
      ],
      "name": "triggerDepeg",
      "outputs": [],
      "stateMutability": "nonpayable",
      "type": "function"
    },
    {
      "inputs": [
        {
          "internalType": "uint256",
          "name": "marketIndex",
          "type": "uint256"
        },
        {
          "internalType": "uint256",
          "name": "mintId",
          "type": "uint256"
        }
      ],
      "name": "triggerEndEpoch",
      "outputs": [],
      "stateMutability": "nonpayable",
      "type": "function"
    }
  ],
  "bytecode": {
    "object": "0x60c06040523480156200001157600080fd5b5060405162001ed838038062001ed8833981016040819052620000349162000128565b6001600160a01b038116620000905760405162461bcd60e51b815260206004820181905260248201527f61646d696e2063616e6e6f7420626520746865207a65726f206164647265737360448201526064015b60405180910390fd5b6001600160a01b038216620000f35760405162461bcd60e51b815260206004820152602260248201527f666163746f72792063616e6e6f7420626520746865207a65726f206164647265604482015261737360f01b606482015260840162000087565b6001600160a01b039081166080521660a05262000160565b80516001600160a01b03811681146200012357600080fd5b919050565b600080604083850312156200013c57600080fd5b62000147836200010b565b915062000157602084016200010b565b90509250929050565b60805160a051611d37620001a16000396000818161010201528181610378015281816106d201528181610f3701526110490152600060a40152611d376000f3fe608060405234801561001057600080fd5b506004361061004c5760003560e01c806316345f1814610051578063bcbbcfe414610077578063cdfd29b31461008c578063f851a4401461009f575b600080fd5b61006461005f366004611782565b6100de565b6040519081526020015b60405180910390f35b61008a6100853660046117a6565b610372565b005b61008a61009a3660046117a6565b610f21565b6100c67f000000000000000000000000000000000000000000000000000000000000000081565b6040516001600160a01b03909116815260200161006e565b604051639820c73360e01b81526001600160a01b03828116600483015260009182917f00000000000000000000000000000000000000000000000000000000000000001690639820c73390602401602060405180830381865afa158015610149573d6000803e3d6000fd5b505050506040513d601f19601f8201168201806040525081019061016d91906117c8565b9050600080600080846001600160a01b031663feaf968c6040518163ffffffff1660e01b815260040160a060405180830381865afa1580156101b3573d6000803e3d6000fd5b505050506040513d601f19601f820116820180604052508101906101d79190611804565b9450945050935093506000856001600160a01b031663313ce5676040518163ffffffff1660e01b8152600401602060405180830381865afa158015610220573d6000803e3d6000fd5b505050506040513d601f19601f820116820180604052508101906102449190611854565b61024f90600a611973565b61026190678ac7230489e80000611982565b905061026d81856119be565b9350600084136102bb5760405162461bcd60e51b81526020600482015260146024820152730436861696e6c696e6b207072696365203c3d20360641b60448201526064015b60405180910390fd5b8469ffffffffffffffffffff168269ffffffffffffffffffff1610156103235760405162461bcd60e51b815260206004820181905260248201527f526f756e6449442066726f6d204f7261636c65206973206f757464617465642160448201526064016102b2565b826000036103665760405162461bcd60e51b815260206004820152601060248201526f54696d657374616d70203d3d2030202160801b60448201526064016102b2565b50919695505050505050565b818160007f00000000000000000000000000000000000000000000000000000000000000006001600160a01b031663468d16d0846040518263ffffffff1660e01b81526004016103c491815260200190565b600060405180830381865afa1580156103e1573d6000803e3d6000fd5b505050506040513d6000823e601f3d908101601f191682016040526104099190810190611a8a565b9050805160021461042c5760405162461bcd60e51b81526004016102b290611b3c565b60008160008151811061044157610441611b8f565b6020026020010151905060008190506104b5816001600160a01b03166304da1a466040518163ffffffff1660e01b8152600401602060405180830381865afa158015610491573d6000803e3d6000fd5b505050506040513d601f19601f8201168201806040525081019061005f91906117c8565b816001600160a01b031663c52987cf6040518163ffffffff1660e01b8152600401602060405180830381865afa1580156104f3573d6000803e3d6000fd5b505050506040513d601f19601f820116820180604052508101906105179190611ba5565b121561057e5760405162461bcd60e51b815260206004820152603060248201527f43757272656e74207072696365206973206e6f7420617420746865207374726960448201526f6b65207072696365207461726765742160801b60648201526084016102b2565b60405163ea859a2760e01b81526004810185905242906001600160a01b0383169063ea859a2790602401602060405180830381865afa1580156105c5573d6000803e3d6000fd5b505050506040513d601f19601f820116820180604052508101906105e99190611ba5565b1061065c5760405162461bcd60e51b815260206004820152603d60248201527f45706f636820686173206e6f7420737461727465642c2063616e6e6f7420696e60448201527f7375726520756e74696c2065706f63682068617320737461727465642100000060648201526084016102b2565b8342106106b95760405162461bcd60e51b815260206004820152602560248201527f45706f636820666f72207468697320696e737572616e63652068617320657870604482015264697265642160d81b60648201526084016102b2565b604051630468d16d60e41b8152600481018890526000907f00000000000000000000000000000000000000000000000000000000000000006001600160a01b03169063468d16d090602401600060405180830381865afa158015610721573d6000803e3d6000fd5b505050506040513d6000823e601f3d908101601f191682016040526107499190810190611a8a565b905060008160008151811061076057610760611b8f565b6020026020010151905060008260018151811061077f5761077f611b8f565b60200260200101519050816001600160a01b031663f9db24278a6040518263ffffffff1660e01b81526004016107b791815260200190565b602060405180830381865afa1580156107d4573d6000803e3d6000fd5b505050506040513d601f19601f820116820180604052508101906107f89190611ba5565b156108155760405162461bcd60e51b81526004016102b290611bbe565b60405163f9db242760e01b8152600481018a90526001600160a01b0382169063f9db242790602401602060405180830381865afa15801561085a573d6000803e3d6000fd5b505050506040513d601f19601f8201168201806040525081019061087e9190611ba5565b156108c45760405162461bcd60e51b815260206004820152601660248201527504572726f723a2054564c73206d7573742074626520360541b60448201526064016102b2565b60405163265ea1ef60e11b8152600481018a9052600160248201526001600160a01b03831690634cbd43de90604401600060405180830381600087803b15801561090d57600080fd5b505af1158015610921573d6000803e3d6000fd5b505060405163265ea1ef60e11b8152600481018c9052600160248201526001600160a01b0384169250634cbd43de9150604401600060405180830381600087803b15801561096e57600080fd5b505af1158015610982573d6000803e3d6000fd5b50505050816001600160a01b0316633e0483658a836001600160a01b031663f9db24278d6040518263ffffffff1660e01b81526004016109c491815260200190565b602060405180830381865afa1580156109e1573d6000803e3d6000fd5b505050506040513d601f19601f82011682018060405250810190610a059190611ba5565b6040516001600160e01b031960e085901b16815260048101929092526024820152604401600060405180830381600087803b158015610a4357600080fd5b505af1158015610a57573d6000803e3d6000fd5b50505050806001600160a01b0316633e0483658a846001600160a01b031663f9db24278d6040518263ffffffff1660e01b8152600401610a9991815260200190565b602060405180830381865afa158015610ab6573d6000803e3d6000fd5b505050506040513d601f19601f82011682018060405250810190610ada9190611ba5565b6040516001600160e01b031960e085901b16815260048101929092526024820152604401600060405180830381600087803b158015610b1857600080fd5b505af1158015610b2c573d6000803e3d6000fd5b50505050816001600160a01b03166329322e058a85600181518110610b5357610b53611b8f565b60200260200101516040518363ffffffff1660e01b8152600401610b8a9291909182526001600160a01b0316602082015260400190565b600060405180830381600087803b158015610ba457600080fd5b505af1158015610bb8573d6000803e3d6000fd5b50505050806001600160a01b03166329322e058a85600081518110610bdf57610bdf611b8f565b60200260200101516040518363ffffffff1660e01b8152600401610c169291909182526001600160a01b0316602082015260400190565b600060405180830381600087803b158015610c3057600080fd5b505af1158015610c44573d6000803e3d6000fd5b5050604051634d288ba760e01b8152600481018c90527ff3209bdfa08baafc0dce5fa27215ddf0df6f7a3a7abfbb996a832bdbb321f08b92506001600160a01b0384169150634d288ba790602401602060405180830381865afa158015610caf573d6000803e3d6000fd5b505050506040513d601f19601f82011682018060405250810190610cd39190611ba5565b604051634d288ba760e01b8152600481018c90526001600160a01b03851690634d288ba790602401602060405180830381865afa158015610d18573d6000803e3d6000fd5b505050506040513d601f19601f82011682018060405250810190610d3c9190611ba5565b60405163f9db242760e01b8152600481018d90526001600160a01b0385169063f9db242790602401602060405180830381865afa158015610d81573d6000803e3d6000fd5b505050506040513d601f19601f82011682018060405250810190610da59190611ba5565b60405163f9db242760e01b8152600481018e90526001600160a01b0387169063f9db242790602401602060405180830381865afa158015610dea573d6000803e3d6000fd5b505050506040513d601f19601f82011682018060405250810190610e0e9190611ba5565b60408051948552602085019390935291830152606082015260800160405180910390a17fab13908bfc0af63d2c29b612200de382c99a64d707c27ea438d1a26dbb3b00288a8a846001600160a01b03166306fdde036040518163ffffffff1660e01b8152600401600060405180830381865afa158015610e92573d6000803e3d6000fd5b505050506040513d6000823e601f3d908101601f19168201604052610eba9190810190611c1d565b42610efc876001600160a01b03166304da1a466040518163ffffffff1660e01b8152600401602060405180830381865afa158015610491573d6000803e3d6000fd5b604051610f0d959493929190611cb1565b60405180910390a150505050505050505050565b604051630468d16d60e41b8152600481018390527f00000000000000000000000000000000000000000000000000000000000000006001600160a01b03169063468d16d090602401600060405180830381865afa158015610f86573d6000803e3d6000fd5b505050506040513d6000823e601f3d908101601f19168201604052610fae9190810190611a8a565b51600214610fce5760405162461bcd60e51b81526004016102b290611b3c565b804210156110305760405162461bcd60e51b815260206004820152602960248201527f45706f636820666f72207468697320696e737572616e636520686173206e6f7460448201526820657870697265642160b81b60648201526084016102b2565b604051630468d16d60e41b8152600481018390526000907f00000000000000000000000000000000000000000000000000000000000000006001600160a01b03169063468d16d090602401600060405180830381865afa158015611098573d6000803e3d6000fd5b505050506040513d6000823e601f3d908101601f191682016040526110c09190810190611a8a565b90506000816000815181106110d7576110d7611b8f565b602002602001015190506000826001815181106110f6576110f6611b8f565b60200260200101519050816001600160a01b031663f9db2427856040518263ffffffff1660e01b815260040161112e91815260200190565b602060405180830381865afa15801561114b573d6000803e3d6000fd5b505050506040513d601f19601f8201168201806040525081019061116f9190611ba5565b1561118c5760405162461bcd60e51b81526004016102b290611bbe565b60405163f9db242760e01b8152600481018590526001600160a01b0382169063f9db242790602401602060405180830381865afa1580156111d1573d6000803e3d6000fd5b505050506040513d601f19601f820116820180604052508101906111f59190611ba5565b156112125760405162461bcd60e51b81526004016102b290611bbe565b60405163265ea1ef60e11b815260048101859052600060248201526001600160a01b03831690634cbd43de90604401600060405180830381600087803b15801561125b57600080fd5b505af115801561126f573d6000803e3d6000fd5b505060405163265ea1ef60e11b815260048101879052600060248201526001600160a01b0384169250634cbd43de9150604401600060405180830381600087803b1580156112bc57600080fd5b505af11580156112d0573d6000803e3d6000fd5b5050604051633e04836560e01b815260048101879052600060248201526001600160a01b0385169250633e0483659150604401600060405180830381600087803b15801561131d57600080fd5b505af1158015611331573d6000803e3d6000fd5b50505050806001600160a01b0316633e04836585846001600160a01b031663f9db2427886040518263ffffffff1660e01b815260040161137391815260200190565b602060405180830381865afa158015611390573d6000803e3d6000fd5b505050506040513d601f19601f820116820180604052508101906113b49190611ba5565b6040516001600160e01b031960e085901b16815260048101929092526024820152604401600060405180830381600087803b1580156113f257600080fd5b505af1158015611406573d6000803e3d6000fd5b50505050816001600160a01b03166329322e05858560018151811061142d5761142d611b8f565b60200260200101516040518363ffffffff1660e01b81526004016114649291909182526001600160a01b0316602082015260400190565b600060405180830381600087803b15801561147e57600080fd5b505af1158015611492573d6000803e3d6000fd5b5050604051634d288ba760e01b8152600481018790527ff3209bdfa08baafc0dce5fa27215ddf0df6f7a3a7abfbb996a832bdbb321f08b92506001600160a01b0384169150634d288ba790602401602060405180830381865afa1580156114fd573d6000803e3d6000fd5b505050506040513d601f19601f820116820180604052508101906115219190611ba5565b604051634d288ba760e01b8152600481018790526001600160a01b03851690634d288ba790602401602060405180830381865afa158015611566573d6000803e3d6000fd5b505050506040513d601f19601f8201168201806040525081019061158a9190611ba5565b60405163f9db242760e01b8152600481018890526001600160a01b0385169063f9db242790602401602060405180830381865afa1580156115cf573d6000803e3d6000fd5b505050506040513d601f19601f820116820180604052508101906115f39190611ba5565b60405163f9db242760e01b8152600481018990526001600160a01b0387169063f9db242790602401602060405180830381865afa158015611638573d6000803e3d6000fd5b505050506040513d601f19601f8201168201806040525081019061165c9190611ba5565b60408051948552602085019390935291830152606082015260800160405180910390a17fab13908bfc0af63d2c29b612200de382c99a64d707c27ea438d1a26dbb3b00288585846001600160a01b03166306fdde036040518163ffffffff1660e01b8152600401600060405180830381865afa1580156116e0573d6000803e3d6000fd5b505050506040513d6000823e601f3d908101601f191682016040526117089190810190611c1d565b4261174a876001600160a01b03166304da1a466040518163ffffffff1660e01b8152600401602060405180830381865afa158015610491573d6000803e3d6000fd5b60405161175b959493929190611cb1565b60405180910390a15050505050565b6001600160a01b038116811461177f57600080fd5b50565b60006020828403121561179457600080fd5b813561179f8161176a565b9392505050565b600080604083850312156117b957600080fd5b50508035926020909101359150565b6000602082840312156117da57600080fd5b815161179f8161176a565b805169ffffffffffffffffffff811681146117ff57600080fd5b919050565b600080600080600060a0868803121561181c57600080fd5b611825866117e5565b9450602086015193506040860151925060608601519150611848608087016117e5565b90509295509295909350565b60006020828403121561186657600080fd5b815160ff8116811461179f57600080fd5b634e487b7160e01b600052601160045260246000fd5b600181815b808511156118c85781600019048211156118ae576118ae611877565b808516156118bb57918102915b93841c9390800290611892565b509250929050565b6000826118df5750600161196d565b816118ec5750600061196d565b8160018114611902576002811461190c57611928565b600191505061196d565b60ff84111561191d5761191d611877565b50506001821b61196d565b5060208310610133831016604e8410600b841016171561194b575081810a61196d565b611955838361188d565b806000190482111561196957611969611877565b0290505b92915050565b600061179f60ff8416836118d0565b60008261199f57634e487b7160e01b600052601260045260246000fd5b600160ff1b8214600019841416156119b9576119b9611877565b500590565b60006001600160ff1b03818413828413808216868404861116156119e4576119e4611877565b600160ff1b6000871282811687830589121615611a0357611a03611877565b60008712925087820587128484161615611a1f57611a1f611877565b87850587128184161615611a3557611a35611877565b505050929093029392505050565b634e487b7160e01b600052604160045260246000fd5b604051601f8201601f1916810167ffffffffffffffff81118282101715611a8257611a82611a43565b604052919050565b60006020808385031215611a9d57600080fd5b825167ffffffffffffffff80821115611ab557600080fd5b818501915085601f830112611ac957600080fd5b815181811115611adb57611adb611a43565b8060051b9150611aec848301611a59565b8181529183018401918481019088841115611b0657600080fd5b938501935b83851015611b305784519250611b208361176a565b8282529385019390850190611b0b565b98975050505050505050565b60208082526033908201527f5468657265206973206e6f206d61726b657420617661696c61626c6520666f726040820152722074686973206d61726b657420496e6465782160681b606082015260800190565b634e487b7160e01b600052603260045260246000fd5b600060208284031215611bb757600080fd5b5051919050565b60208082526015908201527404572726f723a2054564c73206d757374206265203605c1b604082015260600190565b60005b83811015611c08578181015183820152602001611bf0565b83811115611c17576000848401525b50505050565b600060208284031215611c2f57600080fd5b815167ffffffffffffffff80821115611c4757600080fd5b818401915084601f830112611c5b57600080fd5b815181811115611c6d57611c6d611a43565b611c80601f8201601f1916602001611a59565b9150808252856020828501011115611c9757600080fd5b611ca8816020840160208601611bed565b50949350505050565b85815284602082015260a06040820152600084518060a0840152611cdc8160c0850160208901611bed565b606083019490945250608081019190915260c0601f909201601f19160101939250505056fea264697066735822122017bf34b78084d00d0d89a09bc13c0f09457308c4ec743a2dad62d76c44ec9c5f64736f6c634300080f0033",
    "linkReferences": {}
  },
  "methodIdentifiers": {
    "admin()": "f851a440",
    "getLatestPrice(address)": "16345f18",
    "triggerDepeg(uint256,uint256)": "bcbbcfe4",
    "triggerEndEpoch(uint256,uint256)": "cdfd29b3"
  },
  "id": 25
}