{
  "abi": [
    {
      "inputs": [
        {
          "internalType": "address",
          "name": "_factory",
          "type": "address"
        },
        {
          "internalType": "address",
          "name": "_admin",
          "type": "address"
        },
        {
          "internalType": "address",
          "name": "_l2Sequencer",
          "type": "address"
        }
      ],
      "stateMutability": "nonpayable",
      "type": "constructor"
    },
    {
      "inputs": [],
      "name": "AddressNotAdmin",
      "type": "error"
    },
    {
      "inputs": [
        {
          "internalType": "uint256",
          "name": "epoch",
          "type": "uint256"
        }
      ],
      "name": "EpochExpired",
      "type": "error"
    },
    {
      "inputs": [
        {
          "internalType": "uint256",
          "name": "epoch",
          "type": "uint256"
        }
      ],
      "name": "EpochNotExist",
      "type": "error"
    },
    {
      "inputs": [
        {
          "internalType": "uint256",
          "name": "epoch",
          "type": "uint256"
        }
      ],
      "name": "EpochNotExpired",
      "type": "error"
    },
    {
      "inputs": [
        {
          "internalType": "uint256",
          "name": "epoch",
          "type": "uint256"
        }
      ],
      "name": "EpochNotStarted",
      "type": "error"
    },
    {
      "inputs": [],
      "name": "GracePeriodNotOver",
      "type": "error"
    },
    {
      "inputs": [
        {
          "internalType": "uint256",
          "name": "marketId",
          "type": "uint256"
        }
      ],
      "name": "MarketDoesNotExist",
      "type": "error"
    },
    {
      "inputs": [],
      "name": "NotZeroTVL",
      "type": "error"
    },
    {
      "inputs": [],
      "name": "OraclePriceZero",
      "type": "error"
    },
    {
      "inputs": [
        {
          "internalType": "int256",
          "name": "price",
          "type": "int256"
        }
      ],
      "name": "PriceNotAtStrikePrice",
      "type": "error"
    },
    {
      "inputs": [],
      "name": "RoundIDOutdated",
      "type": "error"
    },
    {
      "inputs": [],
      "name": "SequencerDown",
      "type": "error"
    },
    {
      "inputs": [],
      "name": "TimestampZero",
      "type": "error"
    },
    {
      "inputs": [],
      "name": "ZeroAddress",
      "type": "error"
    },
    {
      "anonymous": false,
      "inputs": [
        {
          "indexed": false,
          "internalType": "bytes32",
          "name": "epochMarketID",
          "type": "bytes32"
        },
        {
          "components": [
            {
              "internalType": "uint256",
              "name": "RISK_claimTVL",
              "type": "uint256"
            },
            {
              "internalType": "uint256",
              "name": "RISK_finalTVL",
              "type": "uint256"
            },
            {
              "internalType": "uint256",
              "name": "INSR_claimTVL",
              "type": "uint256"
            },
            {
              "internalType": "uint256",
              "name": "INSR_finalTVL",
              "type": "uint256"
            }
          ],
          "indexed": false,
          "internalType": "struct Controller.VaultTVL",
          "name": "tvl",
          "type": "tuple"
        },
        {
          "indexed": false,
          "internalType": "bool",
          "name": "isDisaster",
          "type": "bool"
        },
        {
          "indexed": false,
          "internalType": "uint256",
          "name": "epoch",
          "type": "uint256"
        },
        {
          "indexed": false,
          "internalType": "uint256",
          "name": "time",
          "type": "uint256"
        },
        {
          "indexed": false,
          "internalType": "int256",
          "name": "depegPrice",
          "type": "int256"
        }
      ],
      "name": "DepegInsurance",
      "type": "event"
    },
    {
      "inputs": [],
      "name": "VAULTS_LENGTH",
      "outputs": [
        {
          "internalType": "uint256",
          "name": "",
          "type": "uint256"
        }
      ],
      "stateMutability": "view",
      "type": "function"
    },
    {
      "inputs": [],
      "name": "admin",
      "outputs": [
        {
          "internalType": "address",
          "name": "",
          "type": "address"
        }
      ],
      "stateMutability": "view",
      "type": "function"
    },
    {
      "inputs": [
        {
          "internalType": "address",
          "name": "_token",
          "type": "address"
        }
      ],
      "name": "getLatestPrice",
      "outputs": [
        {
          "internalType": "int256",
          "name": "nowPrice",
          "type": "int256"
        }
      ],
      "stateMutability": "view",
      "type": "function"
    },
    {
      "inputs": [],
      "name": "getVaultFactory",
      "outputs": [
        {
          "internalType": "address",
          "name": "",
          "type": "address"
        }
      ],
      "stateMutability": "view",
      "type": "function"
    },
    {
      "inputs": [
        {
          "internalType": "uint256",
          "name": "marketIndex",
          "type": "uint256"
        },
        {
          "internalType": "uint256",
          "name": "epochEnd",
          "type": "uint256"
        }
      ],
      "name": "triggerDepeg",
      "outputs": [],
      "stateMutability": "nonpayable",
      "type": "function"
    },
    {
      "inputs": [
        {
          "internalType": "uint256",
          "name": "marketIndex",
          "type": "uint256"
        },
        {
          "internalType": "uint256",
          "name": "epochEnd",
          "type": "uint256"
        }
      ],
      "name": "triggerEndEpoch",
      "outputs": [],
      "stateMutability": "nonpayable",
      "type": "function"
    },
    {
      "inputs": [],
      "name": "vaultFactory",
      "outputs": [
        {
          "internalType": "contract VaultFactory",
          "name": "",
          "type": "address"
        }
      ],
      "stateMutability": "view",
      "type": "function"
    }
  ],
  "bytecode": {
    "object": "0x60c0346200010157601f620018e338819003918201601f191683019291906001600160401b0384118385101762000106578160609284926040968752833981010312620001015762000051816200011c565b6200006c8362000064602085016200011c565b93016200011c565b906001600160a01b039083821615620000f0578116918215620000f05716918215620000df5760805260a052600080546001600160a01b031916919091179055516117b1908162000132823960805181607f015260a05181818160c601528181610122015281816108e301526114a00152f35b835163d92e233d60e01b8152600490fd5b845163d92e233d60e01b8152600490fd5b600080fd5b634e487b7160e01b600052604160045260246000fd5b51906001600160a01b0382168203620001015756fe604060808152600436101561001357600080fd5b600090813560e01c806316345f181461123e57806318bcb284146100b2578063bcbbcfe4146108b6578063c4e8adf31461089b578063cdfd29b3146100f5578063d8a06f73146100b25763f851a4401461006c57600080fd5b346100ae57816003193601126100ae57517f00000000000000000000000000000000000000000000000000000000000000006001600160a01b03168152602090f35b5080fd5b50346100ae57816003193601126100ae57517f00000000000000000000000000000000000000000000000000000000000000006001600160a01b03168152602090f35b50346100ae5761010436611277565b8251630468d16d60e41b808252600482018490526001600160a01b037f00000000000000000000000000000000000000000000000000000000000000008116949260249290888185818a5afa8015610808576002918a91610881575b50510361086a578442106108535787908388518098819382528760048301525afa94851561055e57879561082f575b506101a58161019d8761138d565b5116956113b0565b5116918551916305c514ad60e11b808452856004850152602093848184818b5afa908115610765578a91610812575b50159081156107b1575b5061079c57865163f9db242760e01b8082526004820187905290848184818b5afa908115610765578a9161076f575b5061072757875181815286600482015284818481895afa908115610765578a91610738575b5061072757863b1561068a57875163265ea1ef60e11b808252600482018890528382018b90528a918281604481838e5af19081156106e1578391610713575b5050863b156100ae57895190815287600482015281848201528181604481838b5af1801561068e576106ff575b5050863b1561068a578751633e04836560e01b808252600482018890528382018b90528a918281604481838e5af19081156106e15783916106eb575b50508951838152886004820152868186818d5afa9081156106e15783916106b0575b50873b156106ac578a51918252886004830152848201528181604481838b5af1801561068e57610698575b5050863b1561068a5787516329322e0560e01b8152600481018790526001600160a01b038616602482015289908181604481838d5af1801561068e57610676575b5050875194634d288ba760e01b80875287600488015285878581855afa9687156105dc578b97610647575b508951908152876004820152858185818c5afa9081156105dc57849287918d93610615575b508b51938480928782528c60048301525afa9182156105dc578b926105e6575b508951928352876004840152858385818c5afa9283156105dc578b936105ad575b50895196610406886112b7565b875285870152888601526060850152828751809263ea859a2760e01b825287600483015281895afa9182156105a3578584928a94610568575b5088518381019283526020830194909452604082015260049261046f81606084015b03601f1981018352826112d3565b5190209587519283809263026d0d2360e11b82525afa91821561055e57879261050b575b505060008051602061175c833981519152936104b161050592611424565b908651948594429286919260606101009497969592976101208501988552805160208601526020810151604086015260408101518286015201516080840152600060a084015260c083015260e08201520152565b0390a151f35b90809250813d8311610557575b61052281836112d3565b810103126105535760008051602061175c833981519152936104b1610549610505936112f5565b9250819550610493565b8580fd5b503d610518565b86513d89823e3d90fd5b92809294508391503d831161059c575b61058281836112d3565b8101031261059757519082908561046f61043f565b600080fd5b503d610578565b87513d8a823e3d90fd5b9092508581813d83116105d5575b6105c581836112d3565b81010312610597575191386103f9565b503d6105bb565b8a513d8d823e3d90fd5b9091508581813d831161060e575b6105fe81836112d3565b81010312610597575190386103d8565b503d6105f4565b9350915082813d8311610640575b61062d81836112d3565b81010312610597578584925191386103b8565b503d610623565b9096508581813d831161066f575b61065f81836112d3565b8101031261059757519538610393565b503d610655565b61067f9061128d565b61068a578838610368565b8880fd5b8a513d84823e3d90fd5b6106a19061128d565b61068a578838610327565b8280fd5b809350878092503d83116106da575b6106c981836112d3565b81010312610597578a9151386102fc565b503d6106bf565b8b513d85823e3d90fd5b6106f49061128d565b6100ae5781386102da565b6107089061128d565b61068a57883861029e565b61071c9061128d565b6100ae578138610271565b875163ea6cde4560e01b8152600490fd5b90508481813d831161075e575b61074f81836112d3565b81010312610597575138610232565b503d610745565b89513d8c823e3d90fd5b90508481813d8311610795575b61078681836112d3565b8101031261059757513861020d565b503d61077c565b865163119f6f9f60e31b815260048101869052fd5b9050875190815285600482015283818381885afa9081156108085789916107db575b5015386101de565b6107fb9150843d8611610801575b6107f381836112d3565b8101906113c0565b386107d3565b503d6107e9565b88513d8b823e3d90fd5b6108299150853d8711610801576107f381836112d3565b386101d4565b61084c9195503d8089833e61084481836112d3565b810190611309565b933861018f565b8651630b6ead5b60e01b8152600481018690528390fd5b8651630fff01a760e31b8152600481018590528390fd5b61089591503d808c833e61084481836112d3565b38610160565b50346100ae57816003193601126100ae576020905160028152f35b50346100ae576108c536611277565b8251630468d16d60e41b808252600482018490526001600160a01b037f000000000000000000000000000000000000000000000000000000000000000081169491928781602481895afa9081156105a3578891611224575b50600281510361120c57610931829161138d565b51169286516305c514ad60e11b8152856004820152602081602481885afa9081156108085789916111ed575b50156111d557865163c52987cf60e01b8152602081600481885afa9081156108085789916111a3575b50875163026d0d2360e11b8152602081600481895afa8015610765578a90611164575b6109b39150611424565b136110ce57865160208160248163ea859a2760e01b988982528a60048301525afa90811561080857899161109c575b5042106110845784421161106c578790602488518098819382528660048301525afa94851561055e578795611050575b50610a208161019d8761138d565b511691855163f9db242760e01b8152846004820152602081602481895afa9081156105a357889161101e575b50610fd757855163f9db242760e01b815260048101859052602081602481875afa9081156105a3578891610fe8575b50610fd757843b15610ef257855163265ea1ef60e11b8082526004820186905260016024830152908881604481838b5af1801561080857610fc4575b508790843b156100ae57875190815285600482015260016024820152818160448183895af18015610ef657610fb0575b50865163f9db242760e01b815260048101869052602081602481885afa908115610ef6578291610f7b575b50863b156100ae578751633e04836560e01b9182825287600483015260248201528281604481838c5af1908115610f5d578391610f67575b5050875163f9db242760e01b8152600481018790526020816024818b5afa908115610f5d578391610f28575b50853b156106ac5788519182528660048301526024820152818160448183895af18015610ef657610f14575b5050843b15610ef25785516329322e0560e01b8152600481018590526001600160a01b038416602482015287908181604481838b5af18015610ef657610f00575b5050823b15610ef25785516329322e0560e01b8152600481018590526001600160a01b03861660248201528790818160448183895af18015610ef657610ede575b50508551634d288ba760e01b808252600482018690529093602085602481845afa948515610808578995610eaa575b5087519182528560048301526020826024818a5afa918215610808578992610e75575b50602060249189519283809263f9db242760e01b82528a60048301525afa908115610808578991610e43575b50875163f9db242760e01b815260048101879052916020836024818b5afa928315610765578a93610e0f575b50885195610cdb876112b7565b865260208601528785015260608401528551908152836004820152602081602481885afa801561055e5784918891610dd9575b5091602091610d3b6004946104618a51938492878401968791606093918352602083015260408201520190565b5190209486519283809263026d0d2360e11b82525afa908115610dcf578691610d7c575b5060008051602061175c833981519152936104b161050592611424565b90506020813d602011610dc7575b81610d97602093836112d3565b810103126105535760008051602061175c833981519152936104b1610dbe610505936112f5565b92505093610d5f565b3d9150610d8a565b85513d88823e3d90fd5b9150506020813d602011610e07575b81610df5602093836112d3565b81010312610597575183906020610d0e565b3d9150610de8565b9092506020813d602011610e3b575b81610e2b602093836112d3565b8101031261059757519138610cce565b3d9150610e1e565b90506020813d602011610e6d575b81610e5e602093836112d3565b81010312610597575138610ca2565b3d9150610e51565b9091506020813d602011610ea2575b81610e91602093836112d3565b810103126105975751906020610c76565b3d9150610e84565b9094506020813d602011610ed6575b81610ec6602093836112d3565b8101031261059757519338610c53565b3d9150610eb9565b610ee79061128d565b610ef2578638610c24565b8680fd5b88513d84823e3d90fd5b610f099061128d565b610ef2578638610be3565b610f1d9061128d565b610ef2578638610ba2565b9250506020823d602011610f55575b81610f44602093836112d3565b810103126105975788915138610b76565b3d9150610f37565b89513d85823e3d90fd5b610f709061128d565b6100ae578138610b4a565b9150506020813d602011610fa8575b81610f97602093836112d3565b810103126105975787905138610b12565b3d9150610f8a565b610fb99061128d565b610ef2578638610ae7565b610fd09098919861128d565b9638610ab7565b855163ea6cde4560e01b8152600490fd5b90506020813d602011611016575b81611003602093836112d3565b81010312611012575138610a7b565b8780fd5b3d9150610ff6565b90506020813d602011611048575b81611039602093836112d3565b81010312611012575138610a4c565b3d915061102c565b6110659195503d8089833e61084481836112d3565b9338610a12565b865163f2149bd160e01b815260048101869052602490fd5b86516319b043d160e21b815260048101869052602490fd5b90506020813d6020116110c6575b816110b7602093836112d3565b8101031261068a5751386109e2565b3d91506110aa565b865163026d0d2360e11b8152889088906020816004818a5afa928315611159578093611115575b60248361110186611424565b905190632067f80160e21b82526004820152fd5b9092506020833d602011611151575b81611131602093836112d3565b8101031261114e57506111016111486024936112f5565b926110f5565b80fd5b3d9150611124565b8251903d90823e3d90fd5b506020813d60201161119b575b8161117e602093836112d3565b81010312611197576111926109b3916112f5565b6109a9565b8980fd5b3d9150611171565b90506020813d6020116111cd575b816111be602093836112d3565b8101031261068a575138610986565b3d91506111b1565b865163119f6f9f60e31b815260048101869052602490fd5b611206915060203d602011610801576107f381836112d3565b3861095d565b8651630fff01a760e31b815260048101849052602490fd5b61123891503d808a833e61084481836112d3565b3861091d565b50346100ae5760203660031901126100ae57600435916001600160a01b038316830361114e5750611270602092611424565b9051908152f35b6040906003190112610597576004359060243590565b67ffffffffffffffff81116112a157604052565b634e487b7160e01b600052604160045260246000fd5b6080810190811067ffffffffffffffff8211176112a157604052565b90601f8019910116810190811067ffffffffffffffff8211176112a157604052565b51906001600160a01b038216820361059757565b90602090818382031261059757825167ffffffffffffffff93848211610597570181601f820112156105975780519384116112a1578360051b9060405194611353858401876112d3565b85528380860192820101928311610597578301905b828210611376575050505090565b838091611382846112f5565b815201910190611368565b80511561139a5760200190565b634e487b7160e01b600052603260045260246000fd5b80516001101561139a5760400190565b90816020910312610597575180151581036105975790565b519069ffffffffffffffffffff8216820361059757565b908160a091031261059757611403816113d8565b916020820151916040810151916114216080606084015193016113d8565b90565b6000805460408051633fabe5a360e21b8082529394600494929360a0936001600160a01b0393909291859082908990829088165afa9081156116bd5788908992611738575b506117295780421061171657610e109042031115611706578451639820c73360e01b815290831686820152602092602491848184817f000000000000000000000000000000000000000000000000000000000000000086165afa9081156116fc5789916116c7575b501691855190815284818881865afa9384156116bd57879089948a938b988c9861167a575b5050819089519384809263313ce56760e01b82525afa908115611670578a91611637575b5060ff915016604d811161162557600a0a801561161357678ac7230489e8000005918882138984136001600160ff1b038282168682048611166115ef57600160ff1b928c87129290831686850588121661160157868d871294058612908416166115ef5785900584129116166115de575002958613156115ce5769ffffffffffffffffffff8091169116106115c057156115b357505090565b51632f9ad49d60e11b8152fd5b50516346e8c97560e11b8152fd5b505050516315e5656b60e21b8152fd5b634e487b7160e01b89526011885288fd5b634e487b7160e01b8c5260118b52838cfd5b634e487b7160e01b8d5260118c52848dfd5b634e487b7160e01b8952601288528289fd5b634e487b7160e01b8952601188528289fd5b905081813d8311611669575b61164d81836112d3565b8101031261068a575160ff8116810361068a5760ff903861151a565b503d611643565b88513d8c823e3d90fd5b9197509195506116a3929750859350803d106116b6575b61169b81836112d3565b8101906113ef565b98939094929691509593979690386114f6565b503d611691565b86513d8a823e3d90fd5b90508481813d83116116f5575b6116de81836112d3565b8101031261068a576116ef906112f5565b386114d1565b503d6116d4565b87513d8b823e3d90fd5b845163d15f73b560e01b81528690fd5b634e487b7160e01b885260118752602488fd5b855162032b3d60e81b81528790fd5b90506117519150853d87116116b65761169b81836112d3565b505091503861146956fe4c48fdcd7e3cb84b81aa54aa5dd04105736ae1bc179d84611c6fa5a642e803f2a2646970667358221220d2201ee7bc5e55bc3c622384d547651d1915f874c24bd782332c327d51136f6264736f6c634300080f0033",
    "linkReferences": {}
  },
  "methodIdentifiers": {
    "VAULTS_LENGTH()": "c4e8adf3",
    "admin()": "f851a440",
    "getLatestPrice(address)": "16345f18",
    "getVaultFactory()": "18bcb284",
    "triggerDepeg(uint256,uint256)": "bcbbcfe4",
    "triggerEndEpoch(uint256,uint256)": "cdfd29b3",
    "vaultFactory()": "d8a06f73"
  },
  "id": 28
}