{
  "abi": [
    {
      "inputs": [
        {
          "internalType": "address",
          "name": "_factory",
          "type": "address"
        },
        {
          "internalType": "address",
          "name": "_admin",
          "type": "address"
        },
        {
          "internalType": "address",
          "name": "_l2Sequencer",
          "type": "address"
        }
      ],
      "stateMutability": "nonpayable",
      "type": "constructor"
    },
    {
      "inputs": [],
      "name": "GracePeriodNotOver",
      "type": "error"
    },
    {
      "inputs": [],
      "name": "SequencerDown",
      "type": "error"
    },
    {
      "anonymous": false,
      "inputs": [
        {
          "components": [
            {
              "internalType": "uint256",
              "name": "RISK_claimTVL",
              "type": "uint256"
            },
            {
              "internalType": "uint256",
              "name": "RISK_finalTVL",
              "type": "uint256"
            },
            {
              "internalType": "uint256",
              "name": "INSR_claimTVL",
              "type": "uint256"
            },
            {
              "internalType": "uint256",
              "name": "INSR_finalTVL",
              "type": "uint256"
            }
          ],
          "indexed": false,
          "internalType": "struct Controller.VaultTVL",
          "name": "tvl",
          "type": "tuple"
        },
        {
          "indexed": false,
          "internalType": "uint256",
          "name": "index",
          "type": "uint256"
        },
        {
          "indexed": false,
          "internalType": "uint256",
          "name": "epoch",
          "type": "uint256"
        },
        {
          "indexed": false,
          "internalType": "string",
          "name": "name",
          "type": "string"
        },
        {
          "indexed": false,
          "internalType": "uint256",
          "name": "time",
          "type": "uint256"
        },
        {
          "indexed": false,
          "internalType": "int256",
          "name": "depegPrice",
          "type": "int256"
        }
      ],
      "name": "DepegInsurance",
      "type": "event"
    },
    {
      "inputs": [],
      "name": "admin",
      "outputs": [
        {
          "internalType": "address",
          "name": "",
          "type": "address"
        }
      ],
      "stateMutability": "view",
      "type": "function"
    },
    {
      "inputs": [
        {
          "internalType": "address",
          "name": "_token",
          "type": "address"
        }
      ],
      "name": "getLatestPrice",
      "outputs": [
        {
          "internalType": "int256",
          "name": "nowPrice",
          "type": "int256"
        }
      ],
      "stateMutability": "view",
      "type": "function"
    },
    {
      "inputs": [],
      "name": "getVaultFactory",
      "outputs": [
        {
          "internalType": "address",
          "name": "",
          "type": "address"
        }
      ],
      "stateMutability": "view",
      "type": "function"
    },
    {
      "inputs": [
        {
          "internalType": "uint256",
          "name": "marketIndex",
          "type": "uint256"
        },
        {
          "internalType": "uint256",
          "name": "epochEnd",
          "type": "uint256"
        }
      ],
      "name": "triggerDepeg",
      "outputs": [],
      "stateMutability": "nonpayable",
      "type": "function"
    },
    {
      "inputs": [
        {
          "internalType": "uint256",
          "name": "marketIndex",
          "type": "uint256"
        },
        {
          "internalType": "uint256",
          "name": "epochEnd",
          "type": "uint256"
        }
      ],
      "name": "triggerEndEpoch",
      "outputs": [],
      "stateMutability": "nonpayable",
      "type": "function"
    }
  ],
  "bytecode": {
    "object": "0x60c06040523480156200001157600080fd5b5060405162001fb538038062001fb5833981016040819052620000349162000142565b6001600160a01b038216620000905760405162461bcd60e51b815260206004820181905260248201527f61646d696e2063616e6e6f7420626520746865207a65726f206164647265737360448201526064015b60405180910390fd5b6001600160a01b038316620000f35760405162461bcd60e51b815260206004820152602260248201527f666163746f72792063616e6e6f7420626520746865207a65726f206164647265604482015261737360f01b606482015260840162000087565b6001600160a01b0391821660805291811660a052600080546001600160a01b031916929091169190911790556200018c565b80516001600160a01b03811681146200013d57600080fd5b919050565b6000806000606084860312156200015857600080fd5b620001638462000125565b9250620001736020850162000125565b9150620001836040850162000125565b90509250925092565b60805160a051611de2620001d36000396000818160840152818161020001528181610479015281816107d301528181610fd601526110e80152600060e90152611de26000f3fe608060405234801561001057600080fd5b50600436106100575760003560e01c806316345f181461005c57806318bcb28414610082578063bcbbcfe4146100bc578063cdfd29b3146100d1578063f851a440146100e4575b600080fd5b61006f61006a3660046117e9565b61010b565b6040519081526020015b60405180910390f35b7f00000000000000000000000000000000000000000000000000000000000000005b6040516001600160a01b039091168152602001610079565b6100cf6100ca36600461180d565b610473565b005b6100cf6100df36600461180d565b610fc0565b6100a47f000000000000000000000000000000000000000000000000000000000000000081565b60008060008060009054906101000a90046001600160a01b03166001600160a01b031663feaf968c6040518163ffffffff1660e01b815260040160a060405180830381865afa158015610162573d6000803e3d6000fd5b505050506040513d601f19601f82011682018060405250810190610186919061184e565b5091945092505082159050806101ae5760405162032b3d60e81b815260040160405180910390fd5b60006101ba83426118b4565b9050610e1081116101de5760405163d15f73b560e01b815260040160405180910390fd5b604051639820c73360e01b81526001600160a01b0387811660048301526000917f000000000000000000000000000000000000000000000000000000000000000090911690639820c73390602401602060405180830381865afa158015610249573d6000803e3d6000fd5b505050506040513d601f19601f8201168201806040525081019061026d91906118cb565b9050600080600080846001600160a01b031663feaf968c6040518163ffffffff1660e01b815260040160a060405180830381865afa1580156102b3573d6000803e3d6000fd5b505050506040513d601f19601f820116820180604052508101906102d7919061184e565b9450945050935093506000856001600160a01b031663313ce5676040518163ffffffff1660e01b8152600401602060405180830381865afa158015610320573d6000803e3d6000fd5b505050506040513d601f19601f8201168201806040525081019061034491906118e8565b61034f90600a6119f1565b61036190678ac7230489e80000611a00565b905061036d8185611a3c565b9350600084136103b85760405162461bcd60e51b815260206004820152601160248201527004f7261636c65207072696365203c3d203607c1b60448201526064015b60405180910390fd5b8469ffffffffffffffffffff168269ffffffffffffffffffff1610156104205760405162461bcd60e51b815260206004820181905260248201527f526f756e6449442066726f6d204f7261636c65206973206f757464617465642160448201526064016103af565b826000036104635760405162461bcd60e51b815260206004820152601060248201526f54696d657374616d70203d3d2030202160801b60448201526064016103af565b50919a9950505050505050505050565b818160007f00000000000000000000000000000000000000000000000000000000000000006001600160a01b031663468d16d0846040518263ffffffff1660e01b81526004016104c591815260200190565b600060405180830381865afa1580156104e2573d6000803e3d6000fd5b505050506040513d6000823e601f3d908101601f1916820160405261050a9190810190611b08565b9050805160021461052d5760405162461bcd60e51b81526004016103af90611bba565b60008160008151811061054257610542611c0d565b6020026020010151905060008190506105b6816001600160a01b03166304da1a466040518163ffffffff1660e01b8152600401602060405180830381865afa158015610592573d6000803e3d6000fd5b505050506040513d601f19601f8201168201806040525081019061006a91906118cb565b816001600160a01b031663c52987cf6040518163ffffffff1660e01b8152600401602060405180830381865afa1580156105f4573d6000803e3d6000fd5b505050506040513d601f19601f820116820180604052508101906106189190611c23565b121561067f5760405162461bcd60e51b815260206004820152603060248201527f43757272656e74207072696365206973206e6f7420617420746865207374726960448201526f6b65207072696365207461726765742160801b60648201526084016103af565b60405163ea859a2760e01b81526004810185905242906001600160a01b0383169063ea859a2790602401602060405180830381865afa1580156106c6573d6000803e3d6000fd5b505050506040513d601f19601f820116820180604052508101906106ea9190611c23565b1061075d5760405162461bcd60e51b815260206004820152603d60248201527f45706f636820686173206e6f7420737461727465642c2063616e6e6f7420696e60448201527f7375726520756e74696c2065706f63682068617320737461727465642100000060648201526084016103af565b8342106107ba5760405162461bcd60e51b815260206004820152602560248201527f45706f636820666f72207468697320696e737572616e63652068617320657870604482015264697265642160d81b60648201526084016103af565b604051630468d16d60e41b8152600481018890526000907f00000000000000000000000000000000000000000000000000000000000000006001600160a01b03169063468d16d090602401600060405180830381865afa158015610822573d6000803e3d6000fd5b505050506040513d6000823e601f3d908101601f1916820160405261084a9190810190611b08565b905060008160008151811061086157610861611c0d565b6020026020010151905060008260018151811061088057610880611c0d565b60200260200101519050816001600160a01b031663f9db24278a6040518263ffffffff1660e01b81526004016108b891815260200190565b602060405180830381865afa1580156108d5573d6000803e3d6000fd5b505050506040513d601f19601f820116820180604052508101906108f99190611c23565b156109165760405162461bcd60e51b81526004016103af90611c3c565b60405163f9db242760e01b8152600481018a90526001600160a01b0382169063f9db242790602401602060405180830381865afa15801561095b573d6000803e3d6000fd5b505050506040513d601f19601f8201168201806040525081019061097f9190611c23565b156109c55760405162461bcd60e51b815260206004820152601660248201527504572726f723a2054564c73206d7573742074626520360541b60448201526064016103af565b60405163265ea1ef60e11b8152600481018a9052600160248201526001600160a01b03831690634cbd43de90604401600060405180830381600087803b158015610a0e57600080fd5b505af1158015610a22573d6000803e3d6000fd5b505060405163265ea1ef60e11b8152600481018c9052600160248201526001600160a01b0384169250634cbd43de9150604401600060405180830381600087803b158015610a6f57600080fd5b505af1158015610a83573d6000803e3d6000fd5b50505050816001600160a01b0316633e0483658a836001600160a01b031663f9db24278d6040518263ffffffff1660e01b8152600401610ac591815260200190565b602060405180830381865afa158015610ae2573d6000803e3d6000fd5b505050506040513d601f19601f82011682018060405250810190610b069190611c23565b6040516001600160e01b031960e085901b16815260048101929092526024820152604401600060405180830381600087803b158015610b4457600080fd5b505af1158015610b58573d6000803e3d6000fd5b50505050806001600160a01b0316633e0483658a846001600160a01b031663f9db24278d6040518263ffffffff1660e01b8152600401610b9a91815260200190565b602060405180830381865afa158015610bb7573d6000803e3d6000fd5b505050506040513d601f19601f82011682018060405250810190610bdb9190611c23565b6040516001600160e01b031960e085901b16815260048101929092526024820152604401600060405180830381600087803b158015610c1957600080fd5b505af1158015610c2d573d6000803e3d6000fd5b50506040516329322e0560e01b8152600481018c90526001600160a01b038481166024830152851692506329322e059150604401600060405180830381600087803b158015610c7b57600080fd5b505af1158015610c8f573d6000803e3d6000fd5b50506040516329322e0560e01b8152600481018c90526001600160a01b038581166024830152841692506329322e059150604401600060405180830381600087803b158015610cdd57600080fd5b505af1158015610cf1573d6000803e3d6000fd5b5050604080516080810191829052634d288ba760e01b909152608481018c9052600092509050806001600160a01b038416634d288ba760a48301602060405180830381865afa158015610d48573d6000803e3d6000fd5b505050506040513d601f19601f82011682018060405250810190610d6c9190611c23565b8152602001846001600160a01b0316634d288ba78d6040518263ffffffff1660e01b8152600401610d9f91815260200190565b602060405180830381865afa158015610dbc573d6000803e3d6000fd5b505050506040513d601f19601f82011682018060405250810190610de09190611c23565b8152602001836001600160a01b031663f9db24278d6040518263ffffffff1660e01b8152600401610e1391815260200190565b602060405180830381865afa158015610e30573d6000803e3d6000fd5b505050506040513d601f19601f82011682018060405250810190610e549190611c23565b8152602001846001600160a01b031663f9db24278d6040518263ffffffff1660e01b8152600401610e8791815260200190565b602060405180830381865afa158015610ea4573d6000803e3d6000fd5b505050506040513d601f19601f82011682018060405250810190610ec89190611c23565b81525090507f22fe208e0376ee5eceb291e87187267605a9b3f995cfaccf9c0a1f31940967cb818c8c866001600160a01b03166306fdde036040518163ffffffff1660e01b8152600401600060405180830381865afa158015610f2f573d6000803e3d6000fd5b505050506040513d6000823e601f3d908101601f19168201604052610f579190810190611c9b565b42610f99896001600160a01b03166304da1a466040518163ffffffff1660e01b8152600401602060405180830381865afa158015610592573d6000803e3d6000fd5b604051610fab96959493929190611d2f565b60405180910390a15050505050505050505050565b604051630468d16d60e41b8152600481018390527f00000000000000000000000000000000000000000000000000000000000000006001600160a01b03169063468d16d090602401600060405180830381865afa158015611025573d6000803e3d6000fd5b505050506040513d6000823e601f3d908101601f1916820160405261104d9190810190611b08565b5160021461106d5760405162461bcd60e51b81526004016103af90611bba565b804210156110cf5760405162461bcd60e51b815260206004820152602960248201527f45706f636820666f72207468697320696e737572616e636520686173206e6f7460448201526820657870697265642160b81b60648201526084016103af565b604051630468d16d60e41b8152600481018390526000907f00000000000000000000000000000000000000000000000000000000000000006001600160a01b03169063468d16d090602401600060405180830381865afa158015611137573d6000803e3d6000fd5b505050506040513d6000823e601f3d908101601f1916820160405261115f9190810190611b08565b905060008160008151811061117657611176611c0d565b6020026020010151905060008260018151811061119557611195611c0d565b60200260200101519050816001600160a01b031663f9db2427856040518263ffffffff1660e01b81526004016111cd91815260200190565b602060405180830381865afa1580156111ea573d6000803e3d6000fd5b505050506040513d601f19601f8201168201806040525081019061120e9190611c23565b1561122b5760405162461bcd60e51b81526004016103af90611c3c565b60405163f9db242760e01b8152600481018590526001600160a01b0382169063f9db242790602401602060405180830381865afa158015611270573d6000803e3d6000fd5b505050506040513d601f19601f820116820180604052508101906112949190611c23565b156112b15760405162461bcd60e51b81526004016103af90611c3c565b60405163265ea1ef60e11b815260048101859052600060248201526001600160a01b03831690634cbd43de90604401600060405180830381600087803b1580156112fa57600080fd5b505af115801561130e573d6000803e3d6000fd5b505060405163265ea1ef60e11b815260048101879052600060248201526001600160a01b0384169250634cbd43de9150604401600060405180830381600087803b15801561135b57600080fd5b505af115801561136f573d6000803e3d6000fd5b5050604051633e04836560e01b815260048101879052600060248201526001600160a01b0385169250633e0483659150604401600060405180830381600087803b1580156113bc57600080fd5b505af11580156113d0573d6000803e3d6000fd5b50505050806001600160a01b0316633e04836585846001600160a01b031663f9db2427886040518263ffffffff1660e01b815260040161141291815260200190565b602060405180830381865afa15801561142f573d6000803e3d6000fd5b505050506040513d601f19601f820116820180604052508101906114539190611c23565b6040516001600160e01b031960e085901b16815260048101929092526024820152604401600060405180830381600087803b15801561149157600080fd5b505af11580156114a5573d6000803e3d6000fd5b50506040516329322e0560e01b8152600481018790526001600160a01b038481166024830152851692506329322e059150604401600060405180830381600087803b1580156114f357600080fd5b505af1158015611507573d6000803e3d6000fd5b5050604080516080810191829052634d288ba760e01b90915260848101879052600092509050806001600160a01b038416634d288ba760a48301602060405180830381865afa15801561155e573d6000803e3d6000fd5b505050506040513d601f19601f820116820180604052508101906115829190611c23565b8152602001846001600160a01b0316634d288ba7886040518263ffffffff1660e01b81526004016115b591815260200190565b602060405180830381865afa1580156115d2573d6000803e3d6000fd5b505050506040513d601f19601f820116820180604052508101906115f69190611c23565b8152602001836001600160a01b031663f9db2427886040518263ffffffff1660e01b815260040161162991815260200190565b602060405180830381865afa158015611646573d6000803e3d6000fd5b505050506040513d601f19601f8201168201806040525081019061166a9190611c23565b8152602001846001600160a01b031663f9db2427886040518263ffffffff1660e01b815260040161169d91815260200190565b602060405180830381865afa1580156116ba573d6000803e3d6000fd5b505050506040513d601f19601f820116820180604052508101906116de9190611c23565b81525090507f22fe208e0376ee5eceb291e87187267605a9b3f995cfaccf9c0a1f31940967cb818787866001600160a01b03166306fdde036040518163ffffffff1660e01b8152600401600060405180830381865afa158015611745573d6000803e3d6000fd5b505050506040513d6000823e601f3d908101601f1916820160405261176d9190810190611c9b565b426117af896001600160a01b03166304da1a466040518163ffffffff1660e01b8152600401602060405180830381865afa158015610592573d6000803e3d6000fd5b6040516117c196959493929190611d2f565b60405180910390a1505050505050565b6001600160a01b03811681146117e657600080fd5b50565b6000602082840312156117fb57600080fd5b8135611806816117d1565b9392505050565b6000806040838503121561182057600080fd5b50508035926020909101359150565b805169ffffffffffffffffffff8116811461184957600080fd5b919050565b600080600080600060a0868803121561186657600080fd5b61186f8661182f565b94506020860151935060408601519250606086015191506118926080870161182f565b90509295509295909350565b634e487b7160e01b600052601160045260246000fd5b6000828210156118c6576118c661189e565b500390565b6000602082840312156118dd57600080fd5b8151611806816117d1565b6000602082840312156118fa57600080fd5b815160ff8116811461180657600080fd5b600181815b8085111561194657816000190482111561192c5761192c61189e565b8085161561193957918102915b93841c9390800290611910565b509250929050565b60008261195d575060016119eb565b8161196a575060006119eb565b8160018114611980576002811461198a576119a6565b60019150506119eb565b60ff84111561199b5761199b61189e565b50506001821b6119eb565b5060208310610133831016604e8410600b84101617156119c9575081810a6119eb565b6119d3838361190b565b80600019048211156119e7576119e761189e565b0290505b92915050565b600061180660ff84168361194e565b600082611a1d57634e487b7160e01b600052601260045260246000fd5b600160ff1b821460001984141615611a3757611a3761189e565b500590565b60006001600160ff1b0381841382841380821686840486111615611a6257611a6261189e565b600160ff1b6000871282811687830589121615611a8157611a8161189e565b60008712925087820587128484161615611a9d57611a9d61189e565b87850587128184161615611ab357611ab361189e565b505050929093029392505050565b634e487b7160e01b600052604160045260246000fd5b604051601f8201601f1916810167ffffffffffffffff81118282101715611b0057611b00611ac1565b604052919050565b60006020808385031215611b1b57600080fd5b825167ffffffffffffffff80821115611b3357600080fd5b818501915085601f830112611b4757600080fd5b815181811115611b5957611b59611ac1565b8060051b9150611b6a848301611ad7565b8181529183018401918481019088841115611b8457600080fd5b938501935b83851015611bae5784519250611b9e836117d1565b8282529385019390850190611b89565b98975050505050505050565b60208082526033908201527f5468657265206973206e6f206d61726b657420617661696c61626c6520666f726040820152722074686973206d61726b657420496e6465782160681b606082015260800190565b634e487b7160e01b600052603260045260246000fd5b600060208284031215611c3557600080fd5b5051919050565b60208082526015908201527404572726f723a2054564c73206d757374206265203605c1b604082015260600190565b60005b83811015611c86578181015183820152602001611c6e565b83811115611c95576000848401525b50505050565b600060208284031215611cad57600080fd5b815167ffffffffffffffff80821115611cc557600080fd5b818401915084601f830112611cd957600080fd5b815181811115611ceb57611ceb611ac1565b611cfe601f8201601f1916602001611ad7565b9150808252856020828501011115611d1557600080fd5b611d26816020840160208601611c6b565b50949350505050565b6000610120885183526020890151602084015260408901516040840152606089015160608401528760808401528660a08401528060c0840152855180828501526101409150611d848183860160208a01611c6b565b81601f19601f830116850101925050508360e08301528261010083015297965050505050505056fea26469706673582212204fcb289801ada253e0e6845aa3cf5186b45d15eaae89bb3d557572b2cffc6bf764736f6c634300080f0033",
    "linkReferences": {}
  },
  "methodIdentifiers": {
    "admin()": "f851a440",
    "getLatestPrice(address)": "16345f18",
    "getVaultFactory()": "18bcb284",
    "triggerDepeg(uint256,uint256)": "bcbbcfe4",
    "triggerEndEpoch(uint256,uint256)": "cdfd29b3"
  },
  "id": 27
}