{
  "abi": [
    {
      "inputs": [
        {
          "internalType": "address",
          "name": "_treasury",
          "type": "address"
        },
        {
          "internalType": "address",
          "name": "_weth",
          "type": "address"
        },
        {
          "internalType": "address",
          "name": "_admin",
          "type": "address"
        }
      ],
      "stateMutability": "nonpayable",
      "type": "constructor"
    },
    {
      "inputs": [],
      "name": "AddressFactoryNotInController",
      "type": "error"
    },
    {
      "inputs": [
        {
          "internalType": "address",
          "name": "addr",
          "type": "address"
        }
      ],
      "name": "AddressNotAdmin",
      "type": "error"
    },
    {
      "inputs": [],
      "name": "AddressNotController",
      "type": "error"
    },
    {
      "inputs": [],
      "name": "AddressZero",
      "type": "error"
    },
    {
      "inputs": [],
      "name": "ControllerNotSet",
      "type": "error"
    },
    {
      "inputs": [
        {
          "internalType": "uint256",
          "name": "marketIndex",
          "type": "uint256"
        }
      ],
      "name": "MarketDoesNotExist",
      "type": "error"
    },
    {
      "inputs": [
        {
          "internalType": "int256",
          "name": "strikePrice",
          "type": "int256"
        }
      ],
      "name": "StrikePriceGreaterThan100",
      "type": "error"
    },
    {
      "inputs": [
        {
          "internalType": "int256",
          "name": "strikePrice",
          "type": "int256"
        }
      ],
      "name": "StrikePriceLesserThan10",
      "type": "error"
    },
    {
      "anonymous": false,
      "inputs": [
        {
          "indexed": true,
          "internalType": "bytes32",
          "name": "marketEpochId",
          "type": "bytes32"
        },
        {
          "indexed": true,
          "internalType": "uint256",
          "name": "mIndex",
          "type": "uint256"
        },
        {
          "indexed": false,
          "internalType": "uint256",
          "name": "startEpoch",
          "type": "uint256"
        },
        {
          "indexed": false,
          "internalType": "uint256",
          "name": "endEpoch",
          "type": "uint256"
        },
        {
          "indexed": false,
          "internalType": "address",
          "name": "hedge",
          "type": "address"
        },
        {
          "indexed": false,
          "internalType": "address",
          "name": "risk",
          "type": "address"
        },
        {
          "indexed": false,
          "internalType": "address",
          "name": "token",
          "type": "address"
        },
        {
          "indexed": false,
          "internalType": "string",
          "name": "name",
          "type": "string"
        },
        {
          "indexed": false,
          "internalType": "int256",
          "name": "strikePrice",
          "type": "int256"
        },
        {
          "indexed": false,
          "internalType": "uint256",
          "name": "withdrawalFee",
          "type": "uint256"
        }
      ],
      "name": "EpochCreated",
      "type": "event"
    },
    {
      "anonymous": false,
      "inputs": [
        {
          "indexed": true,
          "internalType": "uint256",
          "name": "mIndex",
          "type": "uint256"
        },
        {
          "indexed": false,
          "internalType": "address",
          "name": "hedge",
          "type": "address"
        },
        {
          "indexed": false,
          "internalType": "address",
          "name": "risk",
          "type": "address"
        },
        {
          "indexed": false,
          "internalType": "address",
          "name": "token",
          "type": "address"
        },
        {
          "indexed": false,
          "internalType": "string",
          "name": "name",
          "type": "string"
        },
        {
          "indexed": false,
          "internalType": "int256",
          "name": "strikePrice",
          "type": "int256"
        }
      ],
      "name": "MarketCreated",
      "type": "event"
    },
    {
      "anonymous": false,
      "inputs": [
        {
          "indexed": true,
          "internalType": "uint256",
          "name": "_marketIndex",
          "type": "uint256"
        },
        {
          "indexed": true,
          "internalType": "address",
          "name": "controller",
          "type": "address"
        }
      ],
      "name": "changedController",
      "type": "event"
    },
    {
      "anonymous": false,
      "inputs": [
        {
          "indexed": true,
          "internalType": "uint256",
          "name": "_marketIndex",
          "type": "uint256"
        },
        {
          "indexed": false,
          "internalType": "uint256",
          "name": "_timeWindow",
          "type": "uint256"
        }
      ],
      "name": "changedTimeWindow",
      "type": "event"
    },
    {
      "anonymous": false,
      "inputs": [
        {
          "indexed": false,
          "internalType": "address",
          "name": "_treasury",
          "type": "address"
        },
        {
          "indexed": true,
          "internalType": "uint256",
          "name": "_marketIndex",
          "type": "uint256"
        }
      ],
      "name": "changedTreasury",
      "type": "event"
    },
    {
      "anonymous": false,
      "inputs": [
        {
          "indexed": true,
          "internalType": "uint256",
          "name": "_marketIndex",
          "type": "uint256"
        },
        {
          "indexed": false,
          "internalType": "uint256",
          "name": "_feeRate",
          "type": "uint256"
        }
      ],
      "name": "changedVaultFee",
      "type": "event"
    },
    {
      "anonymous": false,
      "inputs": [
        {
          "indexed": true,
          "internalType": "address",
          "name": "newController",
          "type": "address"
        }
      ],
      "name": "controllerSet",
      "type": "event"
    },
    {
      "inputs": [],
      "name": "Admin",
      "outputs": [
        {
          "internalType": "address",
          "name": "",
          "type": "address"
        }
      ],
      "stateMutability": "view",
      "type": "function"
    },
    {
      "inputs": [],
      "name": "WETH",
      "outputs": [
        {
          "internalType": "address",
          "name": "",
          "type": "address"
        }
      ],
      "stateMutability": "view",
      "type": "function"
    },
    {
      "inputs": [
        {
          "internalType": "uint256",
          "name": "_marketIndex",
          "type": "uint256"
        },
        {
          "internalType": "address",
          "name": "_controller",
          "type": "address"
        }
      ],
      "name": "changeController",
      "outputs": [],
      "stateMutability": "nonpayable",
      "type": "function"
    },
    {
      "inputs": [
        {
          "internalType": "uint256",
          "name": "_marketIndex",
          "type": "uint256"
        },
        {
          "internalType": "uint256",
          "name": "_timewindow",
          "type": "uint256"
        }
      ],
      "name": "changeTimewindow",
      "outputs": [],
      "stateMutability": "nonpayable",
      "type": "function"
    },
    {
      "inputs": [
        {
          "internalType": "address",
          "name": "_treasury",
          "type": "address"
        },
        {
          "internalType": "uint256",
          "name": "_marketIndex",
          "type": "uint256"
        }
      ],
      "name": "changeTreasury",
      "outputs": [],
      "stateMutability": "nonpayable",
      "type": "function"
    },
    {
      "inputs": [],
      "name": "controller",
      "outputs": [
        {
          "internalType": "address",
          "name": "",
          "type": "address"
        }
      ],
      "stateMutability": "view",
      "type": "function"
    },
    {
      "inputs": [
        {
          "internalType": "uint256",
          "name": "_withdrawalFee",
          "type": "uint256"
        },
        {
          "internalType": "address",
          "name": "_token",
          "type": "address"
        },
        {
          "internalType": "int256",
          "name": "_strikePrice",
          "type": "int256"
        },
        {
          "internalType": "uint256",
          "name": "epochBegin",
          "type": "uint256"
        },
        {
          "internalType": "uint256",
          "name": "epochEnd",
          "type": "uint256"
        },
        {
          "internalType": "address",
          "name": "_oracle",
          "type": "address"
        },
        {
          "internalType": "string",
          "name": "_name",
          "type": "string"
        }
      ],
      "name": "createNewMarket",
      "outputs": [
        {
          "internalType": "address",
          "name": "insr",
          "type": "address"
        },
        {
          "internalType": "address",
          "name": "rsk",
          "type": "address"
        }
      ],
      "stateMutability": "nonpayable",
      "type": "function"
    },
    {
      "inputs": [
        {
          "internalType": "uint256",
          "name": "index",
          "type": "uint256"
        },
        {
          "internalType": "uint256",
          "name": "epochBegin",
          "type": "uint256"
        },
        {
          "internalType": "uint256",
          "name": "epochEnd",
          "type": "uint256"
        },
        {
          "internalType": "uint256",
          "name": "_withdrawalFee",
          "type": "uint256"
        }
      ],
      "name": "deployMoreAssets",
      "outputs": [],
      "stateMutability": "nonpayable",
      "type": "function"
    },
    {
      "inputs": [
        {
          "internalType": "uint256",
          "name": "index",
          "type": "uint256"
        }
      ],
      "name": "getVaults",
      "outputs": [
        {
          "internalType": "address[]",
          "name": "vaults",
          "type": "address[]"
        }
      ],
      "stateMutability": "view",
      "type": "function"
    },
    {
      "inputs": [
        {
          "internalType": "uint256",
          "name": "",
          "type": "uint256"
        },
        {
          "internalType": "uint256",
          "name": "",
          "type": "uint256"
        }
      ],
      "name": "indexEpochs",
      "outputs": [
        {
          "internalType": "uint256",
          "name": "",
          "type": "uint256"
        }
      ],
      "stateMutability": "view",
      "type": "function"
    },
    {
      "inputs": [
        {
          "internalType": "uint256",
          "name": "",
          "type": "uint256"
        },
        {
          "internalType": "uint256",
          "name": "",
          "type": "uint256"
        }
      ],
      "name": "indexVaults",
      "outputs": [
        {
          "internalType": "address",
          "name": "",
          "type": "address"
        }
      ],
      "stateMutability": "view",
      "type": "function"
    },
    {
      "inputs": [],
      "name": "marketIndex",
      "outputs": [
        {
          "internalType": "uint256",
          "name": "",
          "type": "uint256"
        }
      ],
      "stateMutability": "view",
      "type": "function"
    },
    {
      "inputs": [
        {
          "internalType": "address",
          "name": "_controller",
          "type": "address"
        }
      ],
      "name": "setController",
      "outputs": [],
      "stateMutability": "nonpayable",
      "type": "function"
    },
    {
      "inputs": [
        {
          "internalType": "address",
          "name": "",
          "type": "address"
        }
      ],
      "name": "tokenToOracle",
      "outputs": [
        {
          "internalType": "address",
          "name": "",
          "type": "address"
        }
      ],
      "stateMutability": "view",
      "type": "function"
    },
    {
      "inputs": [],
      "name": "treasury",
      "outputs": [
        {
          "internalType": "address",
          "name": "",
          "type": "address"
        }
      ],
      "stateMutability": "view",
      "type": "function"
    }
  ],
  "bytecode": {
    "object": "0x60c0346200012657601f6200843f38819003918201601f191683019291906001600160401b038411838510176200012b5781606092849260409687528339810103126200012657620000518162000141565b906200006d83620000656020840162000141565b920162000141565b916001600160a01b039081841615620001155781831615620001155716918215620001045760805260a052600060025560018060a01b03196000541617600055516182e8908162000157823960805181818160e9015281816101720152818161041c01528181610527015281816106c80152818161089d0152610a9a015260a05181818161038c01528181610c190152610d380152f35b8351639fabe1c160e01b8152600490fd5b8451639fabe1c160e01b8152600490fd5b600080fd5b634e487b7160e01b600052604160045260246000fd5b51906001600160a01b0382168203620001265756fe608060405260043610156200001357600080fd5b6000803560e01c806315355d891462000a0357806339d0913b1462000881578063424a4ab7146200083b578063468d16d0146200077d57806361d027b314620007545780638c7adc15146200073457806392eefe9b146200069f5780639718403414620004fa578063981fed0d14620003fb5780639820c73314620003bb578063ad5c46481462000374578063c0c99d9b1462000323578063c5ba24b11462000146578063f77c4791146200011b5763ff1b636d14620000d257600080fd5b3462000118578060031936011262000118576040517f00000000000000000000000000000000000000000000000000000000000000006001600160a01b03168152602090f35b80fd5b503462000118578060031936011262000118576001546040516001600160a01b039091168152602090f35b50346200011857604036600319011262000118576004356200016762001084565b6001600160a01b03907f0000000000000000000000000000000000000000000000000000000000000000821633036200030b578116908115620002f95783908382526020906003825260408320604051928381835491828152019286528186209186905b828210620002db575050505082620001e5910383620010e2565b620001fe81620001f58462001589565b51169262001597565b511690803b15620002a957604051838160248183633cebb82360e01b968783528a60048401525af1908115620002d0578491620002b8575b5050813b15620002a957829160248392604051948593849283528860048401525af18015620002ad5762000291575b5050604051917fda50bc426cb0e9e095fd3ae12db16f07a366fe474ca736f84dd3037bd9050cff8484a3f35b6200029c90620010b7565b620002a957823862000265565b8280fd5b6040513d84823e3d90fd5b620002c390620010b7565b620002a957823862000236565b6040513d86823e3d90fd5b8354861685528a9750938401936001938401939190910190620001cb565b604051639fabe1c160e01b8152600490fd5b604051630888870360e01b8152336004820152602490fd5b50346200011857620003353662001122565b91908152600360205260408120908154831015620001185760206200035b848462001139565b905460405160039290921b1c6001600160a01b03168152f35b503462000118578060031936011262000118576040517f00000000000000000000000000000000000000000000000000000000000000006001600160a01b03168152602090f35b50346200011857602036600319011262000118576020906001600160a01b039060409082620003e9620010a0565b16815260058452205416604051908152f35b50346200011857608036600319011262000118576001600160a01b036004357f0000000000000000000000000000000000000000000000000000000000000000821633036200030b57816001541615620004e8576002548111620004d057808352600360205260408320805415620004ba57600052816020600020541681845260036020526040842092835460011015620004ba57620004b5936000526001602060002001541690606435926044359060243590620011d2565b604051f35b634e487b7160e01b600052603260045260246000fd5b60249060405190630fff01a760e31b82526004820152fd5b604051632110f99160e01b8152600490fd5b503462000118576040366003190112620001185762000518620010a0565b602435906001600160a01b03907f0000000000000000000000000000000000000000000000000000000000000000821633036200030b57811690816bffffffffffffffffffffffff60a01b855416178455828452836020916003835260408220906040519182858254918281520191855285852090855b8782821062000685575050505082620005aa910383620010e2565b620005ba81620001f58462001589565b511690803b15620002a95760405183816024818363b14f2a3960e01b968783528b60048401525af1908115620002d05784916200066d575b5050813b15620002a957829160248392604051948593849283528960048401525af18015620002ad5762000651575b50507f19bf2eeec0ce4db400b9ec99f958a1b32935964814d88991caa4b9b936b4e63991604051908152a2604051f35b6200065c90620010b7565b6200066957833862000621565b8380fd5b6200067890620010b7565b620002a9578238620005f2565b8354861685528b975090930192600192830192016200058f565b5034620001185760203660031901126200011857620006bd620010a0565b6001600160a01b03907f0000000000000000000000000000000000000000000000000000000000000000821633036200030b57168015620002f957600180546001600160a01b03191682179055604051907fef870992dc2c2a67cde45c38102147a9bb3131b38b39be3ec2ba273c058c91718383a2f35b503462000118578060031936011262000118576020600254604051908152f35b50346200011857806003193601126200011857546040516001600160a01b039091168152602090f35b5034620001185760208060031936011262000837576004358252600381526040822060405192838383549182815201908193835284832090835b818110620008195750505084620007d0910385620010e2565b60405193838594850191818652518092526040850193925b828110620007f857505050500390f35b83516001600160a01b031685528695509381019392810192600101620007e8565b82546001600160a01b031684529286019260019283019201620007b7565b5080fd5b503462000118576200084d3662001122565b919081526004602052604081209081548310156200011857602062000873848462001139565b90546040519160031b1c8152f35b50346200011857620008933662001122565b6001600160a01b037f0000000000000000000000000000000000000000000000000000000000000000811633036200030b57828452602090600382526040852090604051808385829554938481520190895285892092895b87828210620009ea575050506200090592500383620010e2565b6200091581620001f58462001589565b511690803b15620009e657604051868160248183631419befb60e11b968783528a60048401525af18015620009db57620009c3575b50908591813b15620002a957829160248392604051948593849283528960048401525af18015620002ad57620009ab575b50507ff2552ab36a09f455ea9338e021e499c4a24016de8810a7e723c738ab11ea7af491604051908152a2604051f35b620009b690620010b7565b620006695783386200097b565b620009d29096919296620010b7565b9490386200094a565b6040513d89823e3d90fd5b8580fd5b85548716845260019586019588955093019201620008eb565b5034620001185760e0366003190112620001185762000a2162001084565b9060a435906001600160a01b0382168203620001185760c4359267ffffffffffffffff84116200083757366023850112156200083757836004013562000a678162001105565b9462000a776040519687620010e2565b8186523660248383010111620006695781849260246020930183890137860101527f00000000000000000000000000000000000000000000000000000000000000006001600160a01b031633036200030b5760015460405163062f2ca160e21b81526001600160a01b0390911690602081600481855afa908115620002d05784916200104e575b50306001600160a01b03909116036200103c578015620004e8576064604435136200102257600a6044351262001008576001785c3bd5191b525a2484df7f5cfd6a43e17fc6f80abedcc69ba7604435118460443513161662000ff4576001785c3bd5191b525a2484df7f5cfd6a43e17fc6f80abedcc69ba619604435128460443512161662000ff457600254600119811162000fe0576001016002556040519062000bd9602583885162000bba816020840160208d0162001173565b810164484544474560d81b6020820152036005810185520183620010e2565b60018060a01b0384541690604051928361368581011067ffffffffffffffff6136858601111762000fcc5791839162000c5a604094613685620015a986397f00000000000000000000000000000000000000000000000000000000000000006001600160a01b0316613685860190815260e0602082018190520190620011ab565b61368584018082038682015260048252636859324b60e01b602083015260608101939093526001600160a01b038716608084015260443567016345785d8a00000260a084015260c09092015203019083f0928315620002ad5760405162000cf0602482885162000cd2816020840160208d0162001173565b8101635249534b60e01b6020820152036004810184520182620010e2565b8354600154604051926001600160a01b039283169290911690613685840180851167ffffffffffffffff9091111762000fb85791839162000d7960409461368562004c2e86397f00000000000000000000000000000000000000000000000000000000000000006001600160a01b0316613685860190815260e0602082018190520190620011ab565b61368584018082038682015260048252637259324b60e01b602083015260608101939093526001600160a01b038816608084015260443567016345785d8a00000260a084015260c09092015203019084f092831562000fac576040516040810181811067ffffffffffffffff82111762000f985760405260018060a01b038616815260018060a01b03851660208201526002548252600360205260408220908154600283558060021062000f6e575b50908252602082209082905b6002821062000f3d575050506001600160a01b0380841682526005602052604080832054909762000efd959094909390929091161562000f15575b505060025486516001600160a01b03878116825286811660208301529092168288015260a060608301819052909283927ff38f00404415af51ddd0dd57ce975d015de2f40ba8a087ac48cd7552b7580f32929091829162000ed49190830190620011ab565b67016345785d8a00006044350260808301520390a28284600435926084359060643590620011d2565b82516001600160a01b03928316815291166020820152f35b87902080546001600160a01b0319166001600160a01b03909216919091179055388062000e6f565b805183546001600160a01b0319166001600160a01b0391909116178355600192830192919091019060200162000e34565b82845260026020852091820191015b81811062000f8c575062000e28565b84815560010162000f7d565b634e487b7160e01b83526041600452602483fd5b604051903d90823e3d90fd5b634e487b7160e01b87526041600452602487fd5b634e487b7160e01b86526041600452602486fd5b634e487b7160e01b84526011600452602484fd5b634e487b7160e01b83526011600452602483fd5b604051631b436ee760e11b81526044356004820152602490fd5b604051634a8d123d60e01b81526044356004820152602490fd5b604051632e6268cb60e11b8152600490fd5b62001075915060203d6020116200107c575b6200106c8183620010e2565b81019062001152565b3862000afe565b503d62001060565b602435906001600160a01b03821682036200109b57565b600080fd5b600435906001600160a01b03821682036200109b57565b67ffffffffffffffff8111620010cc57604052565b634e487b7160e01b600052604160045260246000fd5b90601f8019910116810190811067ffffffffffffffff821117620010cc57604052565b67ffffffffffffffff8111620010cc57601f01601f191660200190565b60409060031901126200109b576004359060243590565b8054821015620004ba5760005260206000200190600090565b908160209103126200109b57516001600160a01b03811681036200109b5790565b918091926000905b828210620011955750116200118e575050565b6000910152565b915080602091830151818601520182916200117b565b90602091620011c68151809281855285808601910162001173565b601f01601f1916010190565b9295949293926001600160a01b0387163b156200109b57604051631d1c558560e21b81526004810183905260248101849052604481018290526000908181606481836001600160a01b038e165af18015620002ad5762001577575b50906001600160a01b0385163b156200083757604051631d1c558560e21b81526004810184905260248101859052604481018290528281606481836001600160a01b038b165af180156200156c5790839162001554575b5086905260046020526040822080549068010000000000000000821015620015405781620012b9916001889401815562001139565b819291549060031b600019811b9283911b169119161790556040518660208201528360408201528460608201526060815280608081011067ffffffffffffffff608083011117620010cc57608081016040819052815160208084019190912063026d0d2360e11b835297916004816001600160a01b038e165afa918215620002d057849262001500575b506040516306fdde0360e01b815299848b6004816001600160a01b0385165afa9a8b15620014f557859b62001467575b5060405163c52987cf60e01b81526020816004816001600160a01b0386165afa95861562000fac57809662001427575b5050917fb2c07c1ffc875d6b669c1cb15aa8116233e9f507b7244eaf4ef84c7660c243779798999a9162001417936040519889988952602089015260018060a01b0316604088015260018060a01b0316606087015260018060a01b031660808601526101008060a0870152850190620011ab565b9160c084015260e08301520390a3565b909195506020823d6020116200145e575b816200144760209383620010e2565b8101031262000118575051938162001417620013a3565b3d915062001438565b909a503d8086833e6200147b8183620010e2565b810190602081830312620009e65780519067ffffffffffffffff8211620014f1570181601f82011215620009e657805190620014b78262001105565b92620014c76040519485620010e2565b82845260208383010111620014f15790620014e9916020808501910162001173565b993862001373565b8680fd5b6040513d87823e3d90fd5b6200153091925060203d60201162001538575b608081620015258293838601620010e2565b830101910162001152565b903862001343565b503d62001513565b634e487b7160e01b84526041600452602484fd5b6200155f90620010b7565b6200083757813862001284565b6040513d85823e3d90fd5b6200158290620010b7565b386200122d565b805115620004ba5760200190565b805160011015620004ba576040019056fe610100604052346200053e5762003685803803806200001e8162000543565b92833981019060e0818303126200053e576200003a8162000569565b60208201519091906001600160401b03908181116200053e5784620000619184016200057e565b936040830151908282116200053e576200007d9184016200057e565b906200008c6060840162000569565b916200009b6080850162000569565b95620000af60c060a0870151960162000569565b95604051602081019080821086831117620003b95760009160405252600254600181811c9116801562000533575b60208210146200039857601f8111620004e6575b5060006002556001600160a01b0316608052805190838211620003b95760045490600182811c92168015620004db575b6020831014620003985781601f84931162000466575b50602090601f8311600114620003db57600092620003cf575b50508160011b916000199060031b1c1916176004555b8051918211620003b95760055490600182811c92168015620003ae575b6020831014620003985781601f8493116200033f575b50602090601f8311600114620002b457600092620002a8575b50508160011b916000199060031b1c1916176005555b60016006556001600160a01b031691821562000296576001600160a01b031692831562000296576001600160a01b03811615620002965760a05260018060a01b03199182600754161760075560c0523360e052600854161760085562015180600a5560405161308390816200060282396080518181816109ee01528181610dd50152818161115d0152818161137a0152818161143901526128e2015260a05181610513015260c051816119be015260e05181818161091701528181610e290152818161159301526119360152f35b604051639fabe1c160e01b8152600490fd5b015190503880620001b2565b600560009081527f036b6384b5eca791c62761152d0c79bb0604c104a5fb6f4eb0703f3154bb3db09350601f198516905b8181106200032657509084600195949392106200030c575b505050811b01600555620001c8565b015160001960f88460031b161c19169055388080620002fd565b92936020600181928786015181550195019301620002e5565b90915060056000526020600020601f840160051c810191602085106200038d575b90601f859493920160051c01905b8181106200037d575062000199565b600081558493506001016200036e565b909150819062000360565b634e487b7160e01b600052602260045260246000fd5b91607f169162000183565b634e487b7160e01b600052604160045260246000fd5b01519050388062000150565b600460009081527f8a35acfbc15ff81a39ae7d344fd709f28e8600b4aa8c65c6b64bfe7fe36bd19b9350601f198516905b8181106200044d575090846001959493921062000433575b505050811b0160045562000166565b015160001960f88460031b161c1916905538808062000424565b929360206001819287860151815501950193016200040c565b60046000529091507f8a35acfbc15ff81a39ae7d344fd709f28e8600b4aa8c65c6b64bfe7fe36bd19b601f840160051c81019160208510620004d0575b90601f859493920160051c01905b818110620004c0575062000137565b60008155849350600101620004b1565b9091508190620004a3565b91607f169162000121565b6002600052601f0160051c7f405787fa12a823e0f2b7631cc41b3ba8828b3321ca811111fa75cd3aa3bb5ace908101905b818110620005265750620000f1565b6000815560010162000517565b90607f1690620000dd565b600080fd5b6040519190601f01601f191682016001600160401b03811183821017620003b957604052565b51906001600160a01b03821682036200053e57565b81601f820112156200053e578051906001600160401b038211620003b957602090620005b3601f8401601f1916830162000543565b938385528284830101116200053e5782906000905b83838310620005e857505011620005de57505090565b6000918301015290565b81935082819392010151828288010152018391620005c856fe60806040526004361015610013575b600080fd5b60003560e01c8062fdd58e146103cb57806301ffc9a7146103c257806304da1a46146103b957806306fdde03146103b05780630b8a295a146103a75780630e89341c1461039e578063181e7b3b146102a2578063236b402014610395578063242156ed1461038c578063276b11401461038357806328337df61461037a57806329322e05146103715780632eb2c2d6146103685780632fccfc831461035f57806338d52e0f146103565780633cebb8231461034d5780633e04836514610344578063402d267d14610287578063488bd7b01461033b5780634cbd43de146103325780634d288ba7146103295780634e1273f4146103205780634f558e791461031757806356150edf1461030e5780636f7e9bd51461030557806371b3177a146102fc57806374715614146102f35780637a7af70d1461026c5780638dbdbe6d146102ea5780638fc710cb146102e157806394605857146102d857806395d89b41146102cf578063a22cb465146102c6578063a5054b5b146102bd578063aff223b9146102b4578063b14f2a39146102ab578063bbec4d06146102a2578063bd85b03914610299578063c52987cf14610290578063c63d75b614610287578063c6b61e4c1461027e578063d662b92d14610275578063db2088f41461026c578063e58c6dfa14610263578063e985e9c51461025a578063ea859a2714610251578063f242432a14610248578063f77c47911461023f5763f9db24271461023757600080fd5b61000e611c3b565b5061000e611c11565b5061000e611b26565b5061000e611af9565b5061000e611a9b565b5061000e611a69565b5061000e61169f565b5061000e611a4a565b5061000e6119f8565b5061000e610ed6565b5061000e6119a5565b5061000e61197a565b5061000e610839565b5061000e611911565b5061000e6118e4565b5061000e6118c2565b5061000e6117d1565b5061000e611729565b5061000e61170a565b5061000e6116eb565b5061000e6116c1565b5061000e611576565b5061000e611286565b5061000e611264565b5061000e61113b565b5061000e61110c565b5061000e611051565b5061000e610fdf565b5061000e610f29565b5061000e610efd565b5061000e610e7f565b5061000e610e04565b5061000e610dbe565b5061000e610d9f565b5061000e610b6f565b5061000e610965565b5061000e610903565b5061000e6108ae565b5061000e610882565b5061000e61085b565b5061000e61076f565b5061000e61073d565b5061000e610657565b5061000e6104fc565b5061000e610482565b5061000e610440565b600435906001600160a01b038216820361000e57565b602435906001600160a01b038216820361000e57565b604435906001600160a01b038216820361000e57565b606435906001600160a01b038216820361000e57565b35906001600160a01b038216820361000e57565b503461000e57604036600319011261000e57602061046861045f6103d4565b60243590611c68565b604051908152f35b6001600160e01b031981160361000e57565b503461000e57602036600319011261000e5760206004356104a281610470565b63ffffffff60e01b16636cdb3d1360e11b81149081156104e0575b81156104cf575b506040519015158152f35b6301ffc9a760e01b149050386104c4565b6303a24d0760e21b811491506104bd565b600091031261000e57565b503461000e57600036600319011261000e576040517f00000000000000000000000000000000000000000000000000000000000000006001600160a01b03168152602090f35b90600182811c92168015610572575b602083101461055c57565b634e487b7160e01b600052602260045260246000fd5b91607f1691610551565b50634e487b7160e01b600052604160045260246000fd5b67ffffffffffffffff81116105a757604052565b6105af61057c565b604052565b6020810190811067ffffffffffffffff8211176105a757604052565b90601f8019910116810190811067ffffffffffffffff8211176105a757604052565b91908251928382526000905b84821061062b57509280602093941161061e575b601f01601f1916010190565b6000838284010152610612565b906020908180828501015190828601015201906105fe565b9060206106549281815201906105f2565b90565b503461000e5760008060031936011261073a57604051908060045461067b81610542565b8085529160019180831690811561071057506001146106b5575b6106b1856106a5818703826105d0565b60405191829182610643565b0390f35b9250600483527f8a35acfbc15ff81a39ae7d344fd709f28e8600b4aa8c65c6b64bfe7fe36bd19b5b8284106106f85750505081016020016106a5826106b1610695565b805460208587018101919091529093019281016106dd565b8695506106b1969350602092506106a594915060ff191682840152151560051b8201019293610695565b80fd5b503461000e57602036600319011261000e57600435600052600f602052602060ff604060002054166040519015158152f35b503461000e5760208060031936011261000e5760405160009160025461079481610542565b8084529060019081811690811561081957506001146107be575b6106b1846106a5818803826105d0565b600260009081529294507f405787fa12a823e0f2b7631cc41b3ba8828b3321ca811111fa75cd3aa3bb5ace5b82841061080657505050816106b1936106a592820101936107ae565b80548585018701529285019281016107ea565b60ff1916858501525050151560051b82010191506106a5816106b16107ae565b503461000e57604036600319011261000e57602061046860243560043561279f565b503461000e57604036600319011261000e57602061046860043561087d6103ea565b611c68565b503461000e57604036600319011261000e5760206104686004356108a88161087d6103ea565b9061279f565b503461000e57604036600319011261000e5760206004356024359080600052600383526040600020549081156000146108eb575050604051908152f35b916108f86108fe93612d11565b906127d0565b610468565b503461000e57602036600319011261000e577f00000000000000000000000000000000000000000000000000000000000000006001600160a01b0316330361094d57600435600a55005b60405163017bb92160e41b8152336004820152602490fd5b503461000e5760408060031936011261000e57600435906109846103ea565b6008546001600160a01b039081163303610a6e57600093808552600f602052600160ff8587205416151503610a57578452600b602090815283852054845163a9059cbb60e01b81526001600160a01b039490941660048501526024840152908290604490829087907f0000000000000000000000000000000000000000000000000000000000000000165af18015610a4a575b610a1f575051f35b610a3f9060203d8111610a43575b610a3781836105d0565b810190612a44565b5051f35b503d610a2d565b610a526121cb565b610a17565b60249084519063c1847fa960e01b82526004820152fd5b8251632e91ff8760e21b8152336004820152602490fd5b60209067ffffffffffffffff8111610a9f575b60051b0190565b610aa761057c565b610a98565b81601f8201121561000e57803591610ac383610a85565b92610ad160405194856105d0565b808452602092838086019260051b82010192831161000e578301905b828210610afb575050505090565b81358152908301908301610aed565b81601f8201121561000e5780359067ffffffffffffffff8211610b62575b60405192610b40601f8401601f1916602001856105d0565b8284526020838301011161000e57816000926020809301838601378301015290565b610b6a61057c565b610b28565b503461000e5760a036600319011261000e57610b896103d4565b610b916103ea565b9067ffffffffffffffff9060443582811161000e57610bb4903690600401610aac565b9160643581811161000e57610bcd903690600401610aac565b9060843590811161000e57610be6903690600401610b0a565b6001600160a01b038381169491903386148015610d7c575b15610d1c57610c1083518551146120d0565b8616610c1d811515611e43565b610c2984848988612699565b60005b8351811015610cd65780610c43610cd19286611d59565b51610cca610cc28b610c77610c58868c611d59565b51948c610cb187610c8e83610c77866000526000602052604060002090565b9060018060a01b0316600052602052604060002090565b54610c9b82821015611e9d565b0391610c77846000526000602052604060002090565b556000526000602052604060002090565b918254611efc565b9055611d3d565b610c2c565b5093869194610d1a966040517f4a39dc06d4c0dbc64b70af90fd698a233a518aa5d07e595d983b8c0526c8f7fb339180610d118a8a8361212d565b0390a433612536565b005b60405162461bcd60e51b815260206004820152603260248201527f455243313135353a207472616e736665722063616c6c6572206973206e6f74206044820152711bdddb995c881b9bdc88185c1c1c9bdd995960721b6064820152608490fd5b50600086815260016020908152604080832033845290915290205460ff16610bfe565b503461000e57600036600319011261000e576020600a54604051908152f35b503461000e57600036600319011261000e576040517f00000000000000000000000000000000000000000000000000000000000000006001600160a01b03168152602090f35b503461000e57602036600319011261000e57610e1e6103d4565b6001600160a01b03907f00000000000000000000000000000000000000000000000000000000000000008216330361094d57168015610e6d57600880546001600160a01b031916919091179055005b604051639fabe1c160e01b8152600490fd5b503461000e57604036600319011261000e576008546001600160a01b03163303610ebe57600435600052600c6020526024356040600020556000604051f35b604051632e91ff8760e21b8152336004820152602490fd5b503461000e57602036600319011261000e57610ef06103d4565b5060206040516000198152f35b503461000e57604036600319011261000e5760206104686024356004356127f8565b8015150361000e57565b503461000e5760408060031936011261000e5760243590600435610f4c83610f1f565b6008546001600160a01b03163303610fc857600092818452600f602052600160ff8486205416151503610fb157610f9990828552600e6020528385209060ff801983541691151516179055565b610fa281612d11565b908352600b6020528183205551f35b50602491519063c1847fa960e01b82526004820152fd5b8151632e91ff8760e21b8152336004820152602490fd5b503461000e57602036600319011261000e57600435600052600c6020526020604060002054604051908152f35b90815180825260208080930193019160005b82811061102c575050505090565b83518552938101939281019260010161101e565b90602061065492818152019061100c565b503461000e57604036600319011261000e5760043567ffffffffffffffff80821161000e573660238301121561000e57816004013561108f81610a85565b9261109d60405194856105d0565b81845260209160248386019160051b8301019136831161000e57602401905b8282106110f5578560243586811161000e576106b1916110e36110e9923690600401610aac565b90611d7b565b60405191829182611040565b8380916111018461042c565b8152019101906110bc565b503461000e57602036600319011261000e57600435600052600360205260206040600020541515604051908152f35b50604036600319011261000e576111506103ea565b61115b341515612a0c565b7f00000000000000000000000000000000000000000000000000000000000000006001600160a01b0316803b1561000e576106b1916111fa61120392604051630d0e30db60e41b815260008160048134865af18015611257575b61123e575b5060405163a9059cbb60e01b815233600482015234602482015290602090829060449082906000905af1908115611231575b600091611213575b50612b84565b34600435612829565b6040519081529081906020820190565b61122b915060203d8111610a4357610a3781836105d0565b386111f4565b6112396121cb565b6111ec565b8061124b61125192610593565b806104f1565b386111ba565b61125f6121cb565b6111b5565b503461000e57604036600319011261000e576020610468602435600435612e85565b503461000e57608036600319011261000e576112a0610400565b6112a8610416565b9060043542108061155b575b61154257600435600052600f602052600160ff60406000205416151503611529576001600160a01b039033838316148015906114f9575b6114ce5760206106b1938193611435936113096024356004356127f8565b9261132361131985600435612e85565b9460043583612bf9565b61137361133c61133560043587612d59565b80966129f5565b60075460405163a9059cbb60e01b81526001600160a01b039091166004820152602481019690965297889591829081906044820190565b03816000887f0000000000000000000000000000000000000000000000000000000000000000165af180156114c1575b6114a4575b50604080513381526001600160a01b03841660208201526024359181019190915260608101859052600435918416907fbbbdee62287b5bf3bee13cab60a29ad729cf38109bccbd2a986a11c99b8ca70490608090a360405163a9059cbb60e01b81526001600160a01b03909116600482015260248101929092529092839190829060009082906044820190565b03927f0000000000000000000000000000000000000000000000000000000000000000165af18015611497575b611478575b506040519081529081906020820190565b6114909060203d602011610a4357610a3781836105d0565b5038611467565b61149f6121cb565b611462565b6114ba90863d8811610a4357610a3781836105d0565b50386113a8565b6114c96121cb565b6113a3565b60405163425da22160e11b81523360048201526001600160a01b0384166024820152604490fd5b0390fd5b5061152461151d82610c778660018060a01b03166000526001602052604060002090565b5460ff1690565b6112eb565b602460405163c1847fa960e01b81526004356004820152fd5b602460405163361d6ce960e11b81526004356004820152fd5b50600435600052600e60205260ff60406000205416156112b4565b503461000e57606036600319011261000e576044356024356004357f00000000000000000000000000000000000000000000000000000000000000006001600160a01b0316330361094d57609683116116865760016115e261151d84600052600f602052604060002090565b15151461166d578181101561164b57906116489161161a61160d83600052600f602052604060002090565b805460ff19166001179055565b61162e82600052600d602052604060002090565b5561163881612d8d565b6000526010602052604060002090565b55005b60405163d7bc48ef60e01b815260048101919091526024810191909152604490fd5b604051631b86fbf160e21b815260048101839052602490fd5b604051631206ee7f60e01b815260048101849052602490fd5b503461000e57604036600319011261000e576020610468602435600435612713565b503461000e57606036600319011261000e5760206104686116e0610400565b602435600435612829565b503461000e57602036600319011261000e576020610468600435612f71565b503461000e57602036600319011261000e576020610468600435612d11565b503461000e5760008060031936011261073a57604051908060055461174d81610542565b808552916001918083169081156107105750600114611776576106b1856106a5818703826105d0565b9250600583527f036b6384b5eca791c62761152d0c79bb0604c104a5fb6f4eb0703f3154bb3db05b8284106117b95750505081016020016106a5826106b1610695565b8054602085870181019190915290930192810161179e565b503461000e57604036600319011261000e576117eb6103d4565b6024356117f781610f1f565b6001600160a01b0382169133831461186b573360009081526001602052604090206118399183916118289190610c77565b9060ff801983541691151516179055565b604051901515815233907f17307eab39ab6107e8899845ad3d59bd9653f200f220920489ca2b5937696c3190602090a3005b60405162461bcd60e51b815260206004820152602960248201527f455243313135353a2073657474696e6720617070726f76616c20737461747573604482015268103337b91039b2b63360b91b6064820152608490fd5b503461000e57604036600319011261000e576020610468602435600435612d59565b503461000e57602036600319011261000e5760043560005260106020526020604060002054604051908152f35b503461000e57602036600319011261000e5761192b6103d4565b6001600160a01b03907f00000000000000000000000000000000000000000000000000000000000000008216330361094d57168015610e6d57600780546001600160a01b031916919091179055005b503461000e57602036600319011261000e576020610468600435600052600360205260406000205490565b503461000e57600036600319011261000e5760206040517f00000000000000000000000000000000000000000000000000000000000000008152f35b50634e487b7160e01b600052603260045260246000fd5b503461000e57602036600319011261000e5760043560095481101561000e5760209060096000527f6e1540171b6c0c960b71a7020d9f60077f6af931a8bbf590da0223dacf75c7af0154604051908152f35b503461000e57600036600319011261000e576020600954604051908152f35b503461000e57602036600319011261000e57600435600052600e602052602060ff604060002054166040519015158152f35b503461000e57604036600319011261000e57602060ff611aed611abc6103d4565b611ac46103ea565b6001600160a01b0391821660009081526001865260408082209290931681526020919091522090565b54166040519015158152f35b503461000e57602036600319011261000e57600435600052600d6020526020604060002054604051908152f35b503461000e5760a036600319011261000e57611b406103d4565b611b486103ea565b60843567ffffffffffffffff811161000e57611b68903690600401610b0a565b906001600160a01b038316338114908115611bec575b5015611b9557610d1a926064359160443591611f08565b60405162461bcd60e51b815260206004820152602960248201527f455243313135353a2063616c6c6572206973206e6f74206f776e6572206e6f7260448201526808185c1c1c9bdd995960ba1b6064820152608490fd5b6000908152600160209081526040808320338452909152902060ff9150541638611b7e565b503461000e57600036600319011261000e576008546040516001600160a01b039091168152602090f35b503461000e57602036600319011261000e57600435600052600b6020526020604060002054604051908152f35b6001600160a01b03811615611c9c576000918252602082815260408084206001600160a01b03909316845291905290205490565b60405162461bcd60e51b815260206004820152602a60248201527f455243313135353a2061646472657373207a65726f206973206e6f742061207660448201526930b634b21037bbb732b960b11b6064820152608490fd5b90611cfe82610a85565b611d0b60405191826105d0565b8281528092611d1c601f1991610a85565b0190602036910137565b50634e487b7160e01b600052601160045260246000fd5b6001906000198114611d4d570190565b611d55611d26565b0190565b6020918151811015611d6e575b60051b010190565b611d766119e1565b611d66565b9190918051835103611dec57611d918151611cf4565b9060005b8151811015611de55780611dd0611dbf611db2611de09486611d59565b516001600160a01b031690565b611dc98389611d59565b5190611c68565b611dda8286611d59565b52611d3d565b611d95565b5090925050565b60405162461bcd60e51b815260206004820152602960248201527f455243313135353a206163636f756e747320616e6420696473206c656e677468604482015268040dad2e6dac2e8c6d60bb1b6064820152608490fd5b15611e4a57565b60405162461bcd60e51b815260206004820152602560248201527f455243313135353a207472616e7366657220746f20746865207a65726f206164604482015264647265737360d81b6064820152608490fd5b15611ea457565b60405162461bcd60e51b815260206004820152602a60248201527f455243313135353a20696e73756666696369656e742062616c616e636520666f60448201526939103a3930b739b332b960b11b6064820152608490fd5b81198111611d4d570190565b6001600160a01b039594939291908682168015611f258115611e43565b611f2e85612570565b98611f3887612570565b908416918215612073575b611fef575b50611fed97985085611f6884610c77886000526000602052604060002090565b54611f7582821015611e9d565b03611f8e84610c77886000526000602052604060002090565b55611fa784610c77876000526000602052604060002090565b611fb2878254611efc565b9055604080518681526020810188905233917fc3d58168c5ae7397731d063d5bbf3d657854427343f4c083240f7aacaa2d0f6291a433612410565b565b969492909795939160005b8a5181101561205e5780612011612059928d611d59565b5161205361201f838d611d59565b51612034836000526003602052604060002090565b54612041828210156125c0565b03916000526003602052604060002090565b55611d3d565b611ffa565b50919395985091939550611fed968897611f48565b98969492909795939160005b8b80518210156120c057906120bb91610cca610cc26120aa848f816120a391611d59565b5194611d59565b516000526003602052604060002090565b61207f565b5050919395979092949698611f43565b156120d757565b60405162461bcd60e51b815260206004820152602860248201527f455243313135353a2069647320616e6420616d6f756e7473206c656e677468206044820152670dad2e6dac2e8c6d60c31b6064820152608490fd5b90916121446106549360408452604084019061100c565b91602081840391015261100c565b9081602091031261000e575161065481610470565b909260a0926106549594600180861b03168352600060208401526040830152606082015281608082015201906105f2565b919261065495949160a094600180871b0380921685521660208401526040830152606082015281608082015201906105f2565b506040513d6000823e3d90fd5b60809060208152602860208201527f455243313135353a204552433131353552656365697665722072656a656374656040820152676420746f6b656e7360c01b60608201520190565b60009060033d1161222e57565b905060046000803e60005160e01c90565b600060443d1061065457604051600319913d83016004833e815167ffffffffffffffff918282113d60248401111761229d578184019485519384116122a5573d8501016020848701011161229d5750610654929101602001906105d0565b949350505050565b50949350505050565b9390803b6122be575b5050505050565b6122e69360006020946040519687958694859363f23a6e6160e01b9b8c865260048601612167565b03926001600160a01b03165af1600091816123e0575b506123b8575050600161230d612221565b6308c379a014612389575b612327575b38808080806122b7565b60405162461bcd60e51b815260206004820152603460248201527f455243313135353a207472616e7366657220746f206e6f6e20455243313135356044820152732932b1b2b4bb32b91034b6b83632b6b2b73a32b960611b6064820152608490fd5b61239161223f565b8061239c5750612318565b60405162461bcd60e51b81529081906114f59060048301610643565b6001600160e01b0319161461231d5760405162461bcd60e51b8152806114f5600482016121d8565b61240291925060203d8111612409575b6123fa81836105d0565b810190612152565b90386122fc565b503d6123f0565b9493919092813b612424575b505050505050565b600060209461244b6040519788968795869463f23a6e6160e01b9c8d875260048701612198565b03926001600160a01b03165af1600091816124c8575b506124a05750506001612472612221565b6308c379a01461248d575b612327575b38808080808061241c565b61249561223f565b8061239c575061247d565b6001600160e01b031916146124825760405162461bcd60e51b8152806114f5600482016121d8565b6124e191925060203d8111612409576123fa81836105d0565b9038612461565b9390610654959361251a916125289460018060a01b03809216885216602087015260a0604087015260a086019061100c565b90848203606086015261100c565b9160808184039101526105f2565b9493919092813b61254957505050505050565b600060209461244b6040519788968795869463bc197c8160e01b9c8d8752600487016124e8565b604051906040820182811067ffffffffffffffff8211176125b3575b604052600182526020820160203682378251156125a7575290565b6125af6119e1565b5290565b6125bb61057c565b61258c565b156125c757565b60405162461bcd60e51b815260206004820152602860248201527f455243313135353a206275726e20616d6f756e74206578636565647320746f74604482015267616c537570706c7960c01b6064820152608490fd5b909291906001600160a01b031615612663575b60005b835181101561265d578061264a6126589286611d59565b5161205361201f8386611d59565b612633565b50509050565b60005b8351811015612693578061267d61268e9284611d59565b51610cca610cc26120aa8489611d59565b612666565b50612630565b919392916001600160a01b0391908216156126d9575b16156126ba57509050565b60005b835181101561265d578061264a6126d49286611d59565b6126bd565b929060005b855181101561270b57806126f56127069286611d59565b51610cca610cc26120aa848b611d59565b6126de565b5090926126af565b9081600052600360205260406000205480156000146127325750905090565b61273e61065493612d11565b91612787565b81810291818304149015176001161561000e57670de0b6b3a7640000900490565b670de0b6b3a7640000908181029181830414901517821515161561000e570490565b8181029181830414901517821515161561000e570490565b8060005260036020526040600020549081156000146127bd57505090565b916127ca61065493612d11565b90612787565b9190918281029281840414901517811515161561000e57600190600019830104019015150290565b9081600052600360205260406000205480156000146128175750905090565b61282361065493612d11565b916127d0565b9091816000526020600f8152604093600160ff8660002054161515036129dd5783600052600d82528460002054600a54908181106129d0575b0342116129b85760026006541461297457906128a47f4e2ca0515ed1aef1395f66b5303bb5d6f1bf9d61a353fa53f73f8ac9973fa9f692600260065585612713565b946128b0861515612a0c565b80516323b872dd60e01b8152336004820152306024820152604481018790526001600160a01b039290818160648160007f000000000000000000000000000000000000000000000000000000000000000089165af18015612967575b612949575b505061292661291e612a59565b878787612a6c565b513381526020810186905260408101869052921691606090a36106546001600655565b8161295f92903d10610a4357610a3781836105d0565b503880612911565b61296f6121cb565b61290c565b845162461bcd60e51b815260048101839052601f60248201527f5265656e7472616e637947756172643a207265656e7472616e742063616c6c006044820152606490fd5b845163fd31550160e01b815260048101859052602490fd5b6129d8611d26565b612862565b845163c1847fa960e01b815260048101859052602490fd5b818110612a00570390565b612a08611d26565b0390565b15612a1357565b60405162461bcd60e51b81526020600482015260096024820152685a65726f56616c756560b81b6044820152606490fd5b9081602091031261000e575161065481610f1f565b60405190612a66826105b4565b60008252565b936001600160a01b0385169391929091908415612b3557612a8c84612570565b93612a9682612570565b9660005b8651811015612ac75780612ab1612ac2928b611d59565b51610cca610cc26120aa848c611d59565b612a9a565b5091939650919350611fed94612aeb82610c77856000526000602052604060002090565b612af6858254611efc565b9055604080518481526020810186905260009133917fc3d58168c5ae7397731d063d5bbf3d657854427343f4c083240f7aacaa2d0f629190a4336122ae565b60405162461bcd60e51b815260206004820152602160248201527f455243313135353a206d696e7420746f20746865207a65726f206164647265736044820152607360f81b6064820152608490fd5b15612b8b57565b634e487b7160e01b600052600160045260246000fd5b15612ba857565b60405162461bcd60e51b8152602060048201526024808201527f455243313135353a206275726e20616d6f756e7420657863656564732062616c604482015263616e636560e01b6064820152608490fd5b916001600160a01b03831691908215612cc057612cb27fc3d58168c5ae7397731d063d5bbf3d657854427343f4c083240f7aacaa2d0f6291600095612c59612c4086612570565b612c4984612570565b90612c52612a59565b508361261d565b612c9882612c7583610c77896000526000602052604060002090565b54612c8282821015612ba1565b0391610c77876000526000602052604060002090565b556040805194855260208501919091523393918291820190565b0390a4612cbd612a59565b50565b60405162461bcd60e51b815260206004820152602360248201527f455243313135353a206275726e2066726f6d20746865207a65726f206164647260448201526265737360e81b6064820152608490fd5b80600052600f602052600160ff60406000205416151503612d415761065490600052600360205260406000205490565b6024906040519063c1847fa960e01b82526004820152fd5b6103e8916000526010602052604060002054908060001904821181151516612d8057020490565b612d88611d26565b020490565b60095468010000000000000000811015612de9575b6001810180600955811015612ddc575b60096000527f6e1540171b6c0c960b71a7020d9f60077f6af931a8bbf590da0223dacf75c7af0155565b612de46119e1565b612db2565b612df161057c565b612da2565b60055460009291612e0682610542565b91600190818116908115612e725750600114612e2157505050565b909192935060056000527f036b6384b5eca791c62761152d0c79bb0604c104a5fb6f4eb0703f3154bb3db0906000915b848310612e5f575050500190565b8181602092548587015201920191612e51565b60ff191683525050811515909102019150565b6040516020810181612e9682612df6565b0391612eaa601f19938481018352826105d0565b51902090604051612edb602082019282612ecf85600490637259324b60e01b81520190565b039081018352826105d0565b51902003612f4c57612f01612efd61151d83600052600e602052604060002090565b1590565b15612f4c5790612f4782612f40612f2f612f2861065496600052600b602052604060002090565b5485612765565b91600052600c602052604060002090565b5490612744565b611efc565b612f40612f2f61065493612f6a84600052600b602052604060002090565b5490612765565b60098054600093929184805b838110612f8b575050505050565b82825284817f6e1540171b6c0c960b71a7020d9f60077f6af931a8bbf590da0223dacf75c7af015414612fc657612fc190611d3d565b612f7d565b93509091939450600193848110613040575b60001981018414613038577f6e1540171b6c0c960b71a7020d9f60077f6af931a8bbf590da0223dacf75c7b094600119851161302b575b8401101561301e575b52015490565b6130266119e1565b613018565b613033611d26565b61300f565b509250505090565b613048611d26565b612fd856fea2646970667358221220db8a64851ee00ecba814fe19e157d5069001103acca014af8d1d06f09ce0df5b64736f6c634300080f0033610100604052346200053e5762003685803803806200001e8162000543565b92833981019060e0818303126200053e576200003a8162000569565b60208201519091906001600160401b03908181116200053e5784620000619184016200057e565b936040830151908282116200053e576200007d9184016200057e565b906200008c6060840162000569565b916200009b6080850162000569565b95620000af60c060a0870151960162000569565b95604051602081019080821086831117620003b95760009160405252600254600181811c9116801562000533575b60208210146200039857601f8111620004e6575b5060006002556001600160a01b0316608052805190838211620003b95760045490600182811c92168015620004db575b6020831014620003985781601f84931162000466575b50602090601f8311600114620003db57600092620003cf575b50508160011b916000199060031b1c1916176004555b8051918211620003b95760055490600182811c92168015620003ae575b6020831014620003985781601f8493116200033f575b50602090601f8311600114620002b457600092620002a8575b50508160011b916000199060031b1c1916176005555b60016006556001600160a01b031691821562000296576001600160a01b031692831562000296576001600160a01b03811615620002965760a05260018060a01b03199182600754161760075560c0523360e052600854161760085562015180600a5560405161308390816200060282396080518181816109ee01528181610dd50152818161115d0152818161137a0152818161143901526128e2015260a05181610513015260c051816119be015260e05181818161091701528181610e290152818161159301526119360152f35b604051639fabe1c160e01b8152600490fd5b015190503880620001b2565b600560009081527f036b6384b5eca791c62761152d0c79bb0604c104a5fb6f4eb0703f3154bb3db09350601f198516905b8181106200032657509084600195949392106200030c575b505050811b01600555620001c8565b015160001960f88460031b161c19169055388080620002fd565b92936020600181928786015181550195019301620002e5565b90915060056000526020600020601f840160051c810191602085106200038d575b90601f859493920160051c01905b8181106200037d575062000199565b600081558493506001016200036e565b909150819062000360565b634e487b7160e01b600052602260045260246000fd5b91607f169162000183565b634e487b7160e01b600052604160045260246000fd5b01519050388062000150565b600460009081527f8a35acfbc15ff81a39ae7d344fd709f28e8600b4aa8c65c6b64bfe7fe36bd19b9350601f198516905b8181106200044d575090846001959493921062000433575b505050811b0160045562000166565b015160001960f88460031b161c1916905538808062000424565b929360206001819287860151815501950193016200040c565b60046000529091507f8a35acfbc15ff81a39ae7d344fd709f28e8600b4aa8c65c6b64bfe7fe36bd19b601f840160051c81019160208510620004d0575b90601f859493920160051c01905b818110620004c0575062000137565b60008155849350600101620004b1565b9091508190620004a3565b91607f169162000121565b6002600052601f0160051c7f405787fa12a823e0f2b7631cc41b3ba8828b3321ca811111fa75cd3aa3bb5ace908101905b818110620005265750620000f1565b6000815560010162000517565b90607f1690620000dd565b600080fd5b6040519190601f01601f191682016001600160401b03811183821017620003b957604052565b51906001600160a01b03821682036200053e57565b81601f820112156200053e578051906001600160401b038211620003b957602090620005b3601f8401601f1916830162000543565b938385528284830101116200053e5782906000905b83838310620005e857505011620005de57505090565b6000918301015290565b81935082819392010151828288010152018391620005c856fe60806040526004361015610013575b600080fd5b60003560e01c8062fdd58e146103cb57806301ffc9a7146103c257806304da1a46146103b957806306fdde03146103b05780630b8a295a146103a75780630e89341c1461039e578063181e7b3b146102a2578063236b402014610395578063242156ed1461038c578063276b11401461038357806328337df61461037a57806329322e05146103715780632eb2c2d6146103685780632fccfc831461035f57806338d52e0f146103565780633cebb8231461034d5780633e04836514610344578063402d267d14610287578063488bd7b01461033b5780634cbd43de146103325780634d288ba7146103295780634e1273f4146103205780634f558e791461031757806356150edf1461030e5780636f7e9bd51461030557806371b3177a146102fc57806374715614146102f35780637a7af70d1461026c5780638dbdbe6d146102ea5780638fc710cb146102e157806394605857146102d857806395d89b41146102cf578063a22cb465146102c6578063a5054b5b146102bd578063aff223b9146102b4578063b14f2a39146102ab578063bbec4d06146102a2578063bd85b03914610299578063c52987cf14610290578063c63d75b614610287578063c6b61e4c1461027e578063d662b92d14610275578063db2088f41461026c578063e58c6dfa14610263578063e985e9c51461025a578063ea859a2714610251578063f242432a14610248578063f77c47911461023f5763f9db24271461023757600080fd5b61000e611c3b565b5061000e611c11565b5061000e611b26565b5061000e611af9565b5061000e611a9b565b5061000e611a69565b5061000e61169f565b5061000e611a4a565b5061000e6119f8565b5061000e610ed6565b5061000e6119a5565b5061000e61197a565b5061000e610839565b5061000e611911565b5061000e6118e4565b5061000e6118c2565b5061000e6117d1565b5061000e611729565b5061000e61170a565b5061000e6116eb565b5061000e6116c1565b5061000e611576565b5061000e611286565b5061000e611264565b5061000e61113b565b5061000e61110c565b5061000e611051565b5061000e610fdf565b5061000e610f29565b5061000e610efd565b5061000e610e7f565b5061000e610e04565b5061000e610dbe565b5061000e610d9f565b5061000e610b6f565b5061000e610965565b5061000e610903565b5061000e6108ae565b5061000e610882565b5061000e61085b565b5061000e61076f565b5061000e61073d565b5061000e610657565b5061000e6104fc565b5061000e610482565b5061000e610440565b600435906001600160a01b038216820361000e57565b602435906001600160a01b038216820361000e57565b604435906001600160a01b038216820361000e57565b606435906001600160a01b038216820361000e57565b35906001600160a01b038216820361000e57565b503461000e57604036600319011261000e57602061046861045f6103d4565b60243590611c68565b604051908152f35b6001600160e01b031981160361000e57565b503461000e57602036600319011261000e5760206004356104a281610470565b63ffffffff60e01b16636cdb3d1360e11b81149081156104e0575b81156104cf575b506040519015158152f35b6301ffc9a760e01b149050386104c4565b6303a24d0760e21b811491506104bd565b600091031261000e57565b503461000e57600036600319011261000e576040517f00000000000000000000000000000000000000000000000000000000000000006001600160a01b03168152602090f35b90600182811c92168015610572575b602083101461055c57565b634e487b7160e01b600052602260045260246000fd5b91607f1691610551565b50634e487b7160e01b600052604160045260246000fd5b67ffffffffffffffff81116105a757604052565b6105af61057c565b604052565b6020810190811067ffffffffffffffff8211176105a757604052565b90601f8019910116810190811067ffffffffffffffff8211176105a757604052565b91908251928382526000905b84821061062b57509280602093941161061e575b601f01601f1916010190565b6000838284010152610612565b906020908180828501015190828601015201906105fe565b9060206106549281815201906105f2565b90565b503461000e5760008060031936011261073a57604051908060045461067b81610542565b8085529160019180831690811561071057506001146106b5575b6106b1856106a5818703826105d0565b60405191829182610643565b0390f35b9250600483527f8a35acfbc15ff81a39ae7d344fd709f28e8600b4aa8c65c6b64bfe7fe36bd19b5b8284106106f85750505081016020016106a5826106b1610695565b805460208587018101919091529093019281016106dd565b8695506106b1969350602092506106a594915060ff191682840152151560051b8201019293610695565b80fd5b503461000e57602036600319011261000e57600435600052600f602052602060ff604060002054166040519015158152f35b503461000e5760208060031936011261000e5760405160009160025461079481610542565b8084529060019081811690811561081957506001146107be575b6106b1846106a5818803826105d0565b600260009081529294507f405787fa12a823e0f2b7631cc41b3ba8828b3321ca811111fa75cd3aa3bb5ace5b82841061080657505050816106b1936106a592820101936107ae565b80548585018701529285019281016107ea565b60ff1916858501525050151560051b82010191506106a5816106b16107ae565b503461000e57604036600319011261000e57602061046860243560043561279f565b503461000e57604036600319011261000e57602061046860043561087d6103ea565b611c68565b503461000e57604036600319011261000e5760206104686004356108a88161087d6103ea565b9061279f565b503461000e57604036600319011261000e5760206004356024359080600052600383526040600020549081156000146108eb575050604051908152f35b916108f86108fe93612d11565b906127d0565b610468565b503461000e57602036600319011261000e577f00000000000000000000000000000000000000000000000000000000000000006001600160a01b0316330361094d57600435600a55005b60405163017bb92160e41b8152336004820152602490fd5b503461000e5760408060031936011261000e57600435906109846103ea565b6008546001600160a01b039081163303610a6e57600093808552600f602052600160ff8587205416151503610a57578452600b602090815283852054845163a9059cbb60e01b81526001600160a01b039490941660048501526024840152908290604490829087907f0000000000000000000000000000000000000000000000000000000000000000165af18015610a4a575b610a1f575051f35b610a3f9060203d8111610a43575b610a3781836105d0565b810190612a44565b5051f35b503d610a2d565b610a526121cb565b610a17565b60249084519063c1847fa960e01b82526004820152fd5b8251632e91ff8760e21b8152336004820152602490fd5b60209067ffffffffffffffff8111610a9f575b60051b0190565b610aa761057c565b610a98565b81601f8201121561000e57803591610ac383610a85565b92610ad160405194856105d0565b808452602092838086019260051b82010192831161000e578301905b828210610afb575050505090565b81358152908301908301610aed565b81601f8201121561000e5780359067ffffffffffffffff8211610b62575b60405192610b40601f8401601f1916602001856105d0565b8284526020838301011161000e57816000926020809301838601378301015290565b610b6a61057c565b610b28565b503461000e5760a036600319011261000e57610b896103d4565b610b916103ea565b9067ffffffffffffffff9060443582811161000e57610bb4903690600401610aac565b9160643581811161000e57610bcd903690600401610aac565b9060843590811161000e57610be6903690600401610b0a565b6001600160a01b038381169491903386148015610d7c575b15610d1c57610c1083518551146120d0565b8616610c1d811515611e43565b610c2984848988612699565b60005b8351811015610cd65780610c43610cd19286611d59565b51610cca610cc28b610c77610c58868c611d59565b51948c610cb187610c8e83610c77866000526000602052604060002090565b9060018060a01b0316600052602052604060002090565b54610c9b82821015611e9d565b0391610c77846000526000602052604060002090565b556000526000602052604060002090565b918254611efc565b9055611d3d565b610c2c565b5093869194610d1a966040517f4a39dc06d4c0dbc64b70af90fd698a233a518aa5d07e595d983b8c0526c8f7fb339180610d118a8a8361212d565b0390a433612536565b005b60405162461bcd60e51b815260206004820152603260248201527f455243313135353a207472616e736665722063616c6c6572206973206e6f74206044820152711bdddb995c881b9bdc88185c1c1c9bdd995960721b6064820152608490fd5b50600086815260016020908152604080832033845290915290205460ff16610bfe565b503461000e57600036600319011261000e576020600a54604051908152f35b503461000e57600036600319011261000e576040517f00000000000000000000000000000000000000000000000000000000000000006001600160a01b03168152602090f35b503461000e57602036600319011261000e57610e1e6103d4565b6001600160a01b03907f00000000000000000000000000000000000000000000000000000000000000008216330361094d57168015610e6d57600880546001600160a01b031916919091179055005b604051639fabe1c160e01b8152600490fd5b503461000e57604036600319011261000e576008546001600160a01b03163303610ebe57600435600052600c6020526024356040600020556000604051f35b604051632e91ff8760e21b8152336004820152602490fd5b503461000e57602036600319011261000e57610ef06103d4565b5060206040516000198152f35b503461000e57604036600319011261000e5760206104686024356004356127f8565b8015150361000e57565b503461000e5760408060031936011261000e5760243590600435610f4c83610f1f565b6008546001600160a01b03163303610fc857600092818452600f602052600160ff8486205416151503610fb157610f9990828552600e6020528385209060ff801983541691151516179055565b610fa281612d11565b908352600b6020528183205551f35b50602491519063c1847fa960e01b82526004820152fd5b8151632e91ff8760e21b8152336004820152602490fd5b503461000e57602036600319011261000e57600435600052600c6020526020604060002054604051908152f35b90815180825260208080930193019160005b82811061102c575050505090565b83518552938101939281019260010161101e565b90602061065492818152019061100c565b503461000e57604036600319011261000e5760043567ffffffffffffffff80821161000e573660238301121561000e57816004013561108f81610a85565b9261109d60405194856105d0565b81845260209160248386019160051b8301019136831161000e57602401905b8282106110f5578560243586811161000e576106b1916110e36110e9923690600401610aac565b90611d7b565b60405191829182611040565b8380916111018461042c565b8152019101906110bc565b503461000e57602036600319011261000e57600435600052600360205260206040600020541515604051908152f35b50604036600319011261000e576111506103ea565b61115b341515612a0c565b7f00000000000000000000000000000000000000000000000000000000000000006001600160a01b0316803b1561000e576106b1916111fa61120392604051630d0e30db60e41b815260008160048134865af18015611257575b61123e575b5060405163a9059cbb60e01b815233600482015234602482015290602090829060449082906000905af1908115611231575b600091611213575b50612b84565b34600435612829565b6040519081529081906020820190565b61122b915060203d8111610a4357610a3781836105d0565b386111f4565b6112396121cb565b6111ec565b8061124b61125192610593565b806104f1565b386111ba565b61125f6121cb565b6111b5565b503461000e57604036600319011261000e576020610468602435600435612e85565b503461000e57608036600319011261000e576112a0610400565b6112a8610416565b9060043542108061155b575b61154257600435600052600f602052600160ff60406000205416151503611529576001600160a01b039033838316148015906114f9575b6114ce5760206106b1938193611435936113096024356004356127f8565b9261132361131985600435612e85565b9460043583612bf9565b61137361133c61133560043587612d59565b80966129f5565b60075460405163a9059cbb60e01b81526001600160a01b039091166004820152602481019690965297889591829081906044820190565b03816000887f0000000000000000000000000000000000000000000000000000000000000000165af180156114c1575b6114a4575b50604080513381526001600160a01b03841660208201526024359181019190915260608101859052600435918416907fbbbdee62287b5bf3bee13cab60a29ad729cf38109bccbd2a986a11c99b8ca70490608090a360405163a9059cbb60e01b81526001600160a01b03909116600482015260248101929092529092839190829060009082906044820190565b03927f0000000000000000000000000000000000000000000000000000000000000000165af18015611497575b611478575b506040519081529081906020820190565b6114909060203d602011610a4357610a3781836105d0565b5038611467565b61149f6121cb565b611462565b6114ba90863d8811610a4357610a3781836105d0565b50386113a8565b6114c96121cb565b6113a3565b60405163425da22160e11b81523360048201526001600160a01b0384166024820152604490fd5b0390fd5b5061152461151d82610c778660018060a01b03166000526001602052604060002090565b5460ff1690565b6112eb565b602460405163c1847fa960e01b81526004356004820152fd5b602460405163361d6ce960e11b81526004356004820152fd5b50600435600052600e60205260ff60406000205416156112b4565b503461000e57606036600319011261000e576044356024356004357f00000000000000000000000000000000000000000000000000000000000000006001600160a01b0316330361094d57609683116116865760016115e261151d84600052600f602052604060002090565b15151461166d578181101561164b57906116489161161a61160d83600052600f602052604060002090565b805460ff19166001179055565b61162e82600052600d602052604060002090565b5561163881612d8d565b6000526010602052604060002090565b55005b60405163d7bc48ef60e01b815260048101919091526024810191909152604490fd5b604051631b86fbf160e21b815260048101839052602490fd5b604051631206ee7f60e01b815260048101849052602490fd5b503461000e57604036600319011261000e576020610468602435600435612713565b503461000e57606036600319011261000e5760206104686116e0610400565b602435600435612829565b503461000e57602036600319011261000e576020610468600435612f71565b503461000e57602036600319011261000e576020610468600435612d11565b503461000e5760008060031936011261073a57604051908060055461174d81610542565b808552916001918083169081156107105750600114611776576106b1856106a5818703826105d0565b9250600583527f036b6384b5eca791c62761152d0c79bb0604c104a5fb6f4eb0703f3154bb3db05b8284106117b95750505081016020016106a5826106b1610695565b8054602085870181019190915290930192810161179e565b503461000e57604036600319011261000e576117eb6103d4565b6024356117f781610f1f565b6001600160a01b0382169133831461186b573360009081526001602052604090206118399183916118289190610c77565b9060ff801983541691151516179055565b604051901515815233907f17307eab39ab6107e8899845ad3d59bd9653f200f220920489ca2b5937696c3190602090a3005b60405162461bcd60e51b815260206004820152602960248201527f455243313135353a2073657474696e6720617070726f76616c20737461747573604482015268103337b91039b2b63360b91b6064820152608490fd5b503461000e57604036600319011261000e576020610468602435600435612d59565b503461000e57602036600319011261000e5760043560005260106020526020604060002054604051908152f35b503461000e57602036600319011261000e5761192b6103d4565b6001600160a01b03907f00000000000000000000000000000000000000000000000000000000000000008216330361094d57168015610e6d57600780546001600160a01b031916919091179055005b503461000e57602036600319011261000e576020610468600435600052600360205260406000205490565b503461000e57600036600319011261000e5760206040517f00000000000000000000000000000000000000000000000000000000000000008152f35b50634e487b7160e01b600052603260045260246000fd5b503461000e57602036600319011261000e5760043560095481101561000e5760209060096000527f6e1540171b6c0c960b71a7020d9f60077f6af931a8bbf590da0223dacf75c7af0154604051908152f35b503461000e57600036600319011261000e576020600954604051908152f35b503461000e57602036600319011261000e57600435600052600e602052602060ff604060002054166040519015158152f35b503461000e57604036600319011261000e57602060ff611aed611abc6103d4565b611ac46103ea565b6001600160a01b0391821660009081526001865260408082209290931681526020919091522090565b54166040519015158152f35b503461000e57602036600319011261000e57600435600052600d6020526020604060002054604051908152f35b503461000e5760a036600319011261000e57611b406103d4565b611b486103ea565b60843567ffffffffffffffff811161000e57611b68903690600401610b0a565b906001600160a01b038316338114908115611bec575b5015611b9557610d1a926064359160443591611f08565b60405162461bcd60e51b815260206004820152602960248201527f455243313135353a2063616c6c6572206973206e6f74206f776e6572206e6f7260448201526808185c1c1c9bdd995960ba1b6064820152608490fd5b6000908152600160209081526040808320338452909152902060ff9150541638611b7e565b503461000e57600036600319011261000e576008546040516001600160a01b039091168152602090f35b503461000e57602036600319011261000e57600435600052600b6020526020604060002054604051908152f35b6001600160a01b03811615611c9c576000918252602082815260408084206001600160a01b03909316845291905290205490565b60405162461bcd60e51b815260206004820152602a60248201527f455243313135353a2061646472657373207a65726f206973206e6f742061207660448201526930b634b21037bbb732b960b11b6064820152608490fd5b90611cfe82610a85565b611d0b60405191826105d0565b8281528092611d1c601f1991610a85565b0190602036910137565b50634e487b7160e01b600052601160045260246000fd5b6001906000198114611d4d570190565b611d55611d26565b0190565b6020918151811015611d6e575b60051b010190565b611d766119e1565b611d66565b9190918051835103611dec57611d918151611cf4565b9060005b8151811015611de55780611dd0611dbf611db2611de09486611d59565b516001600160a01b031690565b611dc98389611d59565b5190611c68565b611dda8286611d59565b52611d3d565b611d95565b5090925050565b60405162461bcd60e51b815260206004820152602960248201527f455243313135353a206163636f756e747320616e6420696473206c656e677468604482015268040dad2e6dac2e8c6d60bb1b6064820152608490fd5b15611e4a57565b60405162461bcd60e51b815260206004820152602560248201527f455243313135353a207472616e7366657220746f20746865207a65726f206164604482015264647265737360d81b6064820152608490fd5b15611ea457565b60405162461bcd60e51b815260206004820152602a60248201527f455243313135353a20696e73756666696369656e742062616c616e636520666f60448201526939103a3930b739b332b960b11b6064820152608490fd5b81198111611d4d570190565b6001600160a01b039594939291908682168015611f258115611e43565b611f2e85612570565b98611f3887612570565b908416918215612073575b611fef575b50611fed97985085611f6884610c77886000526000602052604060002090565b54611f7582821015611e9d565b03611f8e84610c77886000526000602052604060002090565b55611fa784610c77876000526000602052604060002090565b611fb2878254611efc565b9055604080518681526020810188905233917fc3d58168c5ae7397731d063d5bbf3d657854427343f4c083240f7aacaa2d0f6291a433612410565b565b969492909795939160005b8a5181101561205e5780612011612059928d611d59565b5161205361201f838d611d59565b51612034836000526003602052604060002090565b54612041828210156125c0565b03916000526003602052604060002090565b55611d3d565b611ffa565b50919395985091939550611fed968897611f48565b98969492909795939160005b8b80518210156120c057906120bb91610cca610cc26120aa848f816120a391611d59565b5194611d59565b516000526003602052604060002090565b61207f565b5050919395979092949698611f43565b156120d757565b60405162461bcd60e51b815260206004820152602860248201527f455243313135353a2069647320616e6420616d6f756e7473206c656e677468206044820152670dad2e6dac2e8c6d60c31b6064820152608490fd5b90916121446106549360408452604084019061100c565b91602081840391015261100c565b9081602091031261000e575161065481610470565b909260a0926106549594600180861b03168352600060208401526040830152606082015281608082015201906105f2565b919261065495949160a094600180871b0380921685521660208401526040830152606082015281608082015201906105f2565b506040513d6000823e3d90fd5b60809060208152602860208201527f455243313135353a204552433131353552656365697665722072656a656374656040820152676420746f6b656e7360c01b60608201520190565b60009060033d1161222e57565b905060046000803e60005160e01c90565b600060443d1061065457604051600319913d83016004833e815167ffffffffffffffff918282113d60248401111761229d578184019485519384116122a5573d8501016020848701011161229d5750610654929101602001906105d0565b949350505050565b50949350505050565b9390803b6122be575b5050505050565b6122e69360006020946040519687958694859363f23a6e6160e01b9b8c865260048601612167565b03926001600160a01b03165af1600091816123e0575b506123b8575050600161230d612221565b6308c379a014612389575b612327575b38808080806122b7565b60405162461bcd60e51b815260206004820152603460248201527f455243313135353a207472616e7366657220746f206e6f6e20455243313135356044820152732932b1b2b4bb32b91034b6b83632b6b2b73a32b960611b6064820152608490fd5b61239161223f565b8061239c5750612318565b60405162461bcd60e51b81529081906114f59060048301610643565b6001600160e01b0319161461231d5760405162461bcd60e51b8152806114f5600482016121d8565b61240291925060203d8111612409575b6123fa81836105d0565b810190612152565b90386122fc565b503d6123f0565b9493919092813b612424575b505050505050565b600060209461244b6040519788968795869463f23a6e6160e01b9c8d875260048701612198565b03926001600160a01b03165af1600091816124c8575b506124a05750506001612472612221565b6308c379a01461248d575b612327575b38808080808061241c565b61249561223f565b8061239c575061247d565b6001600160e01b031916146124825760405162461bcd60e51b8152806114f5600482016121d8565b6124e191925060203d8111612409576123fa81836105d0565b9038612461565b9390610654959361251a916125289460018060a01b03809216885216602087015260a0604087015260a086019061100c565b90848203606086015261100c565b9160808184039101526105f2565b9493919092813b61254957505050505050565b600060209461244b6040519788968795869463bc197c8160e01b9c8d8752600487016124e8565b604051906040820182811067ffffffffffffffff8211176125b3575b604052600182526020820160203682378251156125a7575290565b6125af6119e1565b5290565b6125bb61057c565b61258c565b156125c757565b60405162461bcd60e51b815260206004820152602860248201527f455243313135353a206275726e20616d6f756e74206578636565647320746f74604482015267616c537570706c7960c01b6064820152608490fd5b909291906001600160a01b031615612663575b60005b835181101561265d578061264a6126589286611d59565b5161205361201f8386611d59565b612633565b50509050565b60005b8351811015612693578061267d61268e9284611d59565b51610cca610cc26120aa8489611d59565b612666565b50612630565b919392916001600160a01b0391908216156126d9575b16156126ba57509050565b60005b835181101561265d578061264a6126d49286611d59565b6126bd565b929060005b855181101561270b57806126f56127069286611d59565b51610cca610cc26120aa848b611d59565b6126de565b5090926126af565b9081600052600360205260406000205480156000146127325750905090565b61273e61065493612d11565b91612787565b81810291818304149015176001161561000e57670de0b6b3a7640000900490565b670de0b6b3a7640000908181029181830414901517821515161561000e570490565b8181029181830414901517821515161561000e570490565b8060005260036020526040600020549081156000146127bd57505090565b916127ca61065493612d11565b90612787565b9190918281029281840414901517811515161561000e57600190600019830104019015150290565b9081600052600360205260406000205480156000146128175750905090565b61282361065493612d11565b916127d0565b9091816000526020600f8152604093600160ff8660002054161515036129dd5783600052600d82528460002054600a54908181106129d0575b0342116129b85760026006541461297457906128a47f4e2ca0515ed1aef1395f66b5303bb5d6f1bf9d61a353fa53f73f8ac9973fa9f692600260065585612713565b946128b0861515612a0c565b80516323b872dd60e01b8152336004820152306024820152604481018790526001600160a01b039290818160648160007f000000000000000000000000000000000000000000000000000000000000000089165af18015612967575b612949575b505061292661291e612a59565b878787612a6c565b513381526020810186905260408101869052921691606090a36106546001600655565b8161295f92903d10610a4357610a3781836105d0565b503880612911565b61296f6121cb565b61290c565b845162461bcd60e51b815260048101839052601f60248201527f5265656e7472616e637947756172643a207265656e7472616e742063616c6c006044820152606490fd5b845163fd31550160e01b815260048101859052602490fd5b6129d8611d26565b612862565b845163c1847fa960e01b815260048101859052602490fd5b818110612a00570390565b612a08611d26565b0390565b15612a1357565b60405162461bcd60e51b81526020600482015260096024820152685a65726f56616c756560b81b6044820152606490fd5b9081602091031261000e575161065481610f1f565b60405190612a66826105b4565b60008252565b936001600160a01b0385169391929091908415612b3557612a8c84612570565b93612a9682612570565b9660005b8651811015612ac75780612ab1612ac2928b611d59565b51610cca610cc26120aa848c611d59565b612a9a565b5091939650919350611fed94612aeb82610c77856000526000602052604060002090565b612af6858254611efc565b9055604080518481526020810186905260009133917fc3d58168c5ae7397731d063d5bbf3d657854427343f4c083240f7aacaa2d0f629190a4336122ae565b60405162461bcd60e51b815260206004820152602160248201527f455243313135353a206d696e7420746f20746865207a65726f206164647265736044820152607360f81b6064820152608490fd5b15612b8b57565b634e487b7160e01b600052600160045260246000fd5b15612ba857565b60405162461bcd60e51b8152602060048201526024808201527f455243313135353a206275726e20616d6f756e7420657863656564732062616c604482015263616e636560e01b6064820152608490fd5b916001600160a01b03831691908215612cc057612cb27fc3d58168c5ae7397731d063d5bbf3d657854427343f4c083240f7aacaa2d0f6291600095612c59612c4086612570565b612c4984612570565b90612c52612a59565b508361261d565b612c9882612c7583610c77896000526000602052604060002090565b54612c8282821015612ba1565b0391610c77876000526000602052604060002090565b556040805194855260208501919091523393918291820190565b0390a4612cbd612a59565b50565b60405162461bcd60e51b815260206004820152602360248201527f455243313135353a206275726e2066726f6d20746865207a65726f206164647260448201526265737360e81b6064820152608490fd5b80600052600f602052600160ff60406000205416151503612d415761065490600052600360205260406000205490565b6024906040519063c1847fa960e01b82526004820152fd5b6103e8916000526010602052604060002054908060001904821181151516612d8057020490565b612d88611d26565b020490565b60095468010000000000000000811015612de9575b6001810180600955811015612ddc575b60096000527f6e1540171b6c0c960b71a7020d9f60077f6af931a8bbf590da0223dacf75c7af0155565b612de46119e1565b612db2565b612df161057c565b612da2565b60055460009291612e0682610542565b91600190818116908115612e725750600114612e2157505050565b909192935060056000527f036b6384b5eca791c62761152d0c79bb0604c104a5fb6f4eb0703f3154bb3db0906000915b848310612e5f575050500190565b8181602092548587015201920191612e51565b60ff191683525050811515909102019150565b6040516020810181612e9682612df6565b0391612eaa601f19938481018352826105d0565b51902090604051612edb602082019282612ecf85600490637259324b60e01b81520190565b039081018352826105d0565b51902003612f4c57612f01612efd61151d83600052600e602052604060002090565b1590565b15612f4c5790612f4782612f40612f2f612f2861065496600052600b602052604060002090565b5485612765565b91600052600c602052604060002090565b5490612744565b611efc565b612f40612f2f61065493612f6a84600052600b602052604060002090565b5490612765565b60098054600093929184805b838110612f8b575050505050565b82825284817f6e1540171b6c0c960b71a7020d9f60077f6af931a8bbf590da0223dacf75c7af015414612fc657612fc190611d3d565b612f7d565b93509091939450600193848110613040575b60001981018414613038577f6e1540171b6c0c960b71a7020d9f60077f6af931a8bbf590da0223dacf75c7b094600119851161302b575b8401101561301e575b52015490565b6130266119e1565b613018565b613033611d26565b61300f565b509250505090565b613048611d26565b612fd856fea2646970667358221220db8a64851ee00ecba814fe19e157d5069001103acca014af8d1d06f09ce0df5b64736f6c634300080f0033a2646970667358221220cb19a7b12acf5f8b4f88d07439a949b9fae5353490fe7c1c1e3a6722946d880464736f6c634300080f0033",
    "linkReferences": {}
  },
  "methodIdentifiers": {
    "Admin()": "ff1b636d",
    "WETH()": "ad5c4648",
    "changeController(uint256,address)": "c5ba24b1",
    "changeTimewindow(uint256,uint256)": "39d0913b",
    "changeTreasury(address,uint256)": "97184034",
    "controller()": "f77c4791",
    "createNewMarket(uint256,address,int256,uint256,uint256,address,string)": "15355d89",
    "deployMoreAssets(uint256,uint256,uint256,uint256)": "981fed0d",
    "getVaults(uint256)": "468d16d0",
    "indexEpochs(uint256,uint256)": "424a4ab7",
    "indexVaults(uint256,uint256)": "c0c99d9b",
    "marketIndex()": "8c7adc15",
    "setController(address)": "92eefe9b",
    "tokenToOracle(address)": "9820c733",
    "treasury()": "61d027b3"
  },
  "id": 31
}