{
  "abi": [
    {
      "inputs": [
        {
          "internalType": "address",
          "name": "_treasury",
          "type": "address"
        },
        {
          "internalType": "address",
          "name": "_WETH",
          "type": "address"
        },
        {
          "internalType": "address",
          "name": "_admin",
          "type": "address"
        }
      ],
      "stateMutability": "nonpayable",
      "type": "constructor"
    },
    {
      "anonymous": false,
      "inputs": [
        {
          "indexed": true,
          "internalType": "uint256",
          "name": "index",
          "type": "uint256"
        },
        {
          "indexed": false,
          "internalType": "address",
          "name": "hedgeVault",
          "type": "address"
        },
        {
          "indexed": false,
          "internalType": "address",
          "name": "riskVault",
          "type": "address"
        },
        {
          "indexed": false,
          "internalType": "address",
          "name": "token",
          "type": "address"
        },
        {
          "indexed": false,
          "internalType": "int256",
          "name": "price",
          "type": "int256"
        },
        {
          "indexed": false,
          "internalType": "uint256",
          "name": "startEpoch",
          "type": "uint256"
        },
        {
          "indexed": false,
          "internalType": "uint256",
          "name": "endEpoch",
          "type": "uint256"
        },
        {
          "indexed": false,
          "internalType": "string",
          "name": "name",
          "type": "string"
        }
      ],
      "name": "PegMarketCreated",
      "type": "event"
    },
    {
      "anonymous": false,
      "inputs": [
        {
          "indexed": true,
          "internalType": "uint256",
          "name": "_marketIndex",
          "type": "uint256"
        },
        {
          "indexed": false,
          "internalType": "uint256",
          "name": "_feeRate",
          "type": "uint256"
        }
      ],
      "name": "changeWithdrawalFee",
      "type": "event"
    },
    {
      "anonymous": false,
      "inputs": [
        {
          "indexed": true,
          "internalType": "uint256",
          "name": "_marketIndex",
          "type": "uint256"
        },
        {
          "indexed": true,
          "internalType": "address",
          "name": "controller",
          "type": "address"
        }
      ],
      "name": "changedController",
      "type": "event"
    },
    {
      "anonymous": false,
      "inputs": [
        {
          "indexed": true,
          "internalType": "uint256",
          "name": "_marketIndex",
          "type": "uint256"
        },
        {
          "indexed": false,
          "internalType": "uint256",
          "name": "_timeWindow",
          "type": "uint256"
        }
      ],
      "name": "changedTimeWindow",
      "type": "event"
    },
    {
      "anonymous": false,
      "inputs": [
        {
          "indexed": false,
          "internalType": "address",
          "name": "_treasury",
          "type": "address"
        },
        {
          "indexed": true,
          "internalType": "uint256",
          "name": "_marketIndex",
          "type": "uint256"
        }
      ],
      "name": "changedTreasury",
      "type": "event"
    },
    {
      "anonymous": false,
      "inputs": [
        {
          "indexed": true,
          "internalType": "uint256",
          "name": "_marketIndex",
          "type": "uint256"
        },
        {
          "indexed": false,
          "internalType": "uint256",
          "name": "_feeRate",
          "type": "uint256"
        }
      ],
      "name": "changedVaultFee",
      "type": "event"
    },
    {
      "anonymous": false,
      "inputs": [
        {
          "indexed": true,
          "internalType": "address",
          "name": "newController",
          "type": "address"
        }
      ],
      "name": "controllerSet",
      "type": "event"
    },
    {
      "inputs": [],
      "name": "Admin",
      "outputs": [
        {
          "internalType": "address",
          "name": "",
          "type": "address"
        }
      ],
      "stateMutability": "view",
      "type": "function"
    },
    {
      "inputs": [],
      "name": "WETH",
      "outputs": [
        {
          "internalType": "address",
          "name": "",
          "type": "address"
        }
      ],
      "stateMutability": "view",
      "type": "function"
    },
    {
      "inputs": [
        {
          "internalType": "uint256",
          "name": "_marketIndex",
          "type": "uint256"
        },
        {
          "internalType": "address",
          "name": "_controller",
          "type": "address"
        }
      ],
      "name": "changeController",
      "outputs": [],
      "stateMutability": "nonpayable",
      "type": "function"
    },
    {
      "inputs": [
        {
          "internalType": "uint256",
          "name": "_marketIndex",
          "type": "uint256"
        },
        {
          "internalType": "uint256",
          "name": "_timewindow",
          "type": "uint256"
        }
      ],
      "name": "changeTimewindow",
      "outputs": [],
      "stateMutability": "nonpayable",
      "type": "function"
    },
    {
      "inputs": [
        {
          "internalType": "address",
          "name": "_treasury",
          "type": "address"
        },
        {
          "internalType": "uint256",
          "name": "_marketIndex",
          "type": "uint256"
        }
      ],
      "name": "changeTreasury",
      "outputs": [],
      "stateMutability": "nonpayable",
      "type": "function"
    },
    {
      "inputs": [
        {
          "internalType": "uint256",
          "name": "_marketIndex",
          "type": "uint256"
        },
        {
          "internalType": "uint256",
          "name": "_fee",
          "type": "uint256"
        }
      ],
      "name": "changeVaultFee",
      "outputs": [],
      "stateMutability": "nonpayable",
      "type": "function"
    },
    {
      "inputs": [
        {
          "internalType": "uint256",
          "name": "_marketIndex",
          "type": "uint256"
        },
        {
          "internalType": "uint256",
          "name": "_fee",
          "type": "uint256"
        }
      ],
      "name": "changeWithdrawalVaultFee",
      "outputs": [],
      "stateMutability": "nonpayable",
      "type": "function"
    },
    {
      "inputs": [],
      "name": "controller",
      "outputs": [
        {
          "internalType": "address",
          "name": "",
          "type": "address"
        }
      ],
      "stateMutability": "view",
      "type": "function"
    },
    {
      "inputs": [
        {
          "internalType": "uint256",
          "name": "_fee",
          "type": "uint256"
        },
        {
          "internalType": "uint256",
          "name": "_withdrawalFee",
          "type": "uint256"
        },
        {
          "internalType": "address",
          "name": "_token",
          "type": "address"
        },
        {
          "internalType": "int256",
          "name": "_strikePrice",
          "type": "int256"
        },
        {
          "internalType": "uint256",
          "name": "epochBegin",
          "type": "uint256"
        },
        {
          "internalType": "uint256",
          "name": "epochEnd",
          "type": "uint256"
        },
        {
          "internalType": "address",
          "name": "_oracle",
          "type": "address"
        },
        {
          "internalType": "string",
          "name": "_name",
          "type": "string"
        }
      ],
      "name": "createNewMarket",
      "outputs": [
        {
          "internalType": "address",
          "name": "insr",
          "type": "address"
        },
        {
          "internalType": "address",
          "name": "rsk",
          "type": "address"
        }
      ],
      "stateMutability": "nonpayable",
      "type": "function"
    },
    {
      "inputs": [
        {
          "internalType": "uint256",
          "name": "index",
          "type": "uint256"
        },
        {
          "internalType": "uint256",
          "name": "beginEpoch",
          "type": "uint256"
        },
        {
          "internalType": "uint256",
          "name": "endEpoch",
          "type": "uint256"
        }
      ],
      "name": "deployMoreAssets",
      "outputs": [],
      "stateMutability": "nonpayable",
      "type": "function"
    },
    {
      "inputs": [
        {
          "internalType": "uint256",
          "name": "index",
          "type": "uint256"
        }
      ],
      "name": "getVaults",
      "outputs": [
        {
          "internalType": "address[]",
          "name": "vaults",
          "type": "address[]"
        }
      ],
      "stateMutability": "view",
      "type": "function"
    },
    {
      "inputs": [
        {
          "internalType": "uint256",
          "name": "",
          "type": "uint256"
        },
        {
          "internalType": "uint256",
          "name": "",
          "type": "uint256"
        }
      ],
      "name": "indexEpochs",
      "outputs": [
        {
          "internalType": "uint256",
          "name": "",
          "type": "uint256"
        }
      ],
      "stateMutability": "view",
      "type": "function"
    },
    {
      "inputs": [
        {
          "internalType": "uint256",
          "name": "",
          "type": "uint256"
        },
        {
          "internalType": "uint256",
          "name": "",
          "type": "uint256"
        }
      ],
      "name": "indexVaults",
      "outputs": [
        {
          "internalType": "address",
          "name": "",
          "type": "address"
        }
      ],
      "stateMutability": "view",
      "type": "function"
    },
    {
      "inputs": [],
      "name": "marketIndex",
      "outputs": [
        {
          "internalType": "uint256",
          "name": "",
          "type": "uint256"
        }
      ],
      "stateMutability": "view",
      "type": "function"
    },
    {
      "inputs": [
        {
          "internalType": "address",
          "name": "_controller",
          "type": "address"
        }
      ],
      "name": "setController",
      "outputs": [],
      "stateMutability": "nonpayable",
      "type": "function"
    },
    {
      "inputs": [
        {
          "internalType": "address",
          "name": "",
          "type": "address"
        }
      ],
      "name": "tokenToOracle",
      "outputs": [
        {
          "internalType": "address",
          "name": "",
          "type": "address"
        }
      ],
      "stateMutability": "view",
      "type": "function"
    },
    {
      "inputs": [],
      "name": "treasury",
      "outputs": [
        {
          "internalType": "address",
          "name": "",
          "type": "address"
        }
      ],
      "stateMutability": "view",
      "type": "function"
    }
  ],
  "bytecode": {
    "object": "0x60c034620001ea57601f620094d838819003918201601f191683019291906001600160401b03841183851017620001ef578160609284926040968752833981010312620001ea57620000518162000205565b906200006d83620000656020840162000205565b920162000205565b916001600160a01b039081841615620001a75781831615620001635716918215620001135760805260a052600060025560018060a01b03196000541617600055516192bd90816200021b8239608051818181610101015281816101950152818161045f01528181610a6e01528181610c1301528181610cc601528181610e4c015281816112f2015261146d015260a05181818161038b0152818161050c01526105f50152f35b835162461bcd60e51b815260206004820152602360248201527f74726561737572792063616e6e6f7420626520746865207a65726f206164647260448201526265737360e81b6064820152608490fd5b845162461bcd60e51b815260206004820152601f60248201527f574554482063616e6e6f7420626520746865207a65726f2061646472657373006044820152606490fd5b6064855162461bcd60e51b815260206004820152602060248201527f61646d696e2063616e6e6f7420626520746865207a65726f20616464726573736044820152fd5b600080fd5b634e487b7160e01b600052604160045260246000fd5b51906001600160a01b0382168203620001ea5756fe608060405260043610156200001357600080fd5b6000803560e01c806315c0f307146200144c57806339d0913b14620012d1578063424a4ab7146200128b578063468d16d014620011d157806361d027b314620011a85780637bb4a17b1462000e205780638512dafe1462000ca55780638c7adc151462000c8557806392eefe9b1462000be5578063971840341462000a3a5780639820c73314620009fa578063a32636cf14620003ba578063ad5c46481462000373578063c0c99d9b1462000322578063c5ba24b1146200015e578063f77c479114620001335763ff1b636d14620000ea57600080fd5b3462000130578060031936011262000130576040517f00000000000000000000000000000000000000000000000000000000000000006001600160a01b03168152602090f35b80fd5b503462000130578060031936011262000130576001546040516001600160a01b039091168152602090f35b50346200013057604036600319011262000130576004356024356001600160a01b03818116918290036200031d5780620001bd85927f00000000000000000000000000000000000000000000000000000000000000001633146200166e565b620001ca831515620017dc565b8382526020906003825260408320604051928381835491828152019286528186209186905b828210620002ff575050505082620002099103836200162e565b6200022281620002198462001828565b51169262001836565b511690803b15620002cd57604051838160248183633cebb82360e01b968783528a60048401525af1908115620002f4578491620002dc575b5050813b15620002cd57829160248392604051948593849283528860048401525af18015620002d157620002b5575b5050604051917fda50bc426cb0e9e095fd3ae12db16f07a366fe474ca736f84dd3037bd9050cff8484a3f35b620002c09062001619565b620002cd57823862000289565b8280fd5b6040513d84823e3d90fd5b620002e79062001619565b620002cd5782386200025a565b6040513d86823e3d90fd5b8354861685528a9750938401936001938401939190910190620001ef565b600080fd5b503462000130576200033436620015d2565b91908152600360205260408120908154831015620001305760206200035a8484620015e9565b905460405160039290921b1c6001600160a01b03168152f35b503462000130578060031936011262000130576040517f00000000000000000000000000000000000000000000000000000000000000006001600160a01b03168152602090f35b5034620001305761010036600319011262000130576044356001600160a01b03811690036200031d5760c4356001600160a01b03811681036200031d5760e4359067ffffffffffffffff8211620002cd5736602383011215620002cd5782826004013592620004298462001651565b936200043960405195866200162e565b8085523660248284010111620002cd578060246020930183870137840101526200048e337f00000000000000000000000000000000000000000000000000000000000000006001600160a01b0316146200166e565b6001546001600160a01b0316620004a7811515620016b0565b6103e8806004351015620009c25760243510156200097d576002546001198111620009695760010160025560018060a01b038454166040519182613d2081011067ffffffffffffffff613d208501111762000955576040918391613d206200184884397f00000000000000000000000000000000000000000000000000000000000000006001600160a01b0316613d20840190815261012060208201819052620005539101886200172e565b613d208401808203868201526004808352636859324b60e01b602084015260608201949094529235608084015260243560a08401526044356001600160a01b031660c084015260643560e08401526101009092015203019084f09182156200094a578354600154604051916001600160a01b03908116911667ffffffffffffffff613d2084019081119084111762000936576040918391613d206200556884397f00000000000000000000000000000000000000000000000000000000000000006001600160a01b0316613d208401908152610120602082018190526200063c9101876200172e565b613d208401808203868201526004808352637259324b60e01b602084015260608201949094529235608084015260243560a08401526044356001600160a01b031660c084015260643560e08401526101009092015203019085f0918215620002f45760405180604081011067ffffffffffffffff60408301111762000920576040810160405260018060a01b038516815260018060a01b038416602082015260025486526003602052604086209081546002835580600210620008f5575b50908652602086209086905b60028210620008c4575050506001600160a01b0384163b156200089d576040516311eb46c760e11b8152608435600482015260a435602482015285908181604481836001600160a01b038b165af18015620002d157620008ac575b50506001600160a01b0383163b156200089d576040516311eb46c760e11b8152608435600482015260a43560248201528581604481836001600160a01b0389165af18015620008a15762000885575b5060409460025481526004602052620007ce60a43587832062001755565b6001600160a01b036044358116825260056020528682205416156200085d575b5050600254845190917fe99c8d02a4626e9cc722c1f73a2a0b58b58168f9f557e6cb4ca62f4831538aef91908190620008429060a4356084356064356044356001600160a01b038b8116908d168862001794565b0390a282516001600160a01b03928316815291166020820152f35b85902080546001600160a01b0319166001600160a01b039092169190911790553880620007ee565b62000891869162001619565b6200089d5738620007b0565b8480fd5b6040513d88823e3d90fd5b620008b79062001619565b6200089d57843862000761565b805183546001600160a01b0319166001600160a01b0391909116178355600192830192919091019060200162000706565b82885260208820908101906002015b818110620009135750620006fa565b6000815560010162000904565b634e487b7160e01b600052604160045260246000fd5b634e487b7160e01b87526041600452602487fd5b6040513d85823e3d90fd5b634e487b7160e01b86526041600452602486fd5b634e487b7160e01b85526011600452602485fd5b60405162461bcd60e51b815260206004820152601b60248201527f5769746864726177616c2046656520697320746f6f20686967682100000000006044820152606490fd5b60405162461bcd60e51b815260206004820152601060248201526f46656520697320746f6f20686967682160801b6044820152606490fd5b50346200013057602036600319011262000130576020906001600160a01b03906040908262000a2862001602565b16815260058452205416604051908152f35b503462000130576040366003190112620001305762000a5862001602565b602435906001600160a01b0390819062000a96337f00000000000000000000000000000000000000000000000000000000000000008416146200166e565b1690816bffffffffffffffffffffffff60a01b855416178455828452836020916003835260408220906040519182858254918281520191855285852090855b8782821062000bcb57505050508262000af09103836200162e565b62000b0081620002198462001828565b511690803b15620002cd5760405183816024818363b14f2a3960e01b968783528b60048401525af1908115620002f457849162000bb3575b5050813b15620002cd57829160248392604051948593849283528960048401525af18015620002d15762000b97575b50507f19bf2eeec0ce4db400b9ec99f958a1b32935964814d88991caa4b9b936b4e63991604051908152a2604051f35b62000ba29062001619565b62000baf57833862000b67565b8380fd5b62000bbe9062001619565b620002cd57823862000b38565b8354861685528b9750909301926001928301920162000ad5565b503462000130576020366003190112620001305762000c0362001602565b6001600160a01b039062000c3b337f00000000000000000000000000000000000000000000000000000000000000008416146200166e565b1662000c49811515620017dc565b600180546001600160a01b03191682179055604051907fef870992dc2c2a67cde45c38102147a9bb3131b38b39be3ec2ba273c058c91718383a2f35b503462000130578060031936011262000130576020600254604051908152f35b5034620001305762000cb736620015d2565b6001600160a01b0362000cee337f00000000000000000000000000000000000000000000000000000000000000008316146200166e565b828452836020916003835260408220906040519182858254918281520191855285852090855b8782821062000e0657505050508262000d2f9103836200162e565b62000d3f81620002198462001828565b511690803b15620002cd57604051838160248183636a1db1bf60e01b968783528b60048401525af1908115620002f457849162000dee575b5050813b15620002cd57829160248392604051948593849283528960048401525af18015620002d15762000dd6575b50507f0fcd61e78c752c79c083ec37b114a1bb5c84ca555215fac7d493652cff1ac0a891604051908152a2604051f35b62000de19062001619565b62000baf57833862000da6565b62000df99062001619565b620002cd57823862000d77565b8354861685528b9750909301926001928301920162000d14565b50346200013057606036600319011262000130576001600160a01b0360243560443560043562000e74337f00000000000000000000000000000000000000000000000000000000000000008616146200166e565b62000e8584600154161515620016b0565b80855260206003815260408620805415620011925760005284816000205416918652600381526040862080546001101562001192576000528460018260002001541692823b156200117257866040516311eb46c760e11b908181528760048201528360248201528281604481838a5af19081156200094a5783916200117a575b5050853b1562001176576040519081528660048201528260248201528181604481838a5af18015620002d1576200115a575b505060025487526004825262000f51816040892062001755565b60025460405163026d0d2360e11b815290968382600481885afa9182156200110c57899262001117575b505060405163c52987cf60e01b8152908382600481885afa9182156200110c578992620010d3575b506040516306fdde0360e01b8152938985600481895afa948515620010c8578a956200100b575b505095620010039392917fe99c8d02a4626e9cc722c1f73a2a0b58b58168f9f557e6cb4ca62f4831538aef976040519788978862001794565b0390a2604051f35b9450969092913d808b873e6200102281876200162e565b8501948881870312620010c45780519067ffffffffffffffff8211620010c057019480601f87011215620010c4578551986200105e8a62001651565b916200106e60405193846200162e565b8a8352818b89010111620010c0577fe99c8d02a4626e9cc722c1f73a2a0b58b58168f9f557e6cb4ca62f4831538aef99620010039782620010b39385019101620016f6565b9481939492985062000fca565b8b80fd5b8a80fd5b6040513d8c823e3d90fd5b9091508381813d831162001104575b620010ee81836200162e565b81010312620011005751903862000fa3565b8880fd5b503d620010e2565b6040513d8b823e3d90fd5b9091508381813d831162001152575b6200113281836200162e565b8101031262001100575190811681036200114e57388062000f7b565b8780fd5b503d62001126565b620011659062001619565b6200117257863862000f37565b8680fd5b5080fd5b620011859062001619565b6200117657813862000f05565b634e487b7160e01b600052603260045260246000fd5b50346200013057806003193601126200013057546040516001600160a01b039091168152602090f35b5034620001305760208060031936011262001176576004358252600381526040822060405192838383549182815201908193835284832090835b8181106200126d5750505084620012249103856200162e565b60405193838594850191818652518092526040850193925b8281106200124c57505050500390f35b83516001600160a01b0316855286955093810193928101926001016200123c565b82546001600160a01b0316845292860192600192830192016200120b565b503462000130576200129d36620015d2565b9190815260046020526040812090815483101562000130576020620012c38484620015e9565b90546040519160031b1c8152f35b50346200013057620012e336620015d2565b6001600160a01b036200131a337f00000000000000000000000000000000000000000000000000000000000000008316146200166e565b828452836020916003835260408220906040519182858254918281520191855285852090855b87828210620014325750505050826200135b9103836200162e565b6200136b81620002198462001828565b511690803b15620002cd57604051838160248183631419befb60e11b968783528b60048401525af1908115620002f45784916200141a575b5050813b15620002cd57829160248392604051948593849283528960048401525af18015620002d15762001402575b50507ff2552ab36a09f455ea9338e021e499c4a24016de8810a7e723c738ab11ea7af491604051908152a2604051f35b6200140d9062001619565b62000baf578338620013d2565b620014259062001619565b620002cd578238620013a3565b8354861685528b9750909301926001928301920162001340565b503462000130576200145e36620015d2565b6001600160a01b0362001495337f00000000000000000000000000000000000000000000000000000000000000008316146200166e565b828452602090600382526040852090604051808385829554938481520190895285892092895b87828210620015b957505050620014d5925003836200162e565b620014e581620002198462001828565b511690803b15620015b55760405186816024818363819b48e360e01b968783528a60048401525af18015620015aa5762001592575b50908591813b15620002cd57829160248392604051948593849283528960048401525af18015620002d1576200157a575b50507e50410e918878156dbf9119b9300571bb7474169778b965abf7633d9c942c8e91604051908152a2604051f35b620015859062001619565b62000baf5783386200154b565b620015a1909691929662001619565b9490386200151a565b6040513d89823e3d90fd5b8580fd5b85548716845260019586019588955093019201620014bb565b60409060031901126200031d576004359060243590565b8054821015620011925760005260206000200190600090565b600435906001600160a01b03821682036200031d57565b67ffffffffffffffff81116200092057604052565b90601f8019910116810190811067ffffffffffffffff8211176200092057604052565b67ffffffffffffffff81116200092057601f01601f191660200190565b156200167657565b60405162461bcd60e51b8152602060048201526012602482015271596f7520617265206e6f742041646d696e2160701b6044820152606490fd5b15620016b857565b60405162461bcd60e51b8152602060048201526016602482015275436f6e74726f6c6c6572206973206e6f74207365742160501b6044820152606490fd5b918091926000905b8282106200171857501162001711575050565b6000910152565b91508060209183015181860152018291620016fe565b906020916200174981518092818552858086019101620016f6565b601f01601f1916010190565b80546801000000000000000081101562000920576200177a91600182018155620015e9565b819291549060031b600019811b9283911b16911916179055565b939091620017d997969360e0969360018060a01b03928380921688521660208701521660408501526060840152608083015260a08201528160c082015201906200172e565b90565b15620017e457565b606460405162461bcd60e51b815260206004820152602060248201527f436f6e74726f6c6c657220616464726573732063616e6e6f74206265203078306044820152fd5b805115620011925760200190565b80516001101562001192576040019056fe6040610100815234620005255762003d20803803806200001f816200052a565b92833981016101208282031262000525576200003b8262000550565b60208381015190936001600160401b03918281116200052557846200006291830162000565565b93868201519083821162000525576200007d91830162000565565b936200008c6060830162000550565b9460808301519160a084015197620000a760c0860162000550565b92620000bc61010060e0880151970162000550565b968b5190838201828110828211176200050f578d5260008092526002546001938482811c9216801562000504575b86831014620004f057601f91828111620004c2575b5060028490556001600160a01b039b8c166080528651838111620004ae5760049788548781811c91168015620004a3575b8982101462000490579081858493116200043d575b508890858311600114620003d9578792620003cd575b5050600019600383901b1c191690861b1787555b8051928311620003ba5760059384548681811c91168015620003af575b888210146200039c57908184869594931162000347575b5087928411600114620002e35792620002d7575b5050600019600383901b1c191690831b1790555b60065560968410156200029557505060a052600e558260018060a01b0319941684600f541617600f5560c0523360e0521690601054161760105562015180600855601155516137379081620005e982396080518181816105ed01528181610df001528181611186015281816114c901528181611bf601528181612be90152613442015260a05181610856015260c05181611b48015260e051818181610bdc01528181610d1d015281816111de015281816115ee01528181611702015281816117aa0152611a4d0152f35b895162461bcd60e51b815291820152601960248201527f466565206d757374206265206c657373207468616e2031352500000000000000604482015260649150fd5b015190503880620001b7565b9190869450601f198416868452888420935b8982821062000330575050841162000316575b505050811b019055620001cb565b015160001960f88460031b161c1916905538808062000308565b8385015186558997909501949384019301620002f5565b909192935085825287822084808701881c8201928a881062000392575b9187968a929695949301891c01915b82811062000383575050620001a3565b83815587965089910162000373565b9250819262000364565b634e487b7160e01b825260228952602482fd5b90607f16906200018c565b634e487b7160e01b845260418752602484fd5b0151905038806200015b565b8a88528988208994509190601f198416895b8c8282106200042657505084116200040c575b505050811b0187556200016f565b015160001960f88460031b161c19169055388080620003fe565b8385015186558c97909501949384019301620003eb565b9091508987528887208580850160051c8201928b861062000486575b918a91869594930160051c01915b8281106200047757505062000145565b8981558594508a910162000467565b9250819262000459565b634e487b7160e01b875260228a52602487fd5b90607f169062000130565b634e487b7160e01b85526041600452602485fd5b600285528583888720920160051c8201915b828110620004e4575050620000ff565b868155018690620004d4565b634e487b7160e01b84526022600452602484fd5b91607f1691620000ea565b634e487b7160e01b600052604160045260246000fd5b600080fd5b6040519190601f01601f191682016001600160401b038111838210176200050f57604052565b51906001600160a01b03821682036200052557565b81601f8201121562000525578051906001600160401b0382116200050f576020906200059a601f8401601f191683016200052a565b93838552828483010111620005255782906000905b83838310620005cf57505011620005c557505090565b6000918301015290565b81935082819392010151828288010152018391620005af56fe60806040526004361015610013575b600080fd5b60003560e01c8062fdd58e146104575780630169a9961461044e57806301ffc9a71461044557806304da1a461461043c57806306fdde03146104335780630b8a295a1461042a5780630e89341c14610421578063181e7b3b1461030a578063236b40201461041857806323d68d8e1461040f578063242156ed14610406578063276b1140146103fd578063281dba1b146103f457806328337df6146103eb57806329322e05146103e25780632eb2c2d6146103d95780632fccfc83146103d057806338d52e0f146103c75780633cebb823146103be5780633e048365146103b5578063402d267d146102ef578063488bd7b0146103ac5780634cbd43de146103a35780634d288ba71461039a5780634e1273f4146103915780634f558e791461038857806356150edf1461037f5780636a1db1bf146103765780636f7e9bd51461036d57806371b3177a146103645780637a7af70d146102cb578063819b48e31461035b5780638bc7e8c4146103525780638dbdbe6d146103495780638fc710cb14610340578063946058571461033757806395d89b411461032e578063a22cb46514610325578063b14f2a391461031c578063ba37f9e514610313578063bbec4d061461030a578063bd85b03914610301578063c52987cf146102f8578063c63d75b6146102ef578063c6b61e4c146102e6578063cfc13da6146102dd578063d662b92d146102d4578063db2088f4146102cb578063dd2fdd21146102c2578063e58c6dfa146102b9578063e7d3fe6b146102b0578063e985e9c5146102a7578063ea859a271461029e578063f242432a14610295578063f77c47911461028c5763f9db24271461028457600080fd5b61000e611eb7565b5061000e611e8d565b5061000e611da2565b5061000e611d75565b5061000e611d17565b5061000e611cfd565b5061000e611ccb565b5061000e611ca6565b5061000e61176d565b5061000e611c87565b5061000e611bd4565b5061000e611b82565b5061000e611267565b5061000e611b2f565b5061000e611b04565b5061000e610b78565b5061000e611ad6565b5061000e611a24565b5061000e611933565b5061000e61188b565b5061000e61186c565b5061000e61184d565b5061000e611833565b5061000e6117ea565b5061000e61178f565b5061000e611650565b5061000e61162e565b5061000e6115d3565b5061000e6114a7565b5061000e611478565b5061000e6113bd565b5061000e61134b565b5061000e6112ba565b5061000e61128e565b5061000e611225565b5061000e6111b5565b5061000e61116f565b5061000e611150565b5061000e610f39565b5061000e610d53565b5061000e610d05565b5061000e610ce6565b5061000e610cc4565b5061000e610c98565b5061000e610bc1565b5061000e610b9a565b5061000e610aae565b5061000e610a7c565b5061000e61099a565b5061000e61083f565b5061000e6107c5565b5061000e610509565b5061000e6104a0565b600435906001600160a01b038216820361000e57565b602435906001600160a01b038216820361000e57565b35906001600160a01b038216820361000e57565b503461000e57604036600319011261000e5760206104c86104bf610460565b60243590611ee4565b604051908152f35b608090600319011261000e5760043590602435906001600160a01b0390604435828116810361000e5791606435908116810361000e5790565b503461000e576106e37fbbbdee62287b5bf3bee13cab60a29ad729cf38109bccbd2a986a11c99b8ca70460006106c1610541366104d0565b929190824210801590610798575b61055890612fca565b8286526020958694600d8652610579600160ff604085205416151514612ad6565b6001600160a01b0394818616338114801561074c575b6105989061304b565b6105a28683612aa5565b506105cd6105b08784612a1f565b966105bc881515613217565b836105c78982613539565b956130ff565b6105e76103e86105df60115486613285565b048094612c89565b9a8b80987f00000000000000000000000000000000000000000000000000000000000000001697868b61065b8b610625600f5460018060a01b031690565b60405163a9059cbb60e01b8082526001600160a01b039092166004820152602481019b909b529993849283919082906044820190565b03925af1801561073f575b610722575b50604080513381526001600160a01b038a166020820152908101919091526060810191909152608090a36040519081526001600160a01b0390921660048301526024820193909352938492839182906044820190565b03925af18015610715575b6106e7575b50506040519081529081906020820190565b0390f35b8161070692903d1061070e575b6106fe8183610913565b810190612d8b565b5038806106d1565b503d6106f4565b61071d612447565b6106cc565b610738908c8d3d1061070e576106fe8183610913565b503861066b565b610747612447565b610666565b5061059861079161078a876107738760018060a01b03166000526001602052604060002090565b9060018060a01b0316600052602052604060002090565b5460ff1690565b905061058f565b50828652600c602052604086205460ff16151560011461054f565b6001600160e01b031981160361000e57565b503461000e57602036600319011261000e5760206004356107e5816107b3565b63ffffffff60e01b16636cdb3d1360e11b8114908115610823575b8115610812575b506040519015158152f35b6301ffc9a760e01b14905038610807565b6303a24d0760e21b81149150610800565b600091031261000e57565b503461000e57600036600319011261000e576040517f00000000000000000000000000000000000000000000000000000000000000006001600160a01b03168152602090f35b90600182811c921680156108b5575b602083101461089f57565b634e487b7160e01b600052602260045260246000fd5b91607f1691610894565b50634e487b7160e01b600052604160045260246000fd5b67ffffffffffffffff81116108ea57604052565b6108f26108bf565b604052565b6020810190811067ffffffffffffffff8211176108ea57604052565b90601f8019910116810190811067ffffffffffffffff8211176108ea57604052565b91908251928382526000905b84821061096e575092806020939411610961575b601f01601f1916010190565b6000838284010152610955565b90602090818082850101519082860101520190610941565b906020610997928181520190610935565b90565b503461000e57600080600319360112610a795760405190806004546109be81610885565b80855291600191808316908115610a4f57506001146109f4575b6106e3856109e881870382610913565b60405191829182610986565b9250600483527f8a35acfbc15ff81a39ae7d344fd709f28e8600b4aa8c65c6b64bfe7fe36bd19b5b828410610a375750505081016020016109e8826106e36109d8565b80546020858701810191909152909301928101610a1c565b8695506106e3969350602092506109e894915060ff191682840152151560051b82010192936109d8565b80fd5b503461000e57602036600319011261000e57600435600052600d602052602060ff604060002054166040519015158152f35b503461000e5760208060031936011261000e57604051600091600254610ad381610885565b80845290600190818116908115610b585750600114610afd575b6106e3846109e881880382610913565b600260009081529294507f405787fa12a823e0f2b7631cc41b3ba8828b3321ca811111fa75cd3aa3bb5ace5b828410610b4557505050816106e3936109e89282010193610aed565b8054858501870152928501928101610b29565b60ff1916858501525050151560051b82010191506109e8816106e3610aed565b503461000e57604036600319011261000e5760206104c8602435600435612a1f565b503461000e57604036600319011261000e5760206104c8600435610bbc610476565b611ee4565b503461000e57604036600319011261000e57602435610c0a337f00000000000000000000000000000000000000000000000000000000000000006001600160a01b0316146132a4565b80600052600d60205260ff60406000205416610c675780610c48610c3b610c6593600052600d602052604060002090565b805460ff19166001179055565b600435610c5f82600052600b602052604060002090565b55613326565b005b60405162461bcd60e51b815260206004820152600960248201526849445f45584953545360b81b6044820152606490fd5b503461000e57604036600319011261000e5760206104c8600435610cbe81610bbc610476565b90612a1f565b503461000e57604036600319011261000e5760206104c8602435600435612a50565b503461000e57600036600319011261000e576020600e54604051908152f35b503461000e57602036600319011261000e57610d4b337f00000000000000000000000000000000000000000000000000000000000000006001600160a01b0316146132a4565b600435600855005b503461000e57604036600319011261000e57600435610dec6020610d75610476565b6010546001600160a01b0390610d8e908216331461338f565b600094808652600d8452610dad600160ff604089205416151514612ad6565b855260098352604080862054905163a9059cbb60e01b81526001600160a01b039093166004840152602483015290928391908290869082906044820190565b03927f0000000000000000000000000000000000000000000000000000000000000000165af18015610e42575b610e24575b50604051f35b610e3b9060203d811161070e576106fe8183610913565b5038610e1e565b610e4a612447565b610e19565b60209067ffffffffffffffff8111610e69575b60051b0190565b610e716108bf565b610e62565b81601f8201121561000e57803591610e8d83610e4f565b92610e9b6040519485610913565b808452602092838086019260051b82010192831161000e578301905b828210610ec5575050505090565b81358152908301908301610eb7565b81601f8201121561000e5780359067ffffffffffffffff8211610f2c575b60405192610f0a601f8401601f191660200185610913565b8284526020838301011161000e57816000926020809301838601378301015290565b610f346108bf565b610ef2565b503461000e5760a036600319011261000e57610f53610460565b610f5b610476565b9067ffffffffffffffff9060443582811161000e57610f7e903690600401610e76565b9160643581811161000e57610f97903690600401610e76565b9060843590811161000e57610fb0903690600401610ed4565b6001600160a01b03838116949190338614801561112d575b156110cd57610fda835185511461234c565b8616610fe78115156120bf565b610ff384848988612919565b60005b8351811015611089578061100d6110849286611fd5565b5161107d6110758b610773611022868c611fd5565b51948c6110648761104183610773866000526000602052604060002090565b5461104e82821015612119565b0391610773846000526000602052604060002090565b556000526000602052604060002090565b918254612178565b9055611fb9565b610ff6565b5093869194610c65966040517f4a39dc06d4c0dbc64b70af90fd698a233a518aa5d07e595d983b8c0526c8f7fb3391806110c48a8a836123a9565b0390a4336127b6565b60405162461bcd60e51b815260206004820152603260248201527f455243313135353a207472616e736665722063616c6c6572206973206e6f74206044820152711bdddb995c881b9bdc88185c1c1c9bdd995960721b6064820152608490fd5b50600086815260016020908152604080832033845290915290205460ff16610fc8565b503461000e57600036600319011261000e576020600854604051908152f35b503461000e57600036600319011261000e576040517f00000000000000000000000000000000000000000000000000000000000000006001600160a01b03168152602090f35b503461000e57602036600319011261000e576111cf610460565b6001600160a01b0390611205337f00000000000000000000000000000000000000000000000000000000000000008416146132a4565b166bffffffffffffffffffffffff60a01b60105416176010556000604051f35b503461000e57604036600319011261000e5761124c60018060a01b0360105416331461338f565b600435600052600a6020526024356040600020556000604051f35b503461000e57602036600319011261000e57611281610460565b5060206040516000198152f35b503461000e57604036600319011261000e5760206104c8602435600435612aa5565b8015150361000e57565b503461000e57604036600319011261000e576024356004356112db826112b0565b6112f060018060a01b0360105416331461338f565b611330600092828452600d602052611313600160ff604087205416151514612ad6565b828452600c602052604084209060ff801983541691151516179055565b61133981613251565b90825260096020526040822055604051f35b503461000e57602036600319011261000e57600435600052600a6020526020604060002054604051908152f35b90815180825260208080930193019160005b828110611398575050505090565b83518552938101939281019260010161138a565b906020610997928181520190611378565b503461000e57604036600319011261000e5760043567ffffffffffffffff80821161000e573660238301121561000e5781600401356113fb81610e4f565b926114096040519485610913565b81845260209160248386019160051b8301019136831161000e57602401905b828210611461578560243586811161000e576106e39161144f611455923690600401610e76565b90611ff7565b604051918291826113ac565b83809161146d8461048c565b815201910190611428565b503461000e57602036600319011261000e57600435600052600360205260206040600020541515604051908152f35b50604036600319011261000e576114bc610476565b6114c7341515612ecb565b7f00000000000000000000000000000000000000000000000000000000000000006001600160a01b0316803b1561000e576106e39161156961157292604051630d0e30db60e41b815260008160048134865af180156115c6575b6115ad575b5060405163a9059cbb60e01b815233600482015234602482015290602090829081600081604481015b03925af19081156115a0575b600091611582575b50612f21565b34600435612b1b565b6040519081529081906020820190565b61159a915060203d811161070e576106fe8183610913565b38611563565b6115a8612447565b61155b565b806115ba6115c0926108d6565b80610834565b38611526565b6115ce612447565b611521565b503461000e57602036600319011261000e5760043561161c337f00000000000000000000000000000000000000000000000000000000000000006001600160a01b0316146132a4565b6116296103e882106132e7565b600e55005b503461000e57604036600319011261000e5760206104c8602435600435613539565b503461000e576106e37fbbbdee62287b5bf3bee13cab60a29ad729cf38109bccbd2a986a11c99b8ca70460006106c1611688366104d0565b929190824210801590611752575b61169f90612fca565b8286526020958694600d86526116c0600160ff604085205416151514612ad6565b6001600160a01b03948186163381148015611729575b80156116fe575b6116e69061304b565b6105cd6116f38784612aa5565b836105c78282613539565b50337f00000000000000000000000000000000000000000000000000000000000000008816146116dd565b5061174d61078a866107738660018060a01b03166000526001602052604060002090565b6116d6565b50828652600c602052604086205460ff161515600114611696565b503461000e57604036600319011261000e5760206104c8602435600435612993565b503461000e57602036600319011261000e576004356117d8337f00000000000000000000000000000000000000000000000000000000000000006001600160a01b0316146132a4565b6117e56103e882106132e7565b601155005b503461000e57600036600319011261000e576020601154604051908152f35b606090600319011261000e5760043590602435906044356001600160a01b038116810361000e5790565b503461000e5760206104c861184736611809565b91612b1b565b503461000e57602036600319011261000e5760206104c8600435613625565b503461000e57602036600319011261000e5760206104c8600435613251565b503461000e57600080600319360112610a795760405190806005546118af81610885565b80855291600191808316908115610a4f57506001146118d8576106e3856109e881870382610913565b9250600583527f036b6384b5eca791c62761152d0c79bb0604c104a5fb6f4eb0703f3154bb3db05b82841061191b5750505081016020016109e8826106e36109d8565b80546020858701810191909152909301928101611900565b503461000e57604036600319011261000e5761194d610460565b602435611959816112b0565b6001600160a01b038216913383146119cd5733600090815260016020526040902061199b91839161198a9190610773565b9060ff801983541691151516179055565b604051901515815233907f17307eab39ab6107e8899845ad3d59bd9653f200f220920489ca2b5937696c3190602090a3005b60405162461bcd60e51b815260206004820152602960248201527f455243313135353a2073657474696e6720617070726f76616c20737461747573604482015268103337b91039b2b63360b91b6064820152608490fd5b503461000e57602036600319011261000e57611a3e610460565b6001600160a01b0390611a74337f00000000000000000000000000000000000000000000000000000000000000008416146132a4565b168015611a9157600f80546001600160a01b031916919091179055005b60405162461bcd60e51b815260206004820152601c60248201527f547265617375727920616464726573732063616e6e6f742062652030000000006044820152606490fd5b503461000e57602036600319011261000e5760206103e8611afb601154600435613285565b04604051908152f35b503461000e57602036600319011261000e5760206104c8600435600052600360205260406000205490565b503461000e57600036600319011261000e5760206040517f00000000000000000000000000000000000000000000000000000000000000008152f35b50634e487b7160e01b600052603260045260246000fd5b503461000e57602036600319011261000e5760043560075481101561000e5760209060076000527fa66cc928b5edb82af9bd49922954155ab7b0942694bea4ce44661d9a8736c6880154604051908152f35b50604036600319011261000e57611be9610476565b611bf4341515612ecb565b7f00000000000000000000000000000000000000000000000000000000000000006001600160a01b0316803b1561000e576106e391611c7e61157292604051630d0e30db60e41b815260008160048134865af180156115c6576115ad575060405163a9059cbb60e01b8152336004820152346024820152906020908290816000816044810161154f565b34600435612f3e565b503461000e57600036600319011261000e576020600754604051908152f35b503461000e57602036600319011261000e5760206103e8611afb600e54600435613285565b503461000e57602036600319011261000e57600435600052600c602052602060ff604060002054166040519015158152f35b503461000e5760206104c8611d1136611809565b91612f3e565b503461000e57604036600319011261000e57602060ff611d69611d38610460565b611d40610476565b6001600160a01b0391821660009081526001865260408082209290931681526020919091522090565b54166040519015158152f35b503461000e57602036600319011261000e57600435600052600b6020526020604060002054604051908152f35b503461000e5760a036600319011261000e57611dbc610460565b611dc4610476565b60843567ffffffffffffffff811161000e57611de4903690600401610ed4565b906001600160a01b038316338114908115611e68575b5015611e1157610c65926064359160443591612184565b60405162461bcd60e51b815260206004820152602960248201527f455243313135353a2063616c6c6572206973206e6f74206f776e6572206e6f7260448201526808185c1c1c9bdd995960ba1b6064820152608490fd5b6000908152600160209081526040808320338452909152902060ff9150541638611dfa565b503461000e57600036600319011261000e576010546040516001600160a01b039091168152602090f35b503461000e57602036600319011261000e5760043560005260096020526020604060002054604051908152f35b6001600160a01b03811615611f18576000918252602082815260408084206001600160a01b03909316845291905290205490565b60405162461bcd60e51b815260206004820152602a60248201527f455243313135353a2061646472657373207a65726f206973206e6f742061207660448201526930b634b21037bbb732b960b11b6064820152608490fd5b90611f7a82610e4f565b611f876040519182610913565b8281528092611f98601f1991610e4f565b0190602036910137565b50634e487b7160e01b600052601160045260246000fd5b6001906000198114611fc9570190565b611fd1611fa2565b0190565b6020918151811015611fea575b60051b010190565b611ff2611b6b565b611fe2565b91909180518351036120685761200d8151611f70565b9060005b8151811015612061578061204c61203b61202e61205c9486611fd5565b516001600160a01b031690565b6120458389611fd5565b5190611ee4565b6120568286611fd5565b52611fb9565b612011565b5090925050565b60405162461bcd60e51b815260206004820152602960248201527f455243313135353a206163636f756e747320616e6420696473206c656e677468604482015268040dad2e6dac2e8c6d60bb1b6064820152608490fd5b156120c657565b60405162461bcd60e51b815260206004820152602560248201527f455243313135353a207472616e7366657220746f20746865207a65726f206164604482015264647265737360d81b6064820152608490fd5b1561212057565b60405162461bcd60e51b815260206004820152602a60248201527f455243313135353a20696e73756666696369656e742062616c616e636520666f60448201526939103a3930b739b332b960b11b6064820152608490fd5b81198111611fc9570190565b6001600160a01b0395949392919086821680156121a181156120bf565b6121aa856127f0565b986121b4876127f0565b9084169182156122ef575b61226b575b50612269979850856121e484610773886000526000602052604060002090565b546121f182821015612119565b0361220a84610773886000526000602052604060002090565b5561222384610773876000526000602052604060002090565b61222e878254612178565b9055604080518681526020810188905233917fc3d58168c5ae7397731d063d5bbf3d657854427343f4c083240f7aacaa2d0f6291a433612690565b565b969492909795939160005b8a518110156122da578061228d6122d5928d611fd5565b516122cf61229b838d611fd5565b516122b0836000526003602052604060002090565b546122bd82821015612840565b03916000526003602052604060002090565b55611fb9565b612276565b509193959850919395506122699688976121c4565b98969492909795939160005b8b805182101561233c57906123379161107d611075612326848f8161231f91611fd5565b5194611fd5565b516000526003602052604060002090565b6122fb565b50509193959790929496986121bf565b1561235357565b60405162461bcd60e51b815260206004820152602860248201527f455243313135353a2069647320616e6420616d6f756e7473206c656e677468206044820152670dad2e6dac2e8c6d60c31b6064820152608490fd5b90916123c061099793604084526040840190611378565b916020818403910152611378565b9081602091031261000e5751610997816107b3565b909260a0926109979594600180861b0316835260006020840152604083015260608201528160808201520190610935565b919261099795949160a094600180871b038092168552166020840152604083015260608201528160808201520190610935565b506040513d6000823e3d90fd5b60809060208152602860208201527f455243313135353a204552433131353552656365697665722072656a656374656040820152676420746f6b656e7360c01b60608201520190565b60009060033d116124aa57565b905060046000803e60005160e01c90565b600060443d1061099757604051600319913d83016004833e815167ffffffffffffffff918282113d60248401111761251957818401948551938411612521573d85010160208487010111612519575061099792910160200190610913565b949350505050565b50949350505050565b9390803b61253a575b5050505050565b6125629360006020946040519687958694859363f23a6e6160e01b9b8c8652600486016123e3565b03926001600160a01b03165af160009181612660575b50612638575050600161258961249d565b6308c379a014612609575b6125a3575b3880808080612533565b60405162461bcd60e51b815260206004820152603460248201527f455243313135353a207472616e7366657220746f206e6f6e20455243313135356044820152732932b1b2b4bb32b91034b6b83632b6b2b73a32b960611b6064820152608490fd5b0390fd5b6126116124bb565b8061261c5750612594565b60405162461bcd60e51b81529081906126059060048301610986565b6001600160e01b031916146125995760405162461bcd60e51b81528061260560048201612454565b61268291925060203d8111612689575b61267a8183610913565b8101906123ce565b9038612578565b503d612670565b9493919092813b6126a4575b505050505050565b60006020946126cb6040519788968795869463f23a6e6160e01b9c8d875260048701612414565b03926001600160a01b03165af160009181612748575b5061272057505060016126f261249d565b6308c379a01461270d575b6125a3575b38808080808061269c565b6127156124bb565b8061261c57506126fd565b6001600160e01b031916146127025760405162461bcd60e51b81528061260560048201612454565b61276191925060203d81116126895761267a8183610913565b90386126e1565b9390610997959361279a916127a89460018060a01b03809216885216602087015260a0604087015260a0860190611378565b908482036060860152611378565b916080818403910152610935565b9493919092813b6127c957505050505050565b60006020946126cb6040519788968795869463bc197c8160e01b9c8d875260048701612768565b604051906040820182811067ffffffffffffffff821117612833575b60405260018252602082016020368237825115612827575290565b61282f611b6b565b5290565b61283b6108bf565b61280c565b1561284757565b60405162461bcd60e51b815260206004820152602860248201527f455243313135353a206275726e20616d6f756e74206578636565647320746f74604482015267616c537570706c7960c01b6064820152608490fd5b909291906001600160a01b0316156128e3575b60005b83518110156128dd57806128ca6128d89286611fd5565b516122cf61229b8386611fd5565b6128b3565b50509050565b60005b835181101561291357806128fd61290e9284611fd5565b5161107d6110756123268489611fd5565b6128e6565b506128b0565b919392916001600160a01b039190821615612959575b161561293a57509050565b60005b83518110156128dd57806128ca6129549286611fd5565b61293d565b929060005b855181101561298b57806129756129869286611fd5565b5161107d611075612326848b611fd5565b61295e565b50909261292f565b9081600052600360205260406000205480156000146129b25750905090565b6129be61099793613251565b91612a07565b81810291818304149015176001161561000e57670de0b6b3a7640000900490565b670de0b6b3a7640000908181029181830414901517821515161561000e570490565b8181029181830414901517821515161561000e570490565b806000526003602052604060002054908115600014612a3d57505090565b91612a4a61099793613251565b90612a07565b806000526003602052604060002054908115600014612a6e57505090565b91612a7b61099793613251565b905b9190918281029281840414901517811515161561000e57600190600019830104019015150290565b908160005260036020526040600020548015600014612ac45750905090565b612ad061099793613251565b91612a7d565b15612add57565b60405162461bcd60e51b81526020600482015260166024820152754d61726b657420646f6573206e6f742045786973742160501b6044820152606490fd5b90612b7f9082600052600d602052612b3f600160ff60406000205416151514612ad6565b82600052600b602052612b6560406000205460085490818110612c7c575b034210612ca0565b612b7460026006541415612d05565b600260065582612993565b612b8a811515612d51565b7f4e2ca0515ed1aef1395f66b5303bb5d6f1bf9d61a353fa53f73f8ac9973fa9f6612bb4826133ec565b6040516323b872dd60e01b81523360048201523060248201526044810182905290946001600160a01b039160208160648160007f000000000000000000000000000000000000000000000000000000000000000088165af18015612c6f575b612c51575b50612c2c612c24612da0565b878784612db3565b6040805133815260208101889052908101949094521691606090a36109976001600655565b612c689060203d811161070e576106fe8183610913565b5038612c18565b612c77612447565b612c13565b612c84611fa2565b612b5d565b818110612c94570390565b612c9c611fa2565b0390565b15612ca757565b60405162461bcd60e51b815260206004820152603060248201527f4465706f7369742074696d65206973206f7665722c2045706f6368206861732060448201526f616c726561647920737461727465642160801b6064820152608490fd5b15612d0c57565b60405162461bcd60e51b815260206004820152601f60248201527f5265656e7472616e637947756172643a207265656e7472616e742063616c6c006044820152606490fd5b15612d5857565b60405162461bcd60e51b815260206004820152600b60248201526a5a45524f5f53484152455360a81b6044820152606490fd5b9081602091031261000e5751610997816112b0565b60405190612dad826108f7565b60008252565b936001600160a01b0385169391929091908415612e7c57612dd3846127f0565b93612ddd826127f0565b9660005b8651811015612e0e5780612df8612e09928b611fd5565b5161107d611075612326848c611fd5565b612de1565b509193965091935061226994612e3282610773856000526000602052604060002090565b612e3d858254612178565b9055604080518481526020810186905260009133917fc3d58168c5ae7397731d063d5bbf3d657854427343f4c083240f7aacaa2d0f629190a43361252a565b60405162461bcd60e51b815260206004820152602160248201527f455243313135353a206d696e7420746f20746865207a65726f206164647265736044820152607360f81b6064820152608490fd5b15612ed257565b60405162461bcd60e51b815260206004820152602160248201527f45544820616d6f756e74206d7573742062652067726561746572207468616e206044820152600360fc1b6064820152608490fd5b15612f2857565b634e487b7160e01b600052600160045260246000fd5b9081600052600d602052612f5e600160ff60406000205416151514612ad6565b81600052600b602052612f8360406000205460085490818110612c7c57034210612ca0565b612f9260026006541415612d05565b60026006557f4e2ca0515ed1aef1395f66b5303bb5d6f1bf9d61a353fa53f73f8ac9973fa9f6612bb4612fc58385612a50565b6133ec565b15612fd157565b60405162461bcd60e51b815260206004820152604660248201527f45706f636820686173206e6f7420656e6465642c206f7220646570656720657660448201527f656e7420686173206e6f74206f63757272656420696e207468652074696d65206064820152656265696e672160d01b608482015260a490fd5b1561305257565b60405162461bcd60e51b815260206004820152602760248201527f4f776e6572206e6565647320746f20617070726f766520726563656976657220604482015266199bdc88185b1b60ca1b6064820152608490fd5b156130ae57565b60405162461bcd60e51b8152602060048201526024808201527f455243313135353a206275726e20616d6f756e7420657863656564732062616c604482015263616e636560e01b6064820152608490fd5b916001600160a01b038316919082156131c6576131b87fc3d58168c5ae7397731d063d5bbf3d657854427343f4c083240f7aacaa2d0f629160009561315f613146866127f0565b61314f846127f0565b90613158612da0565b508361289d565b61319e8261317b83610773896000526000602052604060002090565b54613188828210156130a7565b0391610773876000526000602052604060002090565b556040805194855260208501919091523393918291820190565b0390a46131c3612da0565b50565b60405162461bcd60e51b815260206004820152602360248201527f455243313135353a206275726e2066726f6d20746865207a65726f206164647260448201526265737360e81b6064820152608490fd5b1561321e57565b60405162461bcd60e51b815260206004820152600b60248201526a5a45524f5f41535345545360a81b6044820152606490fd5b6109979080600052600d602052613274600160ff60406000205416151514612ad6565b600052600360205260406000205490565b8060001904821181151516613298570290565b6132a0611fa2565b0290565b156132ab57565b60405162461bcd60e51b8152602060048201526014602482015273596f7520617265206e6f7420466163746f72792160601b6044820152606490fd5b156132ee57565b60405162461bcd60e51b815260206004820152601060248201526f46656520697320746f6f20686967682160801b6044820152606490fd5b60075468010000000000000000811015613382575b6001810180600755811015613375575b60076000527fa66cc928b5edb82af9bd49922954155ab7b0942694bea4ce44661d9a8736c6880155565b61337d611b6b565b61334b565b61338a6108bf565b61333b565b1561339657565b60405162461bcd60e51b815260206004820152602860248201527f596f7520617265206e6f742063616c6c696e672066726f6d2074686520436f6e60448201526774726f6c6c65722160c01b6064820152608490fd5b6103e86133fb600e5483613285565b049081811061349d575b600f546040516323b872dd60e01b81523360048201526001600160a01b0391821660248201526044810184905290602090829060649082906000907f0000000000000000000000000000000000000000000000000000000000000000165af18015613490575b61347457500390565b61348b9060203d811161070e576106fe8183610913565b500390565b613498612447565b61346b565b6134a5611fa2565b613405565b600554600092916134ba82610885565b9160019081811690811561352657506001146134d557505050565b909192935060056000527f036b6384b5eca791c62761152d0c79bb0604c104a5fb6f4eb0703f3154bb3db0906000915b848310613513575050500190565b8181602092548587015201920191613505565b60ff191683525050811515909102019150565b604051602081018161354a826134aa565b039161355e601f1993848101835282610913565b5190209060405161358f60208201928261358385600490637259324b60e01b81520190565b03908101835282610913565b51902003613600576135b56135b161078a83600052600c602052604060002090565b1590565b1561360057906135fb826135f46135e36135dc610997966000526009602052604060002090565b54856129e5565b91600052600a602052604060002090565b54906129c4565b612178565b6135f46135e36109979361361e846000526009602052604060002090565b54906129e5565b60078054600093929184805b83811061363f575050505050565b82825284817fa66cc928b5edb82af9bd49922954155ab7b0942694bea4ce44661d9a8736c68801541461367a5761367590611fb9565b613631565b935090919394506001938481106136f4575b600019810184146136ec577fa66cc928b5edb82af9bd49922954155ab7b0942694bea4ce44661d9a8736c6899460011985116136df575b840110156136d2575b52015490565b6136da611b6b565b6136cc565b6136e7611fa2565b6136c3565b509250505090565b6136fc611fa2565b61368c56fea26469706673582212206c1be9c7b4efeae58431b3ea8f2fa473160befe868a34bdfcae69fe4f81f292464736f6c634300080f00336040610100815234620005255762003d20803803806200001f816200052a565b92833981016101208282031262000525576200003b8262000550565b60208381015190936001600160401b03918281116200052557846200006291830162000565565b93868201519083821162000525576200007d91830162000565565b936200008c6060830162000550565b9460808301519160a084015197620000a760c0860162000550565b92620000bc61010060e0880151970162000550565b968b5190838201828110828211176200050f578d5260008092526002546001938482811c9216801562000504575b86831014620004f057601f91828111620004c2575b5060028490556001600160a01b039b8c166080528651838111620004ae5760049788548781811c91168015620004a3575b8982101462000490579081858493116200043d575b508890858311600114620003d9578792620003cd575b5050600019600383901b1c191690861b1787555b8051928311620003ba5760059384548681811c91168015620003af575b888210146200039c57908184869594931162000347575b5087928411600114620002e35792620002d7575b5050600019600383901b1c191690831b1790555b60065560968410156200029557505060a052600e558260018060a01b0319941684600f541617600f5560c0523360e0521690601054161760105562015180600855601155516137379081620005e982396080518181816105ed01528181610df001528181611186015281816114c901528181611bf601528181612be90152613442015260a05181610856015260c05181611b48015260e051818181610bdc01528181610d1d015281816111de015281816115ee01528181611702015281816117aa0152611a4d0152f35b895162461bcd60e51b815291820152601960248201527f466565206d757374206265206c657373207468616e2031352500000000000000604482015260649150fd5b015190503880620001b7565b9190869450601f198416868452888420935b8982821062000330575050841162000316575b505050811b019055620001cb565b015160001960f88460031b161c1916905538808062000308565b8385015186558997909501949384019301620002f5565b909192935085825287822084808701881c8201928a881062000392575b9187968a929695949301891c01915b82811062000383575050620001a3565b83815587965089910162000373565b9250819262000364565b634e487b7160e01b825260228952602482fd5b90607f16906200018c565b634e487b7160e01b845260418752602484fd5b0151905038806200015b565b8a88528988208994509190601f198416895b8c8282106200042657505084116200040c575b505050811b0187556200016f565b015160001960f88460031b161c19169055388080620003fe565b8385015186558c97909501949384019301620003eb565b9091508987528887208580850160051c8201928b861062000486575b918a91869594930160051c01915b8281106200047757505062000145565b8981558594508a910162000467565b9250819262000459565b634e487b7160e01b875260228a52602487fd5b90607f169062000130565b634e487b7160e01b85526041600452602485fd5b600285528583888720920160051c8201915b828110620004e4575050620000ff565b868155018690620004d4565b634e487b7160e01b84526022600452602484fd5b91607f1691620000ea565b634e487b7160e01b600052604160045260246000fd5b600080fd5b6040519190601f01601f191682016001600160401b038111838210176200050f57604052565b51906001600160a01b03821682036200052557565b81601f8201121562000525578051906001600160401b0382116200050f576020906200059a601f8401601f191683016200052a565b93838552828483010111620005255782906000905b83838310620005cf57505011620005c557505090565b6000918301015290565b81935082819392010151828288010152018391620005af56fe60806040526004361015610013575b600080fd5b60003560e01c8062fdd58e146104575780630169a9961461044e57806301ffc9a71461044557806304da1a461461043c57806306fdde03146104335780630b8a295a1461042a5780630e89341c14610421578063181e7b3b1461030a578063236b40201461041857806323d68d8e1461040f578063242156ed14610406578063276b1140146103fd578063281dba1b146103f457806328337df6146103eb57806329322e05146103e25780632eb2c2d6146103d95780632fccfc83146103d057806338d52e0f146103c75780633cebb823146103be5780633e048365146103b5578063402d267d146102ef578063488bd7b0146103ac5780634cbd43de146103a35780634d288ba71461039a5780634e1273f4146103915780634f558e791461038857806356150edf1461037f5780636a1db1bf146103765780636f7e9bd51461036d57806371b3177a146103645780637a7af70d146102cb578063819b48e31461035b5780638bc7e8c4146103525780638dbdbe6d146103495780638fc710cb14610340578063946058571461033757806395d89b411461032e578063a22cb46514610325578063b14f2a391461031c578063ba37f9e514610313578063bbec4d061461030a578063bd85b03914610301578063c52987cf146102f8578063c63d75b6146102ef578063c6b61e4c146102e6578063cfc13da6146102dd578063d662b92d146102d4578063db2088f4146102cb578063dd2fdd21146102c2578063e58c6dfa146102b9578063e7d3fe6b146102b0578063e985e9c5146102a7578063ea859a271461029e578063f242432a14610295578063f77c47911461028c5763f9db24271461028457600080fd5b61000e611eb7565b5061000e611e8d565b5061000e611da2565b5061000e611d75565b5061000e611d17565b5061000e611cfd565b5061000e611ccb565b5061000e611ca6565b5061000e61176d565b5061000e611c87565b5061000e611bd4565b5061000e611b82565b5061000e611267565b5061000e611b2f565b5061000e611b04565b5061000e610b78565b5061000e611ad6565b5061000e611a24565b5061000e611933565b5061000e61188b565b5061000e61186c565b5061000e61184d565b5061000e611833565b5061000e6117ea565b5061000e61178f565b5061000e611650565b5061000e61162e565b5061000e6115d3565b5061000e6114a7565b5061000e611478565b5061000e6113bd565b5061000e61134b565b5061000e6112ba565b5061000e61128e565b5061000e611225565b5061000e6111b5565b5061000e61116f565b5061000e611150565b5061000e610f39565b5061000e610d53565b5061000e610d05565b5061000e610ce6565b5061000e610cc4565b5061000e610c98565b5061000e610bc1565b5061000e610b9a565b5061000e610aae565b5061000e610a7c565b5061000e61099a565b5061000e61083f565b5061000e6107c5565b5061000e610509565b5061000e6104a0565b600435906001600160a01b038216820361000e57565b602435906001600160a01b038216820361000e57565b35906001600160a01b038216820361000e57565b503461000e57604036600319011261000e5760206104c86104bf610460565b60243590611ee4565b604051908152f35b608090600319011261000e5760043590602435906001600160a01b0390604435828116810361000e5791606435908116810361000e5790565b503461000e576106e37fbbbdee62287b5bf3bee13cab60a29ad729cf38109bccbd2a986a11c99b8ca70460006106c1610541366104d0565b929190824210801590610798575b61055890612fca565b8286526020958694600d8652610579600160ff604085205416151514612ad6565b6001600160a01b0394818616338114801561074c575b6105989061304b565b6105a28683612aa5565b506105cd6105b08784612a1f565b966105bc881515613217565b836105c78982613539565b956130ff565b6105e76103e86105df60115486613285565b048094612c89565b9a8b80987f00000000000000000000000000000000000000000000000000000000000000001697868b61065b8b610625600f5460018060a01b031690565b60405163a9059cbb60e01b8082526001600160a01b039092166004820152602481019b909b529993849283919082906044820190565b03925af1801561073f575b610722575b50604080513381526001600160a01b038a166020820152908101919091526060810191909152608090a36040519081526001600160a01b0390921660048301526024820193909352938492839182906044820190565b03925af18015610715575b6106e7575b50506040519081529081906020820190565b0390f35b8161070692903d1061070e575b6106fe8183610913565b810190612d8b565b5038806106d1565b503d6106f4565b61071d612447565b6106cc565b610738908c8d3d1061070e576106fe8183610913565b503861066b565b610747612447565b610666565b5061059861079161078a876107738760018060a01b03166000526001602052604060002090565b9060018060a01b0316600052602052604060002090565b5460ff1690565b905061058f565b50828652600c602052604086205460ff16151560011461054f565b6001600160e01b031981160361000e57565b503461000e57602036600319011261000e5760206004356107e5816107b3565b63ffffffff60e01b16636cdb3d1360e11b8114908115610823575b8115610812575b506040519015158152f35b6301ffc9a760e01b14905038610807565b6303a24d0760e21b81149150610800565b600091031261000e57565b503461000e57600036600319011261000e576040517f00000000000000000000000000000000000000000000000000000000000000006001600160a01b03168152602090f35b90600182811c921680156108b5575b602083101461089f57565b634e487b7160e01b600052602260045260246000fd5b91607f1691610894565b50634e487b7160e01b600052604160045260246000fd5b67ffffffffffffffff81116108ea57604052565b6108f26108bf565b604052565b6020810190811067ffffffffffffffff8211176108ea57604052565b90601f8019910116810190811067ffffffffffffffff8211176108ea57604052565b91908251928382526000905b84821061096e575092806020939411610961575b601f01601f1916010190565b6000838284010152610955565b90602090818082850101519082860101520190610941565b906020610997928181520190610935565b90565b503461000e57600080600319360112610a795760405190806004546109be81610885565b80855291600191808316908115610a4f57506001146109f4575b6106e3856109e881870382610913565b60405191829182610986565b9250600483527f8a35acfbc15ff81a39ae7d344fd709f28e8600b4aa8c65c6b64bfe7fe36bd19b5b828410610a375750505081016020016109e8826106e36109d8565b80546020858701810191909152909301928101610a1c565b8695506106e3969350602092506109e894915060ff191682840152151560051b82010192936109d8565b80fd5b503461000e57602036600319011261000e57600435600052600d602052602060ff604060002054166040519015158152f35b503461000e5760208060031936011261000e57604051600091600254610ad381610885565b80845290600190818116908115610b585750600114610afd575b6106e3846109e881880382610913565b600260009081529294507f405787fa12a823e0f2b7631cc41b3ba8828b3321ca811111fa75cd3aa3bb5ace5b828410610b4557505050816106e3936109e89282010193610aed565b8054858501870152928501928101610b29565b60ff1916858501525050151560051b82010191506109e8816106e3610aed565b503461000e57604036600319011261000e5760206104c8602435600435612a1f565b503461000e57604036600319011261000e5760206104c8600435610bbc610476565b611ee4565b503461000e57604036600319011261000e57602435610c0a337f00000000000000000000000000000000000000000000000000000000000000006001600160a01b0316146132a4565b80600052600d60205260ff60406000205416610c675780610c48610c3b610c6593600052600d602052604060002090565b805460ff19166001179055565b600435610c5f82600052600b602052604060002090565b55613326565b005b60405162461bcd60e51b815260206004820152600960248201526849445f45584953545360b81b6044820152606490fd5b503461000e57604036600319011261000e5760206104c8600435610cbe81610bbc610476565b90612a1f565b503461000e57604036600319011261000e5760206104c8602435600435612a50565b503461000e57600036600319011261000e576020600e54604051908152f35b503461000e57602036600319011261000e57610d4b337f00000000000000000000000000000000000000000000000000000000000000006001600160a01b0316146132a4565b600435600855005b503461000e57604036600319011261000e57600435610dec6020610d75610476565b6010546001600160a01b0390610d8e908216331461338f565b600094808652600d8452610dad600160ff604089205416151514612ad6565b855260098352604080862054905163a9059cbb60e01b81526001600160a01b039093166004840152602483015290928391908290869082906044820190565b03927f0000000000000000000000000000000000000000000000000000000000000000165af18015610e42575b610e24575b50604051f35b610e3b9060203d811161070e576106fe8183610913565b5038610e1e565b610e4a612447565b610e19565b60209067ffffffffffffffff8111610e69575b60051b0190565b610e716108bf565b610e62565b81601f8201121561000e57803591610e8d83610e4f565b92610e9b6040519485610913565b808452602092838086019260051b82010192831161000e578301905b828210610ec5575050505090565b81358152908301908301610eb7565b81601f8201121561000e5780359067ffffffffffffffff8211610f2c575b60405192610f0a601f8401601f191660200185610913565b8284526020838301011161000e57816000926020809301838601378301015290565b610f346108bf565b610ef2565b503461000e5760a036600319011261000e57610f53610460565b610f5b610476565b9067ffffffffffffffff9060443582811161000e57610f7e903690600401610e76565b9160643581811161000e57610f97903690600401610e76565b9060843590811161000e57610fb0903690600401610ed4565b6001600160a01b03838116949190338614801561112d575b156110cd57610fda835185511461234c565b8616610fe78115156120bf565b610ff384848988612919565b60005b8351811015611089578061100d6110849286611fd5565b5161107d6110758b610773611022868c611fd5565b51948c6110648761104183610773866000526000602052604060002090565b5461104e82821015612119565b0391610773846000526000602052604060002090565b556000526000602052604060002090565b918254612178565b9055611fb9565b610ff6565b5093869194610c65966040517f4a39dc06d4c0dbc64b70af90fd698a233a518aa5d07e595d983b8c0526c8f7fb3391806110c48a8a836123a9565b0390a4336127b6565b60405162461bcd60e51b815260206004820152603260248201527f455243313135353a207472616e736665722063616c6c6572206973206e6f74206044820152711bdddb995c881b9bdc88185c1c1c9bdd995960721b6064820152608490fd5b50600086815260016020908152604080832033845290915290205460ff16610fc8565b503461000e57600036600319011261000e576020600854604051908152f35b503461000e57600036600319011261000e576040517f00000000000000000000000000000000000000000000000000000000000000006001600160a01b03168152602090f35b503461000e57602036600319011261000e576111cf610460565b6001600160a01b0390611205337f00000000000000000000000000000000000000000000000000000000000000008416146132a4565b166bffffffffffffffffffffffff60a01b60105416176010556000604051f35b503461000e57604036600319011261000e5761124c60018060a01b0360105416331461338f565b600435600052600a6020526024356040600020556000604051f35b503461000e57602036600319011261000e57611281610460565b5060206040516000198152f35b503461000e57604036600319011261000e5760206104c8602435600435612aa5565b8015150361000e57565b503461000e57604036600319011261000e576024356004356112db826112b0565b6112f060018060a01b0360105416331461338f565b611330600092828452600d602052611313600160ff604087205416151514612ad6565b828452600c602052604084209060ff801983541691151516179055565b61133981613251565b90825260096020526040822055604051f35b503461000e57602036600319011261000e57600435600052600a6020526020604060002054604051908152f35b90815180825260208080930193019160005b828110611398575050505090565b83518552938101939281019260010161138a565b906020610997928181520190611378565b503461000e57604036600319011261000e5760043567ffffffffffffffff80821161000e573660238301121561000e5781600401356113fb81610e4f565b926114096040519485610913565b81845260209160248386019160051b8301019136831161000e57602401905b828210611461578560243586811161000e576106e39161144f611455923690600401610e76565b90611ff7565b604051918291826113ac565b83809161146d8461048c565b815201910190611428565b503461000e57602036600319011261000e57600435600052600360205260206040600020541515604051908152f35b50604036600319011261000e576114bc610476565b6114c7341515612ecb565b7f00000000000000000000000000000000000000000000000000000000000000006001600160a01b0316803b1561000e576106e39161156961157292604051630d0e30db60e41b815260008160048134865af180156115c6575b6115ad575b5060405163a9059cbb60e01b815233600482015234602482015290602090829081600081604481015b03925af19081156115a0575b600091611582575b50612f21565b34600435612b1b565b6040519081529081906020820190565b61159a915060203d811161070e576106fe8183610913565b38611563565b6115a8612447565b61155b565b806115ba6115c0926108d6565b80610834565b38611526565b6115ce612447565b611521565b503461000e57602036600319011261000e5760043561161c337f00000000000000000000000000000000000000000000000000000000000000006001600160a01b0316146132a4565b6116296103e882106132e7565b600e55005b503461000e57604036600319011261000e5760206104c8602435600435613539565b503461000e576106e37fbbbdee62287b5bf3bee13cab60a29ad729cf38109bccbd2a986a11c99b8ca70460006106c1611688366104d0565b929190824210801590611752575b61169f90612fca565b8286526020958694600d86526116c0600160ff604085205416151514612ad6565b6001600160a01b03948186163381148015611729575b80156116fe575b6116e69061304b565b6105cd6116f38784612aa5565b836105c78282613539565b50337f00000000000000000000000000000000000000000000000000000000000000008816146116dd565b5061174d61078a866107738660018060a01b03166000526001602052604060002090565b6116d6565b50828652600c602052604086205460ff161515600114611696565b503461000e57604036600319011261000e5760206104c8602435600435612993565b503461000e57602036600319011261000e576004356117d8337f00000000000000000000000000000000000000000000000000000000000000006001600160a01b0316146132a4565b6117e56103e882106132e7565b601155005b503461000e57600036600319011261000e576020601154604051908152f35b606090600319011261000e5760043590602435906044356001600160a01b038116810361000e5790565b503461000e5760206104c861184736611809565b91612b1b565b503461000e57602036600319011261000e5760206104c8600435613625565b503461000e57602036600319011261000e5760206104c8600435613251565b503461000e57600080600319360112610a795760405190806005546118af81610885565b80855291600191808316908115610a4f57506001146118d8576106e3856109e881870382610913565b9250600583527f036b6384b5eca791c62761152d0c79bb0604c104a5fb6f4eb0703f3154bb3db05b82841061191b5750505081016020016109e8826106e36109d8565b80546020858701810191909152909301928101611900565b503461000e57604036600319011261000e5761194d610460565b602435611959816112b0565b6001600160a01b038216913383146119cd5733600090815260016020526040902061199b91839161198a9190610773565b9060ff801983541691151516179055565b604051901515815233907f17307eab39ab6107e8899845ad3d59bd9653f200f220920489ca2b5937696c3190602090a3005b60405162461bcd60e51b815260206004820152602960248201527f455243313135353a2073657474696e6720617070726f76616c20737461747573604482015268103337b91039b2b63360b91b6064820152608490fd5b503461000e57602036600319011261000e57611a3e610460565b6001600160a01b0390611a74337f00000000000000000000000000000000000000000000000000000000000000008416146132a4565b168015611a9157600f80546001600160a01b031916919091179055005b60405162461bcd60e51b815260206004820152601c60248201527f547265617375727920616464726573732063616e6e6f742062652030000000006044820152606490fd5b503461000e57602036600319011261000e5760206103e8611afb601154600435613285565b04604051908152f35b503461000e57602036600319011261000e5760206104c8600435600052600360205260406000205490565b503461000e57600036600319011261000e5760206040517f00000000000000000000000000000000000000000000000000000000000000008152f35b50634e487b7160e01b600052603260045260246000fd5b503461000e57602036600319011261000e5760043560075481101561000e5760209060076000527fa66cc928b5edb82af9bd49922954155ab7b0942694bea4ce44661d9a8736c6880154604051908152f35b50604036600319011261000e57611be9610476565b611bf4341515612ecb565b7f00000000000000000000000000000000000000000000000000000000000000006001600160a01b0316803b1561000e576106e391611c7e61157292604051630d0e30db60e41b815260008160048134865af180156115c6576115ad575060405163a9059cbb60e01b8152336004820152346024820152906020908290816000816044810161154f565b34600435612f3e565b503461000e57600036600319011261000e576020600754604051908152f35b503461000e57602036600319011261000e5760206103e8611afb600e54600435613285565b503461000e57602036600319011261000e57600435600052600c602052602060ff604060002054166040519015158152f35b503461000e5760206104c8611d1136611809565b91612f3e565b503461000e57604036600319011261000e57602060ff611d69611d38610460565b611d40610476565b6001600160a01b0391821660009081526001865260408082209290931681526020919091522090565b54166040519015158152f35b503461000e57602036600319011261000e57600435600052600b6020526020604060002054604051908152f35b503461000e5760a036600319011261000e57611dbc610460565b611dc4610476565b60843567ffffffffffffffff811161000e57611de4903690600401610ed4565b906001600160a01b038316338114908115611e68575b5015611e1157610c65926064359160443591612184565b60405162461bcd60e51b815260206004820152602960248201527f455243313135353a2063616c6c6572206973206e6f74206f776e6572206e6f7260448201526808185c1c1c9bdd995960ba1b6064820152608490fd5b6000908152600160209081526040808320338452909152902060ff9150541638611dfa565b503461000e57600036600319011261000e576010546040516001600160a01b039091168152602090f35b503461000e57602036600319011261000e5760043560005260096020526020604060002054604051908152f35b6001600160a01b03811615611f18576000918252602082815260408084206001600160a01b03909316845291905290205490565b60405162461bcd60e51b815260206004820152602a60248201527f455243313135353a2061646472657373207a65726f206973206e6f742061207660448201526930b634b21037bbb732b960b11b6064820152608490fd5b90611f7a82610e4f565b611f876040519182610913565b8281528092611f98601f1991610e4f565b0190602036910137565b50634e487b7160e01b600052601160045260246000fd5b6001906000198114611fc9570190565b611fd1611fa2565b0190565b6020918151811015611fea575b60051b010190565b611ff2611b6b565b611fe2565b91909180518351036120685761200d8151611f70565b9060005b8151811015612061578061204c61203b61202e61205c9486611fd5565b516001600160a01b031690565b6120458389611fd5565b5190611ee4565b6120568286611fd5565b52611fb9565b612011565b5090925050565b60405162461bcd60e51b815260206004820152602960248201527f455243313135353a206163636f756e747320616e6420696473206c656e677468604482015268040dad2e6dac2e8c6d60bb1b6064820152608490fd5b156120c657565b60405162461bcd60e51b815260206004820152602560248201527f455243313135353a207472616e7366657220746f20746865207a65726f206164604482015264647265737360d81b6064820152608490fd5b1561212057565b60405162461bcd60e51b815260206004820152602a60248201527f455243313135353a20696e73756666696369656e742062616c616e636520666f60448201526939103a3930b739b332b960b11b6064820152608490fd5b81198111611fc9570190565b6001600160a01b0395949392919086821680156121a181156120bf565b6121aa856127f0565b986121b4876127f0565b9084169182156122ef575b61226b575b50612269979850856121e484610773886000526000602052604060002090565b546121f182821015612119565b0361220a84610773886000526000602052604060002090565b5561222384610773876000526000602052604060002090565b61222e878254612178565b9055604080518681526020810188905233917fc3d58168c5ae7397731d063d5bbf3d657854427343f4c083240f7aacaa2d0f6291a433612690565b565b969492909795939160005b8a518110156122da578061228d6122d5928d611fd5565b516122cf61229b838d611fd5565b516122b0836000526003602052604060002090565b546122bd82821015612840565b03916000526003602052604060002090565b55611fb9565b612276565b509193959850919395506122699688976121c4565b98969492909795939160005b8b805182101561233c57906123379161107d611075612326848f8161231f91611fd5565b5194611fd5565b516000526003602052604060002090565b6122fb565b50509193959790929496986121bf565b1561235357565b60405162461bcd60e51b815260206004820152602860248201527f455243313135353a2069647320616e6420616d6f756e7473206c656e677468206044820152670dad2e6dac2e8c6d60c31b6064820152608490fd5b90916123c061099793604084526040840190611378565b916020818403910152611378565b9081602091031261000e5751610997816107b3565b909260a0926109979594600180861b0316835260006020840152604083015260608201528160808201520190610935565b919261099795949160a094600180871b038092168552166020840152604083015260608201528160808201520190610935565b506040513d6000823e3d90fd5b60809060208152602860208201527f455243313135353a204552433131353552656365697665722072656a656374656040820152676420746f6b656e7360c01b60608201520190565b60009060033d116124aa57565b905060046000803e60005160e01c90565b600060443d1061099757604051600319913d83016004833e815167ffffffffffffffff918282113d60248401111761251957818401948551938411612521573d85010160208487010111612519575061099792910160200190610913565b949350505050565b50949350505050565b9390803b61253a575b5050505050565b6125629360006020946040519687958694859363f23a6e6160e01b9b8c8652600486016123e3565b03926001600160a01b03165af160009181612660575b50612638575050600161258961249d565b6308c379a014612609575b6125a3575b3880808080612533565b60405162461bcd60e51b815260206004820152603460248201527f455243313135353a207472616e7366657220746f206e6f6e20455243313135356044820152732932b1b2b4bb32b91034b6b83632b6b2b73a32b960611b6064820152608490fd5b0390fd5b6126116124bb565b8061261c5750612594565b60405162461bcd60e51b81529081906126059060048301610986565b6001600160e01b031916146125995760405162461bcd60e51b81528061260560048201612454565b61268291925060203d8111612689575b61267a8183610913565b8101906123ce565b9038612578565b503d612670565b9493919092813b6126a4575b505050505050565b60006020946126cb6040519788968795869463f23a6e6160e01b9c8d875260048701612414565b03926001600160a01b03165af160009181612748575b5061272057505060016126f261249d565b6308c379a01461270d575b6125a3575b38808080808061269c565b6127156124bb565b8061261c57506126fd565b6001600160e01b031916146127025760405162461bcd60e51b81528061260560048201612454565b61276191925060203d81116126895761267a8183610913565b90386126e1565b9390610997959361279a916127a89460018060a01b03809216885216602087015260a0604087015260a0860190611378565b908482036060860152611378565b916080818403910152610935565b9493919092813b6127c957505050505050565b60006020946126cb6040519788968795869463bc197c8160e01b9c8d875260048701612768565b604051906040820182811067ffffffffffffffff821117612833575b60405260018252602082016020368237825115612827575290565b61282f611b6b565b5290565b61283b6108bf565b61280c565b1561284757565b60405162461bcd60e51b815260206004820152602860248201527f455243313135353a206275726e20616d6f756e74206578636565647320746f74604482015267616c537570706c7960c01b6064820152608490fd5b909291906001600160a01b0316156128e3575b60005b83518110156128dd57806128ca6128d89286611fd5565b516122cf61229b8386611fd5565b6128b3565b50509050565b60005b835181101561291357806128fd61290e9284611fd5565b5161107d6110756123268489611fd5565b6128e6565b506128b0565b919392916001600160a01b039190821615612959575b161561293a57509050565b60005b83518110156128dd57806128ca6129549286611fd5565b61293d565b929060005b855181101561298b57806129756129869286611fd5565b5161107d611075612326848b611fd5565b61295e565b50909261292f565b9081600052600360205260406000205480156000146129b25750905090565b6129be61099793613251565b91612a07565b81810291818304149015176001161561000e57670de0b6b3a7640000900490565b670de0b6b3a7640000908181029181830414901517821515161561000e570490565b8181029181830414901517821515161561000e570490565b806000526003602052604060002054908115600014612a3d57505090565b91612a4a61099793613251565b90612a07565b806000526003602052604060002054908115600014612a6e57505090565b91612a7b61099793613251565b905b9190918281029281840414901517811515161561000e57600190600019830104019015150290565b908160005260036020526040600020548015600014612ac45750905090565b612ad061099793613251565b91612a7d565b15612add57565b60405162461bcd60e51b81526020600482015260166024820152754d61726b657420646f6573206e6f742045786973742160501b6044820152606490fd5b90612b7f9082600052600d602052612b3f600160ff60406000205416151514612ad6565b82600052600b602052612b6560406000205460085490818110612c7c575b034210612ca0565b612b7460026006541415612d05565b600260065582612993565b612b8a811515612d51565b7f4e2ca0515ed1aef1395f66b5303bb5d6f1bf9d61a353fa53f73f8ac9973fa9f6612bb4826133ec565b6040516323b872dd60e01b81523360048201523060248201526044810182905290946001600160a01b039160208160648160007f000000000000000000000000000000000000000000000000000000000000000088165af18015612c6f575b612c51575b50612c2c612c24612da0565b878784612db3565b6040805133815260208101889052908101949094521691606090a36109976001600655565b612c689060203d811161070e576106fe8183610913565b5038612c18565b612c77612447565b612c13565b612c84611fa2565b612b5d565b818110612c94570390565b612c9c611fa2565b0390565b15612ca757565b60405162461bcd60e51b815260206004820152603060248201527f4465706f7369742074696d65206973206f7665722c2045706f6368206861732060448201526f616c726561647920737461727465642160801b6064820152608490fd5b15612d0c57565b60405162461bcd60e51b815260206004820152601f60248201527f5265656e7472616e637947756172643a207265656e7472616e742063616c6c006044820152606490fd5b15612d5857565b60405162461bcd60e51b815260206004820152600b60248201526a5a45524f5f53484152455360a81b6044820152606490fd5b9081602091031261000e5751610997816112b0565b60405190612dad826108f7565b60008252565b936001600160a01b0385169391929091908415612e7c57612dd3846127f0565b93612ddd826127f0565b9660005b8651811015612e0e5780612df8612e09928b611fd5565b5161107d611075612326848c611fd5565b612de1565b509193965091935061226994612e3282610773856000526000602052604060002090565b612e3d858254612178565b9055604080518481526020810186905260009133917fc3d58168c5ae7397731d063d5bbf3d657854427343f4c083240f7aacaa2d0f629190a43361252a565b60405162461bcd60e51b815260206004820152602160248201527f455243313135353a206d696e7420746f20746865207a65726f206164647265736044820152607360f81b6064820152608490fd5b15612ed257565b60405162461bcd60e51b815260206004820152602160248201527f45544820616d6f756e74206d7573742062652067726561746572207468616e206044820152600360fc1b6064820152608490fd5b15612f2857565b634e487b7160e01b600052600160045260246000fd5b9081600052600d602052612f5e600160ff60406000205416151514612ad6565b81600052600b602052612f8360406000205460085490818110612c7c57034210612ca0565b612f9260026006541415612d05565b60026006557f4e2ca0515ed1aef1395f66b5303bb5d6f1bf9d61a353fa53f73f8ac9973fa9f6612bb4612fc58385612a50565b6133ec565b15612fd157565b60405162461bcd60e51b815260206004820152604660248201527f45706f636820686173206e6f7420656e6465642c206f7220646570656720657660448201527f656e7420686173206e6f74206f63757272656420696e207468652074696d65206064820152656265696e672160d01b608482015260a490fd5b1561305257565b60405162461bcd60e51b815260206004820152602760248201527f4f776e6572206e6565647320746f20617070726f766520726563656976657220604482015266199bdc88185b1b60ca1b6064820152608490fd5b156130ae57565b60405162461bcd60e51b8152602060048201526024808201527f455243313135353a206275726e20616d6f756e7420657863656564732062616c604482015263616e636560e01b6064820152608490fd5b916001600160a01b038316919082156131c6576131b87fc3d58168c5ae7397731d063d5bbf3d657854427343f4c083240f7aacaa2d0f629160009561315f613146866127f0565b61314f846127f0565b90613158612da0565b508361289d565b61319e8261317b83610773896000526000602052604060002090565b54613188828210156130a7565b0391610773876000526000602052604060002090565b556040805194855260208501919091523393918291820190565b0390a46131c3612da0565b50565b60405162461bcd60e51b815260206004820152602360248201527f455243313135353a206275726e2066726f6d20746865207a65726f206164647260448201526265737360e81b6064820152608490fd5b1561321e57565b60405162461bcd60e51b815260206004820152600b60248201526a5a45524f5f41535345545360a81b6044820152606490fd5b6109979080600052600d602052613274600160ff60406000205416151514612ad6565b600052600360205260406000205490565b8060001904821181151516613298570290565b6132a0611fa2565b0290565b156132ab57565b60405162461bcd60e51b8152602060048201526014602482015273596f7520617265206e6f7420466163746f72792160601b6044820152606490fd5b156132ee57565b60405162461bcd60e51b815260206004820152601060248201526f46656520697320746f6f20686967682160801b6044820152606490fd5b60075468010000000000000000811015613382575b6001810180600755811015613375575b60076000527fa66cc928b5edb82af9bd49922954155ab7b0942694bea4ce44661d9a8736c6880155565b61337d611b6b565b61334b565b61338a6108bf565b61333b565b1561339657565b60405162461bcd60e51b815260206004820152602860248201527f596f7520617265206e6f742063616c6c696e672066726f6d2074686520436f6e60448201526774726f6c6c65722160c01b6064820152608490fd5b6103e86133fb600e5483613285565b049081811061349d575b600f546040516323b872dd60e01b81523360048201526001600160a01b0391821660248201526044810184905290602090829060649082906000907f0000000000000000000000000000000000000000000000000000000000000000165af18015613490575b61347457500390565b61348b9060203d811161070e576106fe8183610913565b500390565b613498612447565b61346b565b6134a5611fa2565b613405565b600554600092916134ba82610885565b9160019081811690811561352657506001146134d557505050565b909192935060056000527f036b6384b5eca791c62761152d0c79bb0604c104a5fb6f4eb0703f3154bb3db0906000915b848310613513575050500190565b8181602092548587015201920191613505565b60ff191683525050811515909102019150565b604051602081018161354a826134aa565b039161355e601f1993848101835282610913565b5190209060405161358f60208201928261358385600490637259324b60e01b81520190565b03908101835282610913565b51902003613600576135b56135b161078a83600052600c602052604060002090565b1590565b1561360057906135fb826135f46135e36135dc610997966000526009602052604060002090565b54856129e5565b91600052600a602052604060002090565b54906129c4565b612178565b6135f46135e36109979361361e846000526009602052604060002090565b54906129e5565b60078054600093929184805b83811061363f575050505050565b82825284817fa66cc928b5edb82af9bd49922954155ab7b0942694bea4ce44661d9a8736c68801541461367a5761367590611fb9565b613631565b935090919394506001938481106136f4575b600019810184146136ec577fa66cc928b5edb82af9bd49922954155ab7b0942694bea4ce44661d9a8736c6899460011985116136df575b840110156136d2575b52015490565b6136da611b6b565b6136cc565b6136e7611fa2565b6136c3565b509250505090565b6136fc611fa2565b61368c56fea26469706673582212206c1be9c7b4efeae58431b3ea8f2fa473160befe868a34bdfcae69fe4f81f292464736f6c634300080f0033a26469706673582212202c776412a5aa24e8ae72113eea7b89416d3a7840a7a2881c8e662d9eb9808c1564736f6c634300080f0033",
    "linkReferences": {}
  },
  "methodIdentifiers": {
    "Admin()": "ff1b636d",
    "WETH()": "ad5c4648",
    "changeController(uint256,address)": "c5ba24b1",
    "changeTimewindow(uint256,uint256)": "39d0913b",
    "changeTreasury(address,uint256)": "97184034",
    "changeVaultFee(uint256,uint256)": "8512dafe",
    "changeWithdrawalVaultFee(uint256,uint256)": "15c0f307",
    "controller()": "f77c4791",
    "createNewMarket(uint256,uint256,address,int256,uint256,uint256,address,string)": "a32636cf",
    "deployMoreAssets(uint256,uint256,uint256)": "7bb4a17b",
    "getVaults(uint256)": "468d16d0",
    "indexEpochs(uint256,uint256)": "424a4ab7",
    "indexVaults(uint256,uint256)": "c0c99d9b",
    "marketIndex()": "8c7adc15",
    "setController(address)": "92eefe9b",
    "tokenToOracle(address)": "9820c733",
    "treasury()": "61d027b3"
  },
  "id": 28
}