{
  "abi": [
    {
      "inputs": [
        {
          "internalType": "address",
          "name": "_treasury",
          "type": "address"
        },
        {
          "internalType": "address",
          "name": "_WETH",
          "type": "address"
        },
        {
          "internalType": "address",
          "name": "_admin",
          "type": "address"
        }
      ],
      "stateMutability": "nonpayable",
      "type": "constructor"
    },
    {
      "anonymous": false,
      "inputs": [
        {
          "indexed": true,
          "internalType": "bytes32",
          "name": "epochMarketId",
          "type": "bytes32"
        },
        {
          "indexed": true,
          "internalType": "uint256",
          "name": "index",
          "type": "uint256"
        },
        {
          "indexed": false,
          "internalType": "address",
          "name": "hedgeVault",
          "type": "address"
        },
        {
          "indexed": false,
          "internalType": "address",
          "name": "riskVault",
          "type": "address"
        },
        {
          "indexed": false,
          "internalType": "address",
          "name": "token",
          "type": "address"
        },
        {
          "indexed": false,
          "internalType": "int256",
          "name": "price",
          "type": "int256"
        },
        {
          "indexed": false,
          "internalType": "uint256",
          "name": "startEpoch",
          "type": "uint256"
        },
        {
          "indexed": false,
          "internalType": "uint256",
          "name": "endEpoch",
          "type": "uint256"
        },
        {
          "indexed": false,
          "internalType": "string",
          "name": "tokenName",
          "type": "string"
        }
      ],
      "name": "EpochMarket",
      "type": "event"
    },
    {
      "anonymous": false,
      "inputs": [
        {
          "indexed": true,
          "internalType": "bytes32",
          "name": "epochMarketId",
          "type": "bytes32"
        },
        {
          "indexed": true,
          "internalType": "uint256",
          "name": "index",
          "type": "uint256"
        },
        {
          "indexed": false,
          "internalType": "address",
          "name": "hedgeVault",
          "type": "address"
        },
        {
          "indexed": false,
          "internalType": "address",
          "name": "riskVault",
          "type": "address"
        },
        {
          "indexed": false,
          "internalType": "address",
          "name": "token",
          "type": "address"
        },
        {
          "indexed": false,
          "internalType": "int256",
          "name": "price",
          "type": "int256"
        },
        {
          "indexed": false,
          "internalType": "uint256",
          "name": "startEpoch",
          "type": "uint256"
        },
        {
          "indexed": false,
          "internalType": "uint256",
          "name": "endEpoch",
          "type": "uint256"
        },
        {
          "indexed": false,
          "internalType": "string",
          "name": "tokenName",
          "type": "string"
        }
      ],
      "name": "Market",
      "type": "event"
    },
    {
      "anonymous": false,
      "inputs": [
        {
          "indexed": true,
          "internalType": "uint256",
          "name": "_marketIndex",
          "type": "uint256"
        },
        {
          "indexed": false,
          "internalType": "uint256",
          "name": "_feeRate",
          "type": "uint256"
        }
      ],
      "name": "changeWithdrawalFee",
      "type": "event"
    },
    {
      "anonymous": false,
      "inputs": [
        {
          "indexed": true,
          "internalType": "uint256",
          "name": "_marketIndex",
          "type": "uint256"
        },
        {
          "indexed": true,
          "internalType": "address",
          "name": "controller",
          "type": "address"
        }
      ],
      "name": "changedController",
      "type": "event"
    },
    {
      "anonymous": false,
      "inputs": [
        {
          "indexed": true,
          "internalType": "uint256",
          "name": "_marketIndex",
          "type": "uint256"
        },
        {
          "indexed": false,
          "internalType": "uint256",
          "name": "_timeWindow",
          "type": "uint256"
        }
      ],
      "name": "changedTimeWindow",
      "type": "event"
    },
    {
      "anonymous": false,
      "inputs": [
        {
          "indexed": false,
          "internalType": "address",
          "name": "_treasury",
          "type": "address"
        },
        {
          "indexed": true,
          "internalType": "uint256",
          "name": "_marketIndex",
          "type": "uint256"
        }
      ],
      "name": "changedTreasury",
      "type": "event"
    },
    {
      "anonymous": false,
      "inputs": [
        {
          "indexed": true,
          "internalType": "uint256",
          "name": "_marketIndex",
          "type": "uint256"
        },
        {
          "indexed": false,
          "internalType": "uint256",
          "name": "_feeRate",
          "type": "uint256"
        }
      ],
      "name": "changedVaultFee",
      "type": "event"
    },
    {
      "anonymous": false,
      "inputs": [
        {
          "indexed": true,
          "internalType": "address",
          "name": "newController",
          "type": "address"
        }
      ],
      "name": "controllerSet",
      "type": "event"
    },
    {
      "inputs": [],
      "name": "Admin",
      "outputs": [
        {
          "internalType": "address",
          "name": "",
          "type": "address"
        }
      ],
      "stateMutability": "view",
      "type": "function"
    },
    {
      "inputs": [],
      "name": "WETH",
      "outputs": [
        {
          "internalType": "address",
          "name": "",
          "type": "address"
        }
      ],
      "stateMutability": "view",
      "type": "function"
    },
    {
      "inputs": [
        {
          "internalType": "uint256",
          "name": "_marketIndex",
          "type": "uint256"
        },
        {
          "internalType": "address",
          "name": "_controller",
          "type": "address"
        }
      ],
      "name": "changeController",
      "outputs": [],
      "stateMutability": "nonpayable",
      "type": "function"
    },
    {
      "inputs": [
        {
          "internalType": "uint256",
          "name": "_marketIndex",
          "type": "uint256"
        },
        {
          "internalType": "uint256",
          "name": "_timewindow",
          "type": "uint256"
        }
      ],
      "name": "changeTimewindow",
      "outputs": [],
      "stateMutability": "nonpayable",
      "type": "function"
    },
    {
      "inputs": [
        {
          "internalType": "address",
          "name": "_treasury",
          "type": "address"
        },
        {
          "internalType": "uint256",
          "name": "_marketIndex",
          "type": "uint256"
        }
      ],
      "name": "changeTreasury",
      "outputs": [],
      "stateMutability": "nonpayable",
      "type": "function"
    },
    {
      "inputs": [
        {
          "internalType": "uint256",
          "name": "_marketIndex",
          "type": "uint256"
        },
        {
          "internalType": "uint256",
          "name": "_fee",
          "type": "uint256"
        }
      ],
      "name": "changeWithdrawalVaultFee",
      "outputs": [],
      "stateMutability": "nonpayable",
      "type": "function"
    },
    {
      "inputs": [],
      "name": "controller",
      "outputs": [
        {
          "internalType": "address",
          "name": "",
          "type": "address"
        }
      ],
      "stateMutability": "view",
      "type": "function"
    },
    {
      "inputs": [
        {
          "internalType": "uint256",
          "name": "_withdrawalFee",
          "type": "uint256"
        },
        {
          "internalType": "address",
          "name": "_token",
          "type": "address"
        },
        {
          "internalType": "int256",
          "name": "_strikePrice",
          "type": "int256"
        },
        {
          "internalType": "uint256",
          "name": "epochBegin",
          "type": "uint256"
        },
        {
          "internalType": "uint256",
          "name": "epochEnd",
          "type": "uint256"
        },
        {
          "internalType": "address",
          "name": "_oracle",
          "type": "address"
        },
        {
          "internalType": "string",
          "name": "_name",
          "type": "string"
        }
      ],
      "name": "createNewMarket",
      "outputs": [
        {
          "internalType": "address",
          "name": "insr",
          "type": "address"
        },
        {
          "internalType": "address",
          "name": "rsk",
          "type": "address"
        }
      ],
      "stateMutability": "nonpayable",
      "type": "function"
    },
    {
      "inputs": [
        {
          "internalType": "uint256",
          "name": "index",
          "type": "uint256"
        },
        {
          "internalType": "uint256",
          "name": "beginEpoch",
          "type": "uint256"
        },
        {
          "internalType": "uint256",
          "name": "endEpoch",
          "type": "uint256"
        }
      ],
      "name": "deployMoreAssets",
      "outputs": [],
      "stateMutability": "nonpayable",
      "type": "function"
    },
    {
      "inputs": [
        {
          "internalType": "uint256",
          "name": "index",
          "type": "uint256"
        }
      ],
      "name": "getVaults",
      "outputs": [
        {
          "internalType": "address[]",
          "name": "vaults",
          "type": "address[]"
        }
      ],
      "stateMutability": "view",
      "type": "function"
    },
    {
      "inputs": [
        {
          "internalType": "uint256",
          "name": "",
          "type": "uint256"
        },
        {
          "internalType": "uint256",
          "name": "",
          "type": "uint256"
        }
      ],
      "name": "indexEpochs",
      "outputs": [
        {
          "internalType": "uint256",
          "name": "",
          "type": "uint256"
        }
      ],
      "stateMutability": "view",
      "type": "function"
    },
    {
      "inputs": [
        {
          "internalType": "uint256",
          "name": "",
          "type": "uint256"
        },
        {
          "internalType": "uint256",
          "name": "",
          "type": "uint256"
        }
      ],
      "name": "indexVaults",
      "outputs": [
        {
          "internalType": "address",
          "name": "",
          "type": "address"
        }
      ],
      "stateMutability": "view",
      "type": "function"
    },
    {
      "inputs": [],
      "name": "marketIndex",
      "outputs": [
        {
          "internalType": "uint256",
          "name": "",
          "type": "uint256"
        }
      ],
      "stateMutability": "view",
      "type": "function"
    },
    {
      "inputs": [
        {
          "internalType": "address",
          "name": "_controller",
          "type": "address"
        }
      ],
      "name": "setController",
      "outputs": [],
      "stateMutability": "nonpayable",
      "type": "function"
    },
    {
      "inputs": [
        {
          "internalType": "address",
          "name": "",
          "type": "address"
        }
      ],
      "name": "tokenToOracle",
      "outputs": [
        {
          "internalType": "address",
          "name": "",
          "type": "address"
        }
      ],
      "stateMutability": "view",
      "type": "function"
    },
    {
      "inputs": [],
      "name": "treasury",
      "outputs": [
        {
          "internalType": "address",
          "name": "",
          "type": "address"
        }
      ],
      "stateMutability": "view",
      "type": "function"
    }
  ],
  "bytecode": {
    "object": "0x60c06040523480156200001157600080fd5b50604051620059a5380380620059a58339810160408190526200003491620001a0565b6001600160a01b038116620000905760405162461bcd60e51b815260206004820181905260248201527f61646d696e2063616e6e6f7420626520746865207a65726f206164647265737360448201526064015b60405180910390fd5b6001600160a01b038216620000e85760405162461bcd60e51b815260206004820152601f60248201527f574554482063616e6e6f7420626520746865207a65726f206164647265737300604482015260640162000087565b6001600160a01b0383166200014c5760405162461bcd60e51b815260206004820152602360248201527f74726561737572792063616e6e6f7420626520746865207a65726f206164647260448201526265737360e81b606482015260840162000087565b6001600160a01b0390811660805290811660a0526000600281905580546001600160a01b03191692909116919091179055620001ea565b80516001600160a01b03811681146200019b57600080fd5b919050565b600080600060608486031215620001b657600080fd5b620001c18462000183565b9250620001d16020850162000183565b9150620001e16040850162000183565b90509250925092565b60805160a0516157566200024f600039600081816102800152818161059101526106090152600081816102ea0152818161031a015281816108a301528181610a9b01528181610d25015281816110cd015281816111ba01526113ff01526157566000f3fe60806040523480156200001157600080fd5b5060043610620001155760003560e01c806392eefe9b11620000a3578063c0c99d9b116200006e578063c0c99d9b14620002a2578063c5ba24b114620002b9578063f77c479114620002d0578063ff1b636d14620002e457600080fd5b806392eefe9b14620002205780639718403414620002375780639820c733146200024e578063ad5c4648146200027a57600080fd5b8063468d16d011620000e4578063468d16d014620001ac57806361d027b314620001d25780637bb4a17b14620001ff5780638c7adc15146200021657600080fd5b806315355d89146200011a57806315c0f307146200015657806339d0913b146200016f578063424a4ab71462000186575b600080fd5b620001316200012b3660046200175d565b6200030c565b604080516001600160a01b039384168152929091166020830152015b60405180910390f35b6200016d6200016736600462001835565b62000898565b005b6200016d6200018036600462001835565b62000a90565b6200019d6200019736600462001835565b62000c7a565b6040519081526020016200014d565b620001c3620001bd36600462001858565b62000cac565b6040516200014d919062001872565b600054620001e6906001600160a01b031681565b6040516001600160a01b0390911681526020016200014d565b6200016d62000210366004620018c1565b62000d1a565b6200019d60025481565b6200016d62000231366004620018ee565b620010c2565b6200016d6200024836600462001915565b620011af565b620001e66200025f366004620018ee565b6005602052600090815260409020546001600160a01b031681565b620001e67f000000000000000000000000000000000000000000000000000000000000000081565b620001e6620002b336600462001835565b620013bb565b6200016d620002ca36600462001944565b620013f4565b600154620001e6906001600160a01b031681565b620001e67f000000000000000000000000000000000000000000000000000000000000000081565b600080336001600160a01b037f00000000000000000000000000000000000000000000000000000000000000001614620003635760405162461bcd60e51b81526004016200035a9062001977565b60405180910390fd5b6001546040805163062f2ca160e21b8152905130926001600160a01b0316916318bcb2849160048083019260209291908290030181865afa158015620003ad573d6000803e3d6000fd5b505050506040513d601f19601f82011682018060405250810190620003d39190620019a3565b6001600160a01b031614620004475760405162461bcd60e51b815260206004820152603360248201527f5661756c7420466163746f7279206e6f742073657420696e20436f6e74726f6c6044820152726c657220746f2074686973206164647265737360681b60648201526084016200035a565b6001546001600160a01b03166200049a5760405162461bcd60e51b8152602060048201526016602482015275436f6e74726f6c6c6572206973206e6f74207365742160501b60448201526064016200035a565b60648712620004f75760405162461bcd60e51b815260206004820152602260248201527f537472696b65207072696365206d757374206265206c657373207468616e2031604482015261030360f41b60648201526084016200035a565b600a8713620005555760405162461bcd60e51b8152602060048201526024808201527f537472696b65207072696365206d75737420626520677265617465722074686160448201526306e2031360e41b60648201526084016200035a565b620005698767016345785d8a0000620019d9565b965060016002600082825462000580919062001a6a565b9091555050600080546001546040517f00000000000000000000000000000000000000000000000000000000000000009287926001600160a01b03918216928f928f928f92911690620005d39062001640565b620005e5979695949392919062001ae6565b604051809103906000f08015801562000602573d6000803e3d6000fd5b50905060007f00000000000000000000000000000000000000000000000000000000000000008560008054906101000a90046001600160a01b03168d8d8d600160009054906101000a90046001600160a01b0316604051620006649062001640565b62000676979695949392919062001b5d565b604051809103906000f08015801562000693573d6000803e3d6000fd5b506040805180820182526001600160a01b03808616825283166020808301919091526002805460009081526003909252929020929350620006d592916200164e565b506040516311eb46c760e11b815260048101899052602481018890526001600160a01b038316906323d68d8e90604401600060405180830381600087803b1580156200072057600080fd5b505af115801562000735573d6000803e3d6000fd5b50506040516311eb46c760e11b8152600481018b9052602481018a90526001600160a01b03841692506323d68d8e9150604401600060405180830381600087803b1580156200078357600080fd5b505af115801562000798573d6000803e3d6000fd5b505060025460009081526004602090815260408083208054600181018255908452828420018c90556001600160a01b038f811684526005909252909120541691506200080f9050576001600160a01b038a8116600090815260056020526040902080546001600160a01b0319169188169190911790555b60025460408051602081018390529081018a905260608101899052608001604051602081830303815290604052805190602001207f04baca8d748736663b8a51096a2ef175ece01199c615cda8ebd04255f682dffc84848e8e8e8e8d60405162000880979695949392919062001bd4565b60405180910390a3909a909950975050505050505050565b336001600160a01b037f00000000000000000000000000000000000000000000000000000000000000001614620008e35760405162461bcd60e51b81526004016200035a9062001977565b6000828152600360209081526040808320805482518185028101850190935280835291929091908301828280156200094557602002820191906000526020600020905b81546001600160a01b0316815260019091019060200180831162000926575b5050505050905060008160008151811062000964576200096462001c28565b6020026020010151905060008260018151811062000986576200098662001c28565b60200260200101519050816001600160a01b031663819b48e3856040518263ffffffff1660e01b8152600401620009bf91815260200190565b600060405180830381600087803b158015620009da57600080fd5b505af1158015620009ef573d6000803e3d6000fd5b505060405163819b48e360e01b8152600481018790526001600160a01b038416925063819b48e39150602401600060405180830381600087803b15801562000a3657600080fd5b505af115801562000a4b573d6000803e3d6000fd5b50505050847e50410e918878156dbf9119b9300571bb7474169778b965abf7633d9c942c8e8560405162000a8191815260200190565b60405180910390a25050505050565b336001600160a01b037f0000000000000000000000000000000000000000000000000000000000000000161462000adb5760405162461bcd60e51b81526004016200035a9062001977565b60008281526003602090815260408083208054825181850281018501909352808352919290919083018282801562000b3d57602002820191906000526020600020905b81546001600160a01b0316815260019091019060200180831162000b1e575b5050505050905060008160008151811062000b5c5762000b5c62001c28565b6020026020010151905060008260018151811062000b7e5762000b7e62001c28565b60200260200101519050816001600160a01b03166328337df6856040518263ffffffff1660e01b815260040162000bb791815260200190565b600060405180830381600087803b15801562000bd257600080fd5b505af115801562000be7573d6000803e3d6000fd5b5050604051631419befb60e11b8152600481018790526001600160a01b03841692506328337df69150602401600060405180830381600087803b15801562000c2e57600080fd5b505af115801562000c43573d6000803e3d6000fd5b50505050847ff2552ab36a09f455ea9338e021e499c4a24016de8810a7e723c738ab11ea7af48560405162000a8191815260200190565b6004602052816000526040600020818154811062000c9757600080fd5b90600052602060002001600091509150505481565b60008181526003602090815260409182902080548351818402810184019094528084526060939283018282801562000d0e57602002820191906000526020600020905b81546001600160a01b0316815260019091019060200180831162000cef575b50505050509050919050565b336001600160a01b037f0000000000000000000000000000000000000000000000000000000000000000161462000d655760405162461bcd60e51b81526004016200035a9062001977565b6001546001600160a01b031662000db85760405162461bcd60e51b8152602060048201526016602482015275436f6e74726f6c6c6572206973206e6f74207365742160501b60448201526064016200035a565b60008381526003602052604081208054829062000dd95762000dd962001c28565b600091825260208083209091015486835260039091526040822080546001600160a01b03909216935090600190811062000e175762000e1762001c28565b6000918252602090912001546040516311eb46c760e11b815260048101869052602481018590526001600160a01b039182169250908316906323d68d8e90604401600060405180830381600087803b15801562000e7357600080fd5b505af115801562000e88573d6000803e3d6000fd5b50506040516311eb46c760e11b815260048101879052602481018690526001600160a01b03841692506323d68d8e9150604401600060405180830381600087803b15801562000ed657600080fd5b505af115801562000eeb573d6000803e3d6000fd5b505050600086815260046020908152604080832080546001810182559084529282902090920186905560025482519182015290810186905260608101859052869150608001604051602081830303815290604052805190602001207f43e24b617db9d99ec6e4c663ad38b54ec82ed86a62726d79a5eade9c66d990318484866001600160a01b03166304da1a466040518163ffffffff1660e01b8152600401602060405180830381865afa15801562000fa8573d6000803e3d6000fd5b505050506040513d601f19601f8201168201806040525081019062000fce9190620019a3565b876001600160a01b031663c52987cf6040518163ffffffff1660e01b8152600401602060405180830381865afa1580156200100d573d6000803e3d6000fd5b505050506040513d601f19601f8201168201806040525081019062001033919062001c3e565b8a8a8a6001600160a01b03166306fdde036040518163ffffffff1660e01b8152600401600060405180830381865afa15801562001074573d6000803e3d6000fd5b505050506040513d6000823e601f3d908101601f191682016040526200109e919081019062001c58565b604051620010b3979695949392919062001bd4565b60405180910390a35050505050565b336001600160a01b037f000000000000000000000000000000000000000000000000000000000000000016146200110d5760405162461bcd60e51b81526004016200035a9062001977565b6001600160a01b038116620011655760405162461bcd60e51b815260206004820181905260248201527f436f6e74726f6c6c657220616464726573732063616e6e6f742062652030783060448201526064016200035a565b600180546001600160a01b0319166001600160a01b0383169081179091556040517fef870992dc2c2a67cde45c38102147a9bb3131b38b39be3ec2ba273c058c917190600090a250565b336001600160a01b037f00000000000000000000000000000000000000000000000000000000000000001614620011fa5760405162461bcd60e51b81526004016200035a9062001977565b600080546001600160a01b0319166001600160a01b038416178155818152600360209081526040808320805482518185028101850190935280835291929091908301828280156200127557602002820191906000526020600020905b81546001600160a01b0316815260019091019060200180831162001256575b5050505050905060008160008151811062001294576200129462001c28565b60200260200101519050600082600181518110620012b657620012b662001c28565b602090810291909101015160405163b14f2a3960e01b81526001600160a01b0387811660048301529192509083169063b14f2a3990602401600060405180830381600087803b1580156200130957600080fd5b505af11580156200131e573d6000803e3d6000fd5b505060405163b14f2a3960e01b81526001600160a01b0388811660048301528416925063b14f2a399150602401600060405180830381600087803b1580156200136657600080fd5b505af11580156200137b573d6000803e3d6000fd5b50506040516001600160a01b03881681528692507f19bf2eeec0ce4db400b9ec99f958a1b32935964814d88991caa4b9b936b4e639915060200162000a81565b60036020528160005260406000208181548110620013d857600080fd5b6000918252602090912001546001600160a01b03169150829050565b336001600160a01b037f000000000000000000000000000000000000000000000000000000000000000016146200143f5760405162461bcd60e51b81526004016200035a9062001977565b6001600160a01b038116620014975760405162461bcd60e51b815260206004820181905260248201527f436f6e74726f6c6c657220616464726573732063616e6e6f742062652030783060448201526064016200035a565b600082815260036020908152604080832080548251818502810185019093528083529192909190830182828015620014f957602002820191906000526020600020905b81546001600160a01b03168152600190910190602001808311620014da575b5050505050905060008160008151811062001518576200151862001c28565b602002602001015190506000826001815181106200153a576200153a62001c28565b6020908102919091010151604051633cebb82360e01b81526001600160a01b03868116600483015291925090831690633cebb82390602401600060405180830381600087803b1580156200158d57600080fd5b505af1158015620015a2573d6000803e3d6000fd5b5050604051633cebb82360e01b81526001600160a01b03878116600483015284169250633cebb8239150602401600060405180830381600087803b158015620015ea57600080fd5b505af1158015620015ff573d6000803e3d6000fd5b50506040516001600160a01b03871692508791507fda50bc426cb0e9e095fd3ae12db16f07a366fe474ca736f84dd3037bd9050cff90600090a35050505050565b613a488062001cd983390190565b828054828255906000526020600020908101928215620016a6579160200282015b82811115620016a657825182546001600160a01b0319166001600160a01b039091161782556020909201916001909101906200166f565b50620016b4929150620016b8565b5090565b5b80821115620016b45760008155600101620016b9565b6001600160a01b0381168114620016e557600080fd5b50565b634e487b7160e01b600052604160045260246000fd5b604051601f8201601f1916810167ffffffffffffffff811182821017156200172a576200172a620016e8565b604052919050565b600067ffffffffffffffff8211156200174f576200174f620016e8565b50601f01601f191660200190565b600080600080600080600060e0888a0312156200177957600080fd5b8735965060208801356200178d81620016cf565b955060408801359450606088013593506080880135925060a0880135620017b481620016cf565b915060c088013567ffffffffffffffff811115620017d157600080fd5b8801601f81018a13620017e357600080fd5b8035620017fa620017f48262001732565b620016fe565b8181528b60208385010111156200181057600080fd5b8160208401602083013760006020838301015280935050505092959891949750929550565b600080604083850312156200184957600080fd5b50508035926020909101359150565b6000602082840312156200186b57600080fd5b5035919050565b6020808252825182820181905260009190848201906040850190845b81811015620018b55783516001600160a01b0316835292840192918401916001016200188e565b50909695505050505050565b600080600060608486031215620018d757600080fd5b505081359360208301359350604090920135919050565b6000602082840312156200190157600080fd5b81356200190e81620016cf565b9392505050565b600080604083850312156200192957600080fd5b82356200193681620016cf565b946020939093013593505050565b600080604083850312156200195857600080fd5b8235915060208301356200196c81620016cf565b809150509250929050565b602080825260129082015271596f7520617265206e6f742041646d696e2160701b604082015260600190565b600060208284031215620019b657600080fd5b81516200190e81620016cf565b634e487b7160e01b600052601160045260246000fd5b60006001600160ff1b038184138284138082168684048611161562001a025762001a02620019c3565b600160ff1b600087128281168783058912161562001a245762001a24620019c3565b6000871292508782058712848416161562001a435762001a43620019c3565b8785058712818416161562001a5c5762001a5c620019c3565b505050929093029392505050565b6000821982111562001a805762001a80620019c3565b500190565b60005b8381101562001aa257818101518382015260200162001a88565b8381111562001ab2576000848401525b50505050565b6000815180845262001ad281602086016020860162001a85565b601f01601f19169290920160200192915050565b6001600160a01b0388811682526101006020830181905260009162001b0e8483018b62001ab8565b84810360408087019190915260048252636859324b60e01b60208301529982166060860152608085019890985295861660a0840152505060c081019290925290911660e0909101520192915050565b6001600160a01b0388811682526101006020830181905260009162001b858483018b62001ab8565b84810360408087019190915260048252637259324b60e01b60208301529982166060860152608085019890985295861660a0840152505060c081019290925290911660e0909101520192915050565b600060018060a01b03808a16835280891660208401528088166040840152508560608301528460808301528360a083015260e060c083015262001c1b60e083018462001ab8565b9998505050505050505050565b634e487b7160e01b600052603260045260246000fd5b60006020828403121562001c5157600080fd5b5051919050565b60006020828403121562001c6b57600080fd5b815167ffffffffffffffff81111562001c8357600080fd5b8201601f8101841362001c9557600080fd5b805162001ca6620017f48262001732565b81815285602083850101111562001cbc57600080fd5b62001ccf82602083016020860162001a85565b9594505050505056fe6101006040523480156200001257600080fd5b5060405162003a4838038062003a48833981016040819052620000359162000397565b8787876040518060200160405280600081525062000059816200029b60201b60201c565b506001600160a01b0383166080526004620000758382620004ef565b506005620000848282620004ef565b50506001600655505060968410620000e35760405162461bcd60e51b815260206004820152601960248201527f466565206d757374206265206c657373207468616e203135250000000000000060448201526064015b60405180910390fd5b6001600160a01b0385166200013b5760405162461bcd60e51b815260206004820152601e60248201527f547265617375727920616464726573732063616e6e6f742062652030783000006044820152606401620000da565b6001600160a01b038116620001935760405162461bcd60e51b815260206004820181905260248201527f436f6e74726f6c6c657220616464726573732063616e6e6f74206265203078306044820152606401620000da565b6001600160a01b038316620001eb5760405162461bcd60e51b815260206004820152601b60248201527f546f6b656e20616464726573732063616e6e6f742062652030783000000000006044820152606401620000da565b60008213620002495760405162461bcd60e51b815260206004820152602360248201527f537472696b65207072696365206d75737420626520677265617465722074686160448201526206e20360ec1b6064820152608401620000da565b6001600160a01b0392831660a052600e80546001600160a01b031990811696851696909617905560c0919091523360e052600f80549094169116179091556201518060085560105550620005bb915050565b6002620002a98282620004ef565b5050565b80516001600160a01b0381168114620002c557600080fd5b919050565b634e487b7160e01b600052604160045260246000fd5b600082601f830112620002f257600080fd5b81516001600160401b03808211156200030f576200030f620002ca565b604051601f8301601f19908116603f011681019082821181831017156200033a576200033a620002ca565b816040528381526020925086838588010111156200035757600080fd5b600091505b838210156200037b57858201830151818301840152908201906200035c565b838211156200038d5760008385830101525b9695505050505050565b600080600080600080600080610100898b031215620003b557600080fd5b620003c089620002ad565b60208a01519098506001600160401b0380821115620003de57600080fd5b620003ec8c838d01620002e0565b985060408b01519150808211156200040357600080fd5b50620004128b828c01620002e0565b9650506200042360608a01620002ad565b9450608089015193506200043a60a08a01620002ad565b925060c089015191506200045160e08a01620002ad565b90509295985092959890939650565b600181811c908216806200047557607f821691505b6020821081036200049657634e487b7160e01b600052602260045260246000fd5b50919050565b601f821115620004ea57600081815260208120601f850160051c81016020861015620004c55750805b601f850160051c820191505b81811015620004e657828155600101620004d1565b5050505b505050565b81516001600160401b038111156200050b576200050b620002ca565b62000523816200051c845462000460565b846200049c565b602080601f8311600181146200055b5760008415620005425750858301515b600019600386901b1c1916600185901b178555620004e6565b600085815260208120601f198616915b828110156200058c578886015182559484019460019091019084016200056b565b5085821015620005ab5787850151600019600388901b60f8161c191681555b5050505050600190811b01905550565b60805160a05160c05160e0516134066200064260003960008181610c2d01528181610d9401528181610f8301528181611627015281816118890152611c85015260006108420152600061034201526000818161051801528181610e6c015281816112be015281816113480152818161170d015281816117f70152611a8a01526134066000f3fe6080604052600436106102c85760003560e01c80636f7e9bd511610175578063bbec4d06116100dc578063db2088f411610095578063ea859a271161006f578063ea859a2714610932578063f242432a1461095f578063f77c47911461097f578063f9db24271461099f57600080fd5b8063db2088f414610899578063e58c6dfa146108b9578063e985e9c5146108e957600080fd5b8063bbec4d06146107e3578063bd85b03914610803578063c52987cf14610830578063c63d75b61461057a578063c6b61e4c14610864578063d662b92d1461088457600080fd5b80638fc710cb1161012e5780638fc710cb1461072e578063946058571461074e57806395d89b411461076e578063a22cb46514610783578063b14f2a39146107a3578063ba37f9e5146107c357600080fd5b80636f7e9bd51461067857806371b3177a146106985780637a7af70d146106b8578063819b48e3146106d85780638bc7e8c4146106f85780638dbdbe6d1461070e57600080fd5b806329322e0511610234578063402d267d116101ed5780634d288ba7116101c75780634d288ba7146105dc5780634e1273f4146106095780634f558e791461063657806356150edf1461066557600080fd5b8063402d267d1461057a578063488bd7b01461059c5780634cbd43de146105bc57600080fd5b806329322e05146104b05780632eb2c2d6146104d05780632fccfc83146104f057806338d52e0f146105065780633cebb8231461053a5780633e0483651461055a57600080fd5b8063181e7b3b11610286578063181e7b3b146103ee578063236b40201461040e57806323d68d8e1461042e578063242156ed14610450578063276b11401461047057806328337df61461049057600080fd5b8062fdd58e146102cd57806301ffc9a71461030057806304da1a461461033057806306fdde031461037c5780630b8a295a1461039e5780630e89341c146103ce575b600080fd5b3480156102d957600080fd5b506102ed6102e836600461293f565b6109cc565b6040519081526020015b60405180910390f35b34801561030c57600080fd5b5061032061031b366004612982565b610a65565b60405190151581526020016102f7565b34801561033c57600080fd5b506103647f000000000000000000000000000000000000000000000000000000000000000081565b6040516001600160a01b0390911681526020016102f7565b34801561038857600080fd5b50610391610ab5565b6040516102f791906129ec565b3480156103aa57600080fd5b506103206103b93660046129ff565b600d6020526000908152604090205460ff1681565b3480156103da57600080fd5b506103916103e93660046129ff565b610b43565b3480156103fa57600080fd5b506102ed610409366004612a18565b610bd7565b34801561041a57600080fd5b506102ed610429366004612a3a565b610c0f565b34801561043a57600080fd5b5061044e610449366004612a18565b610c22565b005b34801561045c57600080fd5b506102ed61046b366004612a3a565b610d50565b34801561047c57600080fd5b506102ed61048b366004612a18565b610d60565b34801561049c57600080fd5b5061044e6104ab3660046129ff565b610d89565b3480156104bc57600080fd5b5061044e6104cb366004612a3a565b610dd6565b3480156104dc57600080fd5b5061044e6104eb366004612bb2565b610ee1565b3480156104fc57600080fd5b506102ed60085481565b34801561051257600080fd5b506103647f000000000000000000000000000000000000000000000000000000000000000081565b34801561054657600080fd5b5061044e610555366004612c5c565b610f78565b34801561056657600080fd5b5061044e610575366004612a18565b611038565b34801561058657600080fd5b506102ed610595366004612c5c565b5060001990565b3480156105a857600080fd5b506102ed6105b7366004612a18565b611074565b3480156105c857600080fd5b5061044e6105d7366004612c85565b61109e565b3480156105e857600080fd5b506102ed6105f73660046129ff565b600a6020526000908152604090205481565b34801561061557600080fd5b50610629610624366004612cb5565b611137565b6040516102f79190612dbb565b34801561064257600080fd5b506103206106513660046129ff565b600090815260036020526040902054151590565b6102ed610673366004612a3a565b611261565b34801561068457600080fd5b506102ed610693366004612a18565b6113d8565b3480156106a457600080fd5b506102ed6106b3366004612dce565b6114ff565b3480156106c457600080fd5b506102ed6106d3366004612a18565b611872565b3480156106e457600080fd5b5061044e6106f33660046129ff565b61187e565b34801561070457600080fd5b506102ed60105481565b34801561071a57600080fd5b506102ed610729366004612e14565b61190e565b34801561073a57600080fd5b506102ed6107493660046129ff565b611b77565b34801561075a57600080fd5b506102ed6107693660046129ff565b611c15565b34801561077a57600080fd5b50610391611c5e565b34801561078f57600080fd5b5061044e61079e366004612e49565b611c6b565b3480156107af57600080fd5b5061044e6107be366004612c5c565b611c7a565b3480156107cf57600080fd5b506102ed6107de3660046129ff565b611d3a565b3480156107ef57600080fd5b506102ed6107fe366004612a18565b611d57565b34801561080f57600080fd5b506102ed61081e3660046129ff565b60009081526003602052604090205490565b34801561083c57600080fd5b506102ed7f000000000000000000000000000000000000000000000000000000000000000081565b34801561087057600080fd5b506102ed61087f3660046129ff565b611d63565b34801561089057600080fd5b506007546102ed565b3480156108a557600080fd5b506102ed6108b4366004612a18565b611d84565b3480156108c557600080fd5b506103206108d43660046129ff565b600c6020526000908152604090205460ff1681565b3480156108f557600080fd5b50610320610904366004612e75565b6001600160a01b03918216600090815260016020908152604080832093909416825291909152205460ff1690565b34801561093e57600080fd5b506102ed61094d3660046129ff565b600b6020526000908152604090205481565b34801561096b57600080fd5b5061044e61097a366004612e9f565b611dae565b34801561098b57600080fd5b50600f54610364906001600160a01b031681565b3480156109ab57600080fd5b506102ed6109ba3660046129ff565b60096020526000908152604090205481565b60006001600160a01b038316610a3c5760405162461bcd60e51b815260206004820152602a60248201527f455243313135353a2061646472657373207a65726f206973206e6f742061207660448201526930b634b21037bbb732b960b11b60648201526084015b60405180910390fd5b506000818152602081815260408083206001600160a01b03861684529091529020545b92915050565b60006001600160e01b03198216636cdb3d1360e11b1480610a9657506001600160e01b031982166303a24d0760e21b145b80610a5f57506301ffc9a760e01b6001600160e01b0319831614610a5f565b60048054610ac290612f04565b80601f0160208091040260200160405190810160405280929190818152602001828054610aee90612f04565b8015610b3b5780601f10610b1057610100808354040283529160200191610b3b565b820191906000526020600020905b815481529060010190602001808311610b1e57829003601f168201915b505050505081565b606060028054610b5290612f04565b80601f0160208091040260200160405190810160405280929190818152602001828054610b7e90612f04565b8015610bcb5780601f10610ba057610100808354040283529160200191610bcb565b820191906000526020600020905b815481529060010190602001808311610bae57829003601f168201915b50505050509050919050565b6000828152600360205260408120548015610c0557610c00610bf885611c15565b849083611e35565b610c07565b825b949350505050565b6000610c1b82846109cc565b9392505050565b336001600160a01b037f00000000000000000000000000000000000000000000000000000000000000001614610c6a5760405162461bcd60e51b8152600401610a3390612f38565b6000818152600d602052604090205460ff1615610cb55760405162461bcd60e51b815260206004820152600960248201526849445f45584953545360b81b6044820152606401610a33565b808210610cf45760405162461bcd60e51b815260206004820152600d60248201526c0929cac82989288be8aa09e869609b1b6044820152606401610a33565b6000818152600d60209081526040808320805460ff19166001908117909155600b90925282209390935560078054938401815590527fa66cc928b5edb82af9bd49922954155ab7b0942694bea4ce44661d9a8736c68890910155565b6000610c1b8361040984866109cc565b6000828152600360205260408120548015610c0557610c00610d8185611c15565b849083611e54565b336001600160a01b037f00000000000000000000000000000000000000000000000000000000000000001614610dd15760405162461bcd60e51b8152600401610a3390612f38565b600855565b600f546001600160a01b03163314610e005760405162461bcd60e51b8152600401610a3390612f66565b6000828152600d6020526040902054829060ff161515600114610e355760405162461bcd60e51b8152600401610a3390612fae565b6000838152600960205260409081902054905163a9059cbb60e01b81526001600160a01b03848116600483015260248201929092527f00000000000000000000000000000000000000000000000000000000000000009091169063a9059cbb906044016020604051808303816000875af1158015610eb7573d6000803e3d6000fd5b505050506040513d601f19601f82011682018060405250810190610edb9190612fde565b50505050565b6001600160a01b038516331480610efd5750610efd8533610904565b610f645760405162461bcd60e51b815260206004820152603260248201527f455243313135353a207472616e736665722063616c6c6572206973206e6f74206044820152711bdddb995c881b9bdc88185c1c1c9bdd995960721b6064820152608401610a33565b610f718585858585611e82565b5050505050565b336001600160a01b037f00000000000000000000000000000000000000000000000000000000000000001614610fc05760405162461bcd60e51b8152600401610a3390612f38565b6001600160a01b0381166110165760405162461bcd60e51b815260206004820152601e60248201527f436f6e74726f6c6c657220616464726573732063616e6e6f74206265203000006044820152606401610a33565b600f80546001600160a01b0319166001600160a01b0392909216919091179055565b600f546001600160a01b031633146110625760405162461bcd60e51b8152600401610a3390612f66565b6000918252600a602052604090912055565b6000828152600360205260408120548015610c0557610c008161109686611c15565b859190611e54565b600f546001600160a01b031633146110c85760405162461bcd60e51b8152600401610a3390612f66565b6000828152600d6020526040902054829060ff1615156001146110fd5760405162461bcd60e51b8152600401610a3390612fae565b6000838152600c60205260409020805460ff191683151517905561112083611c15565b600093845260096020526040909320929092555050565b6060815183511461119c5760405162461bcd60e51b815260206004820152602960248201527f455243313135353a206163636f756e747320616e6420696473206c656e677468604482015268040dad2e6dac2e8c6d60bb1b6064820152608401610a33565b6000835167ffffffffffffffff8111156111b8576111b8612a66565b6040519080825280602002602001820160405280156111e1578160200160208202803683370190505b50905060005b84518110156112595761122c85828151811061120557611205612ffb565b602002602001015185838151811061121f5761121f612ffb565b60200260200101516109cc565b82828151811061123e5761123e612ffb565b602090810291909101015261125281613027565b90506111e7565b509392505050565b60008034116112bc5760405162461bcd60e51b815260206004820152602160248201527f45544820616d6f756e74206d7573742062652067726561746572207468616e206044820152600360fc1b6064820152608401610a33565b7f00000000000000000000000000000000000000000000000000000000000000006001600160a01b031663d0e30db0346040518263ffffffff1660e01b81526004016000604051808303818588803b15801561131757600080fd5b505af115801561132b573d6000803e3d6000fd5b505060405163a9059cbb60e01b81523360048201523460248201527f00000000000000000000000000000000000000000000000000000000000000006001600160a01b0316935063a9059cbb925060440190506020604051808303816000875af115801561139d573d6000803e3d6000fd5b505050506040513d601f19601f820116820180604052508101906113c19190612fde565b6113cd576113cd613040565b610c1b83348461190e565b604051637259324b60e01b60208201526000906024016040516020818303038152906040528051906020012060056040516020016114169190613056565b60405160208183030381529060405280519060200120036114ca576000838152600c602052604090205460ff16611495576000838152600a6020908152604080832054600990925290912054839161148491670de0b6b3a76400009061147d90859061206d565b9190611e35565b61148e91906130f5565b9050610a5f565b6000838152600a602090815260408083205460099092529091205461148e9190670de0b6b3a76400009061147d90869061206d565b6000838152600a6020908152604080832054600990925290912054610c1b9190670de0b6b3a76400009061147d90869061206d565b600084804210158061152457506000818152600c602052604090205460ff1615156001145b6115a55760405162461bcd60e51b815260206004820152604660248201527f45706f636820686173206e6f7420656e6465642c206f7220646570656720657660448201527f656e7420686173206e6f74206f63757272656420696e207468652074696d65206064820152656265696e672160d01b608482015260a401610a33565b6000868152600d6020526040902054869060ff1615156001146115da5760405162461bcd60e51b8152600401610a3390612fae565b336001600160a01b038516148061161657506001600160a01b0380851660009081526001602090815260408083209389168352929052205460ff165b806116495750336001600160a01b037f000000000000000000000000000000000000000000000000000000000000000016145b6116a55760405162461bcd60e51b815260206004820152602760248201527f4f776e6572206e6565647320746f20617070726f766520726563656976657220604482015266199bdc88185b1b60ca1b6064820152608401610a33565b6116af8787611074565b925060006116bd88856113d8565b90506116ca858986612082565b60006116d582611d3a565b90506116e1818361310d565b600e5460405163a9059cbb60e01b81526001600160a01b039182166004820152602481018490529193507f0000000000000000000000000000000000000000000000000000000000000000169063a9059cbb906044016020604051808303816000875af1158015611756573d6000803e3d6000fd5b505050506040513d601f19601f8201168201806040525081019061177a9190612fde565b50604080513381526001600160a01b0389811660208301529181018a9052606081018490528a918816907fbbbdee62287b5bf3bee13cab60a29ad729cf38109bccbd2a986a11c99b8ca7049060800160405180910390a360405163a9059cbb60e01b81526001600160a01b038881166004830152602482018490527f0000000000000000000000000000000000000000000000000000000000000000169063a9059cbb906044016020604051808303816000875af1158015611840573d6000803e3d6000fd5b505050506040513d601f19601f820116820180604052508101906118649190612fde565b509098975050505050505050565b6000610c1b8383611d84565b336001600160a01b037f000000000000000000000000000000000000000000000000000000000000000016146118c65760405162461bcd60e51b8152600401610a3390612f38565b609681106119095760405162461bcd60e51b815260206004820152601060248201526f46656520697320746f6f20686967682160801b6044820152606401610a33565b601055565b6000838152600d6020526040812054849060ff1615156001146119435760405162461bcd60e51b8152600401610a3390612fae565b6008546000868152600b602052604090205486916119609161310d565b42106119c75760405162461bcd60e51b815260206004820152603060248201527f4465706f7369742074696d65206973206f7665722c2045706f6368206861732060448201526f616c726561647920737461727465642160801b6064820152608401610a33565b600260065403611a195760405162461bcd60e51b815260206004820152601f60248201527f5265656e7472616e637947756172643a207265656e7472616e742063616c6c006044820152606401610a33565b6002600655611a288686611872565b925082600003611a685760405162461bcd60e51b815260206004820152600b60248201526a5a45524f5f53484152455360a81b6044820152606401610a33565b6040516323b872dd60e01b8152336004820152306024820152604481018490527f00000000000000000000000000000000000000000000000000000000000000006001600160a01b0316906323b872dd906064016020604051808303816000875af1158015611adb573d6000803e3d6000fd5b505050506040513d601f19601f82011682018060405250810190611aff9190612fde565b50611b1b84878560405180602001604052806000815250612217565b604080513381526020810185905290810184905286906001600160a01b038616907f4e2ca0515ed1aef1395f66b5303bb5d6f1bf9d61a353fa53f73f8ac9973fa9f69060600160405180910390a3505060016006559392505050565b6000805b600754811015611c0f578260078281548110611b9957611b99612ffb565b906000526020600020015403611bfd576001611bb460075490565b611bbe919061310d565b8103611bcd5750600092915050565b6007611bda8260016130f5565b81548110611bea57611bea612ffb565b9060005260206000200154915050919050565b80611c0781613027565b915050611b7b565b50919050565b6000818152600d6020526040812054829060ff161515600114611c4a5760405162461bcd60e51b8152600401610a3390612fae565b505060009081526003602052604090205490565b60058054610ac290612f04565b611c76338383612331565b5050565b336001600160a01b037f00000000000000000000000000000000000000000000000000000000000000001614611cc25760405162461bcd60e51b8152600401610a3390612f38565b6001600160a01b038116611d185760405162461bcd60e51b815260206004820152601c60248201527f547265617375727920616464726573732063616e6e6f742062652030000000006044820152606401610a33565b600e80546001600160a01b0319166001600160a01b0392909216919091179055565b60006103e860105483611d4d9190613124565b610a5f9190613143565b6000610c1b8383610bd7565b60078181548110611d7357600080fd5b600091825260209091200154905081565b6000828152600360205260408120548015610c0557610c0081611da686611c15565b859190611e35565b6001600160a01b038516331480611dca5750611dca8533610904565b611e285760405162461bcd60e51b815260206004820152602960248201527f455243313135353a2063616c6c6572206973206e6f74206f776e6572206e6f7260448201526808185c1c1c9bdd995960ba1b6064820152608401610a33565b610f718585858585612411565b828202811515841585830485141716611e4d57600080fd5b0492915050565b828202811515841585830485141716611e6c57600080fd5b6001826001830304018115150290509392505050565b8151835114611ee45760405162461bcd60e51b815260206004820152602860248201527f455243313135353a2069647320616e6420616d6f756e7473206c656e677468206044820152670dad2e6dac2e8c6d60c31b6064820152608401610a33565b6001600160a01b038416611f0a5760405162461bcd60e51b8152600401610a3390613165565b33611f19818787878787612549565b60005b8451811015611fff576000858281518110611f3957611f39612ffb565b602002602001015190506000858381518110611f5757611f57612ffb565b602090810291909101810151600084815280835260408082206001600160a01b038e168352909352919091205490915081811015611fa75760405162461bcd60e51b8152600401610a33906131aa565b6000838152602081815260408083206001600160a01b038e8116855292528083208585039055908b16825281208054849290611fe49084906130f5565b9250508190555050505080611ff890613027565b9050611f1c565b50846001600160a01b0316866001600160a01b0316826001600160a01b03167f4a39dc06d4c0dbc64b70af90fd698a233a518aa5d07e595d983b8c0526c8f7fb878760405161204f9291906131f4565b60405180910390a46120658187878787876126c2565b505050505050565b6000610c1b83670de0b6b3a764000084611e35565b6001600160a01b0383166120e45760405162461bcd60e51b815260206004820152602360248201527f455243313135353a206275726e2066726f6d20746865207a65726f206164647260448201526265737360e81b6064820152608401610a33565b3360006120f08461281d565b905060006120fd8461281d565b905061211d83876000858560405180602001604052806000815250612549565b6000858152602081815260408083206001600160a01b038a1684529091529020548481101561219a5760405162461bcd60e51b8152602060048201526024808201527f455243313135353a206275726e20616d6f756e7420657863656564732062616c604482015263616e636560e01b6064820152608401610a33565b6000868152602081815260408083206001600160a01b038b81168086529184528285208a8703905582518b81529384018a90529092908816917fc3d58168c5ae7397731d063d5bbf3d657854427343f4c083240f7aacaa2d0f62910160405180910390a46040805160208101909152600090525b50505050505050565b6001600160a01b0384166122775760405162461bcd60e51b815260206004820152602160248201527f455243313135353a206d696e7420746f20746865207a65726f206164647265736044820152607360f81b6064820152608401610a33565b3360006122838561281d565b905060006122908561281d565b90506122a183600089858589612549565b6000868152602081815260408083206001600160a01b038b168452909152812080548792906122d19084906130f5565b909155505060408051878152602081018790526001600160a01b03808a1692600092918716917fc3d58168c5ae7397731d063d5bbf3d657854427343f4c083240f7aacaa2d0f62910160405180910390a461220e83600089898989612868565b816001600160a01b0316836001600160a01b0316036123a45760405162461bcd60e51b815260206004820152602960248201527f455243313135353a2073657474696e6720617070726f76616c20737461747573604482015268103337b91039b2b63360b91b6064820152608401610a33565b6001600160a01b03838116600081815260016020908152604080832094871680845294825291829020805460ff191686151590811790915591519182527f17307eab39ab6107e8899845ad3d59bd9653f200f220920489ca2b5937696c31910160405180910390a3505050565b6001600160a01b0384166124375760405162461bcd60e51b8152600401610a3390613165565b3360006124438561281d565b905060006124508561281d565b9050612460838989858589612549565b6000868152602081815260408083206001600160a01b038c168452909152902054858110156124a15760405162461bcd60e51b8152600401610a33906131aa565b6000878152602081815260408083206001600160a01b038d8116855292528083208985039055908a168252812080548892906124de9084906130f5565b909155505060408051888152602081018890526001600160a01b03808b16928c821692918816917fc3d58168c5ae7397731d063d5bbf3d657854427343f4c083240f7aacaa2d0f62910160405180910390a461253e848a8a8a8a8a612868565b505050505050505050565b6001600160a01b0385166125d05760005b83518110156125ce5782818151811061257557612575612ffb565b60200260200101516003600086848151811061259357612593612ffb565b6020026020010151815260200190815260200160002060008282546125b891906130f5565b909155506125c7905081613027565b905061255a565b505b6001600160a01b0384166120655760005b835181101561220e5760008482815181106125fe576125fe612ffb565b60200260200101519050600084838151811061261c5761261c612ffb565b602002602001015190506000600360008481526020019081526020016000205490508181101561269f5760405162461bcd60e51b815260206004820152602860248201527f455243313135353a206275726e20616d6f756e74206578636565647320746f74604482015267616c537570706c7960c01b6064820152608401610a33565b600092835260036020526040909220910390556126bb81613027565b90506125e1565b6001600160a01b0384163b156120655760405163bc197c8160e01b81526001600160a01b0385169063bc197c81906127069089908990889088908890600401613222565b6020604051808303816000875af1925050508015612741575060408051601f3d908101601f1916820190925261273e91810190613280565b60015b6127ed5761274d61329d565b806308c379a00361278657506127616132b9565b8061276c5750612788565b8060405162461bcd60e51b8152600401610a3391906129ec565b505b60405162461bcd60e51b815260206004820152603460248201527f455243313135353a207472616e7366657220746f206e6f6e20455243313135356044820152732932b1b2b4bb32b91034b6b83632b6b2b73a32b960611b6064820152608401610a33565b6001600160e01b0319811663bc197c8160e01b1461220e5760405162461bcd60e51b8152600401610a3390613343565b6040805160018082528183019092526060916000919060208083019080368337019050509050828160008151811061285757612857612ffb565b602090810291909101015292915050565b6001600160a01b0384163b156120655760405163f23a6e6160e01b81526001600160a01b0385169063f23a6e61906128ac908990899088908890889060040161338b565b6020604051808303816000875af19250505080156128e7575060408051601f3d908101601f191682019092526128e491810190613280565b60015b6128f35761274d61329d565b6001600160e01b0319811663f23a6e6160e01b1461220e5760405162461bcd60e51b8152600401610a3390613343565b80356001600160a01b038116811461293a57600080fd5b919050565b6000806040838503121561295257600080fd5b61295b83612923565b946020939093013593505050565b6001600160e01b03198116811461297f57600080fd5b50565b60006020828403121561299457600080fd5b8135610c1b81612969565b6000815180845260005b818110156129c5576020818501810151868301820152016129a9565b818111156129d7576000602083870101525b50601f01601f19169290920160200192915050565b602081526000610c1b602083018461299f565b600060208284031215612a1157600080fd5b5035919050565b60008060408385031215612a2b57600080fd5b50508035926020909101359150565b60008060408385031215612a4d57600080fd5b82359150612a5d60208401612923565b90509250929050565b634e487b7160e01b600052604160045260246000fd5b601f8201601f1916810167ffffffffffffffff81118282101715612aa257612aa2612a66565b6040525050565b600067ffffffffffffffff821115612ac357612ac3612a66565b5060051b60200190565b600082601f830112612ade57600080fd5b81356020612aeb82612aa9565b604051612af88282612a7c565b83815260059390931b8501820192828101915086841115612b1857600080fd5b8286015b84811015612b335780358352918301918301612b1c565b509695505050505050565b600082601f830112612b4f57600080fd5b813567ffffffffffffffff811115612b6957612b69612a66565b604051612b80601f8301601f191660200182612a7c565b818152846020838601011115612b9557600080fd5b816020850160208301376000918101602001919091529392505050565b600080600080600060a08688031215612bca57600080fd5b612bd386612923565b9450612be160208701612923565b9350604086013567ffffffffffffffff80821115612bfe57600080fd5b612c0a89838a01612acd565b94506060880135915080821115612c2057600080fd5b612c2c89838a01612acd565b93506080880135915080821115612c4257600080fd5b50612c4f88828901612b3e565b9150509295509295909350565b600060208284031215612c6e57600080fd5b610c1b82612923565b801515811461297f57600080fd5b60008060408385031215612c9857600080fd5b823591506020830135612caa81612c77565b809150509250929050565b60008060408385031215612cc857600080fd5b823567ffffffffffffffff80821115612ce057600080fd5b818501915085601f830112612cf457600080fd5b81356020612d0182612aa9565b604051612d0e8282612a7c565b83815260059390931b8501820192828101915089841115612d2e57600080fd5b948201945b83861015612d5357612d4486612923565b82529482019490820190612d33565b96505086013592505080821115612d6957600080fd5b50612d7685828601612acd565b9150509250929050565b600081518084526020808501945080840160005b83811015612db057815187529582019590820190600101612d94565b509495945050505050565b602081526000610c1b6020830184612d80565b60008060008060808587031215612de457600080fd5b8435935060208501359250612dfb60408601612923565b9150612e0960608601612923565b905092959194509250565b600080600060608486031215612e2957600080fd5b8335925060208401359150612e4060408501612923565b90509250925092565b60008060408385031215612e5c57600080fd5b612e6583612923565b91506020830135612caa81612c77565b60008060408385031215612e8857600080fd5b612e9183612923565b9150612a5d60208401612923565b600080600080600060a08688031215612eb757600080fd5b612ec086612923565b9450612ece60208701612923565b93506040860135925060608601359150608086013567ffffffffffffffff811115612ef857600080fd5b612c4f88828901612b3e565b600181811c90821680612f1857607f821691505b602082108103611c0f57634e487b7160e01b600052602260045260246000fd5b602080825260149082015273596f7520617265206e6f7420466163746f72792160601b604082015260600190565b60208082526028908201527f596f7520617265206e6f742063616c6c696e672066726f6d2074686520436f6e60408201526774726f6c6c65722160c01b606082015260800190565b6020808252601690820152754d61726b657420646f6573206e6f742045786973742160501b604082015260600190565b600060208284031215612ff057600080fd5b8151610c1b81612c77565b634e487b7160e01b600052603260045260246000fd5b634e487b7160e01b600052601160045260246000fd5b60006001820161303957613039613011565b5060010190565b634e487b7160e01b600052600160045260246000fd5b600080835481600182811c91508083168061307257607f831692505b6020808410820361309157634e487b7160e01b86526022600452602486fd5b8180156130a557600181146130ba576130e7565b60ff19861689528415158502890196506130e7565b60008a81526020902060005b868110156130df5781548b8201529085019083016130c6565b505084890196505b509498975050505050505050565b6000821982111561310857613108613011565b500190565b60008282101561311f5761311f613011565b500390565b600081600019048311821515161561313e5761313e613011565b500290565b60008261316057634e487b7160e01b600052601260045260246000fd5b500490565b60208082526025908201527f455243313135353a207472616e7366657220746f20746865207a65726f206164604082015264647265737360d81b606082015260800190565b6020808252602a908201527f455243313135353a20696e73756666696369656e742062616c616e636520666f60408201526939103a3930b739b332b960b11b606082015260800190565b6040815260006132076040830185612d80565b82810360208401526132198185612d80565b95945050505050565b6001600160a01b0386811682528516602082015260a06040820181905260009061324e90830186612d80565b82810360608401526132608186612d80565b90508281036080840152613274818561299f565b98975050505050505050565b60006020828403121561329257600080fd5b8151610c1b81612969565b600060033d11156132b65760046000803e5060005160e01c5b90565b600060443d10156132c75790565b6040516003193d81016004833e81513d67ffffffffffffffff81602484011181841117156132f757505050505090565b828501915081518181111561330f5750505050505090565b843d87010160208285010111156133295750505050505090565b61333860208286010187612a7c565b509095945050505050565b60208082526028908201527f455243313135353a204552433131353552656365697665722072656a656374656040820152676420746f6b656e7360c01b606082015260800190565b6001600160a01b03868116825285166020820152604081018490526060810183905260a0608082018190526000906133c59083018461299f565b97965050505050505056fea2646970667358221220c8a2e5188305cedef43b3af3e39c8965922109ca21f5c85b0c995c617766f07b64736f6c634300080f0033a264697066735822122006ce63f1a82634bd0121945e7ed84666c494c1369ecc6bc7ed034274422efe4e64736f6c634300080f0033",
    "linkReferences": {}
  },
  "methodIdentifiers": {
    "Admin()": "ff1b636d",
    "WETH()": "ad5c4648",
    "changeController(uint256,address)": "c5ba24b1",
    "changeTimewindow(uint256,uint256)": "39d0913b",
    "changeTreasury(address,uint256)": "97184034",
    "changeWithdrawalVaultFee(uint256,uint256)": "15c0f307",
    "controller()": "f77c4791",
    "createNewMarket(uint256,address,int256,uint256,uint256,address,string)": "15355d89",
    "deployMoreAssets(uint256,uint256,uint256)": "7bb4a17b",
    "getVaults(uint256)": "468d16d0",
    "indexEpochs(uint256,uint256)": "424a4ab7",
    "indexVaults(uint256,uint256)": "c0c99d9b",
    "marketIndex()": "8c7adc15",
    "setController(address)": "92eefe9b",
    "tokenToOracle(address)": "9820c733",
    "treasury()": "61d027b3"
  },
  "id": 31
}