{
  "abi": [
    {
      "inputs": [
        {
          "internalType": "address",
          "name": "_owner",
          "type": "address"
        },
        {
          "internalType": "address",
          "name": "_rewardsDistribution",
          "type": "address"
        },
        {
          "internalType": "address",
          "name": "_rewardsToken",
          "type": "address"
        },
        {
          "internalType": "address",
          "name": "_stakingToken",
          "type": "address"
        },
        {
          "internalType": "uint256",
          "name": "_id",
          "type": "uint256"
        }
      ],
      "stateMutability": "nonpayable",
      "type": "constructor"
    },
    {
      "anonymous": false,
      "inputs": [
        {
          "indexed": false,
          "internalType": "address",
          "name": "oldOwner",
          "type": "address"
        },
        {
          "indexed": false,
          "internalType": "address",
          "name": "newOwner",
          "type": "address"
        }
      ],
      "name": "OwnerChanged",
      "type": "event"
    },
    {
      "anonymous": false,
      "inputs": [
        {
          "indexed": false,
          "internalType": "address",
          "name": "newOwner",
          "type": "address"
        }
      ],
      "name": "OwnerNominated",
      "type": "event"
    },
    {
      "anonymous": false,
      "inputs": [
        {
          "indexed": false,
          "internalType": "address",
          "name": "account",
          "type": "address"
        }
      ],
      "name": "Paused",
      "type": "event"
    },
    {
      "anonymous": false,
      "inputs": [
        {
          "indexed": false,
          "internalType": "address",
          "name": "token",
          "type": "address"
        },
        {
          "indexed": false,
          "internalType": "uint256",
          "name": "amount",
          "type": "uint256"
        }
      ],
      "name": "Recovered",
      "type": "event"
    },
    {
      "anonymous": false,
      "inputs": [
        {
          "indexed": false,
          "internalType": "uint256",
          "name": "reward",
          "type": "uint256"
        }
      ],
      "name": "RewardAdded",
      "type": "event"
    },
    {
      "anonymous": false,
      "inputs": [
        {
          "indexed": true,
          "internalType": "address",
          "name": "user",
          "type": "address"
        },
        {
          "indexed": false,
          "internalType": "uint256",
          "name": "reward",
          "type": "uint256"
        }
      ],
      "name": "RewardPaid",
      "type": "event"
    },
    {
      "anonymous": false,
      "inputs": [
        {
          "indexed": false,
          "internalType": "uint256",
          "name": "newDuration",
          "type": "uint256"
        }
      ],
      "name": "RewardsDurationUpdated",
      "type": "event"
    },
    {
      "anonymous": false,
      "inputs": [
        {
          "indexed": true,
          "internalType": "address",
          "name": "user",
          "type": "address"
        },
        {
          "indexed": false,
          "internalType": "uint256",
          "name": "id",
          "type": "uint256"
        },
        {
          "indexed": false,
          "internalType": "uint256",
          "name": "amount",
          "type": "uint256"
        }
      ],
      "name": "Staked",
      "type": "event"
    },
    {
      "anonymous": false,
      "inputs": [
        {
          "indexed": false,
          "internalType": "address",
          "name": "account",
          "type": "address"
        }
      ],
      "name": "Unpaused",
      "type": "event"
    },
    {
      "anonymous": false,
      "inputs": [
        {
          "indexed": true,
          "internalType": "address",
          "name": "user",
          "type": "address"
        },
        {
          "indexed": false,
          "internalType": "uint256",
          "name": "id",
          "type": "uint256"
        },
        {
          "indexed": false,
          "internalType": "uint256",
          "name": "amount",
          "type": "uint256"
        }
      ],
      "name": "Withdrawn",
      "type": "event"
    },
    {
      "inputs": [],
      "name": "acceptOwnership",
      "outputs": [],
      "stateMutability": "nonpayable",
      "type": "function"
    },
    {
      "inputs": [
        {
          "internalType": "address",
          "name": "account",
          "type": "address"
        }
      ],
      "name": "balanceOf",
      "outputs": [
        {
          "internalType": "uint256",
          "name": "",
          "type": "uint256"
        }
      ],
      "stateMutability": "view",
      "type": "function"
    },
    {
      "inputs": [
        {
          "internalType": "address",
          "name": "account",
          "type": "address"
        }
      ],
      "name": "earned",
      "outputs": [
        {
          "internalType": "uint256",
          "name": "",
          "type": "uint256"
        }
      ],
      "stateMutability": "view",
      "type": "function"
    },
    {
      "inputs": [],
      "name": "exit",
      "outputs": [],
      "stateMutability": "nonpayable",
      "type": "function"
    },
    {
      "inputs": [],
      "name": "getReward",
      "outputs": [],
      "stateMutability": "nonpayable",
      "type": "function"
    },
    {
      "inputs": [],
      "name": "getRewardForDuration",
      "outputs": [
        {
          "internalType": "uint256",
          "name": "",
          "type": "uint256"
        }
      ],
      "stateMutability": "view",
      "type": "function"
    },
    {
      "inputs": [],
      "name": "lastTimeRewardApplicable",
      "outputs": [
        {
          "internalType": "uint256",
          "name": "",
          "type": "uint256"
        }
      ],
      "stateMutability": "view",
      "type": "function"
    },
    {
      "inputs": [],
      "name": "lastUpdateTime",
      "outputs": [
        {
          "internalType": "uint256",
          "name": "",
          "type": "uint256"
        }
      ],
      "stateMutability": "view",
      "type": "function"
    },
    {
      "inputs": [
        {
          "internalType": "address",
          "name": "_owner",
          "type": "address"
        }
      ],
      "name": "nominateNewOwner",
      "outputs": [],
      "stateMutability": "nonpayable",
      "type": "function"
    },
    {
      "inputs": [],
      "name": "nominatedOwner",
      "outputs": [
        {
          "internalType": "address",
          "name": "",
          "type": "address"
        }
      ],
      "stateMutability": "view",
      "type": "function"
    },
    {
      "inputs": [
        {
          "internalType": "uint256",
          "name": "reward",
          "type": "uint256"
        }
      ],
      "name": "notifyRewardAmount",
      "outputs": [],
      "stateMutability": "nonpayable",
      "type": "function"
    },
    {
      "inputs": [
        {
          "internalType": "address",
          "name": "",
          "type": "address"
        },
        {
          "internalType": "address",
          "name": "",
          "type": "address"
        },
        {
          "internalType": "uint256[]",
          "name": "",
          "type": "uint256[]"
        },
        {
          "internalType": "uint256[]",
          "name": "",
          "type": "uint256[]"
        },
        {
          "internalType": "bytes",
          "name": "",
          "type": "bytes"
        }
      ],
      "name": "onERC1155BatchReceived",
      "outputs": [
        {
          "internalType": "bytes4",
          "name": "",
          "type": "bytes4"
        }
      ],
      "stateMutability": "nonpayable",
      "type": "function"
    },
    {
      "inputs": [
        {
          "internalType": "address",
          "name": "",
          "type": "address"
        },
        {
          "internalType": "address",
          "name": "",
          "type": "address"
        },
        {
          "internalType": "uint256",
          "name": "",
          "type": "uint256"
        },
        {
          "internalType": "uint256",
          "name": "",
          "type": "uint256"
        },
        {
          "internalType": "bytes",
          "name": "",
          "type": "bytes"
        }
      ],
      "name": "onERC1155Received",
      "outputs": [
        {
          "internalType": "bytes4",
          "name": "",
          "type": "bytes4"
        }
      ],
      "stateMutability": "nonpayable",
      "type": "function"
    },
    {
      "inputs": [],
      "name": "owner",
      "outputs": [
        {
          "internalType": "address",
          "name": "",
          "type": "address"
        }
      ],
      "stateMutability": "view",
      "type": "function"
    },
    {
      "inputs": [],
      "name": "paused",
      "outputs": [
        {
          "internalType": "bool",
          "name": "",
          "type": "bool"
        }
      ],
      "stateMutability": "view",
      "type": "function"
    },
    {
      "inputs": [],
      "name": "periodFinish",
      "outputs": [
        {
          "internalType": "uint256",
          "name": "",
          "type": "uint256"
        }
      ],
      "stateMutability": "view",
      "type": "function"
    },
    {
      "inputs": [
        {
          "internalType": "address",
          "name": "tokenAddress",
          "type": "address"
        },
        {
          "internalType": "uint256",
          "name": "tokenAmount",
          "type": "uint256"
        }
      ],
      "name": "recoverERC20",
      "outputs": [],
      "stateMutability": "nonpayable",
      "type": "function"
    },
    {
      "inputs": [],
      "name": "rewardPerToken",
      "outputs": [
        {
          "internalType": "uint256",
          "name": "",
          "type": "uint256"
        }
      ],
      "stateMutability": "view",
      "type": "function"
    },
    {
      "inputs": [],
      "name": "rewardPerTokenStored",
      "outputs": [
        {
          "internalType": "uint256",
          "name": "",
          "type": "uint256"
        }
      ],
      "stateMutability": "view",
      "type": "function"
    },
    {
      "inputs": [],
      "name": "rewardRate",
      "outputs": [
        {
          "internalType": "uint256",
          "name": "",
          "type": "uint256"
        }
      ],
      "stateMutability": "view",
      "type": "function"
    },
    {
      "inputs": [
        {
          "internalType": "address",
          "name": "",
          "type": "address"
        }
      ],
      "name": "rewards",
      "outputs": [
        {
          "internalType": "uint256",
          "name": "",
          "type": "uint256"
        }
      ],
      "stateMutability": "view",
      "type": "function"
    },
    {
      "inputs": [],
      "name": "rewardsDistribution",
      "outputs": [
        {
          "internalType": "address",
          "name": "",
          "type": "address"
        }
      ],
      "stateMutability": "view",
      "type": "function"
    },
    {
      "inputs": [],
      "name": "rewardsDuration",
      "outputs": [
        {
          "internalType": "uint256",
          "name": "",
          "type": "uint256"
        }
      ],
      "stateMutability": "view",
      "type": "function"
    },
    {
      "inputs": [],
      "name": "rewardsToken",
      "outputs": [
        {
          "internalType": "contract ERC20",
          "name": "",
          "type": "address"
        }
      ],
      "stateMutability": "view",
      "type": "function"
    },
    {
      "inputs": [
        {
          "internalType": "address",
          "name": "_rewardsDistribution",
          "type": "address"
        }
      ],
      "name": "setRewardsDistribution",
      "outputs": [],
      "stateMutability": "nonpayable",
      "type": "function"
    },
    {
      "inputs": [
        {
          "internalType": "uint256",
          "name": "_rewardsDuration",
          "type": "uint256"
        }
      ],
      "name": "setRewardsDuration",
      "outputs": [],
      "stateMutability": "nonpayable",
      "type": "function"
    },
    {
      "inputs": [
        {
          "internalType": "uint256",
          "name": "amount",
          "type": "uint256"
        }
      ],
      "name": "stake",
      "outputs": [],
      "stateMutability": "nonpayable",
      "type": "function"
    },
    {
      "inputs": [],
      "name": "stakingToken",
      "outputs": [
        {
          "internalType": "contract IERC1155",
          "name": "",
          "type": "address"
        }
      ],
      "stateMutability": "view",
      "type": "function"
    },
    {
      "inputs": [
        {
          "internalType": "bytes4",
          "name": "interfaceId",
          "type": "bytes4"
        }
      ],
      "name": "supportsInterface",
      "outputs": [
        {
          "internalType": "bool",
          "name": "",
          "type": "bool"
        }
      ],
      "stateMutability": "view",
      "type": "function"
    },
    {
      "inputs": [],
      "name": "totalSupply",
      "outputs": [
        {
          "internalType": "uint256",
          "name": "",
          "type": "uint256"
        }
      ],
      "stateMutability": "view",
      "type": "function"
    },
    {
      "inputs": [
        {
          "internalType": "address",
          "name": "",
          "type": "address"
        }
      ],
      "name": "userRewardPerTokenPaid",
      "outputs": [
        {
          "internalType": "uint256",
          "name": "",
          "type": "uint256"
        }
      ],
      "stateMutability": "view",
      "type": "function"
    },
    {
      "inputs": [
        {
          "internalType": "uint256",
          "name": "amount",
          "type": "uint256"
        }
      ],
      "name": "withdraw",
      "outputs": [],
      "stateMutability": "nonpayable",
      "type": "function"
    }
  ],
  "bytecode": {
    "object": "0x60c0346200019757601f6200192a38819003918201601f191683019291906001600160401b038411838510176200019c578160a0928492604096875283398101031262000197576200005181620001b2565b6200005f60208301620001b2565b906200006d848401620001b2565b9160806200007e60608601620001b2565b940151936001600160a01b039283169384156200015357908380927fb532073b38c83145e3e5135377a08bf9aab55bc0fd7c1179cd4fb995d2a5159c8960018060a01b031998808a6000541617600055815190600082526020820152a1600160035560ff19600454166004556000600555600a60065562093a80600755166080521660a05216906002541617600255600a55516117629081620001c88239608051818181610daa015281816114b70152611641015260a051818181610712015281816108b2015281816111d701526113480152f35b865162461bcd60e51b815260206004820152601960248201527f4f776e657220616464726573732063616e6e6f742062652030000000000000006044820152606490fd5b600080fd5b634e487b7160e01b600052604160045260246000fd5b51906001600160a01b0382168203620001975756fe60806040526004361015610013575b600080fd5b60003560e01c80628cc2621461029257806301ffc9a7146102895780630700037d146102805780631627540c1461027757806318160ddd1461026e57806319762143146102655780631c1f78eb1461025c5780632e1a7d4d14610253578063386a95251461024a5780633c6b16ab146102415780633d18b912146102385780633fc6df6e1461022f57806353a47bb7146102265780635c975abb1461021d57806370a082311461021457806372f702f31461020b57806379ba5097146102025780637b0a47ee146101f957806380faa57d146101f05780638980f11f146101e75780638b876347146101de5780638da5cb5b146101d5578063a694fc3a146101cc578063bc197c81146101c3578063c8f33c91146101ba578063cc1a378f146101b1578063cd3daf9d146101a8578063d1af0c7d1461019f578063df136d6514610196578063e9fad8ee1461018d578063ebe2b12b146101845763f23a6e611461017c57600080fd5b61000e610ea8565b5061000e610e89565b5061000e610df8565b5061000e610dd9565b5061000e610d93565b5061000e610d77565b5061000e610c82565b5061000e610c63565b5061000e610bd9565b5061000e6109eb565b5061000e6109c1565b5061000e610986565b5061000e61087e565b5061000e610862565b5061000e610843565b5061000e610741565b5061000e6106fb565b5061000e6106c0565b5061000e61069c565b5061000e610672565b5061000e610648565b5061000e6105c3565b5061000e610526565b5061000e610507565b5061000e610483565b5061000e610460565b5061000e61041c565b5061000e6103fd565b5061000e610385565b5061000e61034a565b5061000e6102f3565b5061000e6102c7565b600435906001600160a01b038216820361000e57565b602435906001600160a01b038216820361000e57565b503461000e57602036600319011261000e5760206102eb6102e661029b565b611088565b604051908152f35b503461000e57602036600319011261000e5760043563ffffffff60e01b811680910361000e57602090630271189760e51b8114908115610339575b506040519015158152f35b6301ffc9a760e01b1490503861032e565b503461000e57602036600319011261000e576001600160a01b0361036c61029b565b16600052600c6020526020604060002054604051908152f35b503461000e57602036600319011261000e577f906a1c6bd7e3091ea86693dd029a831c19049ce77f1dce2ce0bab1cacbabce2260206103c261029b565b6103ca610eff565b600180546001600160a01b0319166001600160a01b03929092169182179055604051908152a1005b600091031261000e57565b503461000e57600036600319011261000e576020600d54604051908152f35b503461000e57602036600319011261000e5761043661029b565b61043e610eff565b600280546001600160a01b0319166001600160a01b0392909216919091179055005b503461000e57600036600319011261000e5760206102eb60065460075490611049565b503461000e57602036600319011261000e576104a4600260035414156110f2565b60026003556104b1610f85565b6009556104bc610f70565b600855336104dc575b6104d06004356112fe565b6104da6001600355565b005b6104e533611088565b33600052600c602052604060002055600954600b6020526040600020556104c5565b503461000e57600036600319011261000e576020600754604051908152f35b503461000e57602036600319011261000e576002546001600160a01b0316330361056b57610552610f85565b60095561055d610f70565b6008556104da6004356115d5565b60405162461bcd60e51b815260206004820152602a60248201527f43616c6c6572206973206e6f742052657761726473446973747269627574696f6044820152691b8818dbdb9d1c9858dd60b21b6064820152608490fd5b503461000e57600080600319360112610645576105e5600260035414156110f2565b60026003556105f2610f85565b6009556105fd610f70565b6008553361061d575b61060e611492565b6106186001600355565b604051f35b61062633611088565b338252600c6020526040822055600954600b6020526040822055610606565b80fd5b503461000e57600036600319011261000e576002546040516001600160a01b039091168152602090f35b503461000e57600036600319011261000e576001546040516001600160a01b039091168152602090f35b503461000e57600036600319011261000e57602060ff600454166040519015158152f35b503461000e57602036600319011261000e576001600160a01b036106e261029b565b16600052600e6020526020604060002054604051908152f35b503461000e57600036600319011261000e576040517f00000000000000000000000000000000000000000000000000000000000000006001600160a01b03168152602090f35b503461000e57600036600319011261000e576001546001600160a01b0316338190036107e057600054604080516001600160a01b03928316815291831660208301526107ce92917fb532073b38c83145e3e5135377a08bf9aab55bc0fd7c1179cd4fb995d2a5159c9190a160018060a01b03166bffffffffffffffffffffffff60a01b6000541617600055565b600180546001600160a01b0319169055005b60405162461bcd60e51b815260206004820152603560248201527f596f75206d757374206265206e6f6d696e61746564206265666f726520796f7560448201527402063616e20616363657074206f776e65727368697605c1b6064820152608490fd5b503461000e57600036600319011261000e576020600654604051908152f35b503461000e57600036600319011261000e5760206102eb610f70565b503461000e57604036600319011261000e5761089861029b565b6024356108a3610eff565b6001600160a01b0382811692907f0000000000000000000000000000000000000000000000000000000000000000168314610937576000547f8c1256b8896378cd5044f80c202f9772b9d77dc85c8a6eb51967210b09bfaa2893610913918491906001600160a01b031690611509565b604080516001600160a01b039092168252602082019290925290819081015b0390a1005b60405162461bcd60e51b815260206004820152602160248201527f43616e6e6f7420776974686472617720746865207374616b696e6720746f6b656044820152603760f91b6064820152608490fd5b503461000e57602036600319011261000e576001600160a01b036109a861029b565b16600052600b6020526020604060002054604051908152f35b503461000e57600036600319011261000e576000546040516001600160a01b039091168152602090f35b503461000e57602036600319011261000e57610a0c600260035414156110f2565b600260035560ff60045416610a6d57610a23610f85565b600955610a2e610f70565b60085533610a42575b6104d0600435611188565b610a4b33611088565b33600052600c602052604060002055600954600b602052604060002055610a37565b60405162461bcd60e51b815260206004820152601060248201526f14185d5cd8589b194e881c185d5cd95960821b6044820152606490fd5b50634e487b7160e01b600052604160045260246000fd5b67ffffffffffffffff8111610ad057604052565b610ad8610aa5565b604052565b90601f8019910116810190811067ffffffffffffffff821117610ad057604052565b9080601f8301121561000e5781359067ffffffffffffffff8211610b67575b8160051b60405193602093610b3585840187610add565b8552838086019282010192831161000e578301905b828210610b58575050505090565b81358152908301908301610b4a565b610b6f610aa5565b610b1e565b81601f8201121561000e5780359067ffffffffffffffff8211610bcc575b60405192610baa601f8401601f191660200185610add565b8284526020838301011161000e57816000926020809301838601378301015290565b610bd4610aa5565b610b92565b503461000e5760a036600319011261000e57610bf361029b565b50610bfc6102b1565b5067ffffffffffffffff60443581811161000e57610c1e903690600401610aff565b5060643581811161000e57610c37903690600401610aff565b5060843590811161000e57610c50903690600401610b74565b5060405163bc197c8160e01b8152602090f35b503461000e57600036600319011261000e576020600854604051908152f35b503461000e57602036600319011261000e57610c9c610eff565b600554421115610ce657610cb1600435600755565b6007546040519081527ffb46ca5a5e06d4540d6387b930a7c978bce0db5f449ec6b3f5d07c6e1d44f2d3908060208101610932565b60405162461bcd60e51b815260206004820152605860248201527f50726576696f7573207265776172647320706572696f64206d7573742062652060448201527f636f6d706c657465206265666f7265206368616e67696e67207468652064757260648201527f6174696f6e20666f7220746865206e657720706572696f640000000000000000608482015260a490fd5b503461000e57600036600319011261000e5760206102eb610f85565b503461000e57600036600319011261000e576040517f00000000000000000000000000000000000000000000000000000000000000006001600160a01b03168152602090f35b503461000e57600036600319011261000e576020600954604051908152f35b503461000e5760008060031936011261064557338152600e602052610e4f6040822054610e2a600260035414156110f2565b6002600355610e37610f85565b600955610e42610f70565b60085533610e61576112fe565b610e596001600355565b610618611428565b610e6a33611088565b338452600c6020526040842055600954600b60205260408420556112fe565b503461000e57600036600319011261000e576020600554604051908152f35b503461000e5760a036600319011261000e57610ec261029b565b50610ecb6102b1565b5060843567ffffffffffffffff811161000e57610eec903690600401610b74565b5060405163f23a6e6160e01b8152602090f35b6000546001600160a01b03163303610f1357565b60405162461bcd60e51b815260206004820152602f60248201527f4f6e6c792074686520636f6e7472616374206f776e6572206d6179207065726660448201526e37b936903a3434b99030b1ba34b7b760891b6064820152608490fd5b600554804210600014610f8257504290565b90565b600d54801561100857610fd560095491610fb5610fa0610f70565b600854808210610ffb575b6006549103611049565b670de0b6b3a7640000908060001904821181151516610fee575b02611068565b9081198111610fe2570190565b610fea61100f565b0190565b610ff661100f565b610fcf565b61100361100f565b610fab565b5060095490565b50634e487b7160e01b600052601160045260246000fd5b81198111610fe2570190565b81811061103d570390565b61104561100f565b0390565b806000190482118115151661105c570290565b61106461100f565b0290565b8115611072570490565b634e487b7160e01b600052601260045260246000fd5b610f829060018060a01b031660406000828152600e602052670de0b6b3a76400006110d4838320546110b8610f85565b868552600b60205285852054908181106110e5575b0390611049565b04928152600c602052205490611026565b6110ed61100f565b6110cd565b156110f957565b60405162461bcd60e51b815260206004820152601f60248201527f5265656e7472616e637947756172643a207265656e7472616e742063616c6c006044820152606490fd5b1561114557565b60405162461bcd60e51b815260206004820152600e60248201526d043616e6e6f74207374616b6520360941b6044820152606490fd5b506040513d6000823e3d90fd5b61119381151561113e565b6111a76111a282600d54611026565b600d55565b336000908152600e602052604090206111c290829054611026565b336000908152600e6020526040902055600a547f00000000000000000000000000000000000000000000000000000000000000006001600160a01b0316803b1561000e57604051637921219560e11b815233600482015230602482015260448101929092526064820183905260a06084830152600060a4830181905290829060c490829084905af180156112b1575b611298575b50600a5460408051918252602082019290925233917f1449c6dd7851abc30abf37f57715f492010519147cc2652fbc38202c18a6ee909190819081015b0390a2565b806112a56112ab92610abc565b806103f2565b38611256565b6112b961117b565b611251565b156112c557565b60405162461bcd60e51b8152602060048201526011602482015270043616e6e6f74207769746864726177203607c1b6044820152606490fd5b6113098115156112be565b6113186111a282600d54611032565b336000908152600e6020526040902061133390829054611032565b336000908152600e6020526040902055600a547f00000000000000000000000000000000000000000000000000000000000000006001600160a01b0316803b1561000e57604051637921219560e11b815230600482015233602482015260448101929092526064820183905260a06084830152600060a4830181905290829060c490829084905af1801561141b575b611408575b50600a5460408051918252602082019290925233917f92ccf450a286a957af52509bc1c9939d1a6a481783e142e41e2499f0bb66ebc6919081908101611293565b806112a561141592610abc565b386113c7565b61142361117b565b6113c2565b611437600260035414156110f2565b6002600355611444610f85565b60095561144f610f70565b60085533611467575b611460611492565b6001600355565b61147033611088565b33600052600c602052604060002055600954600b602052604060002055611458565b33600052600c602052604060002054806114a95750565b600060408120556114db81337f0000000000000000000000000000000000000000000000000000000000000000611509565b6040519081527fe2403640ba68fed3a2f88b7557551d1993f84b99bb10ff833f0cf8db0c5e048660203392a2565b600091826044926020956040519363a9059cbb60e01b8552600485015260248401525af13d15601f3d116001600051141617161561154357565b60405162461bcd60e51b815260206004820152600f60248201526e1514905394d1915497d19052531151608a1b6044820152606490fd5b9081602091031261000e575190565b1561159057565b60405162461bcd60e51b815260206004820152601860248201527f50726f76696465642072657761726420746f6f206869676800000000000000006044820152606490fd5b6005547fde88a922e0d3b88b24e9623efeb464919c6bf9f66857a65e2bfcf2ce87a9433d916116b8914281116116f8575061161a61161560075483611068565b600655565b6040516370a0823160e01b815230600482015261168b906020816024816001600160a01b037f0000000000000000000000000000000000000000000000000000000000000000165afa9081156116eb575b6000916116bd575b506116846006549160075490611068565b1015611589565b61169442600855565b6116a86116a360075442611026565b600555565b6040519081529081906020820190565b0390a1565b6116de915060203d81116116e4575b6116d68183610add565b81019061157a565b38611673565b503d6116cc565b6116f361117b565b61166b565b61161561171e61171861170f611727944290611032565b60065490611049565b84611026565b60075490611068565b61161a56fea264697066735822122060f53ebb46d0319544656da2d951ac1fad45d5171c3778630c55cd2e18f001ae64736f6c634300080f0033",
    "linkReferences": {}
  },
  "methodIdentifiers": {
    "acceptOwnership()": "79ba5097",
    "balanceOf(address)": "70a08231",
    "earned(address)": "008cc262",
    "exit()": "e9fad8ee",
    "getReward()": "3d18b912",
    "getRewardForDuration()": "1c1f78eb",
    "lastTimeRewardApplicable()": "80faa57d",
    "lastUpdateTime()": "c8f33c91",
    "nominateNewOwner(address)": "1627540c",
    "nominatedOwner()": "53a47bb7",
    "notifyRewardAmount(uint256)": "3c6b16ab",
    "onERC1155BatchReceived(address,address,uint256[],uint256[],bytes)": "bc197c81",
    "onERC1155Received(address,address,uint256,uint256,bytes)": "f23a6e61",
    "owner()": "8da5cb5b",
    "paused()": "5c975abb",
    "periodFinish()": "ebe2b12b",
    "recoverERC20(address,uint256)": "8980f11f",
    "rewardPerToken()": "cd3daf9d",
    "rewardPerTokenStored()": "df136d65",
    "rewardRate()": "7b0a47ee",
    "rewards(address)": "0700037d",
    "rewardsDistribution()": "3fc6df6e",
    "rewardsDuration()": "386a9525",
    "rewardsToken()": "d1af0c7d",
    "setRewardsDistribution(address)": "19762143",
    "setRewardsDuration(uint256)": "cc1a378f",
    "stake(uint256)": "a694fc3a",
    "stakingToken()": "72f702f3",
    "supportsInterface(bytes4)": "01ffc9a7",
    "totalSupply()": "18160ddd",
    "userRewardPerTokenPaid(address)": "8b876347",
    "withdraw(uint256)": "2e1a7d4d"
  },
  "id": 35
}