{
  "abi": [
    {
      "inputs": [
        {
          "internalType": "address",
          "name": "_owner",
          "type": "address"
        },
        {
          "internalType": "address",
          "name": "_rewardsDistribution",
          "type": "address"
        },
        {
          "internalType": "address",
          "name": "_rewardsToken",
          "type": "address"
        },
        {
          "internalType": "address",
          "name": "_stakingToken",
          "type": "address"
        },
        {
          "internalType": "uint256",
          "name": "_id",
          "type": "uint256"
        }
      ],
      "stateMutability": "nonpayable",
      "type": "constructor"
    },
    {
      "anonymous": false,
      "inputs": [
        {
          "indexed": false,
          "internalType": "address",
          "name": "oldOwner",
          "type": "address"
        },
        {
          "indexed": false,
          "internalType": "address",
          "name": "newOwner",
          "type": "address"
        }
      ],
      "name": "OwnerChanged",
      "type": "event"
    },
    {
      "anonymous": false,
      "inputs": [
        {
          "indexed": false,
          "internalType": "address",
          "name": "newOwner",
          "type": "address"
        }
      ],
      "name": "OwnerNominated",
      "type": "event"
    },
    {
      "anonymous": false,
      "inputs": [
        {
          "indexed": false,
          "internalType": "address",
          "name": "account",
          "type": "address"
        }
      ],
      "name": "Paused",
      "type": "event"
    },
    {
      "anonymous": false,
      "inputs": [
        {
          "indexed": false,
          "internalType": "address",
          "name": "token",
          "type": "address"
        },
        {
          "indexed": false,
          "internalType": "uint256",
          "name": "amount",
          "type": "uint256"
        }
      ],
      "name": "Recovered",
      "type": "event"
    },
    {
      "anonymous": false,
      "inputs": [
        {
          "indexed": false,
          "internalType": "uint256",
          "name": "reward",
          "type": "uint256"
        }
      ],
      "name": "RewardAdded",
      "type": "event"
    },
    {
      "anonymous": false,
      "inputs": [
        {
          "indexed": true,
          "internalType": "address",
          "name": "user",
          "type": "address"
        },
        {
          "indexed": false,
          "internalType": "uint256",
          "name": "reward",
          "type": "uint256"
        }
      ],
      "name": "RewardPaid",
      "type": "event"
    },
    {
      "anonymous": false,
      "inputs": [
        {
          "indexed": false,
          "internalType": "uint256",
          "name": "newDuration",
          "type": "uint256"
        }
      ],
      "name": "RewardsDurationUpdated",
      "type": "event"
    },
    {
      "anonymous": false,
      "inputs": [
        {
          "indexed": true,
          "internalType": "address",
          "name": "user",
          "type": "address"
        },
        {
          "indexed": false,
          "internalType": "uint256",
          "name": "id",
          "type": "uint256"
        },
        {
          "indexed": false,
          "internalType": "uint256",
          "name": "amount",
          "type": "uint256"
        }
      ],
      "name": "Staked",
      "type": "event"
    },
    {
      "anonymous": false,
      "inputs": [
        {
          "indexed": false,
          "internalType": "address",
          "name": "account",
          "type": "address"
        }
      ],
      "name": "Unpaused",
      "type": "event"
    },
    {
      "anonymous": false,
      "inputs": [
        {
          "indexed": true,
          "internalType": "address",
          "name": "user",
          "type": "address"
        },
        {
          "indexed": false,
          "internalType": "uint256",
          "name": "id",
          "type": "uint256"
        },
        {
          "indexed": false,
          "internalType": "uint256",
          "name": "amount",
          "type": "uint256"
        }
      ],
      "name": "Withdrawn",
      "type": "event"
    },
    {
      "inputs": [],
      "name": "acceptOwnership",
      "outputs": [],
      "stateMutability": "nonpayable",
      "type": "function"
    },
    {
      "inputs": [
        {
          "internalType": "address",
          "name": "account",
          "type": "address"
        }
      ],
      "name": "balanceOf",
      "outputs": [
        {
          "internalType": "uint256",
          "name": "",
          "type": "uint256"
        }
      ],
      "stateMutability": "view",
      "type": "function"
    },
    {
      "inputs": [
        {
          "internalType": "address",
          "name": "account",
          "type": "address"
        }
      ],
      "name": "earned",
      "outputs": [
        {
          "internalType": "uint256",
          "name": "",
          "type": "uint256"
        }
      ],
      "stateMutability": "view",
      "type": "function"
    },
    {
      "inputs": [],
      "name": "exit",
      "outputs": [],
      "stateMutability": "nonpayable",
      "type": "function"
    },
    {
      "inputs": [],
      "name": "getReward",
      "outputs": [],
      "stateMutability": "nonpayable",
      "type": "function"
    },
    {
      "inputs": [],
      "name": "getRewardForDuration",
      "outputs": [
        {
          "internalType": "uint256",
          "name": "",
          "type": "uint256"
        }
      ],
      "stateMutability": "view",
      "type": "function"
    },
    {
      "inputs": [],
      "name": "lastTimeRewardApplicable",
      "outputs": [
        {
          "internalType": "uint256",
          "name": "",
          "type": "uint256"
        }
      ],
      "stateMutability": "view",
      "type": "function"
    },
    {
      "inputs": [],
      "name": "lastUpdateTime",
      "outputs": [
        {
          "internalType": "uint256",
          "name": "",
          "type": "uint256"
        }
      ],
      "stateMutability": "view",
      "type": "function"
    },
    {
      "inputs": [
        {
          "internalType": "address",
          "name": "_owner",
          "type": "address"
        }
      ],
      "name": "nominateNewOwner",
      "outputs": [],
      "stateMutability": "nonpayable",
      "type": "function"
    },
    {
      "inputs": [],
      "name": "nominatedOwner",
      "outputs": [
        {
          "internalType": "address",
          "name": "",
          "type": "address"
        }
      ],
      "stateMutability": "view",
      "type": "function"
    },
    {
      "inputs": [
        {
          "internalType": "uint256",
          "name": "reward",
          "type": "uint256"
        }
      ],
      "name": "notifyRewardAmount",
      "outputs": [],
      "stateMutability": "nonpayable",
      "type": "function"
    },
    {
      "inputs": [
        {
          "internalType": "address",
          "name": "",
          "type": "address"
        },
        {
          "internalType": "address",
          "name": "",
          "type": "address"
        },
        {
          "internalType": "uint256[]",
          "name": "",
          "type": "uint256[]"
        },
        {
          "internalType": "uint256[]",
          "name": "",
          "type": "uint256[]"
        },
        {
          "internalType": "bytes",
          "name": "",
          "type": "bytes"
        }
      ],
      "name": "onERC1155BatchReceived",
      "outputs": [
        {
          "internalType": "bytes4",
          "name": "",
          "type": "bytes4"
        }
      ],
      "stateMutability": "nonpayable",
      "type": "function"
    },
    {
      "inputs": [
        {
          "internalType": "address",
          "name": "",
          "type": "address"
        },
        {
          "internalType": "address",
          "name": "",
          "type": "address"
        },
        {
          "internalType": "uint256",
          "name": "",
          "type": "uint256"
        },
        {
          "internalType": "uint256",
          "name": "",
          "type": "uint256"
        },
        {
          "internalType": "bytes",
          "name": "",
          "type": "bytes"
        }
      ],
      "name": "onERC1155Received",
      "outputs": [
        {
          "internalType": "bytes4",
          "name": "",
          "type": "bytes4"
        }
      ],
      "stateMutability": "nonpayable",
      "type": "function"
    },
    {
      "inputs": [],
      "name": "owner",
      "outputs": [
        {
          "internalType": "address",
          "name": "",
          "type": "address"
        }
      ],
      "stateMutability": "view",
      "type": "function"
    },
    {
      "inputs": [],
      "name": "paused",
      "outputs": [
        {
          "internalType": "bool",
          "name": "",
          "type": "bool"
        }
      ],
      "stateMutability": "view",
      "type": "function"
    },
    {
      "inputs": [],
      "name": "periodFinish",
      "outputs": [
        {
          "internalType": "uint256",
          "name": "",
          "type": "uint256"
        }
      ],
      "stateMutability": "view",
      "type": "function"
    },
    {
      "inputs": [
        {
          "internalType": "address",
          "name": "tokenAddress",
          "type": "address"
        },
        {
          "internalType": "uint256",
          "name": "tokenAmount",
          "type": "uint256"
        }
      ],
      "name": "recoverERC20",
      "outputs": [],
      "stateMutability": "nonpayable",
      "type": "function"
    },
    {
      "inputs": [],
      "name": "rewardPerToken",
      "outputs": [
        {
          "internalType": "uint256",
          "name": "",
          "type": "uint256"
        }
      ],
      "stateMutability": "view",
      "type": "function"
    },
    {
      "inputs": [],
      "name": "rewardPerTokenStored",
      "outputs": [
        {
          "internalType": "uint256",
          "name": "",
          "type": "uint256"
        }
      ],
      "stateMutability": "view",
      "type": "function"
    },
    {
      "inputs": [],
      "name": "rewardRate",
      "outputs": [
        {
          "internalType": "uint256",
          "name": "",
          "type": "uint256"
        }
      ],
      "stateMutability": "view",
      "type": "function"
    },
    {
      "inputs": [
        {
          "internalType": "address",
          "name": "",
          "type": "address"
        }
      ],
      "name": "rewards",
      "outputs": [
        {
          "internalType": "uint256",
          "name": "",
          "type": "uint256"
        }
      ],
      "stateMutability": "view",
      "type": "function"
    },
    {
      "inputs": [],
      "name": "rewardsDistribution",
      "outputs": [
        {
          "internalType": "address",
          "name": "",
          "type": "address"
        }
      ],
      "stateMutability": "view",
      "type": "function"
    },
    {
      "inputs": [],
      "name": "rewardsDuration",
      "outputs": [
        {
          "internalType": "uint256",
          "name": "",
          "type": "uint256"
        }
      ],
      "stateMutability": "view",
      "type": "function"
    },
    {
      "inputs": [],
      "name": "rewardsToken",
      "outputs": [
        {
          "internalType": "contract ERC20",
          "name": "",
          "type": "address"
        }
      ],
      "stateMutability": "view",
      "type": "function"
    },
    {
      "inputs": [
        {
          "internalType": "address",
          "name": "_rewardsDistribution",
          "type": "address"
        }
      ],
      "name": "setRewardsDistribution",
      "outputs": [],
      "stateMutability": "nonpayable",
      "type": "function"
    },
    {
      "inputs": [
        {
          "internalType": "uint256",
          "name": "_rewardsDuration",
          "type": "uint256"
        }
      ],
      "name": "setRewardsDuration",
      "outputs": [],
      "stateMutability": "nonpayable",
      "type": "function"
    },
    {
      "inputs": [
        {
          "internalType": "uint256",
          "name": "amount",
          "type": "uint256"
        }
      ],
      "name": "stake",
      "outputs": [],
      "stateMutability": "nonpayable",
      "type": "function"
    },
    {
      "inputs": [],
      "name": "stakingToken",
      "outputs": [
        {
          "internalType": "contract IERC1155",
          "name": "",
          "type": "address"
        }
      ],
      "stateMutability": "view",
      "type": "function"
    },
    {
      "inputs": [
        {
          "internalType": "bytes4",
          "name": "interfaceId",
          "type": "bytes4"
        }
      ],
      "name": "supportsInterface",
      "outputs": [
        {
          "internalType": "bool",
          "name": "",
          "type": "bool"
        }
      ],
      "stateMutability": "view",
      "type": "function"
    },
    {
      "inputs": [],
      "name": "totalSupply",
      "outputs": [
        {
          "internalType": "uint256",
          "name": "",
          "type": "uint256"
        }
      ],
      "stateMutability": "view",
      "type": "function"
    },
    {
      "inputs": [
        {
          "internalType": "address",
          "name": "",
          "type": "address"
        }
      ],
      "name": "userRewardPerTokenPaid",
      "outputs": [
        {
          "internalType": "uint256",
          "name": "",
          "type": "uint256"
        }
      ],
      "stateMutability": "view",
      "type": "function"
    },
    {
      "inputs": [
        {
          "internalType": "uint256",
          "name": "amount",
          "type": "uint256"
        }
      ],
      "name": "withdraw",
      "outputs": [],
      "stateMutability": "nonpayable",
      "type": "function"
    }
  ],
  "bytecode": {
    "object": "0x60c06040526000600555600a60065562093a806007553480156200002257600080fd5b50604051620017eb380380620017eb83398101604081905262000045916200015b565b846001600160a01b038116620000a15760405162461bcd60e51b815260206004820152601960248201527f4f776e657220616464726573732063616e6e6f74206265203000000000000000604482015260640160405180910390fd5b600080546001600160a01b0319166001600160a01b03831690811782556040805192835260208301919091527fb532073b38c83145e3e5135377a08bf9aab55bc0fd7c1179cd4fb995d2a5159c910160405180910390a15060016003556004805460ff191690556001600160a01b0392831660805290821660a052600280546001600160a01b03191693909216929092179055600a5550620001c2565b80516001600160a01b03811681146200015657600080fd5b919050565b600080600080600060a086880312156200017457600080fd5b6200017f866200013e565b94506200018f602087016200013e565b93506200019f604087016200013e565b9250620001af606087016200013e565b9150608086015190509295509295909350565b60805160a0516115e06200020b600039600081816103430152818161070a01528181610c530152610e95015260008181610438015281816109070152610ade01526115e06000f3fe608060405234801561001057600080fd5b50600436106101ef5760003560e01c806379ba50971161010f578063c8f33c91116100a2578063df136d6511610071578063df136d651461045a578063e9fad8ee14610463578063ebe2b12b1461046b578063f23a6e611461047457600080fd5b8063c8f33c911461040f578063cc1a378f14610418578063cd3daf9d1461042b578063d1af0c7d1461043357600080fd5b80638b876347116100de5780638b876347146103915780638da5cb5b146103b1578063a694fc3a146103c4578063bc197c81146103d757600080fd5b806379ba5097146103655780637b0a47ee1461036d57806380faa57d146103765780638980f11f1461037e57600080fd5b8063386a95251161018757806353a47bb71161015657806353a47bb7146102f75780635c975abb1461030a57806370a082311461031557806372f702f31461033e57600080fd5b8063386a9525146102a85780633c6b16ab146102b15780633d18b912146102c45780633fc6df6e146102cc57600080fd5b806318160ddd116101c357806318160ddd14610272578063197621431461027a5780631c1f78eb1461028d5780632e1a7d4d1461029557600080fd5b80628cc262146101f457806301ffc9a71461021a5780630700037d1461023d5780631627540c1461025d575b600080fd5b6102076102023660046111ce565b610493565b6040519081526020015b60405180910390f35b61022d6102283660046111e9565b610511565b6040519015158152602001610211565b61020761024b3660046111ce565b600c6020526000908152604090205481565b61027061026b3660046111ce565b610546565b005b600d54610207565b6102706102883660046111ce565b6105a3565b6102076105cd565b6102706102a3366004611213565b6105eb565b61020760075481565b6102706102bf366004611213565b6107c4565b610270610a30565b6002546102df906001600160a01b031681565b6040516001600160a01b039091168152602001610211565b6001546102df906001600160a01b031681565b60045460ff1661022d565b6102076103233660046111ce565b6001600160a01b03166000908152600e602052604090205490565b6102df7f000000000000000000000000000000000000000000000000000000000000000081565b610270610b48565b61020760065481565b610207610c32565b61027061038c36600461122c565b610c49565b61020761039f3660046111ce565b600b6020526000908152604090205481565b6000546102df906001600160a01b031681565b6102706103d2366004611213565b610d3c565b6103f66103e536600461138d565b63bc197c8160e01b95945050505050565b6040516001600160e01b03199091168152602001610211565b61020760085481565b610270610426366004611213565b610f43565b61020761101d565b6102df7f000000000000000000000000000000000000000000000000000000000000000081565b61020760095481565b610270611068565b61020760055481565b6103f6610482366004611437565b63f23a6e6160e01b95945050505050565b6001600160a01b0381166000908152600c6020908152604080832054600b90925282205461050b919061050590670de0b6b3a7640000906104ff906104e0906104da61101d565b9061108b565b6001600160a01b0388166000908152600e60205260409020549061109e565b906110aa565b906110b6565b92915050565b60006001600160e01b03198216630271189760e51b148061050b57506301ffc9a760e01b6001600160e01b031983161461050b565b61054e6110c2565b600180546001600160a01b0319166001600160a01b0383169081179091556040519081527f906a1c6bd7e3091ea86693dd029a831c19049ce77f1dce2ce0bab1cacbabce22906020015b60405180910390a150565b6105ab6110c2565b600280546001600160a01b0319166001600160a01b0392909216919091179055565b60006105e660075460065461109e90919063ffffffff16565b905090565b6002600354036106165760405162461bcd60e51b815260040161060d9061149c565b60405180910390fd5b60026003553361062461101d565b60095561062f610c32565b6008556001600160a01b038116156106765761064a81610493565b6001600160a01b0382166000908152600c6020908152604080832093909355600954600b909152919020555b600082116106ba5760405162461bcd60e51b8152602060048201526011602482015270043616e6e6f74207769746864726177203607c1b604482015260640161060d565b600d546106c7908361108b565b600d55336000908152600e60205260409020546106e4908361108b565b336000818152600e60205260409081902092909255600a549151637921219560e11b81527f00000000000000000000000000000000000000000000000000000000000000006001600160a01b03169263f242432a9261074a9230929088906004016114d3565b600060405180830381600087803b15801561076457600080fd5b505af1158015610778573d6000803e3d6000fd5b5050600a5460408051918252602082018690523393507f92ccf450a286a957af52509bc1c9939d1a6a481783e142e41e2499f0bb66ebc69250015b60405180910390a250506001600355565b6002546001600160a01b031633146108315760405162461bcd60e51b815260206004820152602a60248201527f43616c6c6572206973206e6f742052657761726473446973747269627574696f6044820152691b8818dbdb9d1c9858dd60b21b606482015260840161060d565b600061083b61101d565b600955610846610c32565b6008556001600160a01b0381161561088d5761086181610493565b6001600160a01b0382166000908152600c6020908152604080832093909355600954600b909152919020555b60055442106108ac576007546108a49083906110aa565b6006556108ef565b6005546000906108bc904261108b565b905060006108d56006548361109e90919063ffffffff16565b6007549091506108e9906104ff86846110b6565b60065550505b6040516370a0823160e01b81523060048201526000907f00000000000000000000000000000000000000000000000000000000000000006001600160a01b0316906370a0823190602401602060405180830381865afa158015610956573d6000803e3d6000fd5b505050506040513d601f19601f8201168201806040525081019061097a919061150b565b9050610991600754826110aa90919063ffffffff16565b60065411156109e25760405162461bcd60e51b815260206004820152601860248201527f50726f76696465642072657761726420746f6f20686967680000000000000000604482015260640161060d565b4260088190556007546109f591906110b6565b6005556040518381527fde88a922e0d3b88b24e9623efeb464919c6bf9f66857a65e2bfcf2ce87a9433d9060200160405180910390a1505050565b600260035403610a525760405162461bcd60e51b815260040161060d9061149c565b600260035533610a6061101d565b600955610a6b610c32565b6008556001600160a01b03811615610ab257610a8681610493565b6001600160a01b0382166000908152600c6020908152604080832093909355600954600b909152919020555b336000908152600c60205260409020548015610b3f57336000818152600c6020526040812055610b0d907f00000000000000000000000000000000000000000000000000000000000000006001600160a01b03169083611134565b60405181815233907fe2403640ba68fed3a2f88b7557551d1993f84b99bb10ff833f0cf8db0c5e0486906020016107b3565b50506001600355565b6001546001600160a01b03163314610bc05760405162461bcd60e51b815260206004820152603560248201527f596f75206d757374206265206e6f6d696e61746564206265666f726520796f7560448201527402063616e20616363657074206f776e65727368697605c1b606482015260840161060d565b600054600154604080516001600160a01b0393841681529290911660208301527fb532073b38c83145e3e5135377a08bf9aab55bc0fd7c1179cd4fb995d2a5159c910160405180910390a160018054600080546001600160a01b03199081166001600160a01b03841617909155169055565b60006005544210610c44575060055490565b504290565b610c516110c2565b7f00000000000000000000000000000000000000000000000000000000000000006001600160a01b0316826001600160a01b031603610cdc5760405162461bcd60e51b815260206004820152602160248201527f43616e6e6f7420776974686472617720746865207374616b696e6720746f6b656044820152603760f91b606482015260840161060d565b600054610cf6906001600160a01b03848116911683611134565b604080516001600160a01b0384168152602081018390527f8c1256b8896378cd5044f80c202f9772b9d77dc85c8a6eb51967210b09bfaa28910160405180910390a15050565b600260035403610d5e5760405162461bcd60e51b815260040161060d9061149c565b600260035560045460ff1615610da95760405162461bcd60e51b815260206004820152601060248201526f14185d5cd8589b194e881c185d5cd95960821b604482015260640161060d565b33610db261101d565b600955610dbd610c32565b6008556001600160a01b03811615610e0457610dd881610493565b6001600160a01b0382166000908152600c6020908152604080832093909355600954600b909152919020555b81600003610e455760405162461bcd60e51b815260206004820152600e60248201526d043616e6e6f74207374616b6520360941b604482015260640161060d565b600d54610e5290836110b6565b600d55336000908152600e6020526040902054610e6f90836110b6565b336000818152600e60205260409081902092909255600a549151637921219560e11b81527f00000000000000000000000000000000000000000000000000000000000000006001600160a01b03169263f242432a92610ed6929091309188906004016114d3565b600060405180830381600087803b158015610ef057600080fd5b505af1158015610f04573d6000803e3d6000fd5b5050600a5460408051918252602082018690523393507f1449c6dd7851abc30abf37f57715f492010519147cc2652fbc38202c18a6ee909250016107b3565b610f4b6110c2565b6005544211610fe85760405162461bcd60e51b815260206004820152605860248201527f50726576696f7573207265776172647320706572696f64206d7573742062652060448201527f636f6d706c657465206265666f7265206368616e67696e67207468652064757260648201527f6174696f6e20666f7220746865206e657720706572696f640000000000000000608482015260a40161060d565b60078190556040518181527ffb46ca5a5e06d4540d6387b930a7c978bce0db5f449ec6b3f5d07c6e1d44f2d390602001610598565b6000600d54600003611030575060095490565b6105e661105f600d546104ff670de0b6b3a76400006110596006546110596008546104da610c32565b9061109e565b600954906110b6565b336000908152600e6020526040902054611081906105eb565b611089610a30565b565b6000611097828461153a565b9392505050565b60006110978284611551565b60006110978284611570565b60006110978284611592565b6000546001600160a01b031633146110895760405162461bcd60e51b815260206004820152602f60248201527f4f6e6c792074686520636f6e7472616374206f776e6572206d6179207065726660448201526e37b936903a3434b99030b1ba34b7b760891b606482015260840161060d565b600060405163a9059cbb60e01b8152836004820152826024820152602060006044836000895af13d15601f3d11600160005114161716915050806111ac5760405162461bcd60e51b815260206004820152600f60248201526e1514905394d1915497d19052531151608a1b604482015260640161060d565b50505050565b80356001600160a01b03811681146111c957600080fd5b919050565b6000602082840312156111e057600080fd5b611097826111b2565b6000602082840312156111fb57600080fd5b81356001600160e01b03198116811461109757600080fd5b60006020828403121561122557600080fd5b5035919050565b6000806040838503121561123f57600080fd5b611248836111b2565b946020939093013593505050565b634e487b7160e01b600052604160045260246000fd5b604051601f8201601f1916810167ffffffffffffffff8111828210171561129557611295611256565b604052919050565b600082601f8301126112ae57600080fd5b8135602067ffffffffffffffff8211156112ca576112ca611256565b8160051b6112d982820161126c565b92835284810182019282810190878511156112f357600080fd5b83870192505b84831015611312578235825291830191908301906112f9565b979650505050505050565b600082601f83011261132e57600080fd5b813567ffffffffffffffff81111561134857611348611256565b61135b601f8201601f191660200161126c565b81815284602083860101111561137057600080fd5b816020850160208301376000918101602001919091529392505050565b600080600080600060a086880312156113a557600080fd5b6113ae866111b2565b94506113bc602087016111b2565b9350604086013567ffffffffffffffff808211156113d957600080fd5b6113e589838a0161129d565b945060608801359150808211156113fb57600080fd5b61140789838a0161129d565b9350608088013591508082111561141d57600080fd5b5061142a8882890161131d565b9150509295509295909350565b600080600080600060a0868803121561144f57600080fd5b611458866111b2565b9450611466602087016111b2565b93506040860135925060608601359150608086013567ffffffffffffffff81111561149057600080fd5b61142a8882890161131d565b6020808252601f908201527f5265656e7472616e637947756172643a207265656e7472616e742063616c6c00604082015260600190565b6001600160a01b0394851681529290931660208301526040820152606081019190915260a06080820181905260009082015260c00190565b60006020828403121561151d57600080fd5b5051919050565b634e487b7160e01b600052601160045260246000fd5b60008282101561154c5761154c611524565b500390565b600081600019048311821515161561156b5761156b611524565b500290565b60008261158d57634e487b7160e01b600052601260045260246000fd5b500490565b600082198211156115a5576115a5611524565b50019056fea264697066735822122044744187f85c698cd70c814034fd6baff9d335ed7f2fb8995ced2ca20f39cd2764736f6c634300080f0033",
    "linkReferences": {}
  },
  "methodIdentifiers": {
    "acceptOwnership()": "79ba5097",
    "balanceOf(address)": "70a08231",
    "earned(address)": "008cc262",
    "exit()": "e9fad8ee",
    "getReward()": "3d18b912",
    "getRewardForDuration()": "1c1f78eb",
    "lastTimeRewardApplicable()": "80faa57d",
    "lastUpdateTime()": "c8f33c91",
    "nominateNewOwner(address)": "1627540c",
    "nominatedOwner()": "53a47bb7",
    "notifyRewardAmount(uint256)": "3c6b16ab",
    "onERC1155BatchReceived(address,address,uint256[],uint256[],bytes)": "bc197c81",
    "onERC1155Received(address,address,uint256,uint256,bytes)": "f23a6e61",
    "owner()": "8da5cb5b",
    "paused()": "5c975abb",
    "periodFinish()": "ebe2b12b",
    "recoverERC20(address,uint256)": "8980f11f",
    "rewardPerToken()": "cd3daf9d",
    "rewardPerTokenStored()": "df136d65",
    "rewardRate()": "7b0a47ee",
    "rewards(address)": "0700037d",
    "rewardsDistribution()": "3fc6df6e",
    "rewardsDuration()": "386a9525",
    "rewardsToken()": "d1af0c7d",
    "setRewardsDistribution(address)": "19762143",
    "setRewardsDuration(uint256)": "cc1a378f",
    "stake(uint256)": "a694fc3a",
    "stakingToken()": "72f702f3",
    "supportsInterface(bytes4)": "01ffc9a7",
    "totalSupply()": "18160ddd",
    "userRewardPerTokenPaid(address)": "8b876347",
    "withdraw(uint256)": "2e1a7d4d"
  },
  "id": 37
}