{
  "abi": [
    {
      "inputs": [
        {
          "internalType": "address",
          "name": "_owner",
          "type": "address"
        },
        {
          "internalType": "address",
          "name": "_rewardsDistribution",
          "type": "address"
        },
        {
          "internalType": "address",
          "name": "_rewardsToken",
          "type": "address"
        },
        {
          "internalType": "address",
          "name": "_stakingToken",
          "type": "address"
        },
        {
          "internalType": "uint256",
          "name": "_id",
          "type": "uint256"
        }
      ],
      "stateMutability": "nonpayable",
      "type": "constructor"
    },
    {
      "anonymous": false,
      "inputs": [
        {
          "indexed": false,
          "internalType": "address",
          "name": "oldOwner",
          "type": "address"
        },
        {
          "indexed": false,
          "internalType": "address",
          "name": "newOwner",
          "type": "address"
        }
      ],
      "name": "OwnerChanged",
      "type": "event"
    },
    {
      "anonymous": false,
      "inputs": [
        {
          "indexed": false,
          "internalType": "address",
          "name": "newOwner",
          "type": "address"
        }
      ],
      "name": "OwnerNominated",
      "type": "event"
    },
    {
      "anonymous": false,
      "inputs": [
        {
          "indexed": false,
          "internalType": "address",
          "name": "account",
          "type": "address"
        }
      ],
      "name": "Paused",
      "type": "event"
    },
    {
      "anonymous": false,
      "inputs": [
        {
          "indexed": false,
          "internalType": "address",
          "name": "token",
          "type": "address"
        },
        {
          "indexed": false,
          "internalType": "uint256",
          "name": "amount",
          "type": "uint256"
        }
      ],
      "name": "Recovered",
      "type": "event"
    },
    {
      "anonymous": false,
      "inputs": [
        {
          "indexed": false,
          "internalType": "uint256",
          "name": "reward",
          "type": "uint256"
        }
      ],
      "name": "RewardAdded",
      "type": "event"
    },
    {
      "anonymous": false,
      "inputs": [
        {
          "indexed": true,
          "internalType": "address",
          "name": "user",
          "type": "address"
        },
        {
          "indexed": false,
          "internalType": "uint256",
          "name": "reward",
          "type": "uint256"
        }
      ],
      "name": "RewardPaid",
      "type": "event"
    },
    {
      "anonymous": false,
      "inputs": [
        {
          "indexed": false,
          "internalType": "uint256",
          "name": "newDuration",
          "type": "uint256"
        }
      ],
      "name": "RewardsDurationUpdated",
      "type": "event"
    },
    {
      "anonymous": false,
      "inputs": [
        {
          "indexed": true,
          "internalType": "address",
          "name": "user",
          "type": "address"
        },
        {
          "indexed": false,
          "internalType": "uint256",
          "name": "id",
          "type": "uint256"
        },
        {
          "indexed": false,
          "internalType": "uint256",
          "name": "amount",
          "type": "uint256"
        }
      ],
      "name": "Staked",
      "type": "event"
    },
    {
      "anonymous": false,
      "inputs": [
        {
          "indexed": false,
          "internalType": "address",
          "name": "account",
          "type": "address"
        }
      ],
      "name": "Unpaused",
      "type": "event"
    },
    {
      "anonymous": false,
      "inputs": [
        {
          "indexed": true,
          "internalType": "address",
          "name": "user",
          "type": "address"
        },
        {
          "indexed": false,
          "internalType": "uint256",
          "name": "id",
          "type": "uint256"
        },
        {
          "indexed": false,
          "internalType": "uint256",
          "name": "amount",
          "type": "uint256"
        }
      ],
      "name": "Withdrawn",
      "type": "event"
    },
    {
      "inputs": [],
      "name": "acceptOwnership",
      "outputs": [],
      "stateMutability": "nonpayable",
      "type": "function"
    },
    {
      "inputs": [
        {
          "internalType": "address",
          "name": "account",
          "type": "address"
        }
      ],
      "name": "balanceOf",
      "outputs": [
        {
          "internalType": "uint256",
          "name": "",
          "type": "uint256"
        }
      ],
      "stateMutability": "view",
      "type": "function"
    },
    {
      "inputs": [
        {
          "internalType": "address",
          "name": "account",
          "type": "address"
        }
      ],
      "name": "earned",
      "outputs": [
        {
          "internalType": "uint256",
          "name": "",
          "type": "uint256"
        }
      ],
      "stateMutability": "view",
      "type": "function"
    },
    {
      "inputs": [],
      "name": "exit",
      "outputs": [],
      "stateMutability": "nonpayable",
      "type": "function"
    },
    {
      "inputs": [],
      "name": "getReward",
      "outputs": [],
      "stateMutability": "nonpayable",
      "type": "function"
    },
    {
      "inputs": [],
      "name": "getRewardForDuration",
      "outputs": [
        {
          "internalType": "uint256",
          "name": "",
          "type": "uint256"
        }
      ],
      "stateMutability": "view",
      "type": "function"
    },
    {
      "inputs": [],
      "name": "id",
      "outputs": [
        {
          "internalType": "uint256",
          "name": "",
          "type": "uint256"
        }
      ],
      "stateMutability": "view",
      "type": "function"
    },
    {
      "inputs": [],
      "name": "lastTimeRewardApplicable",
      "outputs": [
        {
          "internalType": "uint256",
          "name": "",
          "type": "uint256"
        }
      ],
      "stateMutability": "view",
      "type": "function"
    },
    {
      "inputs": [],
      "name": "lastUpdateTime",
      "outputs": [
        {
          "internalType": "uint256",
          "name": "",
          "type": "uint256"
        }
      ],
      "stateMutability": "view",
      "type": "function"
    },
    {
      "inputs": [
        {
          "internalType": "address",
          "name": "_owner",
          "type": "address"
        }
      ],
      "name": "nominateNewOwner",
      "outputs": [],
      "stateMutability": "nonpayable",
      "type": "function"
    },
    {
      "inputs": [],
      "name": "nominatedOwner",
      "outputs": [
        {
          "internalType": "address",
          "name": "",
          "type": "address"
        }
      ],
      "stateMutability": "view",
      "type": "function"
    },
    {
      "inputs": [
        {
          "internalType": "uint256",
          "name": "reward",
          "type": "uint256"
        }
      ],
      "name": "notifyRewardAmount",
      "outputs": [],
      "stateMutability": "nonpayable",
      "type": "function"
    },
    {
      "inputs": [
        {
          "internalType": "address",
          "name": "",
          "type": "address"
        },
        {
          "internalType": "address",
          "name": "",
          "type": "address"
        },
        {
          "internalType": "uint256[]",
          "name": "",
          "type": "uint256[]"
        },
        {
          "internalType": "uint256[]",
          "name": "",
          "type": "uint256[]"
        },
        {
          "internalType": "bytes",
          "name": "",
          "type": "bytes"
        }
      ],
      "name": "onERC1155BatchReceived",
      "outputs": [
        {
          "internalType": "bytes4",
          "name": "",
          "type": "bytes4"
        }
      ],
      "stateMutability": "nonpayable",
      "type": "function"
    },
    {
      "inputs": [
        {
          "internalType": "address",
          "name": "",
          "type": "address"
        },
        {
          "internalType": "address",
          "name": "",
          "type": "address"
        },
        {
          "internalType": "uint256",
          "name": "",
          "type": "uint256"
        },
        {
          "internalType": "uint256",
          "name": "",
          "type": "uint256"
        },
        {
          "internalType": "bytes",
          "name": "",
          "type": "bytes"
        }
      ],
      "name": "onERC1155Received",
      "outputs": [
        {
          "internalType": "bytes4",
          "name": "",
          "type": "bytes4"
        }
      ],
      "stateMutability": "nonpayable",
      "type": "function"
    },
    {
      "inputs": [],
      "name": "owner",
      "outputs": [
        {
          "internalType": "address",
          "name": "",
          "type": "address"
        }
      ],
      "stateMutability": "view",
      "type": "function"
    },
    {
      "inputs": [],
      "name": "paused",
      "outputs": [
        {
          "internalType": "bool",
          "name": "",
          "type": "bool"
        }
      ],
      "stateMutability": "view",
      "type": "function"
    },
    {
      "inputs": [],
      "name": "periodFinish",
      "outputs": [
        {
          "internalType": "uint256",
          "name": "",
          "type": "uint256"
        }
      ],
      "stateMutability": "view",
      "type": "function"
    },
    {
      "inputs": [
        {
          "internalType": "address",
          "name": "tokenAddress",
          "type": "address"
        },
        {
          "internalType": "uint256",
          "name": "tokenAmount",
          "type": "uint256"
        }
      ],
      "name": "recoverERC20",
      "outputs": [],
      "stateMutability": "nonpayable",
      "type": "function"
    },
    {
      "inputs": [],
      "name": "rewardPerToken",
      "outputs": [
        {
          "internalType": "uint256",
          "name": "",
          "type": "uint256"
        }
      ],
      "stateMutability": "view",
      "type": "function"
    },
    {
      "inputs": [],
      "name": "rewardPerTokenStored",
      "outputs": [
        {
          "internalType": "uint256",
          "name": "",
          "type": "uint256"
        }
      ],
      "stateMutability": "view",
      "type": "function"
    },
    {
      "inputs": [],
      "name": "rewardRate",
      "outputs": [
        {
          "internalType": "uint256",
          "name": "",
          "type": "uint256"
        }
      ],
      "stateMutability": "view",
      "type": "function"
    },
    {
      "inputs": [
        {
          "internalType": "address",
          "name": "",
          "type": "address"
        }
      ],
      "name": "rewards",
      "outputs": [
        {
          "internalType": "uint256",
          "name": "",
          "type": "uint256"
        }
      ],
      "stateMutability": "view",
      "type": "function"
    },
    {
      "inputs": [],
      "name": "rewardsDistribution",
      "outputs": [
        {
          "internalType": "address",
          "name": "",
          "type": "address"
        }
      ],
      "stateMutability": "view",
      "type": "function"
    },
    {
      "inputs": [],
      "name": "rewardsDuration",
      "outputs": [
        {
          "internalType": "uint256",
          "name": "",
          "type": "uint256"
        }
      ],
      "stateMutability": "view",
      "type": "function"
    },
    {
      "inputs": [],
      "name": "rewardsToken",
      "outputs": [
        {
          "internalType": "contract ERC20",
          "name": "",
          "type": "address"
        }
      ],
      "stateMutability": "view",
      "type": "function"
    },
    {
      "inputs": [
        {
          "internalType": "address",
          "name": "_rewardsDistribution",
          "type": "address"
        }
      ],
      "name": "setRewardsDistribution",
      "outputs": [],
      "stateMutability": "nonpayable",
      "type": "function"
    },
    {
      "inputs": [
        {
          "internalType": "uint256",
          "name": "_rewardsDuration",
          "type": "uint256"
        }
      ],
      "name": "setRewardsDuration",
      "outputs": [],
      "stateMutability": "nonpayable",
      "type": "function"
    },
    {
      "inputs": [
        {
          "internalType": "uint256",
          "name": "amount",
          "type": "uint256"
        }
      ],
      "name": "stake",
      "outputs": [],
      "stateMutability": "nonpayable",
      "type": "function"
    },
    {
      "inputs": [],
      "name": "stakingToken",
      "outputs": [
        {
          "internalType": "contract IERC1155",
          "name": "",
          "type": "address"
        }
      ],
      "stateMutability": "view",
      "type": "function"
    },
    {
      "inputs": [
        {
          "internalType": "bytes4",
          "name": "interfaceId",
          "type": "bytes4"
        }
      ],
      "name": "supportsInterface",
      "outputs": [
        {
          "internalType": "bool",
          "name": "",
          "type": "bool"
        }
      ],
      "stateMutability": "view",
      "type": "function"
    },
    {
      "inputs": [],
      "name": "totalSupply",
      "outputs": [
        {
          "internalType": "uint256",
          "name": "",
          "type": "uint256"
        }
      ],
      "stateMutability": "view",
      "type": "function"
    },
    {
      "inputs": [
        {
          "internalType": "address",
          "name": "",
          "type": "address"
        }
      ],
      "name": "userRewardPerTokenPaid",
      "outputs": [
        {
          "internalType": "uint256",
          "name": "",
          "type": "uint256"
        }
      ],
      "stateMutability": "view",
      "type": "function"
    },
    {
      "inputs": [
        {
          "internalType": "uint256",
          "name": "amount",
          "type": "uint256"
        }
      ],
      "name": "withdraw",
      "outputs": [],
      "stateMutability": "nonpayable",
      "type": "function"
    }
  ],
  "bytecode": {
    "object": "0x60c06040526000600555600a60065562093a806007553480156200002257600080fd5b50604051620017ff380380620017ff83398101604081905262000045916200015b565b846001600160a01b038116620000a15760405162461bcd60e51b815260206004820152601960248201527f4f776e657220616464726573732063616e6e6f74206265203000000000000000604482015260640160405180910390fd5b600080546001600160a01b0319166001600160a01b03831690811782556040805192835260208301919091527fb532073b38c83145e3e5135377a08bf9aab55bc0fd7c1179cd4fb995d2a5159c910160405180910390a15060016003556004805460ff191690556001600160a01b0392831660805290821660a052600280546001600160a01b03191693909216929092179055600a5550620001c2565b80516001600160a01b03811681146200015657600080fd5b919050565b600080600080600060a086880312156200017457600080fd5b6200017f866200013e565b94506200018f602087016200013e565b93506200019f604087016200013e565b9250620001af606087016200013e565b9150608086015190509295509295909350565b60805160a0516115f46200020b6000396000818161034e0152818161071e01528181610c670152610ea901526000818161044c0152818161091b0152610af201526115f46000f3fe608060405234801561001057600080fd5b50600436106101fa5760003560e01c806379ba50971161011a578063bc197c81116100ad578063d1af0c7d1161007c578063d1af0c7d14610447578063df136d651461046e578063e9fad8ee14610477578063ebe2b12b1461047f578063f23a6e611461048857600080fd5b8063bc197c81146103eb578063c8f33c9114610423578063cc1a378f1461042c578063cd3daf9d1461043f57600080fd5b80638b876347116100e95780638b8763471461039c5780638da5cb5b146103bc578063a694fc3a146103cf578063af640d0f146103e257600080fd5b806379ba5097146103705780637b0a47ee1461037857806380faa57d146103815780638980f11f1461038957600080fd5b8063386a95251161019257806353a47bb71161016157806353a47bb7146103025780635c975abb1461031557806370a082311461032057806372f702f31461034957600080fd5b8063386a9525146102b35780633c6b16ab146102bc5780633d18b912146102cf5780633fc6df6e146102d757600080fd5b806318160ddd116101ce57806318160ddd1461027d57806319762143146102855780631c1f78eb146102985780632e1a7d4d146102a057600080fd5b80628cc262146101ff57806301ffc9a7146102255780630700037d146102485780631627540c14610268575b600080fd5b61021261020d3660046111e2565b6104a7565b6040519081526020015b60405180910390f35b6102386102333660046111fd565b610525565b604051901515815260200161021c565b6102126102563660046111e2565b600c6020526000908152604090205481565b61027b6102763660046111e2565b61055a565b005b600d54610212565b61027b6102933660046111e2565b6105b7565b6102126105e1565b61027b6102ae366004611227565b6105ff565b61021260075481565b61027b6102ca366004611227565b6107d8565b61027b610a44565b6002546102ea906001600160a01b031681565b6040516001600160a01b03909116815260200161021c565b6001546102ea906001600160a01b031681565b60045460ff16610238565b61021261032e3660046111e2565b6001600160a01b03166000908152600e602052604090205490565b6102ea7f000000000000000000000000000000000000000000000000000000000000000081565b61027b610b5c565b61021260065481565b610212610c46565b61027b610397366004611240565b610c5d565b6102126103aa3660046111e2565b600b6020526000908152604090205481565b6000546102ea906001600160a01b031681565b61027b6103dd366004611227565b610d50565b610212600a5481565b61040a6103f93660046113a1565b63bc197c8160e01b95945050505050565b6040516001600160e01b0319909116815260200161021c565b61021260085481565b61027b61043a366004611227565b610f57565b610212611031565b6102ea7f000000000000000000000000000000000000000000000000000000000000000081565b61021260095481565b61027b61107c565b61021260055481565b61040a61049636600461144b565b63f23a6e6160e01b95945050505050565b6001600160a01b0381166000908152600c6020908152604080832054600b90925282205461051f919061051990670de0b6b3a764000090610513906104f4906104ee611031565b9061109f565b6001600160a01b0388166000908152600e6020526040902054906110b2565b906110be565b906110ca565b92915050565b60006001600160e01b03198216630271189760e51b148061051f57506301ffc9a760e01b6001600160e01b031983161461051f565b6105626110d6565b600180546001600160a01b0319166001600160a01b0383169081179091556040519081527f906a1c6bd7e3091ea86693dd029a831c19049ce77f1dce2ce0bab1cacbabce22906020015b60405180910390a150565b6105bf6110d6565b600280546001600160a01b0319166001600160a01b0392909216919091179055565b60006105fa6007546006546110b290919063ffffffff16565b905090565b60026003540361062a5760405162461bcd60e51b8152600401610621906114b0565b60405180910390fd5b600260035533610638611031565b600955610643610c46565b6008556001600160a01b0381161561068a5761065e816104a7565b6001600160a01b0382166000908152600c6020908152604080832093909355600954600b909152919020555b600082116106ce5760405162461bcd60e51b8152602060048201526011602482015270043616e6e6f74207769746864726177203607c1b6044820152606401610621565b600d546106db908361109f565b600d55336000908152600e60205260409020546106f8908361109f565b336000818152600e60205260409081902092909255600a549151637921219560e11b81527f00000000000000000000000000000000000000000000000000000000000000006001600160a01b03169263f242432a9261075e9230929088906004016114e7565b600060405180830381600087803b15801561077857600080fd5b505af115801561078c573d6000803e3d6000fd5b5050600a5460408051918252602082018690523393507f92ccf450a286a957af52509bc1c9939d1a6a481783e142e41e2499f0bb66ebc69250015b60405180910390a250506001600355565b6002546001600160a01b031633146108455760405162461bcd60e51b815260206004820152602a60248201527f43616c6c6572206973206e6f742052657761726473446973747269627574696f6044820152691b8818dbdb9d1c9858dd60b21b6064820152608401610621565b600061084f611031565b60095561085a610c46565b6008556001600160a01b038116156108a157610875816104a7565b6001600160a01b0382166000908152600c6020908152604080832093909355600954600b909152919020555b60055442106108c0576007546108b89083906110be565b600655610903565b6005546000906108d0904261109f565b905060006108e9600654836110b290919063ffffffff16565b6007549091506108fd9061051386846110ca565b60065550505b6040516370a0823160e01b81523060048201526000907f00000000000000000000000000000000000000000000000000000000000000006001600160a01b0316906370a0823190602401602060405180830381865afa15801561096a573d6000803e3d6000fd5b505050506040513d601f19601f8201168201806040525081019061098e919061151f565b90506109a5600754826110be90919063ffffffff16565b60065411156109f65760405162461bcd60e51b815260206004820152601860248201527f50726f76696465642072657761726420746f6f206869676800000000000000006044820152606401610621565b426008819055600754610a0991906110ca565b6005556040518381527fde88a922e0d3b88b24e9623efeb464919c6bf9f66857a65e2bfcf2ce87a9433d9060200160405180910390a1505050565b600260035403610a665760405162461bcd60e51b8152600401610621906114b0565b600260035533610a74611031565b600955610a7f610c46565b6008556001600160a01b03811615610ac657610a9a816104a7565b6001600160a01b0382166000908152600c6020908152604080832093909355600954600b909152919020555b336000908152600c60205260409020548015610b5357336000818152600c6020526040812055610b21907f00000000000000000000000000000000000000000000000000000000000000006001600160a01b03169083611148565b60405181815233907fe2403640ba68fed3a2f88b7557551d1993f84b99bb10ff833f0cf8db0c5e0486906020016107c7565b50506001600355565b6001546001600160a01b03163314610bd45760405162461bcd60e51b815260206004820152603560248201527f596f75206d757374206265206e6f6d696e61746564206265666f726520796f7560448201527402063616e20616363657074206f776e65727368697605c1b6064820152608401610621565b600054600154604080516001600160a01b0393841681529290911660208301527fb532073b38c83145e3e5135377a08bf9aab55bc0fd7c1179cd4fb995d2a5159c910160405180910390a160018054600080546001600160a01b03199081166001600160a01b03841617909155169055565b60006005544210610c58575060055490565b504290565b610c656110d6565b7f00000000000000000000000000000000000000000000000000000000000000006001600160a01b0316826001600160a01b031603610cf05760405162461bcd60e51b815260206004820152602160248201527f43616e6e6f7420776974686472617720746865207374616b696e6720746f6b656044820152603760f91b6064820152608401610621565b600054610d0a906001600160a01b03848116911683611148565b604080516001600160a01b0384168152602081018390527f8c1256b8896378cd5044f80c202f9772b9d77dc85c8a6eb51967210b09bfaa28910160405180910390a15050565b600260035403610d725760405162461bcd60e51b8152600401610621906114b0565b600260035560045460ff1615610dbd5760405162461bcd60e51b815260206004820152601060248201526f14185d5cd8589b194e881c185d5cd95960821b6044820152606401610621565b33610dc6611031565b600955610dd1610c46565b6008556001600160a01b03811615610e1857610dec816104a7565b6001600160a01b0382166000908152600c6020908152604080832093909355600954600b909152919020555b81600003610e595760405162461bcd60e51b815260206004820152600e60248201526d043616e6e6f74207374616b6520360941b6044820152606401610621565b600d54610e6690836110ca565b600d55336000908152600e6020526040902054610e8390836110ca565b336000818152600e60205260409081902092909255600a549151637921219560e11b81527f00000000000000000000000000000000000000000000000000000000000000006001600160a01b03169263f242432a92610eea929091309188906004016114e7565b600060405180830381600087803b158015610f0457600080fd5b505af1158015610f18573d6000803e3d6000fd5b5050600a5460408051918252602082018690523393507f1449c6dd7851abc30abf37f57715f492010519147cc2652fbc38202c18a6ee909250016107c7565b610f5f6110d6565b6005544211610ffc5760405162461bcd60e51b815260206004820152605860248201527f50726576696f7573207265776172647320706572696f64206d7573742062652060448201527f636f6d706c657465206265666f7265206368616e67696e67207468652064757260648201527f6174696f6e20666f7220746865206e657720706572696f640000000000000000608482015260a401610621565b60078190556040518181527ffb46ca5a5e06d4540d6387b930a7c978bce0db5f449ec6b3f5d07c6e1d44f2d3906020016105ac565b6000600d54600003611044575060095490565b6105fa611073600d54610513670de0b6b3a764000061106d60065461106d6008546104ee610c46565b906110b2565b600954906110ca565b336000908152600e6020526040902054611095906105ff565b61109d610a44565b565b60006110ab828461154e565b9392505050565b60006110ab8284611565565b60006110ab8284611584565b60006110ab82846115a6565b6000546001600160a01b0316331461109d5760405162461bcd60e51b815260206004820152602f60248201527f4f6e6c792074686520636f6e7472616374206f776e6572206d6179207065726660448201526e37b936903a3434b99030b1ba34b7b760891b6064820152608401610621565b600060405163a9059cbb60e01b8152836004820152826024820152602060006044836000895af13d15601f3d11600160005114161716915050806111c05760405162461bcd60e51b815260206004820152600f60248201526e1514905394d1915497d19052531151608a1b6044820152606401610621565b50505050565b80356001600160a01b03811681146111dd57600080fd5b919050565b6000602082840312156111f457600080fd5b6110ab826111c6565b60006020828403121561120f57600080fd5b81356001600160e01b0319811681146110ab57600080fd5b60006020828403121561123957600080fd5b5035919050565b6000806040838503121561125357600080fd5b61125c836111c6565b946020939093013593505050565b634e487b7160e01b600052604160045260246000fd5b604051601f8201601f1916810167ffffffffffffffff811182821017156112a9576112a961126a565b604052919050565b600082601f8301126112c257600080fd5b8135602067ffffffffffffffff8211156112de576112de61126a565b8160051b6112ed828201611280565b928352848101820192828101908785111561130757600080fd5b83870192505b848310156113265782358252918301919083019061130d565b979650505050505050565b600082601f83011261134257600080fd5b813567ffffffffffffffff81111561135c5761135c61126a565b61136f601f8201601f1916602001611280565b81815284602083860101111561138457600080fd5b816020850160208301376000918101602001919091529392505050565b600080600080600060a086880312156113b957600080fd5b6113c2866111c6565b94506113d0602087016111c6565b9350604086013567ffffffffffffffff808211156113ed57600080fd5b6113f989838a016112b1565b9450606088013591508082111561140f57600080fd5b61141b89838a016112b1565b9350608088013591508082111561143157600080fd5b5061143e88828901611331565b9150509295509295909350565b600080600080600060a0868803121561146357600080fd5b61146c866111c6565b945061147a602087016111c6565b93506040860135925060608601359150608086013567ffffffffffffffff8111156114a457600080fd5b61143e88828901611331565b6020808252601f908201527f5265656e7472616e637947756172643a207265656e7472616e742063616c6c00604082015260600190565b6001600160a01b0394851681529290931660208301526040820152606081019190915260a06080820181905260009082015260c00190565b60006020828403121561153157600080fd5b5051919050565b634e487b7160e01b600052601160045260246000fd5b60008282101561156057611560611538565b500390565b600081600019048311821515161561157f5761157f611538565b500290565b6000826115a157634e487b7160e01b600052601260045260246000fd5b500490565b600082198211156115b9576115b9611538565b50019056fea26469706673582212203a22fc23b0a67fc47629b8ecae3cf53567d9cb0af2cad4f90d254f65bd2d48cc64736f6c634300080f0033",
    "linkReferences": {}
  },
  "methodIdentifiers": {
    "acceptOwnership()": "79ba5097",
    "balanceOf(address)": "70a08231",
    "earned(address)": "008cc262",
    "exit()": "e9fad8ee",
    "getReward()": "3d18b912",
    "getRewardForDuration()": "1c1f78eb",
    "id()": "af640d0f",
    "lastTimeRewardApplicable()": "80faa57d",
    "lastUpdateTime()": "c8f33c91",
    "nominateNewOwner(address)": "1627540c",
    "nominatedOwner()": "53a47bb7",
    "notifyRewardAmount(uint256)": "3c6b16ab",
    "onERC1155BatchReceived(address,address,uint256[],uint256[],bytes)": "bc197c81",
    "onERC1155Received(address,address,uint256,uint256,bytes)": "f23a6e61",
    "owner()": "8da5cb5b",
    "paused()": "5c975abb",
    "periodFinish()": "ebe2b12b",
    "recoverERC20(address,uint256)": "8980f11f",
    "rewardPerToken()": "cd3daf9d",
    "rewardPerTokenStored()": "df136d65",
    "rewardRate()": "7b0a47ee",
    "rewards(address)": "0700037d",
    "rewardsDistribution()": "3fc6df6e",
    "rewardsDuration()": "386a9525",
    "rewardsToken()": "d1af0c7d",
    "setRewardsDistribution(address)": "19762143",
    "setRewardsDuration(uint256)": "cc1a378f",
    "stake(uint256)": "a694fc3a",
    "stakingToken()": "72f702f3",
    "supportsInterface(bytes4)": "01ffc9a7",
    "totalSupply()": "18160ddd",
    "userRewardPerTokenPaid(address)": "8b876347",
    "withdraw(uint256)": "2e1a7d4d"
  },
  "id": 39
}